{
  "_format": "hh-sol-artifact-1",
  "contractName": "GovernanceToken",
  "sourceName": "contracts/governance/GovernanceToken.sol",
  "abi": [
    {
      "inputs": [],
      "stateMutability": "nonpayable",
      "type": "constructor"
    },
    {
      "anonymous": false,
      "inputs": [
        {
          "indexed": true,
          "internalType": "address",
          "name": "owner",
          "type": "address"
        },
        {
          "indexed": true,
          "internalType": "address",
          "name": "spender",
          "type": "address"
        },
        {
          "indexed": false,
          "internalType": "uint256",
          "name": "value",
          "type": "uint256"
        }
      ],
      "name": "Approval",
      "type": "event"
    },
    {
      "anonymous": false,
      "inputs": [
        {
          "indexed": true,
          "internalType": "address",
          "name": "delegator",
          "type": "address"
        },
        {
          "indexed": true,
          "internalType": "address",
          "name": "fromDelegate",
          "type": "address"
        },
        {
          "indexed": true,
          "internalType": "address",
          "name": "toDelegate",
          "type": "address"
        }
      ],
      "name": "DelegateChanged",
      "type": "event"
    },
    {
      "anonymous": false,
      "inputs": [
        {
          "indexed": true,
          "internalType": "address",
          "name": "delegate",
          "type": "address"
        },
        {
          "indexed": false,
          "internalType": "uint256",
          "name": "previousBalance",
          "type": "uint256"
        },
        {
          "indexed": false,
          "internalType": "uint256",
          "name": "newBalance",
          "type": "uint256"
        }
      ],
      "name": "DelegateVotesChanged",
      "type": "event"
    },
    {
      "anonymous": false,
      "inputs": [
        {
          "indexed": true,
          "internalType": "bytes32",
          "name": "role",
          "type": "bytes32"
        },
        {
          "indexed": true,
          "internalType": "bytes32",
          "name": "previousAdminRole",
          "type": "bytes32"
        },
        {
          "indexed": true,
          "internalType": "bytes32",
          "name": "newAdminRole",
          "type": "bytes32"
        }
      ],
      "name": "RoleAdminChanged",
      "type": "event"
    },
    {
      "anonymous": false,
      "inputs": [
        {
          "indexed": true,
          "internalType": "bytes32",
          "name": "role",
          "type": "bytes32"
        },
        {
          "indexed": true,
          "internalType": "address",
          "name": "account",
          "type": "address"
        },
        {
          "indexed": true,
          "internalType": "address",
          "name": "sender",
          "type": "address"
        }
      ],
      "name": "RoleGranted",
      "type": "event"
    },
    {
      "anonymous": false,
      "inputs": [
        {
          "indexed": true,
          "internalType": "bytes32",
          "name": "role",
          "type": "bytes32"
        },
        {
          "indexed": true,
          "internalType": "address",
          "name": "account",
          "type": "address"
        },
        {
          "indexed": true,
          "internalType": "address",
          "name": "sender",
          "type": "address"
        }
      ],
      "name": "RoleRevoked",
      "type": "event"
    },
    {
      "anonymous": false,
      "inputs": [
        {
          "indexed": true,
          "internalType": "address",
          "name": "from",
          "type": "address"
        },
        {
          "indexed": true,
          "internalType": "address",
          "name": "to",
          "type": "address"
        },
        {
          "indexed": false,
          "internalType": "uint256",
          "name": "value",
          "type": "uint256"
        }
      ],
      "name": "Transfer",
      "type": "event"
    },
    {
      "inputs": [],
      "name": "DEFAULT_ADMIN_ROLE",
      "outputs": [
        {
          "internalType": "bytes32",
          "name": "",
          "type": "bytes32"
        }
      ],
      "stateMutability": "view",
      "type": "function"
    },
    {
      "inputs": [],
      "name": "DOMAIN_SEPARATOR",
      "outputs": [
        {
          "internalType": "bytes32",
          "name": "",
          "type": "bytes32"
        }
      ],
      "stateMutability": "view",
      "type": "function"
    },
    {
      "inputs": [],
      "name": "_mintToken",
      "outputs": [],
      "stateMutability": "nonpayable",
      "type": "function"
    },
    {
      "inputs": [
        {
          "internalType": "address",
          "name": "owner",
          "type": "address"
        },
        {
          "internalType": "address",
          "name": "spender",
          "type": "address"
        }
      ],
      "name": "allowance",
      "outputs": [
        {
          "internalType": "uint256",
          "name": "",
          "type": "uint256"
        }
      ],
      "stateMutability": "view",
      "type": "function"
    },
    {
      "inputs": [
        {
          "internalType": "address",
          "name": "spender",
          "type": "address"
        },
        {
          "internalType": "uint256",
          "name": "amount",
          "type": "uint256"
        }
      ],
      "name": "approve",
      "outputs": [
        {
          "internalType": "bool",
          "name": "",
          "type": "bool"
        }
      ],
      "stateMutability": "nonpayable",
      "type": "function"
    },
    {
      "inputs": [
        {
          "internalType": "address",
          "name": "account",
          "type": "address"
        }
      ],
      "name": "balanceOf",
      "outputs": [
        {
          "internalType": "uint256",
          "name": "",
          "type": "uint256"
        }
      ],
      "stateMutability": "view",
      "type": "function"
    },
    {
      "inputs": [
        {
          "internalType": "address",
          "name": "account",
          "type": "address"
        },
        {
          "internalType": "uint32",
          "name": "pos",
          "type": "uint32"
        }
      ],
      "name": "checkpoints",
      "outputs": [
        {
          "components": [
            {
              "internalType": "uint32",
              "name": "fromBlock",
              "type": "uint32"
            },
            {
              "internalType": "uint224",
              "name": "votes",
              "type": "uint224"
            }
          ],
          "internalType": "struct ERC20Votes.Checkpoint",
          "name": "",
          "type": "tuple"
        }
      ],
      "stateMutability": "view",
      "type": "function"
    },
    {
      "inputs": [],
      "name": "decimals",
      "outputs": [
        {
          "internalType": "uint8",
          "name": "",
          "type": "uint8"
        }
      ],
      "stateMutability": "view",
      "type": "function"
    },
    {
      "inputs": [
        {
          "internalType": "address",
          "name": "spender",
          "type": "address"
        },
        {
          "internalType": "uint256",
          "name": "subtractedValue",
          "type": "uint256"
        }
      ],
      "name": "decreaseAllowance",
      "outputs": [
        {
          "internalType": "bool",
          "name": "",
          "type": "bool"
        }
      ],
      "stateMutability": "nonpayable",
      "type": "function"
    },
    {
      "inputs": [
        {
          "internalType": "address",
          "name": "delegatee",
          "type": "address"
        }
      ],
      "name": "delegate",
      "outputs": [],
      "stateMutability": "nonpayable",
      "type": "function"
    },
    {
      "inputs": [
        {
          "internalType": "address",
          "name": "delegatee",
          "type": "address"
        },
        {
          "internalType": "uint256",
          "name": "nonce",
          "type": "uint256"
        },
        {
          "internalType": "uint256",
          "name": "expiry",
          "type": "uint256"
        },
        {
          "internalType": "uint8",
          "name": "v",
          "type": "uint8"
        },
        {
          "internalType": "bytes32",
          "name": "r",
          "type": "bytes32"
        },
        {
          "internalType": "bytes32",
          "name": "s",
          "type": "bytes32"
        }
      ],
      "name": "delegateBySig",
      "outputs": [],
      "stateMutability": "nonpayable",
      "type": "function"
    },
    {
      "inputs": [
        {
          "internalType": "address",
          "name": "account",
          "type": "address"
        }
      ],
      "name": "delegates",
      "outputs": [
        {
          "internalType": "address",
          "name": "",
          "type": "address"
        }
      ],
      "stateMutability": "view",
      "type": "function"
    },
    {
      "inputs": [
        {
          "internalType": "uint256",
          "name": "blockNumber",
          "type": "uint256"
        }
      ],
      "name": "getPastTotalSupply",
      "outputs": [
        {
          "internalType": "uint256",
          "name": "",
          "type": "uint256"
        }
      ],
      "stateMutability": "view",
      "type": "function"
    },
    {
      "inputs": [
        {
          "internalType": "address",
          "name": "account",
          "type": "address"
        },
        {
          "internalType": "uint256",
          "name": "blockNumber",
          "type": "uint256"
        }
      ],
      "name": "getPastVotes",
      "outputs": [
        {
          "internalType": "uint256",
          "name": "",
          "type": "uint256"
        }
      ],
      "stateMutability": "view",
      "type": "function"
    },
    {
      "inputs": [
        {
          "internalType": "bytes32",
          "name": "role",
          "type": "bytes32"
        }
      ],
      "name": "getRoleAdmin",
      "outputs": [
        {
          "internalType": "bytes32",
          "name": "",
          "type": "bytes32"
        }
      ],
      "stateMutability": "view",
      "type": "function"
    },
    {
      "inputs": [
        {
          "internalType": "address",
          "name": "account",
          "type": "address"
        }
      ],
      "name": "getVotes",
      "outputs": [
        {
          "internalType": "uint256",
          "name": "",
          "type": "uint256"
        }
      ],
      "stateMutability": "view",
      "type": "function"
    },
    {
      "inputs": [
        {
          "internalType": "bytes32",
          "name": "role",
          "type": "bytes32"
        },
        {
          "internalType": "address",
          "name": "account",
          "type": "address"
        }
      ],
      "name": "grantRole",
      "outputs": [],
      "stateMutability": "nonpayable",
      "type": "function"
    },
    {
      "inputs": [
        {
          "internalType": "bytes32",
          "name": "role",
          "type": "bytes32"
        },
        {
          "internalType": "address",
          "name": "account",
          "type": "address"
        }
      ],
      "name": "hasRole",
      "outputs": [
        {
          "internalType": "bool",
          "name": "",
          "type": "bool"
        }
      ],
      "stateMutability": "view",
      "type": "function"
    },
    {
      "inputs": [
        {
          "internalType": "address",
          "name": "spender",
          "type": "address"
        },
        {
          "internalType": "uint256",
          "name": "addedValue",
          "type": "uint256"
        }
      ],
      "name": "increaseAllowance",
      "outputs": [
        {
          "internalType": "bool",
          "name": "",
          "type": "bool"
        }
      ],
      "stateMutability": "nonpayable",
      "type": "function"
    },
    {
      "inputs": [],
      "name": "name",
      "outputs": [
        {
          "internalType": "string",
          "name": "",
          "type": "string"
        }
      ],
      "stateMutability": "view",
      "type": "function"
    },
    {
      "inputs": [
        {
          "internalType": "address",
          "name": "owner",
          "type": "address"
        }
      ],
      "name": "nonces",
      "outputs": [
        {
          "internalType": "uint256",
          "name": "",
          "type": "uint256"
        }
      ],
      "stateMutability": "view",
      "type": "function"
    },
    {
      "inputs": [
        {
          "internalType": "address",
          "name": "account",
          "type": "address"
        }
      ],
      "name": "numCheckpoints",
      "outputs": [
        {
          "internalType": "uint32",
          "name": "",
          "type": "uint32"
        }
      ],
      "stateMutability": "view",
      "type": "function"
    },
    {
      "inputs": [
        {
          "internalType": "address",
          "name": "owner",
          "type": "address"
        },
        {
          "internalType": "address",
          "name": "spender",
          "type": "address"
        },
        {
          "internalType": "uint256",
          "name": "value",
          "type": "uint256"
        },
        {
          "internalType": "uint256",
          "name": "deadline",
          "type": "uint256"
        },
        {
          "internalType": "uint8",
          "name": "v",
          "type": "uint8"
        },
        {
          "internalType": "bytes32",
          "name": "r",
          "type": "bytes32"
        },
        {
          "internalType": "bytes32",
          "name": "s",
          "type": "bytes32"
        }
      ],
      "name": "permit",
      "outputs": [],
      "stateMutability": "nonpayable",
      "type": "function"
    },
    {
      "inputs": [
        {
          "internalType": "bytes32",
          "name": "role",
          "type": "bytes32"
        },
        {
          "internalType": "address",
          "name": "account",
          "type": "address"
        }
      ],
      "name": "renounceRole",
      "outputs": [],
      "stateMutability": "nonpayable",
      "type": "function"
    },
    {
      "inputs": [
        {
          "internalType": "bytes32",
          "name": "role",
          "type": "bytes32"
        },
        {
          "internalType": "address",
          "name": "account",
          "type": "address"
        }
      ],
      "name": "revokeRole",
      "outputs": [],
      "stateMutability": "nonpayable",
      "type": "function"
    },
    {
      "inputs": [],
      "name": "s_maxSupply",
      "outputs": [
        {
          "internalType": "uint256",
          "name": "",
          "type": "uint256"
        }
      ],
      "stateMutability": "view",
      "type": "function"
    },
    {
      "inputs": [
        {
          "internalType": "bytes4",
          "name": "interfaceId",
          "type": "bytes4"
        }
      ],
      "name": "supportsInterface",
      "outputs": [
        {
          "internalType": "bool",
          "name": "",
          "type": "bool"
        }
      ],
      "stateMutability": "view",
      "type": "function"
    },
    {
      "inputs": [],
      "name": "symbol",
      "outputs": [
        {
          "internalType": "string",
          "name": "",
          "type": "string"
        }
      ],
      "stateMutability": "view",
      "type": "function"
    },
    {
      "inputs": [],
      "name": "totalSupply",
      "outputs": [
        {
          "internalType": "uint256",
          "name": "",
          "type": "uint256"
        }
      ],
      "stateMutability": "view",
      "type": "function"
    },
    {
      "inputs": [
        {
          "internalType": "address",
          "name": "to",
          "type": "address"
        },
        {
          "internalType": "uint256",
          "name": "amount",
          "type": "uint256"
        }
      ],
      "name": "transfer",
      "outputs": [
        {
          "internalType": "bool",
          "name": "",
          "type": "bool"
        }
      ],
      "stateMutability": "nonpayable",
      "type": "function"
    },
    {
      "inputs": [
        {
          "internalType": "address",
          "name": "from",
          "type": "address"
        },
        {
          "internalType": "address",
          "name": "to",
          "type": "address"
        },
        {
          "internalType": "uint256",
          "name": "amount",
          "type": "uint256"
        }
      ],
      "name": "transferFrom",
      "outputs": [
        {
          "internalType": "bool",
          "name": "",
          "type": "bool"
        }
      ],
      "stateMutability": "nonpayable",
      "type": "function"
    }
  ],
  "bytecode": "0x610140604052600b80546001600160a01b031916738e8b30861a8a35cd9254ff1ccf3d458f4e2162711790553480156200003857600080fd5b506040518060400160405280600f81526020016e23b7bb32b93730b731b2aa37b5b2b760891b81525080604051806040016040528060018152602001603160f81b8152506040518060400160405280600f81526020016e23b7bb32b93730b731b2aa37b5b2b760891b8152506040518060400160405280600281526020016111d560f21b8152508160039080519060200190620000d792919062000189565b508051620000ed90600490602084019062000189565b5050825160208085019190912083518483012060e08290526101008190524660a0818152604080517f8b73c3c69bb8fe3d512ecc4cf759cc79239f7b179b0ffacaa9a75d522b39400f81880181905281830187905260608201869052608082019490945230818401528151808203909301835260c0019052805194019390932091935091906080523060c05261012052506200026c9350505050565b82805462000197906200022f565b90600052602060002090601f016020900481019282620001bb576000855562000206565b82601f10620001d657805160ff191683800117855562000206565b8280016001018555821562000206579182015b8281111562000206578251825591602001919060010190620001e9565b506200021492915062000218565b5090565b5b8082111562000214576000815560010162000219565b600181811c908216806200024457607f821691505b602082108114156200026657634e487b7160e01b600052602260045260246000fd5b50919050565b60805160a05160c05160e051610100516101205161235e620002bc60003960006111e2015260006112310152600061120c015260006111650152600061118f015260006111b9015261235e6000f3fe608060405234801561001057600080fd5b50600436106101e55760003560e01c80635d6418471161010f578063a217fddf116100a2578063d505accf11610071578063d505accf14610434578063d547741f14610447578063dd62ed3e1461045a578063f1127ed81461046d57600080fd5b8063a217fddf146103f3578063a457c2d7146103fb578063a9059cbb1461040e578063c3cda5201461042157600080fd5b80638e539e8c116100de5780638e539e8c146103b257806391d14854146103c557806395d89b41146103d85780639ab24eb0146103e057600080fd5b80635d641847146103465780636fcfff451461034e57806370a08231146103765780637ecebe001461039f57600080fd5b8063313ce567116101875780633a46b1a8116101565780633a46b1a8146102d457806342372e10146102e7578063587cde1e146102ef5780635c19a95c1461033357600080fd5b8063313ce567146102975780633644e515146102a657806336568abe146102ae57806339509351146102c157600080fd5b806318160ddd116101c357806318160ddd1461023a57806323b872dd1461024c578063248a9ca31461025f5780632f2ff15d1461028257600080fd5b806301ffc9a7146101ea57806306fdde0314610212578063095ea7b314610227575b600080fd5b6101fd6101f8366004611ed5565b6104aa565b60405190151581526020015b60405180910390f35b61021a6104e1565b6040516102099190611f2b565b6101fd610235366004611f7a565b610573565b6002545b604051908152602001610209565b6101fd61025a366004611fa4565b61058b565b61023e61026d366004611fe0565b6000908152600a602052604090206001015490565b610295610290366004611ff9565b6105af565b005b60405160128152602001610209565b61023e6105d9565b6102956102bc366004611ff9565b6105e8565b6101fd6102cf366004611f7a565b61066b565b61023e6102e2366004611f7a565b61068d565b610295610707565b61031b6102fd366004612025565b6001600160a01b039081166000908152600760205260409020541690565b6040516001600160a01b039091168152602001610209565b610295610341366004612025565b6107f5565b61023e600181565b61036161035c366004612025565b610802565b60405163ffffffff9091168152602001610209565b61023e610384366004612025565b6001600160a01b031660009081526020819052604090205490565b61023e6103ad366004612025565b610824565b61023e6103c0366004611fe0565b610842565b6101fd6103d3366004611ff9565b61089e565b61021a6108c9565b61023e6103ee366004612025565b6108d8565b61023e600081565b6101fd610409366004611f7a565b61095f565b6101fd61041c366004611f7a565b6109da565b61029561042f366004612051565b6109e8565b6102956104423660046120a9565b610b1e565b610295610455366004611ff9565b610c82565b61023e610468366004612113565b610ca7565b61048061047b36600461213d565b610cd2565b60408051825163ffffffff1681526020928301516001600160e01b03169281019290925201610209565b60006001600160e01b03198216637965db0b60e01b14806104db57506301ffc9a760e01b6001600160e01b03198316145b92915050565b6060600380546104f09061217d565b80601f016020809104026020016040519081016040528092919081815260200182805461051c9061217d565b80156105695780601f1061053e57610100808354040283529160200191610569565b820191906000526020600020905b81548152906001019060200180831161054c57829003601f168201915b5050505050905090565b600033610581818585610d56565b5060019392505050565b600033610599858285610e7a565b6105a4858585610ef4565b506001949350505050565b6000828152600a60205260409020600101546105ca816110c8565b6105d483836110d2565b505050565b60006105e3611158565b905090565b6001600160a01b038116331461065d5760405162461bcd60e51b815260206004820152602f60248201527f416363657373436f6e74726f6c3a2063616e206f6e6c792072656e6f756e636560448201526e103937b632b9903337b91039b2b63360891b60648201526084015b60405180910390fd5b610667828261127f565b5050565b60003361058181858561067e8383610ca7565b61068891906121c8565b610d56565b60004382106106de5760405162461bcd60e51b815260206004820152601f60248201527f4552433230566f7465733a20626c6f636b206e6f7420796574206d696e6564006044820152606401610654565b6001600160a01b038316600090815260086020526040902061070090836112e6565b9392505050565b600b5460405163d0d0062760e01b81523360048201526001600160a01b039091169063d0d006279060240160206040518083038186803b15801561074a57600080fd5b505afa15801561075e573d6000803e3d6000fd5b505050506040513d601f19601f8201168201806040525081019061078291906121e0565b15156001146107df5760405162461bcd60e51b8152602060048201526024808201527f4552524f523a2043616c6c6572206973206e6f74206120426f617264204d656d6044820152636265722160e01b6064820152608401610654565b6107ea3360016113a3565b6107f3336107f5565b565b6107ff33826113ad565b50565b6001600160a01b0381166000908152600860205260408120546104db90611426565b6001600160a01b0381166000908152600560205260408120546104db565b60004382106108935760405162461bcd60e51b815260206004820152601f60248201527f4552433230566f7465733a20626c6f636b206e6f7420796574206d696e6564006044820152606401610654565b6104db6009836112e6565b6000918252600a602090815260408084206001600160a01b0393909316845291905290205460ff1690565b6060600480546104f09061217d565b6001600160a01b038116600090815260086020526040812054801561094c576001600160a01b038316600090815260086020526040902061091a600183612202565b8154811061092a5761092a612219565b60009182526020909120015464010000000090046001600160e01b031661094f565b60005b6001600160e01b03169392505050565b6000338161096d8286610ca7565b9050838110156109cd5760405162461bcd60e51b815260206004820152602560248201527f45524332303a2064656372656173656420616c6c6f77616e63652062656c6f77604482015264207a65726f60d81b6064820152608401610654565b6105a48286868403610d56565b600033610581818585610ef4565b83421115610a385760405162461bcd60e51b815260206004820152601d60248201527f4552433230566f7465733a207369676e617475726520657870697265640000006044820152606401610654565b604080517fe48329057bfd03d55e49b547132e39cffd9c1820ad7b9d4c5307691425d15adf60208201526001600160a01b038816918101919091526060810186905260808101859052600090610ab290610aaa9060a0016040516020818303038152906040528051906020012061148f565b8585856114dd565b9050610abd81611505565b8614610b0b5760405162461bcd60e51b815260206004820152601960248201527f4552433230566f7465733a20696e76616c6964206e6f6e6365000000000000006044820152606401610654565b610b1581886113ad565b50505050505050565b83421115610b6e5760405162461bcd60e51b815260206004820152601d60248201527f45524332305065726d69743a206578706972656420646561646c696e650000006044820152606401610654565b60007f6e71edae12b1b97f4d1f60370fef10105fa2faae0126114a169c64845d6126c9888888610b9d8c611505565b6040805160208101969096526001600160a01b0394851690860152929091166060840152608083015260a082015260c0810186905260e0016040516020818303038152906040528051906020012090506000610bf88261148f565b90506000610c08828787876114dd565b9050896001600160a01b0316816001600160a01b031614610c6b5760405162461bcd60e51b815260206004820152601e60248201527f45524332305065726d69743a20696e76616c6964207369676e617475726500006044820152606401610654565b610c768a8a8a610d56565b50505050505050505050565b6000828152600a6020526040902060010154610c9d816110c8565b6105d4838361127f565b6001600160a01b03918216600090815260016020908152604080832093909416825291909152205490565b60408051808201909152600080825260208201526001600160a01b0383166000908152600860205260409020805463ffffffff8416908110610d1657610d16612219565b60009182526020918290206040805180820190915291015463ffffffff8116825264010000000090046001600160e01b0316918101919091529392505050565b6001600160a01b038316610db85760405162461bcd60e51b8152602060048201526024808201527f45524332303a20617070726f76652066726f6d20746865207a65726f206164646044820152637265737360e01b6064820152608401610654565b6001600160a01b038216610e195760405162461bcd60e51b815260206004820152602260248201527f45524332303a20617070726f766520746f20746865207a65726f206164647265604482015261737360f01b6064820152608401610654565b6001600160a01b0383811660008181526001602090815260408083209487168084529482529182902085905590518481527f8c5be1e5ebec7d5bd14f71427d1e84f3dd0314c0f7b2291e5b200ac8c7c3b925910160405180910390a3505050565b6000610e868484610ca7565b90506000198114610eee5781811015610ee15760405162461bcd60e51b815260206004820152601d60248201527f45524332303a20696e73756666696369656e7420616c6c6f77616e63650000006044820152606401610654565b610eee8484848403610d56565b50505050565b6001600160a01b038316610f585760405162461bcd60e51b815260206004820152602560248201527f45524332303a207472616e736665722066726f6d20746865207a65726f206164604482015264647265737360d81b6064820152608401610654565b6001600160a01b038216610fba5760405162461bcd60e51b815260206004820152602360248201527f45524332303a207472616e7366657220746f20746865207a65726f206164647260448201526265737360e81b6064820152608401610654565b6001600160a01b038316600090815260208190526040902054818110156110325760405162461bcd60e51b815260206004820152602660248201527f45524332303a207472616e7366657220616d6f756e7420657863656564732062604482015265616c616e636560d01b6064820152608401610654565b6001600160a01b038085166000908152602081905260408082208585039055918516815290812080548492906110699084906121c8565b92505081905550826001600160a01b0316846001600160a01b03167fddf252ad1be2c89b69c2b068fc378daa952ba7f163c4a11628f55a4df523b3ef846040516110b591815260200190565b60405180910390a3610eee84848461152d565b6107ff8133611538565b6110dc828261089e565b610667576000828152600a602090815260408083206001600160a01b03851684529091529020805460ff191660011790556111143390565b6001600160a01b0316816001600160a01b0316837f2f8788117e7eff1d82e926ec794901d17c78024a50270940304540a733656f0d60405160405180910390a45050565b6000306001600160a01b037f0000000000000000000000000000000000000000000000000000000000000000161480156111b157507f000000000000000000000000000000000000000000000000000000000000000046145b156111db57507f000000000000000000000000000000000000000000000000000000000000000090565b50604080517f00000000000000000000000000000000000000000000000000000000000000006020808301919091527f0000000000000000000000000000000000000000000000000000000000000000828401527f000000000000000000000000000000000000000000000000000000000000000060608301524660808301523060a0808401919091528351808403909101815260c0909201909252805191012090565b611289828261089e565b15610667576000828152600a602090815260408083206001600160a01b0385168085529252808320805460ff1916905551339285917ff6391f5c32d9c69d2a47ea670b442974b53935d1edc7fd64eb21e047a839171b9190a45050565b8154600090815b8181101561134a576000611301828461159c565b90508486828154811061131657611316612219565b60009182526020909120015463ffffffff16111561133657809250611344565b6113418160016121c8565b91505b506112ed565b811561138e578461135c600184612202565b8154811061136c5761136c612219565b60009182526020909120015464010000000090046001600160e01b0316611391565b60005b6001600160e01b031695945050505050565b61066782826115b7565b6001600160a01b038281166000818152600760208181526040808420805485845282862054949093528787166001600160a01b03198416811790915590519190951694919391928592917f3134e8a2e6d97e929a7e54011ea5485d7d196dd5f0ba4d4ef95803e8e3fc257f9190a4610eee828483611641565b600063ffffffff82111561148b5760405162461bcd60e51b815260206004820152602660248201527f53616665436173743a2076616c756520646f65736e27742066697420696e203360448201526532206269747360d01b6064820152608401610654565b5090565b60006104db61149c611158565b8360405161190160f01b6020820152602281018390526042810182905260009060620160405160208183030381529060405280519060200120905092915050565b60008060006114ee8787878761177e565b915091506114fb8161186b565b5095945050505050565b6001600160a01b03811660009081526005602052604090208054600181018255905b50919050565b6105d4838383611a26565b611542828261089e565b6106675761155a816001600160a01b03166014611a58565b611565836020611a58565b60405160200161157692919061222f565b60408051601f198184030181529082905262461bcd60e51b825261065491600401611f2b565b60006115ab60028484186122a4565b610700908484166121c8565b6115c18282611bf4565b6002546001600160e01b0310156116335760405162461bcd60e51b815260206004820152603060248201527f4552433230566f7465733a20746f74616c20737570706c79207269736b73206f60448201526f766572666c6f77696e6720766f74657360801b6064820152608401610654565b610eee6009611cdb83611ce7565b816001600160a01b0316836001600160a01b0316141580156116635750600081115b156105d4576001600160a01b038316156116f1576001600160a01b0383166000908152600860205260408120819061169e90611e6085611ce7565b91509150846001600160a01b03167fdec2bacdd2f05b59de34da9b523dff8be42e5e38e818c82fdb0bae774387a72483836040516116e6929190918252602082015260400190565b60405180910390a250505b6001600160a01b038216156105d4576001600160a01b0382166000908152600860205260408120819061172790611cdb85611ce7565b91509150836001600160a01b03167fdec2bacdd2f05b59de34da9b523dff8be42e5e38e818c82fdb0bae774387a724838360405161176f929190918252602082015260400190565b60405180910390a25050505050565b6000807f7fffffffffffffffffffffffffffffff5d576e7357a4501ddfe92f46681b20a08311156117b55750600090506003611862565b8460ff16601b141580156117cd57508460ff16601c14155b156117de5750600090506004611862565b6040805160008082526020820180845289905260ff881692820192909252606081018690526080810185905260019060a0016020604051602081039080840390855afa158015611832573d6000803e3d6000fd5b5050604051601f1901519150506001600160a01b03811661185b57600060019250925050611862565b9150600090505b94509492505050565b600081600481111561187f5761187f6122c6565b14156118885750565b600181600481111561189c5761189c6122c6565b14156118ea5760405162461bcd60e51b815260206004820152601860248201527f45434453413a20696e76616c6964207369676e617475726500000000000000006044820152606401610654565b60028160048111156118fe576118fe6122c6565b141561194c5760405162461bcd60e51b815260206004820152601f60248201527f45434453413a20696e76616c6964207369676e6174757265206c656e677468006044820152606401610654565b6003816004811115611960576119606122c6565b14156119b95760405162461bcd60e51b815260206004820152602260248201527f45434453413a20696e76616c6964207369676e6174757265202773272076616c604482015261756560f01b6064820152608401610654565b60048160048111156119cd576119cd6122c6565b14156107ff5760405162461bcd60e51b815260206004820152602260248201527f45434453413a20696e76616c6964207369676e6174757265202776272076616c604482015261756560f01b6064820152608401610654565b6001600160a01b038381166000908152600760205260408082205485841683529120546105d492918216911683611641565b60606000611a678360026122dc565b611a729060026121c8565b67ffffffffffffffff811115611a8a57611a8a6122fb565b6040519080825280601f01601f191660200182016040528015611ab4576020820181803683370190505b509050600360fc1b81600081518110611acf57611acf612219565b60200101906001600160f81b031916908160001a905350600f60fb1b81600181518110611afe57611afe612219565b60200101906001600160f81b031916908160001a9053506000611b228460026122dc565b611b2d9060016121c8565b90505b6001811115611ba5576f181899199a1a9b1b9c1cb0b131b232b360811b85600f1660108110611b6157611b61612219565b1a60f81b828281518110611b7757611b77612219565b60200101906001600160f81b031916908160001a90535060049490941c93611b9e81612311565b9050611b30565b5083156107005760405162461bcd60e51b815260206004820181905260248201527f537472696e67733a20686578206c656e67746820696e73756666696369656e746044820152606401610654565b6001600160a01b038216611c4a5760405162461bcd60e51b815260206004820152601f60248201527f45524332303a206d696e7420746f20746865207a65726f2061646472657373006044820152606401610654565b8060026000828254611c5c91906121c8565b90915550506001600160a01b03821660009081526020819052604081208054839290611c899084906121c8565b90915550506040518181526001600160a01b038316906000907fddf252ad1be2c89b69c2b068fc378daa952ba7f163c4a11628f55a4df523b3ef9060200160405180910390a36106676000838361152d565b600061070082846121c8565b825460009081908015611d325785611d00600183612202565b81548110611d1057611d10612219565b60009182526020909120015464010000000090046001600160e01b0316611d35565b60005b6001600160e01b03169250611d4e83858763ffffffff16565b9150600081118015611d8c57504386611d68600184612202565b81548110611d7857611d78612219565b60009182526020909120015463ffffffff16145b15611dec57611d9a82611e6c565b86611da6600184612202565b81548110611db657611db6612219565b9060005260206000200160000160046101000a8154816001600160e01b0302191690836001600160e01b03160217905550611e57565b856040518060400160405280611e0143611426565b63ffffffff168152602001611e1585611e6c565b6001600160e01b0390811690915282546001810184556000938452602093849020835194909301519091166401000000000263ffffffff909316929092179101555b50935093915050565b60006107008284612202565b60006001600160e01b0382111561148b5760405162461bcd60e51b815260206004820152602760248201527f53616665436173743a2076616c756520646f65736e27742066697420696e20326044820152663234206269747360c81b6064820152608401610654565b600060208284031215611ee757600080fd5b81356001600160e01b03198116811461070057600080fd5b60005b83811015611f1a578181015183820152602001611f02565b83811115610eee5750506000910152565b6020815260008251806020840152611f4a816040850160208701611eff565b601f01601f19169190910160400192915050565b80356001600160a01b0381168114611f7557600080fd5b919050565b60008060408385031215611f8d57600080fd5b611f9683611f5e565b946020939093013593505050565b600080600060608486031215611fb957600080fd5b611fc284611f5e565b9250611fd060208501611f5e565b9150604084013590509250925092565b600060208284031215611ff257600080fd5b5035919050565b6000806040838503121561200c57600080fd5b8235915061201c60208401611f5e565b90509250929050565b60006020828403121561203757600080fd5b61070082611f5e565b803560ff81168114611f7557600080fd5b60008060008060008060c0878903121561206a57600080fd5b61207387611f5e565b9550602087013594506040870135935061208f60608801612040565b92506080870135915060a087013590509295509295509295565b600080600080600080600060e0888a0312156120c457600080fd5b6120cd88611f5e565b96506120db60208901611f5e565b955060408801359450606088013593506120f760808901612040565b925060a0880135915060c0880135905092959891949750929550565b6000806040838503121561212657600080fd5b61212f83611f5e565b915061201c60208401611f5e565b6000806040838503121561215057600080fd5b61215983611f5e565b9150602083013563ffffffff8116811461217257600080fd5b809150509250929050565b600181811c9082168061219157607f821691505b6020821081141561152757634e487b7160e01b600052602260045260246000fd5b634e487b7160e01b600052601160045260246000fd5b600082198211156121db576121db6121b2565b500190565b6000602082840312156121f257600080fd5b8151801515811461070057600080fd5b600082821015612214576122146121b2565b500390565b634e487b7160e01b600052603260045260246000fd5b7f416363657373436f6e74726f6c3a206163636f756e7420000000000000000000815260008351612267816017850160208801611eff565b7001034b99036b4b9b9b4b733903937b6329607d1b6017918401918201528351612298816028840160208801611eff565b01602801949350505050565b6000826122c157634e487b7160e01b600052601260045260246000fd5b500490565b634e487b7160e01b600052602160045260246000fd5b60008160001904831182151516156122f6576122f66121b2565b500290565b634e487b7160e01b600052604160045260246000fd5b600081612320576123206121b2565b50600019019056fea26469706673582212203d56bd8f06b968a4abbde38ea774fda0859e99a1ad64c0859e85a61758cff41764736f6c63430008090033",
  "linkReferences": {},
  "deployedLinkReferences": {}
}