{
  "_format": "hh-sol-artifact-1",
  "contractName": "GovernanceToken",
  "sourceName": "contracts/governance/GovernanceToken.sol",
  "abi": [
    {
      "inputs": [],
      "stateMutability": "nonpayable",
      "type": "constructor"
    },
    {
      "anonymous": false,
      "inputs": [
        {
          "indexed": true,
          "internalType": "address",
          "name": "owner",
          "type": "address"
        },
        {
          "indexed": true,
          "internalType": "address",
          "name": "spender",
          "type": "address"
        },
        {
          "indexed": false,
          "internalType": "uint256",
          "name": "value",
          "type": "uint256"
        }
      ],
      "name": "Approval",
      "type": "event"
    },
    {
      "anonymous": false,
      "inputs": [
        {
          "indexed": true,
          "internalType": "address",
          "name": "delegator",
          "type": "address"
        },
        {
          "indexed": true,
          "internalType": "address",
          "name": "fromDelegate",
          "type": "address"
        },
        {
          "indexed": true,
          "internalType": "address",
          "name": "toDelegate",
          "type": "address"
        }
      ],
      "name": "DelegateChanged",
      "type": "event"
    },
    {
      "anonymous": false,
      "inputs": [
        {
          "indexed": true,
          "internalType": "address",
          "name": "delegate",
          "type": "address"
        },
        {
          "indexed": false,
          "internalType": "uint256",
          "name": "previousBalance",
          "type": "uint256"
        },
        {
          "indexed": false,
          "internalType": "uint256",
          "name": "newBalance",
          "type": "uint256"
        }
      ],
      "name": "DelegateVotesChanged",
      "type": "event"
    },
    {
      "anonymous": false,
      "inputs": [
        {
          "indexed": true,
          "internalType": "address",
          "name": "from",
          "type": "address"
        },
        {
          "indexed": true,
          "internalType": "address",
          "name": "to",
          "type": "address"
        },
        {
          "indexed": false,
          "internalType": "uint256",
          "name": "value",
          "type": "uint256"
        }
      ],
      "name": "Transfer",
      "type": "event"
    },
    {
      "inputs": [],
      "name": "DOMAIN_SEPARATOR",
      "outputs": [
        {
          "internalType": "bytes32",
          "name": "",
          "type": "bytes32"
        }
      ],
      "stateMutability": "view",
      "type": "function"
    },
    {
      "inputs": [],
      "name": "_mintToken",
      "outputs": [],
      "stateMutability": "nonpayable",
      "type": "function"
    },
    {
      "inputs": [
        {
          "internalType": "address",
          "name": "owner",
          "type": "address"
        },
        {
          "internalType": "address",
          "name": "spender",
          "type": "address"
        }
      ],
      "name": "allowance",
      "outputs": [
        {
          "internalType": "uint256",
          "name": "",
          "type": "uint256"
        }
      ],
      "stateMutability": "view",
      "type": "function"
    },
    {
      "inputs": [
        {
          "internalType": "address",
          "name": "spender",
          "type": "address"
        },
        {
          "internalType": "uint256",
          "name": "amount",
          "type": "uint256"
        }
      ],
      "name": "approve",
      "outputs": [
        {
          "internalType": "bool",
          "name": "",
          "type": "bool"
        }
      ],
      "stateMutability": "nonpayable",
      "type": "function"
    },
    {
      "inputs": [
        {
          "internalType": "address",
          "name": "account",
          "type": "address"
        }
      ],
      "name": "balanceOf",
      "outputs": [
        {
          "internalType": "uint256",
          "name": "",
          "type": "uint256"
        }
      ],
      "stateMutability": "view",
      "type": "function"
    },
    {
      "inputs": [
        {
          "internalType": "address",
          "name": "account",
          "type": "address"
        },
        {
          "internalType": "uint32",
          "name": "pos",
          "type": "uint32"
        }
      ],
      "name": "checkpoints",
      "outputs": [
        {
          "components": [
            {
              "internalType": "uint32",
              "name": "fromBlock",
              "type": "uint32"
            },
            {
              "internalType": "uint224",
              "name": "votes",
              "type": "uint224"
            }
          ],
          "internalType": "struct ERC20Votes.Checkpoint",
          "name": "",
          "type": "tuple"
        }
      ],
      "stateMutability": "view",
      "type": "function"
    },
    {
      "inputs": [],
      "name": "decimals",
      "outputs": [
        {
          "internalType": "uint8",
          "name": "",
          "type": "uint8"
        }
      ],
      "stateMutability": "view",
      "type": "function"
    },
    {
      "inputs": [
        {
          "internalType": "address",
          "name": "spender",
          "type": "address"
        },
        {
          "internalType": "uint256",
          "name": "subtractedValue",
          "type": "uint256"
        }
      ],
      "name": "decreaseAllowance",
      "outputs": [
        {
          "internalType": "bool",
          "name": "",
          "type": "bool"
        }
      ],
      "stateMutability": "nonpayable",
      "type": "function"
    },
    {
      "inputs": [
        {
          "internalType": "address",
          "name": "delegatee",
          "type": "address"
        }
      ],
      "name": "delegate",
      "outputs": [],
      "stateMutability": "nonpayable",
      "type": "function"
    },
    {
      "inputs": [
        {
          "internalType": "address",
          "name": "delegatee",
          "type": "address"
        },
        {
          "internalType": "uint256",
          "name": "nonce",
          "type": "uint256"
        },
        {
          "internalType": "uint256",
          "name": "expiry",
          "type": "uint256"
        },
        {
          "internalType": "uint8",
          "name": "v",
          "type": "uint8"
        },
        {
          "internalType": "bytes32",
          "name": "r",
          "type": "bytes32"
        },
        {
          "internalType": "bytes32",
          "name": "s",
          "type": "bytes32"
        }
      ],
      "name": "delegateBySig",
      "outputs": [],
      "stateMutability": "nonpayable",
      "type": "function"
    },
    {
      "inputs": [
        {
          "internalType": "address",
          "name": "account",
          "type": "address"
        }
      ],
      "name": "delegates",
      "outputs": [
        {
          "internalType": "address",
          "name": "",
          "type": "address"
        }
      ],
      "stateMutability": "view",
      "type": "function"
    },
    {
      "inputs": [
        {
          "internalType": "uint256",
          "name": "blockNumber",
          "type": "uint256"
        }
      ],
      "name": "getPastTotalSupply",
      "outputs": [
        {
          "internalType": "uint256",
          "name": "",
          "type": "uint256"
        }
      ],
      "stateMutability": "view",
      "type": "function"
    },
    {
      "inputs": [
        {
          "internalType": "address",
          "name": "account",
          "type": "address"
        },
        {
          "internalType": "uint256",
          "name": "blockNumber",
          "type": "uint256"
        }
      ],
      "name": "getPastVotes",
      "outputs": [
        {
          "internalType": "uint256",
          "name": "",
          "type": "uint256"
        }
      ],
      "stateMutability": "view",
      "type": "function"
    },
    {
      "inputs": [
        {
          "internalType": "address",
          "name": "account",
          "type": "address"
        }
      ],
      "name": "getVotes",
      "outputs": [
        {
          "internalType": "uint256",
          "name": "",
          "type": "uint256"
        }
      ],
      "stateMutability": "view",
      "type": "function"
    },
    {
      "inputs": [
        {
          "internalType": "address",
          "name": "spender",
          "type": "address"
        },
        {
          "internalType": "uint256",
          "name": "addedValue",
          "type": "uint256"
        }
      ],
      "name": "increaseAllowance",
      "outputs": [
        {
          "internalType": "bool",
          "name": "",
          "type": "bool"
        }
      ],
      "stateMutability": "nonpayable",
      "type": "function"
    },
    {
      "inputs": [],
      "name": "name",
      "outputs": [
        {
          "internalType": "string",
          "name": "",
          "type": "string"
        }
      ],
      "stateMutability": "view",
      "type": "function"
    },
    {
      "inputs": [
        {
          "internalType": "address",
          "name": "owner",
          "type": "address"
        }
      ],
      "name": "nonces",
      "outputs": [
        {
          "internalType": "uint256",
          "name": "",
          "type": "uint256"
        }
      ],
      "stateMutability": "view",
      "type": "function"
    },
    {
      "inputs": [
        {
          "internalType": "address",
          "name": "account",
          "type": "address"
        }
      ],
      "name": "numCheckpoints",
      "outputs": [
        {
          "internalType": "uint32",
          "name": "",
          "type": "uint32"
        }
      ],
      "stateMutability": "view",
      "type": "function"
    },
    {
      "inputs": [
        {
          "internalType": "address",
          "name": "owner",
          "type": "address"
        },
        {
          "internalType": "address",
          "name": "spender",
          "type": "address"
        },
        {
          "internalType": "uint256",
          "name": "value",
          "type": "uint256"
        },
        {
          "internalType": "uint256",
          "name": "deadline",
          "type": "uint256"
        },
        {
          "internalType": "uint8",
          "name": "v",
          "type": "uint8"
        },
        {
          "internalType": "bytes32",
          "name": "r",
          "type": "bytes32"
        },
        {
          "internalType": "bytes32",
          "name": "s",
          "type": "bytes32"
        }
      ],
      "name": "permit",
      "outputs": [],
      "stateMutability": "nonpayable",
      "type": "function"
    },
    {
      "inputs": [],
      "name": "s_maxSupply",
      "outputs": [
        {
          "internalType": "uint256",
          "name": "",
          "type": "uint256"
        }
      ],
      "stateMutability": "view",
      "type": "function"
    },
    {
      "inputs": [],
      "name": "symbol",
      "outputs": [
        {
          "internalType": "string",
          "name": "",
          "type": "string"
        }
      ],
      "stateMutability": "view",
      "type": "function"
    },
    {
      "inputs": [],
      "name": "totalSupply",
      "outputs": [
        {
          "internalType": "uint256",
          "name": "",
          "type": "uint256"
        }
      ],
      "stateMutability": "view",
      "type": "function"
    },
    {
      "inputs": [
        {
          "internalType": "address",
          "name": "to",
          "type": "address"
        },
        {
          "internalType": "uint256",
          "name": "amount",
          "type": "uint256"
        }
      ],
      "name": "transfer",
      "outputs": [
        {
          "internalType": "bool",
          "name": "",
          "type": "bool"
        }
      ],
      "stateMutability": "nonpayable",
      "type": "function"
    },
    {
      "inputs": [
        {
          "internalType": "address",
          "name": "from",
          "type": "address"
        },
        {
          "internalType": "address",
          "name": "to",
          "type": "address"
        },
        {
          "internalType": "uint256",
          "name": "amount",
          "type": "uint256"
        }
      ],
      "name": "transferFrom",
      "outputs": [
        {
          "internalType": "bool",
          "name": "",
          "type": "bool"
        }
      ],
      "stateMutability": "nonpayable",
      "type": "function"
    }
  ],
  "bytecode": "0x6101406040526001600a553480156200001757600080fd5b506040518060400160405280600f81526020016e23b7bb32b93730b731b2aa37b5b2b760891b81525080604051806040016040528060018152602001603160f81b8152506040518060400160405280600f81526020016e23b7bb32b93730b731b2aa37b5b2b760891b8152506040518060400160405280600281526020016111d560f21b8152508160039080519060200190620000b692919062000773565b508051620000cc90600490602084019062000773565b5050825160209384012082519284019290922060e08390526101008190524660a0818152604080517f8b73c3c69bb8fe3d512ecc4cf759cc79239f7b179b0ffacaa9a75d522b39400f818901819052818301979097526060810194909452608080850193909352308483018190528151808603909301835260c094850190915281519190960120905292909252610120525050600a546200016f90339062000175565b620008ad565b6200018c82826200019060201b62000a441760201c565b5050565b620001a782826200024760201b62000ad41760201c565b6001600160e01b03620001bb620003368216565b1115620002285760405162461bcd60e51b815260206004820152603060248201527f4552433230566f7465733a20746f74616c20737570706c79207269736b73206f60448201526f766572666c6f77696e6720766f74657360801b60648201526084015b60405180910390fd5b62000241600962000bbf6200033c60201b178362000351565b50505050565b6001600160a01b0382166200029f5760405162461bcd60e51b815260206004820152601f60248201527f45524332303a206d696e7420746f20746865207a65726f20616464726573730060448201526064016200021f565b8060026000828254620002b3919062000825565b90915550506001600160a01b03821660009081526020819052604081208054839290620002e290849062000825565b90915550506040518181526001600160a01b038316906000907fddf252ad1be2c89b69c2b068fc378daa952ba7f163c4a11628f55a4df523b3ef9060200160405180910390a36200018c6000838362000508565b60025490565b60006200034a828462000825565b9392505050565b825460009081908015620003a357856200036d60018362000840565b815481106200038057620003806200085a565b60009182526020909120015464010000000090046001600160e01b0316620003a6565b60005b6001600160e01b03169250620003bd83858760201c565b91506000811180156200040157504386620003da60018462000840565b81548110620003ed57620003ed6200085a565b60009182526020909120015463ffffffff16145b1562000475576200041d826200052060201b62000bcb1760201c565b866200042b60018462000840565b815481106200043e576200043e6200085a565b9060005260206000200160000160046101000a8154816001600160e01b0302191690836001600160e01b03160217905550620004fa565b85604051806040016040528062000497436200058f60201b62000c381760201c565b63ffffffff168152602001620004b8856200052060201b62000bcb1760201c565b6001600160e01b0390811690915282546001810184556000938452602093849020835194909301519091166401000000000263ffffffff909316929092179101555b50935093915050565b505050565b62000503838383620005f660201b62000c9d1760201c565b60006001600160e01b038211156200058b5760405162461bcd60e51b815260206004820152602760248201527f53616665436173743a2076616c756520646f65736e27742066697420696e20326044820152663234206269747360c81b60648201526084016200021f565b5090565b600063ffffffff8211156200058b5760405162461bcd60e51b815260206004820152602660248201527f53616665436173743a2076616c756520646f65736e27742066697420696e203360448201526532206269747360d01b60648201526084016200021f565b6200060e8383836200050360201b62000ccf1760201c565b6001600160a01b0383811660009081526007602052604080822054858416835291205462000503929182169116838183148015906200064d5750600081115b1562000503576001600160a01b03831615620006da576001600160a01b03831660009081526008602090815260408220829162000697919062000765901b62000cd4178562000351565b91509150846001600160a01b0316600080516020620025218339815191528383604051620006cf929190918252602082015260400190565b60405180910390a250505b6001600160a01b0382161562000503576001600160a01b0382166000908152600860209081526040822082916200071e91906200033c901b62000bbf178562000351565b91509150836001600160a01b031660008051602062002521833981519152838360405162000756929190918252602082015260400190565b60405180910390a25050505050565b60006200034a828462000840565b828054620007819062000870565b90600052602060002090601f016020900481019282620007a55760008555620007f0565b82601f10620007c057805160ff1916838001178555620007f0565b82800160010185558215620007f0579182015b82811115620007f0578251825591602001919060010190620007d3565b506200058b9291505b808211156200058b5760008155600101620007f9565b634e487b7160e01b600052601160045260246000fd5b600082198211156200083b576200083b6200080f565b500190565b6000828210156200085557620008556200080f565b500390565b634e487b7160e01b600052603260045260246000fd5b600181811c908216806200088557607f821691505b60208210811415620008a757634e487b7160e01b600052602260045260246000fd5b50919050565b60805160a05160c05160e0516101005161012051611c24620008fd60003960006110d601526000611125015260006111000152600061105901526000611083015260006110ad0152611c246000f3fe608060405234801561001057600080fd5b50600436106101585760003560e01c80636fcfff45116100c3578063a457c2d71161007c578063a457c2d7146102fc578063a9059cbb1461030f578063c3cda52014610322578063d505accf14610335578063dd62ed3e14610348578063f1127ed81461035b57600080fd5b80636fcfff451461026a57806370a08231146102925780637ecebe00146102bb5780638e539e8c146102ce57806395d89b41146102e15780639ab24eb0146102e957600080fd5b8063395093511161011557806339509351146101da5780633a46b1a8146101ed57806342372e1014610200578063587cde1e1461020a5780635c19a95c1461024e5780635d6418471461026157600080fd5b806306fdde031461015d578063095ea7b31461017b57806318160ddd1461019e57806323b872dd146101b0578063313ce567146101c35780633644e515146101d2575b600080fd5b610165610398565b60405161017291906118d5565b60405180910390f35b61018e610189366004611946565b61042a565b6040519015158152602001610172565b6002545b604051908152602001610172565b61018e6101be366004611970565b610442565b60405160128152602001610172565b6101a2610466565b61018e6101e8366004611946565b610475565b6101a26101fb366004611946565b610497565b610208610516565b005b6102366102183660046119ac565b6001600160a01b039081166000908152600760205260409020541690565b6040516001600160a01b039091168152602001610172565b61020861025c3660046119ac565b61052d565b6101a2600a5481565b61027d6102783660046119ac565b61053a565b60405163ffffffff9091168152602001610172565b6101a26102a03660046119ac565b6001600160a01b031660009081526020819052604090205490565b6101a26102c93660046119ac565b610562565b6101a26102dc3660046119c7565b610580565b6101656105dc565b6101a26102f73660046119ac565b6105eb565b61018e61030a366004611946565b610672565b61018e61031d366004611946565b6106ed565b6102086103303660046119f1565b6106fb565b610208610343366004611a49565b610831565b6101a2610356366004611ab3565b610995565b61036e610369366004611ae6565b6109c0565b60408051825163ffffffff1681526020928301516001600160e01b03169281019290925201610172565b6060600380546103a790611b26565b80601f01602080910402602001604051908101604052809291908181526020018280546103d390611b26565b80156104205780601f106103f557610100808354040283529160200191610420565b820191906000526020600020905b81548152906001019060200180831161040357829003601f168201915b5050505050905090565b600033610438818585610ce0565b5060019392505050565b600033610450858285610e04565b61045b858585610e78565b506001949350505050565b600061047061104c565b905090565b6000336104388185856104888383610995565b6104929190611b71565b610ce0565b60004382106104ed5760405162461bcd60e51b815260206004820152601f60248201527f4552433230566f7465733a20626c6f636b206e6f7420796574206d696e65640060448201526064015b60405180910390fd5b6001600160a01b038316600090815260086020526040902061050f9083611173565b9392505050565b61052233600a54611230565b61052b3361052d565b565b610537338261123a565b50565b6001600160a01b03811660009081526008602052604081205461055c90610c38565b92915050565b6001600160a01b03811660009081526005602052604081205461055c565b60004382106105d15760405162461bcd60e51b815260206004820152601f60248201527f4552433230566f7465733a20626c6f636b206e6f7420796574206d696e65640060448201526064016104e4565b61055c600983611173565b6060600480546103a790611b26565b6001600160a01b038116600090815260086020526040812054801561065f576001600160a01b038316600090815260086020526040902061062d600183611b89565b8154811061063d5761063d611ba0565b60009182526020909120015464010000000090046001600160e01b0316610662565b60005b6001600160e01b03169392505050565b600033816106808286610995565b9050838110156106e05760405162461bcd60e51b815260206004820152602560248201527f45524332303a2064656372656173656420616c6c6f77616e63652062656c6f77604482015264207a65726f60d81b60648201526084016104e4565b61045b8286868403610ce0565b600033610438818585610e78565b8342111561074b5760405162461bcd60e51b815260206004820152601d60248201527f4552433230566f7465733a207369676e6174757265206578706972656400000060448201526064016104e4565b604080517fe48329057bfd03d55e49b547132e39cffd9c1820ad7b9d4c5307691425d15adf60208201526001600160a01b0388169181019190915260608101869052608081018590526000906107c5906107bd9060a001604051602081830303815290604052805190602001206112b3565b858585611301565b90506107d081611329565b861461081e5760405162461bcd60e51b815260206004820152601960248201527f4552433230566f7465733a20696e76616c6964206e6f6e63650000000000000060448201526064016104e4565b610828818861123a565b50505050505050565b834211156108815760405162461bcd60e51b815260206004820152601d60248201527f45524332305065726d69743a206578706972656420646561646c696e6500000060448201526064016104e4565b60007f6e71edae12b1b97f4d1f60370fef10105fa2faae0126114a169c64845d6126c98888886108b08c611329565b6040805160208101969096526001600160a01b0394851690860152929091166060840152608083015260a082015260c0810186905260e001604051602081830303815290604052805190602001209050600061090b826112b3565b9050600061091b82878787611301565b9050896001600160a01b0316816001600160a01b03161461097e5760405162461bcd60e51b815260206004820152601e60248201527f45524332305065726d69743a20696e76616c6964207369676e6174757265000060448201526064016104e4565b6109898a8a8a610ce0565b50505050505050505050565b6001600160a01b03918216600090815260016020908152604080832093909416825291909152205490565b60408051808201909152600080825260208201526001600160a01b0383166000908152600860205260409020805463ffffffff8416908110610a0457610a04611ba0565b60009182526020918290206040805180820190915291015463ffffffff8116825264010000000090046001600160e01b0316918101919091529392505050565b610a4e8282610ad4565b6002546001600160e01b031015610ac05760405162461bcd60e51b815260206004820152603060248201527f4552433230566f7465733a20746f74616c20737570706c79207269736b73206f60448201526f766572666c6f77696e6720766f74657360801b60648201526084016104e4565b610ace6009610bbf83611351565b50505050565b6001600160a01b038216610b2a5760405162461bcd60e51b815260206004820152601f60248201527f45524332303a206d696e7420746f20746865207a65726f20616464726573730060448201526064016104e4565b8060026000828254610b3c9190611b71565b90915550506001600160a01b03821660009081526020819052604081208054839290610b69908490611b71565b90915550506040518181526001600160a01b038316906000907fddf252ad1be2c89b69c2b068fc378daa952ba7f163c4a11628f55a4df523b3ef9060200160405180910390a3610bbb600083836114ca565b5050565b600061050f8284611b71565b60006001600160e01b03821115610c345760405162461bcd60e51b815260206004820152602760248201527f53616665436173743a2076616c756520646f65736e27742066697420696e20326044820152663234206269747360c81b60648201526084016104e4565b5090565b600063ffffffff821115610c345760405162461bcd60e51b815260206004820152602660248201527f53616665436173743a2076616c756520646f65736e27742066697420696e203360448201526532206269747360d01b60648201526084016104e4565b6001600160a01b03838116600090815260076020526040808220548584168352912054610ccf929182169116836114d5565b505050565b600061050f8284611b89565b6001600160a01b038316610d425760405162461bcd60e51b8152602060048201526024808201527f45524332303a20617070726f76652066726f6d20746865207a65726f206164646044820152637265737360e01b60648201526084016104e4565b6001600160a01b038216610da35760405162461bcd60e51b815260206004820152602260248201527f45524332303a20617070726f766520746f20746865207a65726f206164647265604482015261737360f01b60648201526084016104e4565b6001600160a01b0383811660008181526001602090815260408083209487168084529482529182902085905590518481527f8c5be1e5ebec7d5bd14f71427d1e84f3dd0314c0f7b2291e5b200ac8c7c3b925910160405180910390a3505050565b6000610e108484610995565b90506000198114610ace5781811015610e6b5760405162461bcd60e51b815260206004820152601d60248201527f45524332303a20696e73756666696369656e7420616c6c6f77616e636500000060448201526064016104e4565b610ace8484848403610ce0565b6001600160a01b038316610edc5760405162461bcd60e51b815260206004820152602560248201527f45524332303a207472616e736665722066726f6d20746865207a65726f206164604482015264647265737360d81b60648201526084016104e4565b6001600160a01b038216610f3e5760405162461bcd60e51b815260206004820152602360248201527f45524332303a207472616e7366657220746f20746865207a65726f206164647260448201526265737360e81b60648201526084016104e4565b6001600160a01b03831660009081526020819052604090205481811015610fb65760405162461bcd60e51b815260206004820152602660248201527f45524332303a207472616e7366657220616d6f756e7420657863656564732062604482015265616c616e636560d01b60648201526084016104e4565b6001600160a01b03808516600090815260208190526040808220858503905591851681529081208054849290610fed908490611b71565b92505081905550826001600160a01b0316846001600160a01b03167fddf252ad1be2c89b69c2b068fc378daa952ba7f163c4a11628f55a4df523b3ef8460405161103991815260200190565b60405180910390a3610ace8484846114ca565b6000306001600160a01b037f0000000000000000000000000000000000000000000000000000000000000000161480156110a557507f000000000000000000000000000000000000000000000000000000000000000046145b156110cf57507f000000000000000000000000000000000000000000000000000000000000000090565b50604080517f00000000000000000000000000000000000000000000000000000000000000006020808301919091527f0000000000000000000000000000000000000000000000000000000000000000828401527f000000000000000000000000000000000000000000000000000000000000000060608301524660808301523060a0808401919091528351808403909101815260c0909201909252805191012090565b8154600090815b818110156111d757600061118e8284611612565b9050848682815481106111a3576111a3611ba0565b60009182526020909120015463ffffffff1611156111c3578092506111d1565b6111ce816001611b71565b91505b5061117a565b811561121b57846111e9600184611b89565b815481106111f9576111f9611ba0565b60009182526020909120015464010000000090046001600160e01b031661121e565b60005b6001600160e01b031695945050505050565b610bbb8282610a44565b6001600160a01b038281166000818152600760208181526040808420805485845282862054949093528787166001600160a01b03198416811790915590519190951694919391928592917f3134e8a2e6d97e929a7e54011ea5485d7d196dd5f0ba4d4ef95803e8e3fc257f9190a4610ace8284836114d5565b600061055c6112c061104c565b8360405161190160f01b6020820152602281018390526042810182905260009060620160405160208183030381529060405280519060200120905092915050565b60008060006113128787878761162d565b9150915061131f8161171a565b5095945050505050565b6001600160a01b03811660009081526005602052604090208054600181018255905b50919050565b82546000908190801561139c578561136a600183611b89565b8154811061137a5761137a611ba0565b60009182526020909120015464010000000090046001600160e01b031661139f565b60005b6001600160e01b031692506113b883858763ffffffff16565b91506000811180156113f6575043866113d2600184611b89565b815481106113e2576113e2611ba0565b60009182526020909120015463ffffffff16145b156114565761140482610bcb565b86611410600184611b89565b8154811061142057611420611ba0565b9060005260206000200160000160046101000a8154816001600160e01b0302191690836001600160e01b031602179055506114c1565b85604051806040016040528061146b43610c38565b63ffffffff16815260200161147f85610bcb565b6001600160e01b0390811690915282546001810184556000938452602093849020835194909301519091166401000000000263ffffffff909316929092179101555b50935093915050565b610ccf838383610c9d565b816001600160a01b0316836001600160a01b0316141580156114f75750600081115b15610ccf576001600160a01b03831615611585576001600160a01b0383166000908152600860205260408120819061153290610cd485611351565b91509150846001600160a01b03167fdec2bacdd2f05b59de34da9b523dff8be42e5e38e818c82fdb0bae774387a724838360405161157a929190918252602082015260400190565b60405180910390a250505b6001600160a01b03821615610ccf576001600160a01b038216600090815260086020526040812081906115bb90610bbf85611351565b91509150836001600160a01b03167fdec2bacdd2f05b59de34da9b523dff8be42e5e38e818c82fdb0bae774387a7248383604051611603929190918252602082015260400190565b60405180910390a25050505050565b60006116216002848418611bb6565b61050f90848416611b71565b6000807f7fffffffffffffffffffffffffffffff5d576e7357a4501ddfe92f46681b20a08311156116645750600090506003611711565b8460ff16601b1415801561167c57508460ff16601c14155b1561168d5750600090506004611711565b6040805160008082526020820180845289905260ff881692820192909252606081018690526080810185905260019060a0016020604051602081039080840390855afa1580156116e1573d6000803e3d6000fd5b5050604051601f1901519150506001600160a01b03811661170a57600060019250925050611711565b9150600090505b94509492505050565b600081600481111561172e5761172e611bd8565b14156117375750565b600181600481111561174b5761174b611bd8565b14156117995760405162461bcd60e51b815260206004820152601860248201527f45434453413a20696e76616c6964207369676e6174757265000000000000000060448201526064016104e4565b60028160048111156117ad576117ad611bd8565b14156117fb5760405162461bcd60e51b815260206004820152601f60248201527f45434453413a20696e76616c6964207369676e6174757265206c656e6774680060448201526064016104e4565b600381600481111561180f5761180f611bd8565b14156118685760405162461bcd60e51b815260206004820152602260248201527f45434453413a20696e76616c6964207369676e6174757265202773272076616c604482015261756560f01b60648201526084016104e4565b600481600481111561187c5761187c611bd8565b14156105375760405162461bcd60e51b815260206004820152602260248201527f45434453413a20696e76616c6964207369676e6174757265202776272076616c604482015261756560f01b60648201526084016104e4565b600060208083528351808285015260005b81811015611902578581018301518582016040015282016118e6565b81811115611914576000604083870101525b50601f01601f1916929092016040019392505050565b80356001600160a01b038116811461194157600080fd5b919050565b6000806040838503121561195957600080fd5b6119628361192a565b946020939093013593505050565b60008060006060848603121561198557600080fd5b61198e8461192a565b925061199c6020850161192a565b9150604084013590509250925092565b6000602082840312156119be57600080fd5b61050f8261192a565b6000602082840312156119d957600080fd5b5035919050565b803560ff8116811461194157600080fd5b60008060008060008060c08789031215611a0a57600080fd5b611a138761192a565b95506020870135945060408701359350611a2f606088016119e0565b92506080870135915060a087013590509295509295509295565b600080600080600080600060e0888a031215611a6457600080fd5b611a6d8861192a565b9650611a7b6020890161192a565b95506040880135945060608801359350611a97608089016119e0565b925060a0880135915060c0880135905092959891949750929550565b60008060408385031215611ac657600080fd5b611acf8361192a565b9150611add6020840161192a565b90509250929050565b60008060408385031215611af957600080fd5b611b028361192a565b9150602083013563ffffffff81168114611b1b57600080fd5b809150509250929050565b600181811c90821680611b3a57607f821691505b6020821081141561134b57634e487b7160e01b600052602260045260246000fd5b634e487b7160e01b600052601160045260246000fd5b60008219821115611b8457611b84611b5b565b500190565b600082821015611b9b57611b9b611b5b565b500390565b634e487b7160e01b600052603260045260246000fd5b600082611bd357634e487b7160e01b600052601260045260246000fd5b500490565b634e487b7160e01b600052602160045260246000fdfea2646970667358221220015410ecd25db63134ad97ebc7d5b4f17e27ce328fd58158c0e0383333ccbe2364736f6c63430008090033dec2bacdd2f05b59de34da9b523dff8be42e5e38e818c82fdb0bae774387a724",
  "linkReferences": {},
  "deployedLinkReferences": {}
}