{
  "_format": "hh-sol-artifact-1",
  "contractName": "GovernanceToken",
  "sourceName": "contracts/governance/GovernanceToken.sol",
  "abi": [
    {
      "inputs": [],
      "stateMutability": "nonpayable",
      "type": "constructor"
    },
    {
      "anonymous": false,
      "inputs": [
        {
          "indexed": true,
          "internalType": "address",
          "name": "owner",
          "type": "address"
        },
        {
          "indexed": true,
          "internalType": "address",
          "name": "spender",
          "type": "address"
        },
        {
          "indexed": false,
          "internalType": "uint256",
          "name": "value",
          "type": "uint256"
        }
      ],
      "name": "Approval",
      "type": "event"
    },
    {
      "anonymous": false,
      "inputs": [
        {
          "indexed": true,
          "internalType": "address",
          "name": "delegator",
          "type": "address"
        },
        {
          "indexed": true,
          "internalType": "address",
          "name": "fromDelegate",
          "type": "address"
        },
        {
          "indexed": true,
          "internalType": "address",
          "name": "toDelegate",
          "type": "address"
        }
      ],
      "name": "DelegateChanged",
      "type": "event"
    },
    {
      "anonymous": false,
      "inputs": [
        {
          "indexed": true,
          "internalType": "address",
          "name": "delegate",
          "type": "address"
        },
        {
          "indexed": false,
          "internalType": "uint256",
          "name": "previousBalance",
          "type": "uint256"
        },
        {
          "indexed": false,
          "internalType": "uint256",
          "name": "newBalance",
          "type": "uint256"
        }
      ],
      "name": "DelegateVotesChanged",
      "type": "event"
    },
    {
      "anonymous": false,
      "inputs": [
        {
          "indexed": true,
          "internalType": "address",
          "name": "from",
          "type": "address"
        },
        {
          "indexed": true,
          "internalType": "address",
          "name": "to",
          "type": "address"
        },
        {
          "indexed": false,
          "internalType": "uint256",
          "name": "value",
          "type": "uint256"
        }
      ],
      "name": "Transfer",
      "type": "event"
    },
    {
      "inputs": [],
      "name": "DOMAIN_SEPARATOR",
      "outputs": [
        {
          "internalType": "bytes32",
          "name": "",
          "type": "bytes32"
        }
      ],
      "stateMutability": "view",
      "type": "function"
    },
    {
      "inputs": [],
      "name": "_mintToken",
      "outputs": [],
      "stateMutability": "nonpayable",
      "type": "function"
    },
    {
      "inputs": [
        {
          "internalType": "address",
          "name": "owner",
          "type": "address"
        },
        {
          "internalType": "address",
          "name": "spender",
          "type": "address"
        }
      ],
      "name": "allowance",
      "outputs": [
        {
          "internalType": "uint256",
          "name": "",
          "type": "uint256"
        }
      ],
      "stateMutability": "view",
      "type": "function"
    },
    {
      "inputs": [
        {
          "internalType": "address",
          "name": "spender",
          "type": "address"
        },
        {
          "internalType": "uint256",
          "name": "amount",
          "type": "uint256"
        }
      ],
      "name": "approve",
      "outputs": [
        {
          "internalType": "bool",
          "name": "",
          "type": "bool"
        }
      ],
      "stateMutability": "nonpayable",
      "type": "function"
    },
    {
      "inputs": [
        {
          "internalType": "address",
          "name": "account",
          "type": "address"
        }
      ],
      "name": "balanceOf",
      "outputs": [
        {
          "internalType": "uint256",
          "name": "",
          "type": "uint256"
        }
      ],
      "stateMutability": "view",
      "type": "function"
    },
    {
      "inputs": [
        {
          "internalType": "address",
          "name": "account",
          "type": "address"
        },
        {
          "internalType": "uint32",
          "name": "pos",
          "type": "uint32"
        }
      ],
      "name": "checkpoints",
      "outputs": [
        {
          "components": [
            {
              "internalType": "uint32",
              "name": "fromBlock",
              "type": "uint32"
            },
            {
              "internalType": "uint224",
              "name": "votes",
              "type": "uint224"
            }
          ],
          "internalType": "struct ERC20Votes.Checkpoint",
          "name": "",
          "type": "tuple"
        }
      ],
      "stateMutability": "view",
      "type": "function"
    },
    {
      "inputs": [],
      "name": "decimals",
      "outputs": [
        {
          "internalType": "uint8",
          "name": "",
          "type": "uint8"
        }
      ],
      "stateMutability": "view",
      "type": "function"
    },
    {
      "inputs": [
        {
          "internalType": "address",
          "name": "spender",
          "type": "address"
        },
        {
          "internalType": "uint256",
          "name": "subtractedValue",
          "type": "uint256"
        }
      ],
      "name": "decreaseAllowance",
      "outputs": [
        {
          "internalType": "bool",
          "name": "",
          "type": "bool"
        }
      ],
      "stateMutability": "nonpayable",
      "type": "function"
    },
    {
      "inputs": [
        {
          "internalType": "address",
          "name": "delegatee",
          "type": "address"
        }
      ],
      "name": "delegate",
      "outputs": [],
      "stateMutability": "nonpayable",
      "type": "function"
    },
    {
      "inputs": [
        {
          "internalType": "address",
          "name": "delegatee",
          "type": "address"
        },
        {
          "internalType": "uint256",
          "name": "nonce",
          "type": "uint256"
        },
        {
          "internalType": "uint256",
          "name": "expiry",
          "type": "uint256"
        },
        {
          "internalType": "uint8",
          "name": "v",
          "type": "uint8"
        },
        {
          "internalType": "bytes32",
          "name": "r",
          "type": "bytes32"
        },
        {
          "internalType": "bytes32",
          "name": "s",
          "type": "bytes32"
        }
      ],
      "name": "delegateBySig",
      "outputs": [],
      "stateMutability": "nonpayable",
      "type": "function"
    },
    {
      "inputs": [
        {
          "internalType": "address",
          "name": "account",
          "type": "address"
        }
      ],
      "name": "delegates",
      "outputs": [
        {
          "internalType": "address",
          "name": "",
          "type": "address"
        }
      ],
      "stateMutability": "view",
      "type": "function"
    },
    {
      "inputs": [
        {
          "internalType": "uint256",
          "name": "blockNumber",
          "type": "uint256"
        }
      ],
      "name": "getPastTotalSupply",
      "outputs": [
        {
          "internalType": "uint256",
          "name": "",
          "type": "uint256"
        }
      ],
      "stateMutability": "view",
      "type": "function"
    },
    {
      "inputs": [
        {
          "internalType": "address",
          "name": "account",
          "type": "address"
        },
        {
          "internalType": "uint256",
          "name": "blockNumber",
          "type": "uint256"
        }
      ],
      "name": "getPastVotes",
      "outputs": [
        {
          "internalType": "uint256",
          "name": "",
          "type": "uint256"
        }
      ],
      "stateMutability": "view",
      "type": "function"
    },
    {
      "inputs": [
        {
          "internalType": "address",
          "name": "account",
          "type": "address"
        }
      ],
      "name": "getVotes",
      "outputs": [
        {
          "internalType": "uint256",
          "name": "",
          "type": "uint256"
        }
      ],
      "stateMutability": "view",
      "type": "function"
    },
    {
      "inputs": [
        {
          "internalType": "address",
          "name": "spender",
          "type": "address"
        },
        {
          "internalType": "uint256",
          "name": "addedValue",
          "type": "uint256"
        }
      ],
      "name": "increaseAllowance",
      "outputs": [
        {
          "internalType": "bool",
          "name": "",
          "type": "bool"
        }
      ],
      "stateMutability": "nonpayable",
      "type": "function"
    },
    {
      "inputs": [],
      "name": "maxSupply",
      "outputs": [
        {
          "internalType": "uint256",
          "name": "",
          "type": "uint256"
        }
      ],
      "stateMutability": "view",
      "type": "function"
    },
    {
      "inputs": [],
      "name": "name",
      "outputs": [
        {
          "internalType": "string",
          "name": "",
          "type": "string"
        }
      ],
      "stateMutability": "view",
      "type": "function"
    },
    {
      "inputs": [
        {
          "internalType": "address",
          "name": "owner",
          "type": "address"
        }
      ],
      "name": "nonces",
      "outputs": [
        {
          "internalType": "uint256",
          "name": "",
          "type": "uint256"
        }
      ],
      "stateMutability": "view",
      "type": "function"
    },
    {
      "inputs": [
        {
          "internalType": "address",
          "name": "account",
          "type": "address"
        }
      ],
      "name": "numCheckpoints",
      "outputs": [
        {
          "internalType": "uint32",
          "name": "",
          "type": "uint32"
        }
      ],
      "stateMutability": "view",
      "type": "function"
    },
    {
      "inputs": [
        {
          "internalType": "address",
          "name": "owner",
          "type": "address"
        },
        {
          "internalType": "address",
          "name": "spender",
          "type": "address"
        },
        {
          "internalType": "uint256",
          "name": "value",
          "type": "uint256"
        },
        {
          "internalType": "uint256",
          "name": "deadline",
          "type": "uint256"
        },
        {
          "internalType": "uint8",
          "name": "v",
          "type": "uint8"
        },
        {
          "internalType": "bytes32",
          "name": "r",
          "type": "bytes32"
        },
        {
          "internalType": "bytes32",
          "name": "s",
          "type": "bytes32"
        }
      ],
      "name": "permit",
      "outputs": [],
      "stateMutability": "nonpayable",
      "type": "function"
    },
    {
      "inputs": [],
      "name": "symbol",
      "outputs": [
        {
          "internalType": "string",
          "name": "",
          "type": "string"
        }
      ],
      "stateMutability": "view",
      "type": "function"
    },
    {
      "inputs": [],
      "name": "totalSupply",
      "outputs": [
        {
          "internalType": "uint256",
          "name": "",
          "type": "uint256"
        }
      ],
      "stateMutability": "view",
      "type": "function"
    },
    {
      "inputs": [
        {
          "internalType": "address",
          "name": "to",
          "type": "address"
        },
        {
          "internalType": "uint256",
          "name": "amount",
          "type": "uint256"
        }
      ],
      "name": "transfer",
      "outputs": [
        {
          "internalType": "bool",
          "name": "",
          "type": "bool"
        }
      ],
      "stateMutability": "nonpayable",
      "type": "function"
    },
    {
      "inputs": [
        {
          "internalType": "address",
          "name": "from",
          "type": "address"
        },
        {
          "internalType": "address",
          "name": "to",
          "type": "address"
        },
        {
          "internalType": "uint256",
          "name": "amount",
          "type": "uint256"
        }
      ],
      "name": "transferFrom",
      "outputs": [
        {
          "internalType": "bool",
          "name": "",
          "type": "bool"
        }
      ],
      "stateMutability": "nonpayable",
      "type": "function"
    }
  ],
  "bytecode": "0x6101406040526001600a553480156200001757600080fd5b506040518060400160405280600f81526020017f476f7665726e616e6365546f6b656e0000000000000000000000000000000000815250806040518060400160405280600181526020017f31000000000000000000000000000000000000000000000000000000000000008152506040518060400160405280600f81526020017f476f7665726e616e6365546f6b656e00000000000000000000000000000000008152506040518060400160405280600281526020017f4754000000000000000000000000000000000000000000000000000000000000815250816003908162000102919062000dc1565b50806004908162000114919062000dc1565b50505060008280519060200120905060008280519060200120905060007f8b73c3c69bb8fe3d512ecc4cf759cc79239f7b179b0ffacaa9a75d522b39400f90508260e081815250508161010081815250504660a0818152505062000180818484620001e460201b60201c565b608081815250503073ffffffffffffffffffffffffffffffffffffffff1660c08173ffffffffffffffffffffffffffffffffffffffff1681525050806101208181525050505050505050620001de33600a546200022060201b60201c565b620012df565b600083838346306040516020016200020195949392919062000f19565b6040516020818303038152906040528051906020012090509392505050565b6200023782826200023b60201b62000ed61760201c565b5050565b620002528282620002f960201b62000f631760201c565b620002626200047160201b60201c565b7bffffffffffffffffffffffffffffffffffffffffffffffffffffffff16620002906200049560201b60201c565b1115620002d4576040517f08c379a0000000000000000000000000000000000000000000000000000000008152600401620002cb9062000ffd565b60405180910390fd5b620002f360096200049f60201b620010c21783620004b760201b60201c565b50505050565b600073ffffffffffffffffffffffffffffffffffffffff168273ffffffffffffffffffffffffffffffffffffffff16036200036b576040517f08c379a000000000000000000000000000000000000000000000000000000000815260040162000362906200106f565b60405180910390fd5b6200037f600083836200076860201b60201c565b8060026000828254620003939190620010c0565b92505081905550806000808473ffffffffffffffffffffffffffffffffffffffff1673ffffffffffffffffffffffffffffffffffffffff1681526020019081526020016000206000828254620003ea9190620010c0565b925050819055508173ffffffffffffffffffffffffffffffffffffffff16600073ffffffffffffffffffffffffffffffffffffffff167fddf252ad1be2c89b69c2b068fc378daa952ba7f163c4a11628f55a4df523b3ef83604051620004519190620010fb565b60405180910390a36200046d600083836200076d60201b60201c565b5050565b60007bffffffffffffffffffffffffffffffffffffffffffffffffffffffff905090565b6000600254905090565b60008183620004af9190620010c0565b905092915050565b600080600085805490509050600081146200052c5785600182620004dc919062001118565b81548110620004f057620004ef62001153565b5b9060005260206000200160000160049054906101000a90047bffffffffffffffffffffffffffffffffffffffffffffffffffffffff166200052f565b60005b7bffffffffffffffffffffffffffffffffffffffffffffffffffffffff1692506200055b83858760201c565b9150600081118015620005b4575043866001836200057a919062001118565b815481106200058e576200058d62001153565b5b9060005260206000200160000160009054906101000a900463ffffffff1663ffffffff16145b156200065557620005d0826200078a60201b620010d81760201c565b86600183620005e0919062001118565b81548110620005f457620005f362001153565b5b9060005260206000200160000160046101000a8154817bffffffffffffffffffffffffffffffffffffffffffffffffffffffff02191690837bffffffffffffffffffffffffffffffffffffffffffffffffffffffff1602179055506200075f565b8560405180604001604052806200067743620007f860201b620011431760201c565b63ffffffff16815260200162000698856200078a60201b620010d81760201c565b7bffffffffffffffffffffffffffffffffffffffffffffffffffffffff168152509080600181540180825580915050600190039060005260206000200160009091909190915060008201518160000160006101000a81548163ffffffff021916908363ffffffff16021790555060208201518160000160046101000a8154817bffffffffffffffffffffffffffffffffffffffffffffffffffffffff02191690837bffffffffffffffffffffffffffffffffffffffffffffffffffffffff16021790555050505b50935093915050565b505050565b620007858383836200084e60201b620011961760201c565b505050565b60007bffffffffffffffffffffffffffffffffffffffffffffffffffffffff8016821115620007f0576040517f08c379a0000000000000000000000000000000000000000000000000000000008152600401620007e790620011f8565b60405180910390fd5b819050919050565b600063ffffffff801682111562000846576040517f08c379a00000000000000000000000000000000000000000000000000000000081526004016200083d9062001290565b60405180910390fd5b819050919050565b620008668383836200089e60201b620011c11760201c565b620008996200087b84620008a360201b60201c565b6200088c84620008a360201b60201c565b836200090c60201b60201c565b505050565b505050565b6000600760008373ffffffffffffffffffffffffffffffffffffffff1673ffffffffffffffffffffffffffffffffffffffff16815260200190815260200160002060009054906101000a900473ffffffffffffffffffffffffffffffffffffffff169050919050565b8173ffffffffffffffffffffffffffffffffffffffff168373ffffffffffffffffffffffffffffffffffffffff1614158015620009495750600081115b1562000b2a57600073ffffffffffffffffffffffffffffffffffffffff168373ffffffffffffffffffffffffffffffffffffffff161462000a3c57600080620009e3600860008773ffffffffffffffffffffffffffffffffffffffff1673ffffffffffffffffffffffffffffffffffffffff16815260200190815260200160002062000b2f60201b620011c61785620004b760201b60201c565b915091508473ffffffffffffffffffffffffffffffffffffffff167fdec2bacdd2f05b59de34da9b523dff8be42e5e38e818c82fdb0bae774387a724838360405162000a31929190620012b2565b60405180910390a250505b600073ffffffffffffffffffffffffffffffffffffffff168273ffffffffffffffffffffffffffffffffffffffff161462000b295760008062000ad0600860008673ffffffffffffffffffffffffffffffffffffffff1673ffffffffffffffffffffffffffffffffffffffff1681526020019081526020016000206200049f60201b620010c21785620004b760201b60201c565b915091508373ffffffffffffffffffffffffffffffffffffffff167fdec2bacdd2f05b59de34da9b523dff8be42e5e38e818c82fdb0bae774387a724838360405162000b1e929190620012b2565b60405180910390a250505b5b505050565b6000818362000b3f919062001118565b905092915050565b600081519050919050565b7f4e487b7100000000000000000000000000000000000000000000000000000000600052604160045260246000fd5b7f4e487b7100000000000000000000000000000000000000000000000000000000600052602260045260246000fd5b6000600282049050600182168062000bc957607f821691505b60208210810362000bdf5762000bde62000b81565b5b50919050565b60008190508160005260206000209050919050565b60006020601f8301049050919050565b600082821b905092915050565b60006008830262000c497fffffffffffffffffffffffffffffffffffffffffffffffffffffffffffffffff8262000c0a565b62000c55868362000c0a565b95508019841693508086168417925050509392505050565b6000819050919050565b6000819050919050565b600062000ca262000c9c62000c968462000c6d565b62000c77565b62000c6d565b9050919050565b6000819050919050565b62000cbe8362000c81565b62000cd662000ccd8262000ca9565b84845462000c17565b825550505050565b600090565b62000ced62000cde565b62000cfa81848462000cb3565b505050565b5b8181101562000d225762000d1660008262000ce3565b60018101905062000d00565b5050565b601f82111562000d715762000d3b8162000be5565b62000d468462000bfa565b8101602085101562000d56578190505b62000d6e62000d658562000bfa565b83018262000cff565b50505b505050565b600082821c905092915050565b600062000d966000198460080262000d76565b1980831691505092915050565b600062000db1838362000d83565b9150826002028217905092915050565b62000dcc8262000b47565b67ffffffffffffffff81111562000de85762000de762000b52565b5b62000df4825462000bb0565b62000e0182828562000d26565b600060209050601f83116001811462000e39576000841562000e24578287015190505b62000e30858262000da3565b86555062000ea0565b601f19841662000e498662000be5565b60005b8281101562000e735784890151825560018201915060208501945060208101905062000e4c565b8683101562000e93578489015162000e8f601f89168262000d83565b8355505b6001600288020188555050505b505050505050565b6000819050919050565b62000ebd8162000ea8565b82525050565b62000ece8162000c6d565b82525050565b600073ffffffffffffffffffffffffffffffffffffffff82169050919050565b600062000f018262000ed4565b9050919050565b62000f138162000ef4565b82525050565b600060a08201905062000f30600083018862000eb2565b62000f3f602083018762000eb2565b62000f4e604083018662000eb2565b62000f5d606083018562000ec3565b62000f6c608083018462000f08565b9695505050505050565b600082825260208201905092915050565b7f4552433230566f7465733a20746f74616c20737570706c79207269736b73206f60008201527f766572666c6f77696e6720766f74657300000000000000000000000000000000602082015250565b600062000fe560308362000f76565b915062000ff28262000f87565b604082019050919050565b60006020820190508181036000830152620010188162000fd6565b9050919050565b7f45524332303a206d696e7420746f20746865207a65726f206164647265737300600082015250565b600062001057601f8362000f76565b915062001064826200101f565b602082019050919050565b600060208201905081810360008301526200108a8162001048565b9050919050565b7f4e487b7100000000000000000000000000000000000000000000000000000000600052601160045260246000fd5b6000620010cd8262000c6d565b9150620010da8362000c6d565b9250828201905080821115620010f557620010f462001091565b5b92915050565b600060208201905062001112600083018462000ec3565b92915050565b6000620011258262000c6d565b9150620011328362000c6d565b92508282039050818111156200114d576200114c62001091565b5b92915050565b7f4e487b7100000000000000000000000000000000000000000000000000000000600052603260045260246000fd5b7f53616665436173743a2076616c756520646f65736e27742066697420696e203260008201527f3234206269747300000000000000000000000000000000000000000000000000602082015250565b6000620011e060278362000f76565b9150620011ed8262001182565b604082019050919050565b600060208201905081810360008301526200121381620011d1565b9050919050565b7f53616665436173743a2076616c756520646f65736e27742066697420696e203360008201527f3220626974730000000000000000000000000000000000000000000000000000602082015250565b60006200127860268362000f76565b915062001285826200121a565b604082019050919050565b60006020820190508181036000830152620012ab8162001269565b9050919050565b6000604082019050620012c9600083018562000ec3565b620012d8602083018462000ec3565b9392505050565b60805160a05160c05160e051610100516101205161375d6200132f6000396000611766015260006117a801526000611787015260006116bc015260006117120152600061173b015261375d6000f3fe608060405234801561001057600080fd5b50600436106101585760003560e01c806370a08231116100c3578063a9059cbb1161007c578063a9059cbb14610429578063c3cda52014610459578063d505accf14610475578063d5abeb0114610491578063dd62ed3e146104af578063f1127ed8146104df57610158565b806370a082311461031b5780637ecebe001461034b5780638e539e8c1461037b57806395d89b41146103ab5780639ab24eb0146103c9578063a457c2d7146103f957610158565b8063395093511161011557806339509351146102355780633a46b1a81461026557806342372e1014610295578063587cde1e1461029f5780635c19a95c146102cf5780636fcfff45146102eb57610158565b806306fdde031461015d578063095ea7b31461017b57806318160ddd146101ab57806323b872dd146101c9578063313ce567146101f95780633644e51514610217575b600080fd5b61016561050f565b60405161017291906123b0565b60405180910390f35b6101956004803603810190610190919061246b565b6105a1565b6040516101a291906124c6565b60405180910390f35b6101b36105c4565b6040516101c091906124f0565b60405180910390f35b6101e360048036038101906101de919061250b565b6105ce565b6040516101f091906124c6565b60405180910390f35b6102016105fd565b60405161020e919061257a565b60405180910390f35b61021f610606565b60405161022c91906125ae565b60405180910390f35b61024f600480360381019061024a919061246b565b610615565b60405161025c91906124c6565b60405180910390f35b61027f600480360381019061027a919061246b565b61064c565b60405161028c91906124f0565b60405180910390f35b61029d6106e0565b005b6102b960048036038101906102b491906125c9565b6106f7565b6040516102c69190612605565b60405180910390f35b6102e960048036038101906102e491906125c9565b610760565b005b610305600480360381019061030091906125c9565b610774565b604051610312919061263f565b60405180910390f35b610335600480360381019061033091906125c9565b6107c8565b60405161034291906124f0565b60405180910390f35b610365600480360381019061036091906125c9565b610810565b60405161037291906124f0565b60405180910390f35b6103956004803603810190610390919061265a565b610860565b6040516103a291906124f0565b60405180910390f35b6103b36108b6565b6040516103c091906123b0565b60405180910390f35b6103e360048036038101906103de91906125c9565b610948565b6040516103f091906124f0565b60405180910390f35b610413600480360381019061040e919061246b565b610a59565b60405161042091906124c6565b60405180910390f35b610443600480360381019061043e919061246b565b610ad0565b60405161045091906124c6565b60405180910390f35b610473600480360381019061046e91906126df565b610af3565b005b61048f600480360381019061048a919061276c565b610bf7565b005b610499610d39565b6040516104a691906124f0565b60405180910390f35b6104c960048036038101906104c4919061280e565b610d3f565b6040516104d691906124f0565b60405180910390f35b6104f960048036038101906104f4919061287a565b610dc6565b604051610506919061292f565b60405180910390f35b60606003805461051e90612979565b80601f016020809104026020016040519081016040528092919081815260200182805461054a90612979565b80156105975780601f1061056c57610100808354040283529160200191610597565b820191906000526020600020905b81548152906001019060200180831161057a57829003601f168201915b5050505050905090565b6000806105ac6111dc565b90506105b98185856111e4565b600191505092915050565b6000600254905090565b6000806105d96111dc565b90506105e68582856113ad565b6105f1858585611439565b60019150509392505050565b60006012905090565b60006106106116b8565b905090565b6000806106206111dc565b90506106418185856106328589610d3f565b61063c91906129d9565b6111e4565b600191505092915050565b6000438210610690576040517f08c379a000000000000000000000000000000000000000000000000000000000815260040161068790612a59565b60405180910390fd5b6106d8600860008573ffffffffffffffffffffffffffffffffffffffff1673ffffffffffffffffffffffffffffffffffffffff168152602001908152602001600020836117d2565b905092915050565b6106ec33600a546118de565b6106f533610760565b565b6000600760008373ffffffffffffffffffffffffffffffffffffffff1673ffffffffffffffffffffffffffffffffffffffff16815260200190815260200160002060009054906101000a900473ffffffffffffffffffffffffffffffffffffffff169050919050565b61077161076b6111dc565b826118ec565b50565b60006107c1600860008473ffffffffffffffffffffffffffffffffffffffff1673ffffffffffffffffffffffffffffffffffffffff16815260200190815260200160002080549050611143565b9050919050565b60008060008373ffffffffffffffffffffffffffffffffffffffff1673ffffffffffffffffffffffffffffffffffffffff168152602001908152602001600020549050919050565b6000610859600560008473ffffffffffffffffffffffffffffffffffffffff1673ffffffffffffffffffffffffffffffffffffffff168152602001908152602001600020611a06565b9050919050565b60004382106108a4576040517f08c379a000000000000000000000000000000000000000000000000000000000815260040161089b90612a59565b60405180910390fd5b6108af6009836117d2565b9050919050565b6060600480546108c590612979565b80601f01602080910402602001604051908101604052809291908181526020018280546108f190612979565b801561093e5780601f106109135761010080835404028352916020019161093e565b820191906000526020600020905b81548152906001019060200180831161092157829003601f168201915b5050505050905090565b600080600860008473ffffffffffffffffffffffffffffffffffffffff1673ffffffffffffffffffffffffffffffffffffffff16815260200190815260200160002080549050905060008114610a3057600860008473ffffffffffffffffffffffffffffffffffffffff1673ffffffffffffffffffffffffffffffffffffffff1681526020019081526020016000206001826109e49190612a79565b815481106109f5576109f4612aad565b5b9060005260206000200160000160049054906101000a90047bffffffffffffffffffffffffffffffffffffffffffffffffffffffff16610a33565b60005b7bffffffffffffffffffffffffffffffffffffffffffffffffffffffff16915050919050565b600080610a646111dc565b90506000610a728286610d3f565b905083811015610ab7576040517f08c379a0000000000000000000000000000000000000000000000000000000008152600401610aae90612b4e565b60405180910390fd5b610ac482868684036111e4565b60019250505092915050565b600080610adb6111dc565b9050610ae8818585611439565b600191505092915050565b83421115610b36576040517f08c379a0000000000000000000000000000000000000000000000000000000008152600401610b2d90612bba565b60405180910390fd5b6000610b98610b907fe48329057bfd03d55e49b547132e39cffd9c1820ad7b9d4c5307691425d15adf898989604051602001610b759493929190612bda565b60405160208183030381529060405280519060200120611a14565b858585611a2e565b9050610ba381611a59565b8614610be4576040517f08c379a0000000000000000000000000000000000000000000000000000000008152600401610bdb90612c6b565b60405180910390fd5b610bee81886118ec565b50505050505050565b83421115610c3a576040517f08c379a0000000000000000000000000000000000000000000000000000000008152600401610c3190612cd7565b60405180910390fd5b60007f6e71edae12b1b97f4d1f60370fef10105fa2faae0126114a169c64845d6126c9888888610c698c611a59565b89604051602001610c7f96959493929190612cf7565b6040516020818303038152906040528051906020012090506000610ca282611a14565b90506000610cb282878787611a2e565b90508973ffffffffffffffffffffffffffffffffffffffff168173ffffffffffffffffffffffffffffffffffffffff1614610d22576040517f08c379a0000000000000000000000000000000000000000000000000000000008152600401610d1990612da4565b60405180910390fd5b610d2d8a8a8a6111e4565b50505050505050505050565b600a5481565b6000600160008473ffffffffffffffffffffffffffffffffffffffff1673ffffffffffffffffffffffffffffffffffffffff16815260200190815260200160002060008373ffffffffffffffffffffffffffffffffffffffff1673ffffffffffffffffffffffffffffffffffffffff16815260200190815260200160002054905092915050565b610dce6122e2565b600860008473ffffffffffffffffffffffffffffffffffffffff1673ffffffffffffffffffffffffffffffffffffffff1681526020019081526020016000208263ffffffff1681548110610e2557610e24612aad565b5b906000526020600020016040518060400160405290816000820160009054906101000a900463ffffffff1663ffffffff1663ffffffff1681526020016000820160049054906101000a90047bffffffffffffffffffffffffffffffffffffffffffffffffffffffff167bffffffffffffffffffffffffffffffffffffffffffffffffffffffff167bffffffffffffffffffffffffffffffffffffffffffffffffffffffff1681525050905092915050565b610ee08282610f63565b610ee8611ab7565b7bffffffffffffffffffffffffffffffffffffffffffffffffffffffff16610f0e6105c4565b1115610f4f576040517f08c379a0000000000000000000000000000000000000000000000000000000008152600401610f4690612e36565b60405180910390fd5b610f5d60096110c283611adb565b50505050565b600073ffffffffffffffffffffffffffffffffffffffff168273ffffffffffffffffffffffffffffffffffffffff1603610fd2576040517f08c379a0000000000000000000000000000000000000000000000000000000008152600401610fc990612ea2565b60405180910390fd5b610fde60008383611d53565b8060026000828254610ff091906129d9565b92505081905550806000808473ffffffffffffffffffffffffffffffffffffffff1673ffffffffffffffffffffffffffffffffffffffff168152602001908152602001600020600082825461104591906129d9565b925050819055508173ffffffffffffffffffffffffffffffffffffffff16600073ffffffffffffffffffffffffffffffffffffffff167fddf252ad1be2c89b69c2b068fc378daa952ba7f163c4a11628f55a4df523b3ef836040516110aa91906124f0565b60405180910390a36110be60008383611d58565b5050565b600081836110d091906129d9565b905092915050565b60007bffffffffffffffffffffffffffffffffffffffffffffffffffffffff801682111561113b576040517f08c379a000000000000000000000000000000000000000000000000000000000815260040161113290612f34565b60405180910390fd5b819050919050565b600063ffffffff801682111561118e576040517f08c379a000000000000000000000000000000000000000000000000000000000815260040161118590612fc6565b60405180910390fd5b819050919050565b6111a18383836111c1565b6111bc6111ad846106f7565b6111b6846106f7565b83611d68565b505050565b505050565b600081836111d49190612a79565b905092915050565b600033905090565b600073ffffffffffffffffffffffffffffffffffffffff168373ffffffffffffffffffffffffffffffffffffffff1603611253576040517f08c379a000000000000000000000000000000000000000000000000000000000815260040161124a90613058565b60405180910390fd5b600073ffffffffffffffffffffffffffffffffffffffff168273ffffffffffffffffffffffffffffffffffffffff16036112c2576040517f08c379a00000000000000000000000000000000000000000000000000000000081526004016112b9906130ea565b60405180910390fd5b80600160008573ffffffffffffffffffffffffffffffffffffffff1673ffffffffffffffffffffffffffffffffffffffff16815260200190815260200160002060008473ffffffffffffffffffffffffffffffffffffffff1673ffffffffffffffffffffffffffffffffffffffff168152602001908152602001600020819055508173ffffffffffffffffffffffffffffffffffffffff168373ffffffffffffffffffffffffffffffffffffffff167f8c5be1e5ebec7d5bd14f71427d1e84f3dd0314c0f7b2291e5b200ac8c7c3b925836040516113a091906124f0565b60405180910390a3505050565b60006113b98484610d3f565b90507fffffffffffffffffffffffffffffffffffffffffffffffffffffffffffffffff81146114335781811015611425576040517f08c379a000000000000000000000000000000000000000000000000000000000815260040161141c90613156565b60405180910390fd5b61143284848484036111e4565b5b50505050565b600073ffffffffffffffffffffffffffffffffffffffff168373ffffffffffffffffffffffffffffffffffffffff16036114a8576040517f08c379a000000000000000000000000000000000000000000000000000000000815260040161149f906131e8565b60405180910390fd5b600073ffffffffffffffffffffffffffffffffffffffff168273ffffffffffffffffffffffffffffffffffffffff1603611517576040517f08c379a000000000000000000000000000000000000000000000000000000000815260040161150e9061327a565b60405180910390fd5b611522838383611d53565b60008060008573ffffffffffffffffffffffffffffffffffffffff1673ffffffffffffffffffffffffffffffffffffffff168152602001908152602001600020549050818110156115a8576040517f08c379a000000000000000000000000000000000000000000000000000000000815260040161159f9061330c565b60405180910390fd5b8181036000808673ffffffffffffffffffffffffffffffffffffffff1673ffffffffffffffffffffffffffffffffffffffff16815260200190815260200160002081905550816000808573ffffffffffffffffffffffffffffffffffffffff1673ffffffffffffffffffffffffffffffffffffffff168152602001908152602001600020600082825461163b91906129d9565b925050819055508273ffffffffffffffffffffffffffffffffffffffff168473ffffffffffffffffffffffffffffffffffffffff167fddf252ad1be2c89b69c2b068fc378daa952ba7f163c4a11628f55a4df523b3ef8460405161169f91906124f0565b60405180910390a36116b2848484611d58565b50505050565b60007f000000000000000000000000000000000000000000000000000000000000000073ffffffffffffffffffffffffffffffffffffffff163073ffffffffffffffffffffffffffffffffffffffff1614801561173457507f000000000000000000000000000000000000000000000000000000000000000046145b15611761577f000000000000000000000000000000000000000000000000000000000000000090506117cf565b6117cc7f00000000000000000000000000000000000000000000000000000000000000007f00000000000000000000000000000000000000000000000000000000000000007f0000000000000000000000000000000000000000000000000000000000000000611f61565b90505b90565b6000808380549050905060005b818110156118515760006117f38284611f9b565b90508486828154811061180957611808612aad565b5b9060005260206000200160000160009054906101000a900463ffffffff1663ffffffff16111561183b5780925061184b565b60018161184891906129d9565b91505b506117df565b600082146118b357846001836118679190612a79565b8154811061187857611877612aad565b5b9060005260206000200160000160049054906101000a90047bffffffffffffffffffffffffffffffffffffffffffffffffffffffff166118b6565b60005b7bffffffffffffffffffffffffffffffffffffffffffffffffffffffff169250505092915050565b6118e88282610ed6565b5050565b60006118f7836106f7565b90506000611904846107c8565b905082600760008673ffffffffffffffffffffffffffffffffffffffff1673ffffffffffffffffffffffffffffffffffffffff16815260200190815260200160002060006101000a81548173ffffffffffffffffffffffffffffffffffffffff021916908373ffffffffffffffffffffffffffffffffffffffff1602179055508273ffffffffffffffffffffffffffffffffffffffff168273ffffffffffffffffffffffffffffffffffffffff168573ffffffffffffffffffffffffffffffffffffffff167f3134e8a2e6d97e929a7e54011ea5485d7d196dd5f0ba4d4ef95803e8e3fc257f60405160405180910390a4611a00828483611d68565b50505050565b600081600001549050919050565b6000611a27611a216116b8565b83611fc1565b9050919050565b6000806000611a3f87878787611ff4565b91509150611a4c81612100565b8192505050949350505050565b600080600560008473ffffffffffffffffffffffffffffffffffffffff1673ffffffffffffffffffffffffffffffffffffffff1681526020019081526020016000209050611aa681611a06565b9150611ab1816122cc565b50919050565b60007bffffffffffffffffffffffffffffffffffffffffffffffffffffffff905090565b60008060008580549050905060008114611b495785600182611afd9190612a79565b81548110611b0e57611b0d612aad565b5b9060005260206000200160000160049054906101000a90047bffffffffffffffffffffffffffffffffffffffffffffffffffffffff16611b4c565b60005b7bffffffffffffffffffffffffffffffffffffffffffffffffffffffff169250611b7a83858763ffffffff16565b9150600081118015611bcd57504386600183611b969190612a79565b81548110611ba757611ba6612aad565b5b9060005260206000200160000160009054906101000a900463ffffffff1663ffffffff16145b15611c5a57611bdb826110d8565b86600183611be99190612a79565b81548110611bfa57611bf9612aad565b5b9060005260206000200160000160046101000a8154817bffffffffffffffffffffffffffffffffffffffffffffffffffffffff02191690837bffffffffffffffffffffffffffffffffffffffffffffffffffffffff160217905550611d4a565b856040518060400160405280611c6f43611143565b63ffffffff168152602001611c83856110d8565b7bffffffffffffffffffffffffffffffffffffffffffffffffffffffff168152509080600181540180825580915050600190039060005260206000200160009091909190915060008201518160000160006101000a81548163ffffffff021916908363ffffffff16021790555060208201518160000160046101000a8154817bffffffffffffffffffffffffffffffffffffffffffffffffffffffff02191690837bffffffffffffffffffffffffffffffffffffffffffffffffffffffff16021790555050505b50935093915050565b505050565b611d63838383611196565b505050565b8173ffffffffffffffffffffffffffffffffffffffff168373ffffffffffffffffffffffffffffffffffffffff1614158015611da45750600081115b15611f5c57600073ffffffffffffffffffffffffffffffffffffffff168373ffffffffffffffffffffffffffffffffffffffff1614611e8257600080611e2b600860008773ffffffffffffffffffffffffffffffffffffffff1673ffffffffffffffffffffffffffffffffffffffff1681526020019081526020016000206111c685611adb565b915091508473ffffffffffffffffffffffffffffffffffffffff167fdec2bacdd2f05b59de34da9b523dff8be42e5e38e818c82fdb0bae774387a7248383604051611e7792919061332c565b60405180910390a250505b600073ffffffffffffffffffffffffffffffffffffffff168273ffffffffffffffffffffffffffffffffffffffff1614611f5b57600080611f04600860008673ffffffffffffffffffffffffffffffffffffffff1673ffffffffffffffffffffffffffffffffffffffff1681526020019081526020016000206110c285611adb565b915091508373ffffffffffffffffffffffffffffffffffffffff167fdec2bacdd2f05b59de34da9b523dff8be42e5e38e818c82fdb0bae774387a7248383604051611f5092919061332c565b60405180910390a250505b5b505050565b60008383834630604051602001611f7c959493929190613355565b6040516020818303038152906040528051906020012090509392505050565b60006002828418611fac91906133d7565b828416611fb991906129d9565b905092915050565b60008282604051602001611fd6929190613480565b60405160208183030381529060405280519060200120905092915050565b6000807f7fffffffffffffffffffffffffffffff5d576e7357a4501ddfe92f46681b20a08360001c111561202f5760006003915091506120f7565b601b8560ff16141580156120475750601c8560ff1614155b156120595760006004915091506120f7565b60006001878787876040516000815260200160405260405161207e94939291906134b7565b6020604051602081039080840390855afa1580156120a0573d6000803e3d6000fd5b505050602060405103519050600073ffffffffffffffffffffffffffffffffffffffff168173ffffffffffffffffffffffffffffffffffffffff16036120ee576000600192509250506120f7565b80600092509250505b94509492505050565b60006004811115612114576121136134fc565b5b816004811115612127576121266134fc565b5b03156122c95760016004811115612141576121406134fc565b5b816004811115612154576121536134fc565b5b03612194576040517f08c379a000000000000000000000000000000000000000000000000000000000815260040161218b90613577565b60405180910390fd5b600260048111156121a8576121a76134fc565b5b8160048111156121bb576121ba6134fc565b5b036121fb576040517f08c379a00000000000000000000000000000000000000000000000000000000081526004016121f2906135e3565b60405180910390fd5b6003600481111561220f5761220e6134fc565b5b816004811115612222576122216134fc565b5b03612262576040517f08c379a000000000000000000000000000000000000000000000000000000000815260040161225990613675565b60405180910390fd5b600480811115612275576122746134fc565b5b816004811115612288576122876134fc565b5b036122c8576040517f08c379a00000000000000000000000000000000000000000000000000000000081526004016122bf90613707565b60405180910390fd5b5b50565b6001816000016000828254019250508190555050565b6040518060400160405280600063ffffffff16815260200160007bffffffffffffffffffffffffffffffffffffffffffffffffffffffff1681525090565b600081519050919050565b600082825260208201905092915050565b60005b8381101561235a57808201518184015260208101905061233f565b60008484015250505050565b6000601f19601f8301169050919050565b600061238282612320565b61238c818561232b565b935061239c81856020860161233c565b6123a581612366565b840191505092915050565b600060208201905081810360008301526123ca8184612377565b905092915050565b600080fd5b600073ffffffffffffffffffffffffffffffffffffffff82169050919050565b6000612402826123d7565b9050919050565b612412816123f7565b811461241d57600080fd5b50565b60008135905061242f81612409565b92915050565b6000819050919050565b61244881612435565b811461245357600080fd5b50565b6000813590506124658161243f565b92915050565b60008060408385031215612482576124816123d2565b5b600061249085828601612420565b92505060206124a185828601612456565b9150509250929050565b60008115159050919050565b6124c0816124ab565b82525050565b60006020820190506124db60008301846124b7565b92915050565b6124ea81612435565b82525050565b600060208201905061250560008301846124e1565b92915050565b600080600060608486031215612524576125236123d2565b5b600061253286828701612420565b935050602061254386828701612420565b925050604061255486828701612456565b9150509250925092565b600060ff82169050919050565b6125748161255e565b82525050565b600060208201905061258f600083018461256b565b92915050565b6000819050919050565b6125a881612595565b82525050565b60006020820190506125c3600083018461259f565b92915050565b6000602082840312156125df576125de6123d2565b5b60006125ed84828501612420565b91505092915050565b6125ff816123f7565b82525050565b600060208201905061261a60008301846125f6565b92915050565b600063ffffffff82169050919050565b61263981612620565b82525050565b60006020820190506126546000830184612630565b92915050565b6000602082840312156126705761266f6123d2565b5b600061267e84828501612456565b91505092915050565b6126908161255e565b811461269b57600080fd5b50565b6000813590506126ad81612687565b92915050565b6126bc81612595565b81146126c757600080fd5b50565b6000813590506126d9816126b3565b92915050565b60008060008060008060c087890312156126fc576126fb6123d2565b5b600061270a89828a01612420565b965050602061271b89828a01612456565b955050604061272c89828a01612456565b945050606061273d89828a0161269e565b935050608061274e89828a016126ca565b92505060a061275f89828a016126ca565b9150509295509295509295565b600080600080600080600060e0888a03121561278b5761278a6123d2565b5b60006127998a828b01612420565b97505060206127aa8a828b01612420565b96505060406127bb8a828b01612456565b95505060606127cc8a828b01612456565b94505060806127dd8a828b0161269e565b93505060a06127ee8a828b016126ca565b92505060c06127ff8a828b016126ca565b91505092959891949750929550565b60008060408385031215612825576128246123d2565b5b600061283385828601612420565b925050602061284485828601612420565b9150509250929050565b61285781612620565b811461286257600080fd5b50565b6000813590506128748161284e565b92915050565b60008060408385031215612891576128906123d2565b5b600061289f85828601612420565b92505060206128b085828601612865565b9150509250929050565b6128c381612620565b82525050565b60007bffffffffffffffffffffffffffffffffffffffffffffffffffffffff82169050919050565b6128fa816128c9565b82525050565b60408201600082015161291660008501826128ba565b50602082015161292960208501826128f1565b50505050565b60006040820190506129446000830184612900565b92915050565b7f4e487b7100000000000000000000000000000000000000000000000000000000600052602260045260246000fd5b6000600282049050600182168061299157607f821691505b6020821081036129a4576129a361294a565b5b50919050565b7f4e487b7100000000000000000000000000000000000000000000000000000000600052601160045260246000fd5b60006129e482612435565b91506129ef83612435565b9250828201905080821115612a0757612a066129aa565b5b92915050565b7f4552433230566f7465733a20626c6f636b206e6f7420796574206d696e656400600082015250565b6000612a43601f8361232b565b9150612a4e82612a0d565b602082019050919050565b60006020820190508181036000830152612a7281612a36565b9050919050565b6000612a8482612435565b9150612a8f83612435565b9250828203905081811115612aa757612aa66129aa565b5b92915050565b7f4e487b7100000000000000000000000000000000000000000000000000000000600052603260045260246000fd5b7f45524332303a2064656372656173656420616c6c6f77616e63652062656c6f7760008201527f207a65726f000000000000000000000000000000000000000000000000000000602082015250565b6000612b3860258361232b565b9150612b4382612adc565b604082019050919050565b60006020820190508181036000830152612b6781612b2b565b9050919050565b7f4552433230566f7465733a207369676e61747572652065787069726564000000600082015250565b6000612ba4601d8361232b565b9150612baf82612b6e565b602082019050919050565b60006020820190508181036000830152612bd381612b97565b9050919050565b6000608082019050612bef600083018761259f565b612bfc60208301866125f6565b612c0960408301856124e1565b612c1660608301846124e1565b95945050505050565b7f4552433230566f7465733a20696e76616c6964206e6f6e636500000000000000600082015250565b6000612c5560198361232b565b9150612c6082612c1f565b602082019050919050565b60006020820190508181036000830152612c8481612c48565b9050919050565b7f45524332305065726d69743a206578706972656420646561646c696e65000000600082015250565b6000612cc1601d8361232b565b9150612ccc82612c8b565b602082019050919050565b60006020820190508181036000830152612cf081612cb4565b9050919050565b600060c082019050612d0c600083018961259f565b612d1960208301886125f6565b612d2660408301876125f6565b612d3360608301866124e1565b612d4060808301856124e1565b612d4d60a08301846124e1565b979650505050505050565b7f45524332305065726d69743a20696e76616c6964207369676e61747572650000600082015250565b6000612d8e601e8361232b565b9150612d9982612d58565b602082019050919050565b60006020820190508181036000830152612dbd81612d81565b9050919050565b7f4552433230566f7465733a20746f74616c20737570706c79207269736b73206f60008201527f766572666c6f77696e6720766f74657300000000000000000000000000000000602082015250565b6000612e2060308361232b565b9150612e2b82612dc4565b604082019050919050565b60006020820190508181036000830152612e4f81612e13565b9050919050565b7f45524332303a206d696e7420746f20746865207a65726f206164647265737300600082015250565b6000612e8c601f8361232b565b9150612e9782612e56565b602082019050919050565b60006020820190508181036000830152612ebb81612e7f565b9050919050565b7f53616665436173743a2076616c756520646f65736e27742066697420696e203260008201527f3234206269747300000000000000000000000000000000000000000000000000602082015250565b6000612f1e60278361232b565b9150612f2982612ec2565b604082019050919050565b60006020820190508181036000830152612f4d81612f11565b9050919050565b7f53616665436173743a2076616c756520646f65736e27742066697420696e203360008201527f3220626974730000000000000000000000000000000000000000000000000000602082015250565b6000612fb060268361232b565b9150612fbb82612f54565b604082019050919050565b60006020820190508181036000830152612fdf81612fa3565b9050919050565b7f45524332303a20617070726f76652066726f6d20746865207a65726f2061646460008201527f7265737300000000000000000000000000000000000000000000000000000000602082015250565b600061304260248361232b565b915061304d82612fe6565b604082019050919050565b6000602082019050818103600083015261307181613035565b9050919050565b7f45524332303a20617070726f766520746f20746865207a65726f20616464726560008201527f7373000000000000000000000000000000000000000000000000000000000000602082015250565b60006130d460228361232b565b91506130df82613078565b604082019050919050565b60006020820190508181036000830152613103816130c7565b9050919050565b7f45524332303a20696e73756666696369656e7420616c6c6f77616e6365000000600082015250565b6000613140601d8361232b565b915061314b8261310a565b602082019050919050565b6000602082019050818103600083015261316f81613133565b9050919050565b7f45524332303a207472616e736665722066726f6d20746865207a65726f20616460008201527f6472657373000000000000000000000000000000000000000000000000000000602082015250565b60006131d260258361232b565b91506131dd82613176565b604082019050919050565b60006020820190508181036000830152613201816131c5565b9050919050565b7f45524332303a207472616e7366657220746f20746865207a65726f206164647260008201527f6573730000000000000000000000000000000000000000000000000000000000602082015250565b600061326460238361232b565b915061326f82613208565b604082019050919050565b6000602082019050818103600083015261329381613257565b9050919050565b7f45524332303a207472616e7366657220616d6f756e742065786365656473206260008201527f616c616e63650000000000000000000000000000000000000000000000000000602082015250565b60006132f660268361232b565b91506133018261329a565b604082019050919050565b60006020820190508181036000830152613325816132e9565b9050919050565b600060408201905061334160008301856124e1565b61334e60208301846124e1565b9392505050565b600060a08201905061336a600083018861259f565b613377602083018761259f565b613384604083018661259f565b61339160608301856124e1565b61339e60808301846125f6565b9695505050505050565b7f4e487b7100000000000000000000000000000000000000000000000000000000600052601260045260246000fd5b60006133e282612435565b91506133ed83612435565b9250826133fd576133fc6133a8565b5b828204905092915050565b600081905092915050565b7f1901000000000000000000000000000000000000000000000000000000000000600082015250565b6000613449600283613408565b915061345482613413565b600282019050919050565b6000819050919050565b61347a61347582612595565b61345f565b82525050565b600061348b8261343c565b91506134978285613469565b6020820191506134a78284613469565b6020820191508190509392505050565b60006080820190506134cc600083018761259f565b6134d9602083018661256b565b6134e6604083018561259f565b6134f3606083018461259f565b95945050505050565b7f4e487b7100000000000000000000000000000000000000000000000000000000600052602160045260246000fd5b7f45434453413a20696e76616c6964207369676e61747572650000000000000000600082015250565b600061356160188361232b565b915061356c8261352b565b602082019050919050565b6000602082019050818103600083015261359081613554565b9050919050565b7f45434453413a20696e76616c6964207369676e6174757265206c656e67746800600082015250565b60006135cd601f8361232b565b91506135d882613597565b602082019050919050565b600060208201905081810360008301526135fc816135c0565b9050919050565b7f45434453413a20696e76616c6964207369676e6174757265202773272076616c60008201527f7565000000000000000000000000000000000000000000000000000000000000602082015250565b600061365f60228361232b565b915061366a82613603565b604082019050919050565b6000602082019050818103600083015261368e81613652565b9050919050565b7f45434453413a20696e76616c6964207369676e6174757265202776272076616c60008201527f7565000000000000000000000000000000000000000000000000000000000000602082015250565b60006136f160228361232b565b91506136fc82613695565b604082019050919050565b60006020820190508181036000830152613720816136e4565b905091905056fea264697066735822122081eaf989a62c6fc9fa6d6d0655c31b16dd609bea1e5d02c34a7563c29ca7ab5a64736f6c63430008110033",
  "linkReferences": {},
  "deployedLinkReferences": {}
}