{
  "_format": "hh-sol-artifact-1",
  "contractName": "GovernanceToken",
  "sourceName": "contracts/governance/GovernanceToken.sol",
  "abi": [
    {
      "inputs": [],
      "stateMutability": "nonpayable",
      "type": "constructor"
    },
    {
      "anonymous": false,
      "inputs": [
        {
          "indexed": true,
          "internalType": "address",
          "name": "owner",
          "type": "address"
        },
        {
          "indexed": true,
          "internalType": "address",
          "name": "spender",
          "type": "address"
        },
        {
          "indexed": false,
          "internalType": "uint256",
          "name": "value",
          "type": "uint256"
        }
      ],
      "name": "Approval",
      "type": "event"
    },
    {
      "anonymous": false,
      "inputs": [
        {
          "indexed": true,
          "internalType": "address",
          "name": "delegator",
          "type": "address"
        },
        {
          "indexed": true,
          "internalType": "address",
          "name": "fromDelegate",
          "type": "address"
        },
        {
          "indexed": true,
          "internalType": "address",
          "name": "toDelegate",
          "type": "address"
        }
      ],
      "name": "DelegateChanged",
      "type": "event"
    },
    {
      "anonymous": false,
      "inputs": [
        {
          "indexed": true,
          "internalType": "address",
          "name": "delegate",
          "type": "address"
        },
        {
          "indexed": false,
          "internalType": "uint256",
          "name": "previousBalance",
          "type": "uint256"
        },
        {
          "indexed": false,
          "internalType": "uint256",
          "name": "newBalance",
          "type": "uint256"
        }
      ],
      "name": "DelegateVotesChanged",
      "type": "event"
    },
    {
      "anonymous": false,
      "inputs": [
        {
          "indexed": true,
          "internalType": "bytes32",
          "name": "role",
          "type": "bytes32"
        },
        {
          "indexed": true,
          "internalType": "bytes32",
          "name": "previousAdminRole",
          "type": "bytes32"
        },
        {
          "indexed": true,
          "internalType": "bytes32",
          "name": "newAdminRole",
          "type": "bytes32"
        }
      ],
      "name": "RoleAdminChanged",
      "type": "event"
    },
    {
      "anonymous": false,
      "inputs": [
        {
          "indexed": true,
          "internalType": "bytes32",
          "name": "role",
          "type": "bytes32"
        },
        {
          "indexed": true,
          "internalType": "address",
          "name": "account",
          "type": "address"
        },
        {
          "indexed": true,
          "internalType": "address",
          "name": "sender",
          "type": "address"
        }
      ],
      "name": "RoleGranted",
      "type": "event"
    },
    {
      "anonymous": false,
      "inputs": [
        {
          "indexed": true,
          "internalType": "bytes32",
          "name": "role",
          "type": "bytes32"
        },
        {
          "indexed": true,
          "internalType": "address",
          "name": "account",
          "type": "address"
        },
        {
          "indexed": true,
          "internalType": "address",
          "name": "sender",
          "type": "address"
        }
      ],
      "name": "RoleRevoked",
      "type": "event"
    },
    {
      "anonymous": false,
      "inputs": [
        {
          "indexed": true,
          "internalType": "address",
          "name": "from",
          "type": "address"
        },
        {
          "indexed": true,
          "internalType": "address",
          "name": "to",
          "type": "address"
        },
        {
          "indexed": false,
          "internalType": "uint256",
          "name": "value",
          "type": "uint256"
        }
      ],
      "name": "Transfer",
      "type": "event"
    },
    {
      "inputs": [],
      "name": "DEFAULT_ADMIN_ROLE",
      "outputs": [
        {
          "internalType": "bytes32",
          "name": "",
          "type": "bytes32"
        }
      ],
      "stateMutability": "view",
      "type": "function"
    },
    {
      "inputs": [],
      "name": "DOMAIN_SEPARATOR",
      "outputs": [
        {
          "internalType": "bytes32",
          "name": "",
          "type": "bytes32"
        }
      ],
      "stateMutability": "view",
      "type": "function"
    },
    {
      "inputs": [],
      "name": "_mintToken",
      "outputs": [],
      "stateMutability": "nonpayable",
      "type": "function"
    },
    {
      "inputs": [
        {
          "internalType": "address",
          "name": "owner",
          "type": "address"
        },
        {
          "internalType": "address",
          "name": "spender",
          "type": "address"
        }
      ],
      "name": "allowance",
      "outputs": [
        {
          "internalType": "uint256",
          "name": "",
          "type": "uint256"
        }
      ],
      "stateMutability": "view",
      "type": "function"
    },
    {
      "inputs": [
        {
          "internalType": "address",
          "name": "spender",
          "type": "address"
        },
        {
          "internalType": "uint256",
          "name": "amount",
          "type": "uint256"
        }
      ],
      "name": "approve",
      "outputs": [
        {
          "internalType": "bool",
          "name": "",
          "type": "bool"
        }
      ],
      "stateMutability": "nonpayable",
      "type": "function"
    },
    {
      "inputs": [
        {
          "internalType": "address",
          "name": "account",
          "type": "address"
        }
      ],
      "name": "balanceOf",
      "outputs": [
        {
          "internalType": "uint256",
          "name": "",
          "type": "uint256"
        }
      ],
      "stateMutability": "view",
      "type": "function"
    },
    {
      "inputs": [
        {
          "internalType": "address",
          "name": "account",
          "type": "address"
        },
        {
          "internalType": "uint32",
          "name": "pos",
          "type": "uint32"
        }
      ],
      "name": "checkpoints",
      "outputs": [
        {
          "components": [
            {
              "internalType": "uint32",
              "name": "fromBlock",
              "type": "uint32"
            },
            {
              "internalType": "uint224",
              "name": "votes",
              "type": "uint224"
            }
          ],
          "internalType": "struct ERC20Votes.Checkpoint",
          "name": "",
          "type": "tuple"
        }
      ],
      "stateMutability": "view",
      "type": "function"
    },
    {
      "inputs": [],
      "name": "decimals",
      "outputs": [
        {
          "internalType": "uint8",
          "name": "",
          "type": "uint8"
        }
      ],
      "stateMutability": "view",
      "type": "function"
    },
    {
      "inputs": [
        {
          "internalType": "address",
          "name": "spender",
          "type": "address"
        },
        {
          "internalType": "uint256",
          "name": "subtractedValue",
          "type": "uint256"
        }
      ],
      "name": "decreaseAllowance",
      "outputs": [
        {
          "internalType": "bool",
          "name": "",
          "type": "bool"
        }
      ],
      "stateMutability": "nonpayable",
      "type": "function"
    },
    {
      "inputs": [
        {
          "internalType": "address",
          "name": "delegatee",
          "type": "address"
        }
      ],
      "name": "delegate",
      "outputs": [],
      "stateMutability": "nonpayable",
      "type": "function"
    },
    {
      "inputs": [
        {
          "internalType": "address",
          "name": "delegatee",
          "type": "address"
        },
        {
          "internalType": "uint256",
          "name": "nonce",
          "type": "uint256"
        },
        {
          "internalType": "uint256",
          "name": "expiry",
          "type": "uint256"
        },
        {
          "internalType": "uint8",
          "name": "v",
          "type": "uint8"
        },
        {
          "internalType": "bytes32",
          "name": "r",
          "type": "bytes32"
        },
        {
          "internalType": "bytes32",
          "name": "s",
          "type": "bytes32"
        }
      ],
      "name": "delegateBySig",
      "outputs": [],
      "stateMutability": "nonpayable",
      "type": "function"
    },
    {
      "inputs": [
        {
          "internalType": "address",
          "name": "account",
          "type": "address"
        }
      ],
      "name": "delegates",
      "outputs": [
        {
          "internalType": "address",
          "name": "",
          "type": "address"
        }
      ],
      "stateMutability": "view",
      "type": "function"
    },
    {
      "inputs": [
        {
          "internalType": "uint256",
          "name": "blockNumber",
          "type": "uint256"
        }
      ],
      "name": "getPastTotalSupply",
      "outputs": [
        {
          "internalType": "uint256",
          "name": "",
          "type": "uint256"
        }
      ],
      "stateMutability": "view",
      "type": "function"
    },
    {
      "inputs": [
        {
          "internalType": "address",
          "name": "account",
          "type": "address"
        },
        {
          "internalType": "uint256",
          "name": "blockNumber",
          "type": "uint256"
        }
      ],
      "name": "getPastVotes",
      "outputs": [
        {
          "internalType": "uint256",
          "name": "",
          "type": "uint256"
        }
      ],
      "stateMutability": "view",
      "type": "function"
    },
    {
      "inputs": [
        {
          "internalType": "bytes32",
          "name": "role",
          "type": "bytes32"
        }
      ],
      "name": "getRoleAdmin",
      "outputs": [
        {
          "internalType": "bytes32",
          "name": "",
          "type": "bytes32"
        }
      ],
      "stateMutability": "view",
      "type": "function"
    },
    {
      "inputs": [
        {
          "internalType": "address",
          "name": "account",
          "type": "address"
        }
      ],
      "name": "getVotes",
      "outputs": [
        {
          "internalType": "uint256",
          "name": "",
          "type": "uint256"
        }
      ],
      "stateMutability": "view",
      "type": "function"
    },
    {
      "inputs": [
        {
          "internalType": "bytes32",
          "name": "role",
          "type": "bytes32"
        },
        {
          "internalType": "address",
          "name": "account",
          "type": "address"
        }
      ],
      "name": "grantRole",
      "outputs": [],
      "stateMutability": "nonpayable",
      "type": "function"
    },
    {
      "inputs": [
        {
          "internalType": "bytes32",
          "name": "role",
          "type": "bytes32"
        },
        {
          "internalType": "address",
          "name": "account",
          "type": "address"
        }
      ],
      "name": "hasRole",
      "outputs": [
        {
          "internalType": "bool",
          "name": "",
          "type": "bool"
        }
      ],
      "stateMutability": "view",
      "type": "function"
    },
    {
      "inputs": [
        {
          "internalType": "address",
          "name": "spender",
          "type": "address"
        },
        {
          "internalType": "uint256",
          "name": "addedValue",
          "type": "uint256"
        }
      ],
      "name": "increaseAllowance",
      "outputs": [
        {
          "internalType": "bool",
          "name": "",
          "type": "bool"
        }
      ],
      "stateMutability": "nonpayable",
      "type": "function"
    },
    {
      "inputs": [],
      "name": "name",
      "outputs": [
        {
          "internalType": "string",
          "name": "",
          "type": "string"
        }
      ],
      "stateMutability": "view",
      "type": "function"
    },
    {
      "inputs": [
        {
          "internalType": "address",
          "name": "owner",
          "type": "address"
        }
      ],
      "name": "nonces",
      "outputs": [
        {
          "internalType": "uint256",
          "name": "",
          "type": "uint256"
        }
      ],
      "stateMutability": "view",
      "type": "function"
    },
    {
      "inputs": [
        {
          "internalType": "address",
          "name": "account",
          "type": "address"
        }
      ],
      "name": "numCheckpoints",
      "outputs": [
        {
          "internalType": "uint32",
          "name": "",
          "type": "uint32"
        }
      ],
      "stateMutability": "view",
      "type": "function"
    },
    {
      "inputs": [
        {
          "internalType": "address",
          "name": "owner",
          "type": "address"
        },
        {
          "internalType": "address",
          "name": "spender",
          "type": "address"
        },
        {
          "internalType": "uint256",
          "name": "value",
          "type": "uint256"
        },
        {
          "internalType": "uint256",
          "name": "deadline",
          "type": "uint256"
        },
        {
          "internalType": "uint8",
          "name": "v",
          "type": "uint8"
        },
        {
          "internalType": "bytes32",
          "name": "r",
          "type": "bytes32"
        },
        {
          "internalType": "bytes32",
          "name": "s",
          "type": "bytes32"
        }
      ],
      "name": "permit",
      "outputs": [],
      "stateMutability": "nonpayable",
      "type": "function"
    },
    {
      "inputs": [
        {
          "internalType": "bytes32",
          "name": "role",
          "type": "bytes32"
        },
        {
          "internalType": "address",
          "name": "account",
          "type": "address"
        }
      ],
      "name": "renounceRole",
      "outputs": [],
      "stateMutability": "nonpayable",
      "type": "function"
    },
    {
      "inputs": [
        {
          "internalType": "bytes32",
          "name": "role",
          "type": "bytes32"
        },
        {
          "internalType": "address",
          "name": "account",
          "type": "address"
        }
      ],
      "name": "revokeRole",
      "outputs": [],
      "stateMutability": "nonpayable",
      "type": "function"
    },
    {
      "inputs": [],
      "name": "s_maxSupply",
      "outputs": [
        {
          "internalType": "uint256",
          "name": "",
          "type": "uint256"
        }
      ],
      "stateMutability": "view",
      "type": "function"
    },
    {
      "inputs": [
        {
          "internalType": "bytes4",
          "name": "interfaceId",
          "type": "bytes4"
        }
      ],
      "name": "supportsInterface",
      "outputs": [
        {
          "internalType": "bool",
          "name": "",
          "type": "bool"
        }
      ],
      "stateMutability": "view",
      "type": "function"
    },
    {
      "inputs": [],
      "name": "symbol",
      "outputs": [
        {
          "internalType": "string",
          "name": "",
          "type": "string"
        }
      ],
      "stateMutability": "view",
      "type": "function"
    },
    {
      "inputs": [],
      "name": "totalSupply",
      "outputs": [
        {
          "internalType": "uint256",
          "name": "",
          "type": "uint256"
        }
      ],
      "stateMutability": "view",
      "type": "function"
    },
    {
      "inputs": [
        {
          "internalType": "address",
          "name": "to",
          "type": "address"
        },
        {
          "internalType": "uint256",
          "name": "amount",
          "type": "uint256"
        }
      ],
      "name": "transfer",
      "outputs": [
        {
          "internalType": "bool",
          "name": "",
          "type": "bool"
        }
      ],
      "stateMutability": "nonpayable",
      "type": "function"
    },
    {
      "inputs": [
        {
          "internalType": "address",
          "name": "from",
          "type": "address"
        },
        {
          "internalType": "address",
          "name": "to",
          "type": "address"
        },
        {
          "internalType": "uint256",
          "name": "amount",
          "type": "uint256"
        }
      ],
      "name": "transferFrom",
      "outputs": [
        {
          "internalType": "bool",
          "name": "",
          "type": "bool"
        }
      ],
      "stateMutability": "nonpayable",
      "type": "function"
    }
  ],
  "bytecode": "0x6101406040526001600b55600c805473d6eaff3ac29b8453797e537a083772fd621f37ff6001600160a01b03199182168117909255600d805490911690911790553480156200004d57600080fd5b506040518060400160405280600f81526020016e23b7bb32b93730b731b2aa37b5b2b760891b81525080604051806040016040528060018152602001603160f81b8152506040518060400160405280600f81526020016e23b7bb32b93730b731b2aa37b5b2b760891b8152506040518060400160405280600281526020016111d560f21b8152508160039080519060200190620000ec9291906200019e565b508051620001029060049060208401906200019e565b5050825160208085019190912083518483012060e08290526101008190524660a0818152604080517f8b73c3c69bb8fe3d512ecc4cf759cc79239f7b179b0ffacaa9a75d522b39400f81880181905281830187905260608201869052608082019490945230818401528151808203909301835260c0019052805194019390932091935091906080523060c0526101205250620002819350505050565b828054620001ac9062000244565b90600052602060002090601f016020900481019282620001d057600085556200021b565b82601f10620001eb57805160ff19168380011785556200021b565b828001600101855582156200021b579182015b828111156200021b578251825591602001919060010190620001fe565b50620002299291506200022d565b5090565b5b808211156200022957600081556001016200022e565b600181811c908216806200025957607f821691505b602082108114156200027b57634e487b7160e01b600052602260045260246000fd5b50919050565b60805160a05160c05160e0516101005161012051612360620002d160003960006111e4015260006112330152600061120e0152600061116701526000611191015260006111bb01526123606000f3fe608060405234801561001057600080fd5b50600436106101e55760003560e01c80635d6418471161010f578063a217fddf116100a2578063d505accf11610071578063d505accf14610435578063d547741f14610448578063dd62ed3e1461045b578063f1127ed81461046e57600080fd5b8063a217fddf146103f4578063a457c2d7146103fc578063a9059cbb1461040f578063c3cda5201461042257600080fd5b80638e539e8c116100de5780638e539e8c146103b357806391d14854146103c657806395d89b41146103d95780639ab24eb0146103e157600080fd5b80635d641847146103465780636fcfff451461034f57806370a08231146103775780637ecebe00146103a057600080fd5b8063313ce567116101875780633a46b1a8116101565780633a46b1a8146102d457806342372e10146102e7578063587cde1e146102ef5780635c19a95c1461033357600080fd5b8063313ce567146102975780633644e515146102a657806336568abe146102ae57806339509351146102c157600080fd5b806318160ddd116101c357806318160ddd1461023a57806323b872dd1461024c578063248a9ca31461025f5780632f2ff15d1461028257600080fd5b806301ffc9a7146101ea57806306fdde0314610212578063095ea7b314610227575b600080fd5b6101fd6101f8366004611ed7565b6104ab565b60405190151581526020015b60405180910390f35b61021a6104e2565b6040516102099190611f2d565b6101fd610235366004611f7c565b610574565b6002545b604051908152602001610209565b6101fd61025a366004611fa6565b61058c565b61023e61026d366004611fe2565b6000908152600a602052604090206001015490565b610295610290366004611ffb565b6105b0565b005b60405160128152602001610209565b61023e6105da565b6102956102bc366004611ffb565b6105e9565b6101fd6102cf366004611f7c565b61066c565b61023e6102e2366004611f7c565b61068e565b610295610708565b61031b6102fd366004612027565b6001600160a01b039081166000908152600760205260409020541690565b6040516001600160a01b039091168152602001610209565b610295610341366004612027565b6107f7565b61023e600b5481565b61036261035d366004612027565b610804565b60405163ffffffff9091168152602001610209565b61023e610385366004612027565b6001600160a01b031660009081526020819052604090205490565b61023e6103ae366004612027565b610826565b61023e6103c1366004611fe2565b610844565b6101fd6103d4366004611ffb565b6108a0565b61021a6108cb565b61023e6103ef366004612027565b6108da565b61023e600081565b6101fd61040a366004611f7c565b610961565b6101fd61041d366004611f7c565b6109dc565b610295610430366004612053565b6109ea565b6102956104433660046120ab565b610b20565b610295610456366004611ffb565b610c84565b61023e610469366004612115565b610ca9565b61048161047c36600461213f565b610cd4565b60408051825163ffffffff1681526020928301516001600160e01b03169281019290925201610209565b60006001600160e01b03198216637965db0b60e01b14806104dc57506301ffc9a760e01b6001600160e01b03198316145b92915050565b6060600380546104f19061217f565b80601f016020809104026020016040519081016040528092919081815260200182805461051d9061217f565b801561056a5780601f1061053f5761010080835404028352916020019161056a565b820191906000526020600020905b81548152906001019060200180831161054d57829003601f168201915b5050505050905090565b600033610582818585610d58565b5060019392505050565b60003361059a858285610e7c565b6105a5858585610ef6565b506001949350505050565b6000828152600a60205260409020600101546105cb816110ca565b6105d583836110d4565b505050565b60006105e461115a565b905090565b6001600160a01b038116331461065e5760405162461bcd60e51b815260206004820152602f60248201527f416363657373436f6e74726f6c3a2063616e206f6e6c792072656e6f756e636560448201526e103937b632b9903337b91039b2b63360891b60648201526084015b60405180910390fd5b6106688282611281565b5050565b60003361058281858561067f8383610ca9565b61068991906121ca565b610d58565b60004382106106df5760405162461bcd60e51b815260206004820152601f60248201527f4552433230566f7465733a20626c6f636b206e6f7420796574206d696e6564006044820152606401610655565b6001600160a01b038316600090815260086020526040902061070190836112e8565b9392505050565b600d5460405163d0d0062760e01b81523360048201526001600160a01b039091169063d0d006279060240160206040518083038186803b15801561074b57600080fd5b505afa15801561075f573d6000803e3d6000fd5b505050506040513d601f19601f8201168201806040525081019061078391906121e2565b15156001146107e05760405162461bcd60e51b8152602060048201526024808201527f4552524f523a2043616c6c6572206973206e6f74206120426f617264204d656d6044820152636265722160e01b6064820152608401610655565b6107ec33600b546113a5565b6107f5336107f7565b565b61080133826113af565b50565b6001600160a01b0381166000908152600860205260408120546104dc90611428565b6001600160a01b0381166000908152600560205260408120546104dc565b60004382106108955760405162461bcd60e51b815260206004820152601f60248201527f4552433230566f7465733a20626c6f636b206e6f7420796574206d696e6564006044820152606401610655565b6104dc6009836112e8565b6000918252600a602090815260408084206001600160a01b0393909316845291905290205460ff1690565b6060600480546104f19061217f565b6001600160a01b038116600090815260086020526040812054801561094e576001600160a01b038316600090815260086020526040902061091c600183612204565b8154811061092c5761092c61221b565b60009182526020909120015464010000000090046001600160e01b0316610951565b60005b6001600160e01b03169392505050565b6000338161096f8286610ca9565b9050838110156109cf5760405162461bcd60e51b815260206004820152602560248201527f45524332303a2064656372656173656420616c6c6f77616e63652062656c6f77604482015264207a65726f60d81b6064820152608401610655565b6105a58286868403610d58565b600033610582818585610ef6565b83421115610a3a5760405162461bcd60e51b815260206004820152601d60248201527f4552433230566f7465733a207369676e617475726520657870697265640000006044820152606401610655565b604080517fe48329057bfd03d55e49b547132e39cffd9c1820ad7b9d4c5307691425d15adf60208201526001600160a01b038816918101919091526060810186905260808101859052600090610ab490610aac9060a00160405160208183030381529060405280519060200120611491565b8585856114df565b9050610abf81611507565b8614610b0d5760405162461bcd60e51b815260206004820152601960248201527f4552433230566f7465733a20696e76616c6964206e6f6e6365000000000000006044820152606401610655565b610b1781886113af565b50505050505050565b83421115610b705760405162461bcd60e51b815260206004820152601d60248201527f45524332305065726d69743a206578706972656420646561646c696e650000006044820152606401610655565b60007f6e71edae12b1b97f4d1f60370fef10105fa2faae0126114a169c64845d6126c9888888610b9f8c611507565b6040805160208101969096526001600160a01b0394851690860152929091166060840152608083015260a082015260c0810186905260e0016040516020818303038152906040528051906020012090506000610bfa82611491565b90506000610c0a828787876114df565b9050896001600160a01b0316816001600160a01b031614610c6d5760405162461bcd60e51b815260206004820152601e60248201527f45524332305065726d69743a20696e76616c6964207369676e617475726500006044820152606401610655565b610c788a8a8a610d58565b50505050505050505050565b6000828152600a6020526040902060010154610c9f816110ca565b6105d58383611281565b6001600160a01b03918216600090815260016020908152604080832093909416825291909152205490565b60408051808201909152600080825260208201526001600160a01b0383166000908152600860205260409020805463ffffffff8416908110610d1857610d1861221b565b60009182526020918290206040805180820190915291015463ffffffff8116825264010000000090046001600160e01b0316918101919091529392505050565b6001600160a01b038316610dba5760405162461bcd60e51b8152602060048201526024808201527f45524332303a20617070726f76652066726f6d20746865207a65726f206164646044820152637265737360e01b6064820152608401610655565b6001600160a01b038216610e1b5760405162461bcd60e51b815260206004820152602260248201527f45524332303a20617070726f766520746f20746865207a65726f206164647265604482015261737360f01b6064820152608401610655565b6001600160a01b0383811660008181526001602090815260408083209487168084529482529182902085905590518481527f8c5be1e5ebec7d5bd14f71427d1e84f3dd0314c0f7b2291e5b200ac8c7c3b925910160405180910390a3505050565b6000610e888484610ca9565b90506000198114610ef05781811015610ee35760405162461bcd60e51b815260206004820152601d60248201527f45524332303a20696e73756666696369656e7420616c6c6f77616e63650000006044820152606401610655565b610ef08484848403610d58565b50505050565b6001600160a01b038316610f5a5760405162461bcd60e51b815260206004820152602560248201527f45524332303a207472616e736665722066726f6d20746865207a65726f206164604482015264647265737360d81b6064820152608401610655565b6001600160a01b038216610fbc5760405162461bcd60e51b815260206004820152602360248201527f45524332303a207472616e7366657220746f20746865207a65726f206164647260448201526265737360e81b6064820152608401610655565b6001600160a01b038316600090815260208190526040902054818110156110345760405162461bcd60e51b815260206004820152602660248201527f45524332303a207472616e7366657220616d6f756e7420657863656564732062604482015265616c616e636560d01b6064820152608401610655565b6001600160a01b0380851660009081526020819052604080822085850390559185168152908120805484929061106b9084906121ca565b92505081905550826001600160a01b0316846001600160a01b03167fddf252ad1be2c89b69c2b068fc378daa952ba7f163c4a11628f55a4df523b3ef846040516110b791815260200190565b60405180910390a3610ef084848461152f565b610801813361153a565b6110de82826108a0565b610668576000828152600a602090815260408083206001600160a01b03851684529091529020805460ff191660011790556111163390565b6001600160a01b0316816001600160a01b0316837f2f8788117e7eff1d82e926ec794901d17c78024a50270940304540a733656f0d60405160405180910390a45050565b6000306001600160a01b037f0000000000000000000000000000000000000000000000000000000000000000161480156111b357507f000000000000000000000000000000000000000000000000000000000000000046145b156111dd57507f000000000000000000000000000000000000000000000000000000000000000090565b50604080517f00000000000000000000000000000000000000000000000000000000000000006020808301919091527f0000000000000000000000000000000000000000000000000000000000000000828401527f000000000000000000000000000000000000000000000000000000000000000060608301524660808301523060a0808401919091528351808403909101815260c0909201909252805191012090565b61128b82826108a0565b15610668576000828152600a602090815260408083206001600160a01b0385168085529252808320805460ff1916905551339285917ff6391f5c32d9c69d2a47ea670b442974b53935d1edc7fd64eb21e047a839171b9190a45050565b8154600090815b8181101561134c576000611303828461159e565b9050848682815481106113185761131861221b565b60009182526020909120015463ffffffff16111561133857809250611346565b6113438160016121ca565b91505b506112ef565b8115611390578461135e600184612204565b8154811061136e5761136e61221b565b60009182526020909120015464010000000090046001600160e01b0316611393565b60005b6001600160e01b031695945050505050565b61066882826115b9565b6001600160a01b038281166000818152600760208181526040808420805485845282862054949093528787166001600160a01b03198416811790915590519190951694919391928592917f3134e8a2e6d97e929a7e54011ea5485d7d196dd5f0ba4d4ef95803e8e3fc257f9190a4610ef0828483611643565b600063ffffffff82111561148d5760405162461bcd60e51b815260206004820152602660248201527f53616665436173743a2076616c756520646f65736e27742066697420696e203360448201526532206269747360d01b6064820152608401610655565b5090565b60006104dc61149e61115a565b8360405161190160f01b6020820152602281018390526042810182905260009060620160405160208183030381529060405280519060200120905092915050565b60008060006114f087878787611780565b915091506114fd8161186d565b5095945050505050565b6001600160a01b03811660009081526005602052604090208054600181018255905b50919050565b6105d5838383611a28565b61154482826108a0565b6106685761155c816001600160a01b03166014611a5a565b611567836020611a5a565b604051602001611578929190612231565b60408051601f198184030181529082905262461bcd60e51b825261065591600401611f2d565b60006115ad60028484186122a6565b610701908484166121ca565b6115c38282611bf6565b6002546001600160e01b0310156116355760405162461bcd60e51b815260206004820152603060248201527f4552433230566f7465733a20746f74616c20737570706c79207269736b73206f60448201526f766572666c6f77696e6720766f74657360801b6064820152608401610655565b610ef06009611cdd83611ce9565b816001600160a01b0316836001600160a01b0316141580156116655750600081115b156105d5576001600160a01b038316156116f3576001600160a01b038316600090815260086020526040812081906116a090611e6285611ce9565b91509150846001600160a01b03167fdec2bacdd2f05b59de34da9b523dff8be42e5e38e818c82fdb0bae774387a72483836040516116e8929190918252602082015260400190565b60405180910390a250505b6001600160a01b038216156105d5576001600160a01b0382166000908152600860205260408120819061172990611cdd85611ce9565b91509150836001600160a01b03167fdec2bacdd2f05b59de34da9b523dff8be42e5e38e818c82fdb0bae774387a7248383604051611771929190918252602082015260400190565b60405180910390a25050505050565b6000807f7fffffffffffffffffffffffffffffff5d576e7357a4501ddfe92f46681b20a08311156117b75750600090506003611864565b8460ff16601b141580156117cf57508460ff16601c14155b156117e05750600090506004611864565b6040805160008082526020820180845289905260ff881692820192909252606081018690526080810185905260019060a0016020604051602081039080840390855afa158015611834573d6000803e3d6000fd5b5050604051601f1901519150506001600160a01b03811661185d57600060019250925050611864565b9150600090505b94509492505050565b6000816004811115611881576118816122c8565b141561188a5750565b600181600481111561189e5761189e6122c8565b14156118ec5760405162461bcd60e51b815260206004820152601860248201527f45434453413a20696e76616c6964207369676e617475726500000000000000006044820152606401610655565b6002816004811115611900576119006122c8565b141561194e5760405162461bcd60e51b815260206004820152601f60248201527f45434453413a20696e76616c6964207369676e6174757265206c656e677468006044820152606401610655565b6003816004811115611962576119626122c8565b14156119bb5760405162461bcd60e51b815260206004820152602260248201527f45434453413a20696e76616c6964207369676e6174757265202773272076616c604482015261756560f01b6064820152608401610655565b60048160048111156119cf576119cf6122c8565b14156108015760405162461bcd60e51b815260206004820152602260248201527f45434453413a20696e76616c6964207369676e6174757265202776272076616c604482015261756560f01b6064820152608401610655565b6001600160a01b038381166000908152600760205260408082205485841683529120546105d592918216911683611643565b60606000611a698360026122de565b611a749060026121ca565b67ffffffffffffffff811115611a8c57611a8c6122fd565b6040519080825280601f01601f191660200182016040528015611ab6576020820181803683370190505b509050600360fc1b81600081518110611ad157611ad161221b565b60200101906001600160f81b031916908160001a905350600f60fb1b81600181518110611b0057611b0061221b565b60200101906001600160f81b031916908160001a9053506000611b248460026122de565b611b2f9060016121ca565b90505b6001811115611ba7576f181899199a1a9b1b9c1cb0b131b232b360811b85600f1660108110611b6357611b6361221b565b1a60f81b828281518110611b7957611b7961221b565b60200101906001600160f81b031916908160001a90535060049490941c93611ba081612313565b9050611b32565b5083156107015760405162461bcd60e51b815260206004820181905260248201527f537472696e67733a20686578206c656e67746820696e73756666696369656e746044820152606401610655565b6001600160a01b038216611c4c5760405162461bcd60e51b815260206004820152601f60248201527f45524332303a206d696e7420746f20746865207a65726f2061646472657373006044820152606401610655565b8060026000828254611c5e91906121ca565b90915550506001600160a01b03821660009081526020819052604081208054839290611c8b9084906121ca565b90915550506040518181526001600160a01b038316906000907fddf252ad1be2c89b69c2b068fc378daa952ba7f163c4a11628f55a4df523b3ef9060200160405180910390a36106686000838361152f565b600061070182846121ca565b825460009081908015611d345785611d02600183612204565b81548110611d1257611d1261221b565b60009182526020909120015464010000000090046001600160e01b0316611d37565b60005b6001600160e01b03169250611d5083858763ffffffff16565b9150600081118015611d8e57504386611d6a600184612204565b81548110611d7a57611d7a61221b565b60009182526020909120015463ffffffff16145b15611dee57611d9c82611e6e565b86611da8600184612204565b81548110611db857611db861221b565b9060005260206000200160000160046101000a8154816001600160e01b0302191690836001600160e01b03160217905550611e59565b856040518060400160405280611e0343611428565b63ffffffff168152602001611e1785611e6e565b6001600160e01b0390811690915282546001810184556000938452602093849020835194909301519091166401000000000263ffffffff909316929092179101555b50935093915050565b60006107018284612204565b60006001600160e01b0382111561148d5760405162461bcd60e51b815260206004820152602760248201527f53616665436173743a2076616c756520646f65736e27742066697420696e20326044820152663234206269747360c81b6064820152608401610655565b600060208284031215611ee957600080fd5b81356001600160e01b03198116811461070157600080fd5b60005b83811015611f1c578181015183820152602001611f04565b83811115610ef05750506000910152565b6020815260008251806020840152611f4c816040850160208701611f01565b601f01601f19169190910160400192915050565b80356001600160a01b0381168114611f7757600080fd5b919050565b60008060408385031215611f8f57600080fd5b611f9883611f60565b946020939093013593505050565b600080600060608486031215611fbb57600080fd5b611fc484611f60565b9250611fd260208501611f60565b9150604084013590509250925092565b600060208284031215611ff457600080fd5b5035919050565b6000806040838503121561200e57600080fd5b8235915061201e60208401611f60565b90509250929050565b60006020828403121561203957600080fd5b61070182611f60565b803560ff81168114611f7757600080fd5b60008060008060008060c0878903121561206c57600080fd5b61207587611f60565b9550602087013594506040870135935061209160608801612042565b92506080870135915060a087013590509295509295509295565b600080600080600080600060e0888a0312156120c657600080fd5b6120cf88611f60565b96506120dd60208901611f60565b955060408801359450606088013593506120f960808901612042565b925060a0880135915060c0880135905092959891949750929550565b6000806040838503121561212857600080fd5b61213183611f60565b915061201e60208401611f60565b6000806040838503121561215257600080fd5b61215b83611f60565b9150602083013563ffffffff8116811461217457600080fd5b809150509250929050565b600181811c9082168061219357607f821691505b6020821081141561152957634e487b7160e01b600052602260045260246000fd5b634e487b7160e01b600052601160045260246000fd5b600082198211156121dd576121dd6121b4565b500190565b6000602082840312156121f457600080fd5b8151801515811461070157600080fd5b600082821015612216576122166121b4565b500390565b634e487b7160e01b600052603260045260246000fd5b7f416363657373436f6e74726f6c3a206163636f756e7420000000000000000000815260008351612269816017850160208801611f01565b7001034b99036b4b9b9b4b733903937b6329607d1b601791840191820152835161229a816028840160208801611f01565b01602801949350505050565b6000826122c357634e487b7160e01b600052601260045260246000fd5b500490565b634e487b7160e01b600052602160045260246000fd5b60008160001904831182151516156122f8576122f86121b4565b500290565b634e487b7160e01b600052604160045260246000fd5b600081612322576123226121b4565b50600019019056fea264697066735822122083a2b373a979698157851879fa1d14495bbcf0deacc8e960db6f292b040aee4b64736f6c63430008090033",
  "linkReferences": {},
  "deployedLinkReferences": {}
}