{
  "_format": "hh-sol-artifact-1",
  "contractName": "AdministrativeAccessControl",
  "sourceName": "contracts/board_administration/AdministrativeAccessControl.sol",
  "abi": [
    {
      "inputs": [
        {
          "internalType": "string[]",
          "name": "initialBoardMembersNames",
          "type": "string[]"
        },
        {
          "internalType": "address[]",
          "name": "initialBoardMembers",
          "type": "address[]"
        }
      ],
      "stateMutability": "nonpayable",
      "type": "constructor"
    },
    {
      "anonymous": false,
      "inputs": [
        {
          "indexed": false,
          "internalType": "uint256",
          "name": "boardMemberId",
          "type": "uint256"
        },
        {
          "indexed": false,
          "internalType": "string",
          "name": "name",
          "type": "string"
        },
        {
          "indexed": false,
          "internalType": "address",
          "name": "boardMemberAddress",
          "type": "address"
        }
      ],
      "name": "NewBoardMember",
      "type": "event"
    },
    {
      "anonymous": false,
      "inputs": [
        {
          "indexed": false,
          "internalType": "uint256",
          "name": "supplierId",
          "type": "uint256"
        },
        {
          "indexed": false,
          "internalType": "string",
          "name": "name",
          "type": "string"
        },
        {
          "indexed": false,
          "internalType": "address",
          "name": "supplierAddress",
          "type": "address"
        }
      ],
      "name": "NewSupplier",
      "type": "event"
    },
    {
      "anonymous": false,
      "inputs": [
        {
          "indexed": true,
          "internalType": "address",
          "name": "previousOwner",
          "type": "address"
        },
        {
          "indexed": true,
          "internalType": "address",
          "name": "newOwner",
          "type": "address"
        }
      ],
      "name": "OwnershipTransferred",
      "type": "event"
    },
    {
      "anonymous": false,
      "inputs": [
        {
          "indexed": false,
          "internalType": "uint256",
          "name": "boardMemberId",
          "type": "uint256"
        },
        {
          "indexed": false,
          "internalType": "address",
          "name": "boardMemberAddress",
          "type": "address"
        }
      ],
      "name": "RevokedBoardMember",
      "type": "event"
    },
    {
      "anonymous": false,
      "inputs": [
        {
          "indexed": false,
          "internalType": "uint256",
          "name": "supplierId",
          "type": "uint256"
        },
        {
          "indexed": false,
          "internalType": "address",
          "name": "supplierAddress",
          "type": "address"
        }
      ],
      "name": "RevokedSupplier",
      "type": "event"
    },
    {
      "anonymous": false,
      "inputs": [
        {
          "indexed": true,
          "internalType": "bytes32",
          "name": "role",
          "type": "bytes32"
        },
        {
          "indexed": true,
          "internalType": "bytes32",
          "name": "previousAdminRole",
          "type": "bytes32"
        },
        {
          "indexed": true,
          "internalType": "bytes32",
          "name": "newAdminRole",
          "type": "bytes32"
        }
      ],
      "name": "RoleAdminChanged",
      "type": "event"
    },
    {
      "anonymous": false,
      "inputs": [
        {
          "indexed": true,
          "internalType": "bytes32",
          "name": "role",
          "type": "bytes32"
        },
        {
          "indexed": true,
          "internalType": "address",
          "name": "account",
          "type": "address"
        },
        {
          "indexed": true,
          "internalType": "address",
          "name": "sender",
          "type": "address"
        }
      ],
      "name": "RoleGranted",
      "type": "event"
    },
    {
      "anonymous": false,
      "inputs": [
        {
          "indexed": true,
          "internalType": "bytes32",
          "name": "role",
          "type": "bytes32"
        },
        {
          "indexed": true,
          "internalType": "address",
          "name": "account",
          "type": "address"
        },
        {
          "indexed": true,
          "internalType": "address",
          "name": "sender",
          "type": "address"
        }
      ],
      "name": "RoleRevoked",
      "type": "event"
    },
    {
      "inputs": [],
      "name": "BOARD_MEMBER",
      "outputs": [
        {
          "internalType": "bytes32",
          "name": "",
          "type": "bytes32"
        }
      ],
      "stateMutability": "view",
      "type": "function"
    },
    {
      "inputs": [],
      "name": "DEFAULT_ADMIN_ROLE",
      "outputs": [
        {
          "internalType": "bytes32",
          "name": "",
          "type": "bytes32"
        }
      ],
      "stateMutability": "view",
      "type": "function"
    },
    {
      "inputs": [],
      "name": "SUPPLIER_MEMBER",
      "outputs": [
        {
          "internalType": "bytes32",
          "name": "",
          "type": "bytes32"
        }
      ],
      "stateMutability": "view",
      "type": "function"
    },
    {
      "inputs": [
        {
          "internalType": "string",
          "name": "_name",
          "type": "string"
        },
        {
          "internalType": "address",
          "name": "_boardMemberAddress",
          "type": "address"
        }
      ],
      "name": "_newBoardMember",
      "outputs": [],
      "stateMutability": "nonpayable",
      "type": "function"
    },
    {
      "inputs": [
        {
          "internalType": "string",
          "name": "_name",
          "type": "string"
        },
        {
          "internalType": "address",
          "name": "_supplierAddress",
          "type": "address"
        }
      ],
      "name": "_newSupplier",
      "outputs": [],
      "stateMutability": "nonpayable",
      "type": "function"
    },
    {
      "inputs": [
        {
          "internalType": "uint256",
          "name": "id",
          "type": "uint256"
        },
        {
          "internalType": "address",
          "name": "board_Member_Address",
          "type": "address"
        }
      ],
      "name": "_revokeBoardMember",
      "outputs": [],
      "stateMutability": "nonpayable",
      "type": "function"
    },
    {
      "inputs": [
        {
          "internalType": "uint256",
          "name": "id",
          "type": "uint256"
        },
        {
          "internalType": "address",
          "name": "supplier_address",
          "type": "address"
        }
      ],
      "name": "_revokeSupplier",
      "outputs": [],
      "stateMutability": "nonpayable",
      "type": "function"
    },
    {
      "inputs": [
        {
          "internalType": "uint256",
          "name": "",
          "type": "uint256"
        }
      ],
      "name": "boardMembers",
      "outputs": [
        {
          "internalType": "string",
          "name": "name",
          "type": "string"
        },
        {
          "internalType": "address",
          "name": "boardMemberAddress",
          "type": "address"
        }
      ],
      "stateMutability": "view",
      "type": "function"
    },
    {
      "inputs": [
        {
          "internalType": "bytes32",
          "name": "role",
          "type": "bytes32"
        }
      ],
      "name": "getRoleAdmin",
      "outputs": [
        {
          "internalType": "bytes32",
          "name": "",
          "type": "bytes32"
        }
      ],
      "stateMutability": "view",
      "type": "function"
    },
    {
      "inputs": [
        {
          "internalType": "bytes32",
          "name": "role",
          "type": "bytes32"
        },
        {
          "internalType": "address",
          "name": "account",
          "type": "address"
        }
      ],
      "name": "grantRole",
      "outputs": [],
      "stateMutability": "nonpayable",
      "type": "function"
    },
    {
      "inputs": [
        {
          "internalType": "bytes32",
          "name": "role",
          "type": "bytes32"
        },
        {
          "internalType": "address",
          "name": "account",
          "type": "address"
        }
      ],
      "name": "hasRole",
      "outputs": [
        {
          "internalType": "bool",
          "name": "",
          "type": "bool"
        }
      ],
      "stateMutability": "view",
      "type": "function"
    },
    {
      "inputs": [],
      "name": "owner",
      "outputs": [
        {
          "internalType": "address",
          "name": "",
          "type": "address"
        }
      ],
      "stateMutability": "view",
      "type": "function"
    },
    {
      "inputs": [],
      "name": "renounceOwnership",
      "outputs": [],
      "stateMutability": "nonpayable",
      "type": "function"
    },
    {
      "inputs": [
        {
          "internalType": "bytes32",
          "name": "role",
          "type": "bytes32"
        },
        {
          "internalType": "address",
          "name": "account",
          "type": "address"
        }
      ],
      "name": "renounceRole",
      "outputs": [],
      "stateMutability": "nonpayable",
      "type": "function"
    },
    {
      "inputs": [
        {
          "internalType": "uint256",
          "name": "id",
          "type": "uint256"
        }
      ],
      "name": "retrieveBoardMember",
      "outputs": [
        {
          "internalType": "string",
          "name": "",
          "type": "string"
        }
      ],
      "stateMutability": "view",
      "type": "function"
    },
    {
      "inputs": [
        {
          "internalType": "uint256",
          "name": "id",
          "type": "uint256"
        }
      ],
      "name": "retrieveSupplier",
      "outputs": [
        {
          "internalType": "string",
          "name": "",
          "type": "string"
        }
      ],
      "stateMutability": "view",
      "type": "function"
    },
    {
      "inputs": [
        {
          "internalType": "bytes32",
          "name": "role",
          "type": "bytes32"
        },
        {
          "internalType": "address",
          "name": "account",
          "type": "address"
        }
      ],
      "name": "revokeRole",
      "outputs": [],
      "stateMutability": "nonpayable",
      "type": "function"
    },
    {
      "inputs": [
        {
          "internalType": "uint256",
          "name": "",
          "type": "uint256"
        }
      ],
      "name": "suppliers",
      "outputs": [
        {
          "internalType": "string",
          "name": "name",
          "type": "string"
        },
        {
          "internalType": "address",
          "name": "supplierAddress",
          "type": "address"
        }
      ],
      "stateMutability": "view",
      "type": "function"
    },
    {
      "inputs": [
        {
          "internalType": "bytes4",
          "name": "interfaceId",
          "type": "bytes4"
        }
      ],
      "name": "supportsInterface",
      "outputs": [
        {
          "internalType": "bool",
          "name": "",
          "type": "bool"
        }
      ],
      "stateMutability": "view",
      "type": "function"
    },
    {
      "inputs": [
        {
          "internalType": "address",
          "name": "newOwner",
          "type": "address"
        }
      ],
      "name": "transferOwnership",
      "outputs": [],
      "stateMutability": "nonpayable",
      "type": "function"
    },
    {
      "inputs": [
        {
          "internalType": "address",
          "name": "board_Member_Address",
          "type": "address"
        }
      ],
      "name": "verifyBoardMember",
      "outputs": [
        {
          "internalType": "bool",
          "name": "",
          "type": "bool"
        }
      ],
      "stateMutability": "view",
      "type": "function"
    },
    {
      "inputs": [
        {
          "internalType": "address",
          "name": "supplier_address",
          "type": "address"
        }
      ],
      "name": "verifySupplier",
      "outputs": [
        {
          "internalType": "bool",
          "name": "",
          "type": "bool"
        }
      ],
      "stateMutability": "view",
      "type": "function"
    }
  ],
  "bytecode": "0x60806040523480156200001157600080fd5b5060405162001d9038038062001d9083398101604081905262000034916200040c565b6200003f336200016b565b60005b815181101562000162576200009a7f2d2faaed8c23be685754c2c857d2b54442ae50d4706ce4165904c05bfc05c45f8383815181106200008657620000866200056c565b6020026020010151620001bd60201b60201c565b60026040518060400160405280858481518110620000bc57620000bc6200056c565b60200260200101518152602001848481518110620000de57620000de6200056c565b6020908102919091018101516001600160a01b03169091528254600181018455600093845292819020825180519394600202909101926200012392849201906200026d565b5060209190910151600190910180546001600160a01b0319166001600160a01b0390921691909117905580620001598162000582565b91505062000042565b505050620005e9565b600180546001600160a01b038381166001600160a01b0319831681179093556040519116919082907f8be0079c531659141344cd1fd0a4f28419497f9722a3daafe3b4186f6b6457e090600090a35050565b620001c98282620001cd565b5050565b6000828152602081815260408083206001600160a01b038516845290915290205460ff16620001c9576000828152602081815260408083206001600160a01b03851684529091529020805460ff19166001179055620002293390565b6001600160a01b0316816001600160a01b0316837f2f8788117e7eff1d82e926ec794901d17c78024a50270940304540a733656f0d60405160405180910390a45050565b8280546200027b90620005ac565b90600052602060002090601f0160209004810192826200029f5760008555620002ea565b82601f10620002ba57805160ff1916838001178555620002ea565b82800160010185558215620002ea579182015b82811115620002ea578251825591602001919060010190620002cd565b50620002f8929150620002fc565b5090565b5b80821115620002f85760008155600101620002fd565b634e487b7160e01b600052604160045260246000fd5b604051601f8201601f191681016001600160401b038111828210171562000354576200035462000313565b604052919050565b60006001600160401b0382111562000378576200037862000313565b5060051b60200190565b600082601f8301126200039457600080fd5b81516020620003ad620003a7836200035c565b62000329565b82815260059290921b84018101918181019086841115620003cd57600080fd5b8286015b84811015620004015780516001600160a01b0381168114620003f35760008081fd5b8352918301918301620003d1565b509695505050505050565b60008060408084860312156200042157600080fd5b83516001600160401b03808211156200043957600080fd5b8186019150601f87818401126200044f57600080fd5b8251602062000462620003a7836200035c565b82815260059290921b8501810191818101908b8411156200048257600080fd5b8287015b848110156200053657805187811115620004a05760008081fd5b8801603f81018e13620004b35760008081fd5b8481015188811115620004ca57620004ca62000313565b620004dd818901601f1916870162000329565b8181528f8c838501011115620004f35760008081fd5b60005b8281101562000513578381018d01518282018901528701620004f6565b82811115620005255760008884840101525b508552505091830191830162000486565b50918a0151919850909550505050808311156200055257600080fd5b5050620005628582860162000382565b9150509250929050565b634e487b7160e01b600052603260045260246000fd5b6000600019821415620005a557634e487b7160e01b600052601160045260246000fd5b5060010190565b600181811c90821680620005c157607f821691505b60208210811415620005e357634e487b7160e01b600052602260045260246000fd5b50919050565b61179780620005f96000396000f3fe608060405234801561001057600080fd5b50600436106101425760003560e01c806389e93c25116100b8578063a217fddf1161007c578063a217fddf146102c8578063ada33205146102d0578063cea23121146102e3578063d0d00627146102f6578063d547741f14610309578063f2fde38b1461031c57600080fd5b806389e93c251461025d5780638b8863b8146102725780638ce691f3146102855780638da5cb5b1461029a57806391d14854146102b557600080fd5b8063311a19d41161010a578063311a19d4146101f657806336568abe146102095780634959e0871461021c5780635132caf81461022f578063536f279a14610242578063715018a61461025557600080fd5b806301ffc9a7146101475780631752f30e1461016f578063248a9ca31461018f5780632a892ea9146101c05780632f2ff15d146101e1575b600080fd5b61015a610155366004611370565b61032f565b60405190151581526020015b60405180910390f35b61018261017d36600461139a565b610366565b604051610166919061140f565b6101b261019d36600461139a565b60009081526020819052604090206001015490565b604051908152602001610166565b6101d36101ce36600461139a565b61042c565b604051610166929190611422565b6101f46101ef366004611468565b6104f1565b005b6101f46102043660046114aa565b61051b565b6101f4610217366004611468565b610745565b61015a61022a366004611563565b6107c3565b6101f461023d366004611468565b6107e5565b6101f46102503660046114aa565b610a1b565b6101f4610b8b565b6101b260008051602061174283398151915281565b6101f4610280366004611468565b610b9f565b6101b260008051602061172283398151915281565b6001546040516001600160a01b039091168152602001610166565b61015a6102c3366004611468565b610d67565b6101b2600081565b6101826102de36600461139a565b610d90565b6101d36102f136600461139a565b610db4565b61015a610304366004611563565b610dc4565b6101f4610317366004611468565b610ddf565b6101f461032a366004611563565b610e04565b60006001600160e01b03198216637965db0b60e01b148061036057506301ffc9a760e01b6001600160e01b03198316145b92915050565b60606000610375600184611594565b90506002818154811061038a5761038a6115ab565b906000526020600020906002020160000180546103a6906115c1565b80601f01602080910402602001604051908101604052809291908181526020018280546103d2906115c1565b801561041f5780601f106103f45761010080835404028352916020019161041f565b820191906000526020600020905b81548152906001019060200180831161040257829003601f168201915b5050505050915050919050565b6002818154811061043c57600080fd5b906000526020600020906002020160009150905080600001805461045f906115c1565b80601f016020809104026020016040519081016040528092919081815260200182805461048b906115c1565b80156104d85780601f106104ad576101008083540402835291602001916104d8565b820191906000526020600020905b8154815290600101906020018083116104bb57829003601f168201915b505050600190930154919250506001600160a01b031682565b60008281526020819052604090206001015461050c81610e7d565b6105168383610e87565b505050565b610523610f0b565b61053b60008051602061172283398151915282610d67565b1561059b5760405162461bcd60e51b815260206004820152602560248201527f4552524f523a204163636f756e7420697320616c7265616479206120537570706044820152646c6965722160d81b60648201526084015b60405180910390fd5b6105b360008051602061174283398151915282610d67565b156106445760405162461bcd60e51b815260206004820152605560248201527f4552524f523a20546865204163636f756e742070726f7669646564206973206160448201527f20426f617264204d656d6265722e20426f617264204d656d626572732063616e6064820152746e6f74206265636f6d6520537570706c696572732160581b608482015260a401610592565b6003546000906106559060016115fc565b905061066f60008051602061172283398151915283610f65565b604080518082019091528381526001600160a01b038316602080830191909152600380546001810182556000919091528251805160029092027fc2575a0e9e593c00f959f8c92f12db2869c3395a3b0502d05e2516446f71f85b01926106da92849290910190611226565b5060209190910151600190910180546001600160a01b0319166001600160a01b039092169190911790556040517ff14afadda05168e56172a2a5225c4f3d8945f91cd31b48cb267c87315c06e50c9061073890839086908690611614565b60405180910390a1505050565b6001600160a01b03811633146107b55760405162461bcd60e51b815260206004820152602f60248201527f416363657373436f6e74726f6c3a2063616e206f6e6c792072656e6f756e636560448201526e103937b632b9903337b91039b2b63360891b6064820152608401610592565b6107bf8282610f6f565b5050565b6000806107de60008051602061172283398151915284610d67565b9392505050565b6107ed610f0b565b60006107fa600184611594565b905061081460008051602061172283398151915283610d67565b6108735760405162461bcd60e51b815260206004820152602a60248201527f4552524f523a204163636f756e742070726f7669646564206973206e6f74206160448201526920537570706c6965722160b01b6064820152608401610592565b60035481106108c45760405162461bcd60e51b815260206004820152601a60248201527f4552524f523a20496e646578206f7574206f6620626f756e64210000000000006044820152606401610592565b6108dc60008051602061172283398151915283610f6f565b805b6003546108ed90600190611594565b8110156109975760036109018260016115fc565b81548110610911576109116115ab565b906000526020600020906002020160038281548110610932576109326115ab565b90600052602060002090600202016000820181600001908054610954906115c1565b61095f9291906112aa565b50600191820154910180546001600160a01b0319166001600160a01b039092169190911790558061098f81611645565b9150506108de565b5060038054806109a9576109a9611660565b600082815260208120600019909201916002830201906109c98282611325565b5060010180546001600160a01b03191690559055604080518481526001600160a01b03841660208201527f5da16760c47dfc8f409d56cee39ce32b6160e9fff69b2d3db037a65f1950e5659101610738565b610a23610f0b565b610a3b60008051602061174283398151915282610d67565b15610a9a5760405162461bcd60e51b815260206004820152602960248201527f4552524f523a204163636f756e7420697320616c7265616479206120426f617260448201526864204d656d6265722160b81b6064820152608401610592565b600254600090610aab9060016115fc565b9050610ac560008051602061174283398151915283610f65565b604080518082019091528381526001600160a01b03831660208083019190915260028054600181018255600082905283518051919092027f405787fa12a823e0f2b7631cc41b3ba8828b3321ca811111fa75cd3aa3bb5ace0192610b2d928492910190611226565b5060209190910151600190910180546001600160a01b0319166001600160a01b039092169190911790556040517f1ffb3782cdf2a7d6fd77186e8df9db6ead85edf6d662e7e8087b9a921c577eb09061073890839086908690611614565b610b93610f0b565b610b9d6000610fd4565b565b610ba7610f0b565b6000610bb4600184611594565b9050610bce60008051602061174283398151915283610d67565b610c315760405162461bcd60e51b815260206004820152602e60248201527f4552524f523a204163636f756e742070726f7669646564206973206e6f74206160448201526d20426f617264204d656d6265722160901b6064820152608401610592565b6002548110610c825760405162461bcd60e51b815260206004820152601a60248201527f4552524f523a20496e646578206f7574206f6620626f756e64210000000000006044820152606401610592565b610c9a60008051602061174283398151915283610f6f565b805b600254610cab90600190611594565b811015610d55576002610cbf8260016115fc565b81548110610ccf57610ccf6115ab565b906000526020600020906002020160028281548110610cf057610cf06115ab565b90600052602060002090600202016000820181600001908054610d12906115c1565b610d1d9291906112aa565b50600191820154910180546001600160a01b0319166001600160a01b0390921691909117905580610d4d81611645565b915050610c9c565b5060028054806109a9576109a9611660565b6000918252602082815260408084206001600160a01b0393909316845291905290205460ff1690565b60606000610d9f600184611594565b90506003818154811061038a5761038a6115ab565b6003818154811061043c57600080fd5b6000806107de60008051602061174283398151915284610d67565b600082815260208190526040902060010154610dfa81610e7d565b6105168383610f6f565b610e0c610f0b565b6001600160a01b038116610e715760405162461bcd60e51b815260206004820152602660248201527f4f776e61626c653a206e6577206f776e657220697320746865207a65726f206160448201526564647265737360d01b6064820152608401610592565b610e7a81610fd4565b50565b610e7a8133611026565b610e918282610d67565b6107bf576000828152602081815260408083206001600160a01b03851684529091529020805460ff19166001179055610ec73390565b6001600160a01b0316816001600160a01b0316837f2f8788117e7eff1d82e926ec794901d17c78024a50270940304540a733656f0d60405160405180910390a45050565b6001546001600160a01b03163314610b9d5760405162461bcd60e51b815260206004820181905260248201527f4f776e61626c653a2063616c6c6572206973206e6f7420746865206f776e65726044820152606401610592565b6107bf8282610e87565b610f798282610d67565b156107bf576000828152602081815260408083206001600160a01b0385168085529252808320805460ff1916905551339285917ff6391f5c32d9c69d2a47ea670b442974b53935d1edc7fd64eb21e047a839171b9190a45050565b600180546001600160a01b038381166001600160a01b0319831681179093556040519116919082907f8be0079c531659141344cd1fd0a4f28419497f9722a3daafe3b4186f6b6457e090600090a35050565b6110308282610d67565b6107bf57611048816001600160a01b0316601461108a565b61105383602061108a565b604051602001611064929190611676565b60408051601f198184030181529082905262461bcd60e51b82526105929160040161140f565b606060006110998360026116eb565b6110a49060026115fc565b67ffffffffffffffff8111156110bc576110bc611494565b6040519080825280601f01601f1916602001820160405280156110e6576020820181803683370190505b509050600360fc1b81600081518110611101576111016115ab565b60200101906001600160f81b031916908160001a905350600f60fb1b81600181518110611130576111306115ab565b60200101906001600160f81b031916908160001a90535060006111548460026116eb565b61115f9060016115fc565b90505b60018111156111d7576f181899199a1a9b1b9c1cb0b131b232b360811b85600f1660108110611193576111936115ab565b1a60f81b8282815181106111a9576111a96115ab565b60200101906001600160f81b031916908160001a90535060049490941c936111d08161170a565b9050611162565b5083156107de5760405162461bcd60e51b815260206004820181905260248201527f537472696e67733a20686578206c656e67746820696e73756666696369656e746044820152606401610592565b828054611232906115c1565b90600052602060002090601f016020900481019282611254576000855561129a565b82601f1061126d57805160ff191683800117855561129a565b8280016001018555821561129a579182015b8281111561129a57825182559160200191906001019061127f565b506112a692915061135b565b5090565b8280546112b6906115c1565b90600052602060002090601f0160209004810192826112d8576000855561129a565b82601f106112e9578054855561129a565b8280016001018555821561129a57600052602060002091601f016020900482015b8281111561129a57825482559160010191906001019061130a565b508054611331906115c1565b6000825580601f10611341575050565b601f016020900490600052602060002090810190610e7a91905b5b808211156112a6576000815560010161135c565b60006020828403121561138257600080fd5b81356001600160e01b0319811681146107de57600080fd5b6000602082840312156113ac57600080fd5b5035919050565b60005b838110156113ce5781810151838201526020016113b6565b838111156113dd576000848401525b50505050565b600081518084526113fb8160208601602086016113b3565b601f01601f19169290920160200192915050565b6020815260006107de60208301846113e3565b60408152600061143560408301856113e3565b905060018060a01b03831660208301529392505050565b80356001600160a01b038116811461146357600080fd5b919050565b6000806040838503121561147b57600080fd5b8235915061148b6020840161144c565b90509250929050565b634e487b7160e01b600052604160045260246000fd5b600080604083850312156114bd57600080fd5b823567ffffffffffffffff808211156114d557600080fd5b818501915085601f8301126114e957600080fd5b8135818111156114fb576114fb611494565b604051601f8201601f19908116603f0116810190838211818310171561152357611523611494565b8160405282815288602084870101111561153c57600080fd5b82602086016020830137600060208483010152809650505050505061148b6020840161144c565b60006020828403121561157557600080fd5b6107de8261144c565b634e487b7160e01b600052601160045260246000fd5b6000828210156115a6576115a661157e565b500390565b634e487b7160e01b600052603260045260246000fd5b600181811c908216806115d557607f821691505b602082108114156115f657634e487b7160e01b600052602260045260246000fd5b50919050565b6000821982111561160f5761160f61157e565b500190565b83815260606020820152600061162d60608301856113e3565b905060018060a01b0383166040830152949350505050565b60006000198214156116595761165961157e565b5060010190565b634e487b7160e01b600052603160045260246000fd5b7f416363657373436f6e74726f6c3a206163636f756e74200000000000000000008152600083516116ae8160178501602088016113b3565b7001034b99036b4b9b9b4b733903937b6329607d1b60179184019182015283516116df8160288401602088016113b3565b01602801949350505050565b60008160001904831182151516156117055761170561157e565b500290565b6000816117195761171961157e565b50600019019056fe6eb0f432f614d330b668871c917335ed8bc1db90f99ded207afdf87a5a8262c82d2faaed8c23be685754c2c857d2b54442ae50d4706ce4165904c05bfc05c45fa264697066735822122015ff8ba0be7d5792e8bee88ed594e2ff863bb6d69a1863489e6211b6d3bafb1964736f6c63430008090033",
  "linkReferences": {},
  "deployedLinkReferences": {}
}