{
  "_format": "hh-sol-artifact-1",
  "contractName": "AdministrativeAccessControl",
  "sourceName": "contracts/board_administration/AdministrativeAccessControl.sol",
  "abi": [
    {
      "inputs": [
        {
          "internalType": "string[]",
          "name": "initialBoardMembersNames",
          "type": "string[]"
        },
        {
          "internalType": "address[]",
          "name": "initialBoardMembers",
          "type": "address[]"
        }
      ],
      "stateMutability": "nonpayable",
      "type": "constructor"
    },
    {
      "anonymous": false,
      "inputs": [
        {
          "indexed": false,
          "internalType": "uint256",
          "name": "boardMemberId",
          "type": "uint256"
        },
        {
          "indexed": false,
          "internalType": "string",
          "name": "name",
          "type": "string"
        },
        {
          "indexed": false,
          "internalType": "address",
          "name": "boardMemberAddress",
          "type": "address"
        }
      ],
      "name": "NewBoardMember",
      "type": "event"
    },
    {
      "anonymous": false,
      "inputs": [
        {
          "indexed": false,
          "internalType": "uint256",
          "name": "seniorSupplierId",
          "type": "uint256"
        },
        {
          "indexed": false,
          "internalType": "string",
          "name": "name",
          "type": "string"
        },
        {
          "indexed": false,
          "internalType": "address",
          "name": "seniorSupplierAddress",
          "type": "address"
        }
      ],
      "name": "NewSeniorSupplier",
      "type": "event"
    },
    {
      "anonymous": false,
      "inputs": [
        {
          "indexed": false,
          "internalType": "uint256",
          "name": "supplierId",
          "type": "uint256"
        },
        {
          "indexed": false,
          "internalType": "string",
          "name": "name",
          "type": "string"
        },
        {
          "indexed": false,
          "internalType": "address",
          "name": "supplierAddress",
          "type": "address"
        }
      ],
      "name": "NewSupplier",
      "type": "event"
    },
    {
      "anonymous": false,
      "inputs": [
        {
          "indexed": true,
          "internalType": "address",
          "name": "previousOwner",
          "type": "address"
        },
        {
          "indexed": true,
          "internalType": "address",
          "name": "newOwner",
          "type": "address"
        }
      ],
      "name": "OwnershipTransferred",
      "type": "event"
    },
    {
      "anonymous": false,
      "inputs": [
        {
          "indexed": false,
          "internalType": "uint256",
          "name": "boardMemberId",
          "type": "uint256"
        },
        {
          "indexed": false,
          "internalType": "address",
          "name": "boardMemberAddress",
          "type": "address"
        }
      ],
      "name": "RevokedBoardMember",
      "type": "event"
    },
    {
      "anonymous": false,
      "inputs": [
        {
          "indexed": false,
          "internalType": "uint256",
          "name": "seniorSupplierId",
          "type": "uint256"
        },
        {
          "indexed": false,
          "internalType": "address",
          "name": "seniorSupplierAddress",
          "type": "address"
        }
      ],
      "name": "RevokedSeniorSupplier",
      "type": "event"
    },
    {
      "anonymous": false,
      "inputs": [
        {
          "indexed": false,
          "internalType": "uint256",
          "name": "supplierId",
          "type": "uint256"
        },
        {
          "indexed": false,
          "internalType": "address",
          "name": "supplierAddress",
          "type": "address"
        }
      ],
      "name": "RevokedSupplier",
      "type": "event"
    },
    {
      "anonymous": false,
      "inputs": [
        {
          "indexed": true,
          "internalType": "bytes32",
          "name": "role",
          "type": "bytes32"
        },
        {
          "indexed": true,
          "internalType": "bytes32",
          "name": "previousAdminRole",
          "type": "bytes32"
        },
        {
          "indexed": true,
          "internalType": "bytes32",
          "name": "newAdminRole",
          "type": "bytes32"
        }
      ],
      "name": "RoleAdminChanged",
      "type": "event"
    },
    {
      "anonymous": false,
      "inputs": [
        {
          "indexed": true,
          "internalType": "bytes32",
          "name": "role",
          "type": "bytes32"
        },
        {
          "indexed": true,
          "internalType": "address",
          "name": "account",
          "type": "address"
        },
        {
          "indexed": true,
          "internalType": "address",
          "name": "sender",
          "type": "address"
        }
      ],
      "name": "RoleGranted",
      "type": "event"
    },
    {
      "anonymous": false,
      "inputs": [
        {
          "indexed": true,
          "internalType": "bytes32",
          "name": "role",
          "type": "bytes32"
        },
        {
          "indexed": true,
          "internalType": "address",
          "name": "account",
          "type": "address"
        },
        {
          "indexed": true,
          "internalType": "address",
          "name": "sender",
          "type": "address"
        }
      ],
      "name": "RoleRevoked",
      "type": "event"
    },
    {
      "inputs": [],
      "name": "BOARD_MEMBER",
      "outputs": [
        {
          "internalType": "bytes32",
          "name": "",
          "type": "bytes32"
        }
      ],
      "stateMutability": "view",
      "type": "function"
    },
    {
      "inputs": [],
      "name": "DEFAULT_ADMIN_ROLE",
      "outputs": [
        {
          "internalType": "bytes32",
          "name": "",
          "type": "bytes32"
        }
      ],
      "stateMutability": "view",
      "type": "function"
    },
    {
      "inputs": [],
      "name": "SENIOR_SUPPLIER_MEMBER",
      "outputs": [
        {
          "internalType": "bytes32",
          "name": "",
          "type": "bytes32"
        }
      ],
      "stateMutability": "view",
      "type": "function"
    },
    {
      "inputs": [],
      "name": "SUPPLIER_MEMBER",
      "outputs": [
        {
          "internalType": "bytes32",
          "name": "",
          "type": "bytes32"
        }
      ],
      "stateMutability": "view",
      "type": "function"
    },
    {
      "inputs": [
        {
          "internalType": "string",
          "name": "_name",
          "type": "string"
        },
        {
          "internalType": "address",
          "name": "_boardMemberAddress",
          "type": "address"
        }
      ],
      "name": "_newBoardMember",
      "outputs": [],
      "stateMutability": "nonpayable",
      "type": "function"
    },
    {
      "inputs": [
        {
          "internalType": "string",
          "name": "_name",
          "type": "string"
        },
        {
          "internalType": "address",
          "name": "_seniorSupplierAddress",
          "type": "address"
        }
      ],
      "name": "_newSeniorSupplier",
      "outputs": [],
      "stateMutability": "nonpayable",
      "type": "function"
    },
    {
      "inputs": [
        {
          "internalType": "string",
          "name": "_name",
          "type": "string"
        },
        {
          "internalType": "address",
          "name": "_supplierAddress",
          "type": "address"
        }
      ],
      "name": "_newSupplier",
      "outputs": [],
      "stateMutability": "nonpayable",
      "type": "function"
    },
    {
      "inputs": [
        {
          "internalType": "uint256",
          "name": "id",
          "type": "uint256"
        },
        {
          "internalType": "address",
          "name": "board_Member_Address",
          "type": "address"
        }
      ],
      "name": "_revokeBoardMember",
      "outputs": [],
      "stateMutability": "nonpayable",
      "type": "function"
    },
    {
      "inputs": [
        {
          "internalType": "uint256",
          "name": "id",
          "type": "uint256"
        },
        {
          "internalType": "address",
          "name": "senior_supplier_address",
          "type": "address"
        }
      ],
      "name": "_revokeSeniorSupplier",
      "outputs": [],
      "stateMutability": "nonpayable",
      "type": "function"
    },
    {
      "inputs": [
        {
          "internalType": "uint256",
          "name": "id",
          "type": "uint256"
        },
        {
          "internalType": "address",
          "name": "supplier_address",
          "type": "address"
        }
      ],
      "name": "_revokeSupplier",
      "outputs": [],
      "stateMutability": "nonpayable",
      "type": "function"
    },
    {
      "inputs": [
        {
          "internalType": "uint256",
          "name": "",
          "type": "uint256"
        }
      ],
      "name": "boardMembers",
      "outputs": [
        {
          "internalType": "string",
          "name": "name",
          "type": "string"
        },
        {
          "internalType": "address",
          "name": "boardMemberAddress",
          "type": "address"
        }
      ],
      "stateMutability": "view",
      "type": "function"
    },
    {
      "inputs": [
        {
          "internalType": "bytes32",
          "name": "role",
          "type": "bytes32"
        }
      ],
      "name": "getRoleAdmin",
      "outputs": [
        {
          "internalType": "bytes32",
          "name": "",
          "type": "bytes32"
        }
      ],
      "stateMutability": "view",
      "type": "function"
    },
    {
      "inputs": [
        {
          "internalType": "bytes32",
          "name": "role",
          "type": "bytes32"
        },
        {
          "internalType": "address",
          "name": "account",
          "type": "address"
        }
      ],
      "name": "grantRole",
      "outputs": [],
      "stateMutability": "nonpayable",
      "type": "function"
    },
    {
      "inputs": [
        {
          "internalType": "bytes32",
          "name": "role",
          "type": "bytes32"
        },
        {
          "internalType": "address",
          "name": "account",
          "type": "address"
        }
      ],
      "name": "hasRole",
      "outputs": [
        {
          "internalType": "bool",
          "name": "",
          "type": "bool"
        }
      ],
      "stateMutability": "view",
      "type": "function"
    },
    {
      "inputs": [],
      "name": "owner",
      "outputs": [
        {
          "internalType": "address",
          "name": "",
          "type": "address"
        }
      ],
      "stateMutability": "view",
      "type": "function"
    },
    {
      "inputs": [],
      "name": "renounceOwnership",
      "outputs": [],
      "stateMutability": "nonpayable",
      "type": "function"
    },
    {
      "inputs": [
        {
          "internalType": "bytes32",
          "name": "role",
          "type": "bytes32"
        },
        {
          "internalType": "address",
          "name": "account",
          "type": "address"
        }
      ],
      "name": "renounceRole",
      "outputs": [],
      "stateMutability": "nonpayable",
      "type": "function"
    },
    {
      "inputs": [
        {
          "internalType": "uint256",
          "name": "id",
          "type": "uint256"
        }
      ],
      "name": "retrieveBoardMember",
      "outputs": [
        {
          "internalType": "string",
          "name": "",
          "type": "string"
        }
      ],
      "stateMutability": "view",
      "type": "function"
    },
    {
      "inputs": [
        {
          "internalType": "uint256",
          "name": "id",
          "type": "uint256"
        }
      ],
      "name": "retrieveSeniorSupplier",
      "outputs": [
        {
          "internalType": "string",
          "name": "",
          "type": "string"
        }
      ],
      "stateMutability": "view",
      "type": "function"
    },
    {
      "inputs": [
        {
          "internalType": "uint256",
          "name": "id",
          "type": "uint256"
        }
      ],
      "name": "retrieveSupplier",
      "outputs": [
        {
          "internalType": "string",
          "name": "",
          "type": "string"
        }
      ],
      "stateMutability": "view",
      "type": "function"
    },
    {
      "inputs": [
        {
          "internalType": "bytes32",
          "name": "role",
          "type": "bytes32"
        },
        {
          "internalType": "address",
          "name": "account",
          "type": "address"
        }
      ],
      "name": "revokeRole",
      "outputs": [],
      "stateMutability": "nonpayable",
      "type": "function"
    },
    {
      "inputs": [
        {
          "internalType": "uint256",
          "name": "",
          "type": "uint256"
        }
      ],
      "name": "seniorSuppliers",
      "outputs": [
        {
          "internalType": "string",
          "name": "name",
          "type": "string"
        },
        {
          "internalType": "address",
          "name": "seniorSupplierAddress",
          "type": "address"
        }
      ],
      "stateMutability": "view",
      "type": "function"
    },
    {
      "inputs": [
        {
          "internalType": "uint256",
          "name": "",
          "type": "uint256"
        }
      ],
      "name": "suppliers",
      "outputs": [
        {
          "internalType": "string",
          "name": "name",
          "type": "string"
        },
        {
          "internalType": "address",
          "name": "supplierAddress",
          "type": "address"
        }
      ],
      "stateMutability": "view",
      "type": "function"
    },
    {
      "inputs": [
        {
          "internalType": "bytes4",
          "name": "interfaceId",
          "type": "bytes4"
        }
      ],
      "name": "supportsInterface",
      "outputs": [
        {
          "internalType": "bool",
          "name": "",
          "type": "bool"
        }
      ],
      "stateMutability": "view",
      "type": "function"
    },
    {
      "inputs": [
        {
          "internalType": "address",
          "name": "newOwner",
          "type": "address"
        }
      ],
      "name": "transferOwnership",
      "outputs": [],
      "stateMutability": "nonpayable",
      "type": "function"
    },
    {
      "inputs": [
        {
          "internalType": "address",
          "name": "board_Member_Address",
          "type": "address"
        }
      ],
      "name": "verifyBoardMember",
      "outputs": [
        {
          "internalType": "bool",
          "name": "",
          "type": "bool"
        }
      ],
      "stateMutability": "view",
      "type": "function"
    },
    {
      "inputs": [
        {
          "internalType": "address",
          "name": "senior_supplier_address",
          "type": "address"
        }
      ],
      "name": "verifySeniorSupplier",
      "outputs": [
        {
          "internalType": "bool",
          "name": "",
          "type": "bool"
        }
      ],
      "stateMutability": "view",
      "type": "function"
    },
    {
      "inputs": [
        {
          "internalType": "address",
          "name": "supplier_address",
          "type": "address"
        }
      ],
      "name": "verifySupplier",
      "outputs": [
        {
          "internalType": "bool",
          "name": "",
          "type": "bool"
        }
      ],
      "stateMutability": "view",
      "type": "function"
    }
  ],
  "bytecode": "0x60806040523480156200001157600080fd5b506040516200430a3803806200430a8339818101604052810190620000379190620007cc565b620000576200004b620001c360201b60201c565b620001cb60201b60201c565b60005b8151811015620001ba57620000b37f2d2faaed8c23be685754c2c857d2b54442ae50d4706ce4165904c05bfc05c45f8383815181106200009f576200009e62000851565b5b60200260200101516200029160201b60201c565b60026040518060400160405280858481518110620000d657620000d562000851565b5b60200260200101518152602001848481518110620000f957620000f862000851565b5b602002602001015173ffffffffffffffffffffffffffffffffffffffff16815250908060018154018082558091505060019003906000526020600020906002020160009091909190915060008201518160000190816200015a919062000acb565b5060208201518160010160006101000a81548173ffffffffffffffffffffffffffffffffffffffff021916908373ffffffffffffffffffffffffffffffffffffffff16021790555050508080620001b19062000be1565b9150506200005a565b50505062000c2e565b600033905090565b6000600160009054906101000a900473ffffffffffffffffffffffffffffffffffffffff16905081600160006101000a81548173ffffffffffffffffffffffffffffffffffffffff021916908373ffffffffffffffffffffffffffffffffffffffff1602179055508173ffffffffffffffffffffffffffffffffffffffff168173ffffffffffffffffffffffffffffffffffffffff167f8be0079c531659141344cd1fd0a4f28419497f9722a3daafe3b4186f6b6457e060405160405180910390a35050565b620002a38282620002a760201b60201c565b5050565b620002b982826200039860201b60201c565b6200039457600160008084815260200190815260200160002060000160008373ffffffffffffffffffffffffffffffffffffffff1673ffffffffffffffffffffffffffffffffffffffff16815260200190815260200160002060006101000a81548160ff02191690831515021790555062000339620001c360201b60201c565b73ffffffffffffffffffffffffffffffffffffffff168173ffffffffffffffffffffffffffffffffffffffff16837f2f8788117e7eff1d82e926ec794901d17c78024a50270940304540a733656f0d60405160405180910390a45b5050565b600080600084815260200190815260200160002060000160008373ffffffffffffffffffffffffffffffffffffffff1673ffffffffffffffffffffffffffffffffffffffff16815260200190815260200160002060009054906101000a900460ff16905092915050565b6000604051905090565b600080fd5b600080fd5b600080fd5b6000601f19601f8301169050919050565b7f4e487b7100000000000000000000000000000000000000000000000000000000600052604160045260246000fd5b62000466826200041b565b810181811067ffffffffffffffff821117156200048857620004876200042c565b5b80604052505050565b60006200049d62000402565b9050620004ab82826200045b565b919050565b600067ffffffffffffffff821115620004ce57620004cd6200042c565b5b602082029050602081019050919050565b600080fd5b600080fd5b600067ffffffffffffffff8211156200050757620005066200042c565b5b62000512826200041b565b9050602081019050919050565b60005b838110156200053f57808201518184015260208101905062000522565b60008484015250505050565b6000620005626200055c84620004e9565b62000491565b905082815260208101848484011115620005815762000580620004e4565b5b6200058e8482856200051f565b509392505050565b600082601f830112620005ae57620005ad62000416565b5b8151620005c08482602086016200054b565b91505092915050565b6000620005e0620005da84620004b0565b62000491565b90508083825260208201905060208402830185811115620006065762000605620004df565b5b835b818110156200065457805167ffffffffffffffff8111156200062f576200062e62000416565b5b8086016200063e898262000596565b8552602085019450505060208101905062000608565b5050509392505050565b600082601f83011262000676576200067562000416565b5b815162000688848260208601620005c9565b91505092915050565b600067ffffffffffffffff821115620006af57620006ae6200042c565b5b602082029050602081019050919050565b600073ffffffffffffffffffffffffffffffffffffffff82169050919050565b6000620006ed82620006c0565b9050919050565b620006ff81620006e0565b81146200070b57600080fd5b50565b6000815190506200071f81620006f4565b92915050565b60006200073c620007368462000691565b62000491565b90508083825260208201905060208402830185811115620007625762000761620004df565b5b835b818110156200078f57806200077a88826200070e565b84526020840193505060208101905062000764565b5050509392505050565b600082601f830112620007b157620007b062000416565b5b8151620007c384826020860162000725565b91505092915050565b60008060408385031215620007e657620007e56200040c565b5b600083015167ffffffffffffffff81111562000807576200080662000411565b5b62000815858286016200065e565b925050602083015167ffffffffffffffff81111562000839576200083862000411565b5b620008478582860162000799565b9150509250929050565b7f4e487b7100000000000000000000000000000000000000000000000000000000600052603260045260246000fd5b600081519050919050565b7f4e487b7100000000000000000000000000000000000000000000000000000000600052602260045260246000fd5b60006002820490506001821680620008d357607f821691505b602082108103620008e957620008e86200088b565b5b50919050565b60008190508160005260206000209050919050565b60006020601f8301049050919050565b600082821b905092915050565b600060088302620009537fffffffffffffffffffffffffffffffffffffffffffffffffffffffffffffffff8262000914565b6200095f868362000914565b95508019841693508086168417925050509392505050565b6000819050919050565b6000819050919050565b6000620009ac620009a6620009a08462000977565b62000981565b62000977565b9050919050565b6000819050919050565b620009c8836200098b565b620009e0620009d782620009b3565b84845462000921565b825550505050565b600090565b620009f7620009e8565b62000a04818484620009bd565b505050565b5b8181101562000a2c5762000a20600082620009ed565b60018101905062000a0a565b5050565b601f82111562000a7b5762000a4581620008ef565b62000a508462000904565b8101602085101562000a60578190505b62000a7862000a6f8562000904565b83018262000a09565b50505b505050565b600082821c905092915050565b600062000aa06000198460080262000a80565b1980831691505092915050565b600062000abb838362000a8d565b9150826002028217905092915050565b62000ad68262000880565b67ffffffffffffffff81111562000af25762000af16200042c565b5b62000afe8254620008ba565b62000b0b82828562000a30565b600060209050601f83116001811462000b43576000841562000b2e578287015190505b62000b3a858262000aad565b86555062000baa565b601f19841662000b5386620008ef565b60005b8281101562000b7d5784890151825560018201915060208501945060208101905062000b56565b8683101562000b9d578489015162000b99601f89168262000a8d565b8355505b6001600288020188555050505b505050505050565b7f4e487b7100000000000000000000000000000000000000000000000000000000600052601160045260246000fd5b600062000bee8262000977565b91507fffffffffffffffffffffffffffffffffffffffffffffffffffffffffffffffff820362000c235762000c2262000bb2565b5b600182019050919050565b6136cc8062000c3e6000396000f3fe608060405234801561001057600080fd5b50600436106101c45760003560e01c806389e93c25116100f9578063b1b0c05311610097578063d547741f11610071578063d547741f14610552578063dadfa4771461056e578063f2fde38b1461058c578063f334283e146105a8576101c4565b8063b1b0c053146104c1578063cea23121146104f1578063d0d0062714610522576101c4565b80638da5cb5b116100d35780638da5cb5b1461042557806391d1485414610443578063a217fddf14610473578063ada3320514610491576101c4565b806389e93c25146103cd5780638b8863b8146103eb5780638ce691f314610407576101c4565b80633338e327116101665780634b0d50b0116101405780634b0d50b01461035a5780635132caf81461038b578063536f279a146103a7578063715018a6146103c3576101c4565b80633338e327146102de57806336568abe1461030e5780634959e0871461032a576101c4565b80632a892ea9116101a25780632a892ea9146102595780632f2ff15d1461028a578063311a19d4146102a6578063318948a9146102c2576101c4565b806301ffc9a7146101c95780631752f30e146101f9578063248a9ca314610229575b600080fd5b6101e360048036038101906101de9190612329565b6105c4565b6040516101f09190612371565b60405180910390f35b610213600480360381019061020e91906123c2565b61063e565b604051610220919061247f565b60405180910390f35b610243600480360381019061023e91906124d7565b610707565b6040516102509190612513565b60405180910390f35b610273600480360381019061026e91906123c2565b610726565b60405161028192919061256f565b60405180910390f35b6102a4600480360381019061029f91906125cb565b610802565b005b6102c060048036038101906102bb9190612740565b610823565b005b6102dc60048036038101906102d79190612740565b610a40565b005b6102f860048036038101906102f391906123c2565b610c4e565b604051610305919061247f565b60405180910390f35b610328600480360381019061032391906125cb565b610d17565b005b610344600480360381019061033f919061279c565b610d9a565b6040516103519190612371565b60405180910390f35b610374600480360381019061036f91906123c2565b610dd2565b60405161038292919061256f565b60405180910390f35b6103a560048036038101906103a091906127c9565b610eae565b005b6103c160048036038101906103bc9190612740565b611143565b005b6103cb6112f0565b005b6103d5611304565b6040516103e29190612513565b60405180910390f35b610405600480360381019061040091906127c9565b611328565b005b61040f6115bd565b60405161041c9190612513565b60405180910390f35b61042d6115e1565b60405161043a9190612809565b60405180910390f35b61045d600480360381019061045891906125cb565b61160b565b60405161046a9190612371565b60405180910390f35b61047b611675565b6040516104889190612513565b60405180910390f35b6104ab60048036038101906104a691906123c2565b61167c565b6040516104b8919061247f565b60405180910390f35b6104db60048036038101906104d6919061279c565b611745565b6040516104e89190612371565b60405180910390f35b61050b600480360381019061050691906123c2565b61177d565b60405161051992919061256f565b60405180910390f35b61053c6004803603810190610537919061279c565b611859565b6040516105499190612371565b60405180910390f35b61056c600480360381019061056791906125cb565b611891565b005b6105766118b2565b6040516105839190612513565b60405180910390f35b6105a660048036038101906105a1919061279c565b6118d6565b005b6105c260048036038101906105bd91906127c9565b611959565b005b60007f7965db0b000000000000000000000000000000000000000000000000000000007bffffffffffffffffffffffffffffffffffffffffffffffffffffffff1916827bffffffffffffffffffffffffffffffffffffffffffffffffffffffff19161480610637575061063682611bee565b5b9050919050565b6060600060018361064f9190612853565b90506002818154811061066557610664612887565b5b90600052602060002090600202016000018054610681906128e5565b80601f01602080910402602001604051908101604052809291908181526020018280546106ad906128e5565b80156106fa5780601f106106cf576101008083540402835291602001916106fa565b820191906000526020600020905b8154815290600101906020018083116106dd57829003601f168201915b5050505050915050919050565b6000806000838152602001908152602001600020600101549050919050565b6002818154811061073657600080fd5b9060005260206000209060020201600091509050806000018054610759906128e5565b80601f0160208091040260200160405190810160405280929190818152602001828054610785906128e5565b80156107d25780601f106107a7576101008083540402835291602001916107d2565b820191906000526020600020905b8154815290600101906020018083116107b557829003601f168201915b5050505050908060010160009054906101000a900473ffffffffffffffffffffffffffffffffffffffff16905082565b61080b82610707565b61081481611c58565b61081e8383611c6c565b505050565b61082b611d4c565b600015156108597f6eb0f432f614d330b668871c917335ed8bc1db90f99ded207afdf87a5a8262c88361160b565b15151461089b576040517f08c379a000000000000000000000000000000000000000000000000000000000815260040161089290612988565b60405180910390fd5b600015156108c97f2d2faaed8c23be685754c2c857d2b54442ae50d4706ce4165904c05bfc05c45f8361160b565b15151461090b576040517f08c379a000000000000000000000000000000000000000000000000000000000815260040161090290612a40565b60405180910390fd5b6000600160038054905061091f9190612a60565b905061094b7f6eb0f432f614d330b668871c917335ed8bc1db90f99ded207afdf87a5a8262c883611dca565b600360405180604001604052808581526020018473ffffffffffffffffffffffffffffffffffffffff16815250908060018154018082558091505060019003906000526020600020906002020160009091909190915060008201518160000190816109b69190612c40565b5060208201518160010160006101000a81548173ffffffffffffffffffffffffffffffffffffffff021916908373ffffffffffffffffffffffffffffffffffffffff16021790555050507ff14afadda05168e56172a2a5225c4f3d8945f91cd31b48cb267c87315c06e50c818484604051610a3393929190612d21565b60405180910390a1505050565b60001515610a6e7f46927742d6cecfa1439757eb57666e5ea64271ce5c8d25cfa395d2d445eec9e28361160b565b151514610ab0576040517f08c379a0000000000000000000000000000000000000000000000000000000008152600401610aa790612dd1565b60405180910390fd5b610ada7f6eb0f432f614d330b668871c917335ed8bc1db90f99ded207afdf87a5a8262c88261160b565b610b19576040517f08c379a0000000000000000000000000000000000000000000000000000000008152600401610b1090612eaf565b60405180910390fd5b60006001600480549050610b2d9190612a60565b9050610b597f46927742d6cecfa1439757eb57666e5ea64271ce5c8d25cfa395d2d445eec9e283611dca565b600460405180604001604052808581526020018473ffffffffffffffffffffffffffffffffffffffff1681525090806001815401808255809150506001900390600052602060002090600202016000909190919091506000820151816000019081610bc49190612c40565b5060208201518160010160006101000a81548173ffffffffffffffffffffffffffffffffffffffff021916908373ffffffffffffffffffffffffffffffffffffffff16021790555050507f847ce7171076210ed3ef4cdc00c78a495857da31ba53b157f9abd297a722926e818484604051610c4193929190612d21565b60405180910390a1505050565b60606000600183610c5f9190612853565b905060048181548110610c7557610c74612887565b5b90600052602060002090600202016000018054610c91906128e5565b80601f0160208091040260200160405190810160405280929190818152602001828054610cbd906128e5565b8015610d0a5780601f10610cdf57610100808354040283529160200191610d0a565b820191906000526020600020905b815481529060010190602001808311610ced57829003601f168201915b5050505050915050919050565b610d1f611dd8565b73ffffffffffffffffffffffffffffffffffffffff168173ffffffffffffffffffffffffffffffffffffffff1614610d8c576040517f08c379a0000000000000000000000000000000000000000000000000000000008152600401610d8390612f41565b60405180910390fd5b610d968282611de0565b5050565b600080610dc77f6eb0f432f614d330b668871c917335ed8bc1db90f99ded207afdf87a5a8262c88461160b565b905080915050919050565b60048181548110610de257600080fd5b9060005260206000209060020201600091509050806000018054610e05906128e5565b80601f0160208091040260200160405190810160405280929190818152602001828054610e31906128e5565b8015610e7e5780601f10610e5357610100808354040283529160200191610e7e565b820191906000526020600020905b815481529060010190602001808311610e6157829003601f168201915b5050505050908060010160009054906101000a900473ffffffffffffffffffffffffffffffffffffffff16905082565b610eb6611d4c565b6000600183610ec59190612853565b9050610ef17f6eb0f432f614d330b668871c917335ed8bc1db90f99ded207afdf87a5a8262c88361160b565b610f30576040517f08c379a0000000000000000000000000000000000000000000000000000000008152600401610f2790612fd3565b60405180910390fd5b6003805490508110610f77576040517f08c379a0000000000000000000000000000000000000000000000000000000008152600401610f6e9061303f565b60405180910390fd5b610fa17f6eb0f432f614d330b668871c917335ed8bc1db90f99ded207afdf87a5a8262c883611de0565b60008190505b6001600380549050610fb99190612853565b8110156110a2576003600182610fcf9190612a60565b81548110610fe057610fdf612887565b5b90600052602060002090600202016003828154811061100257611001612887565b5b9060005260206000209060020201600082018160000190816110249190613075565b506001820160009054906101000a900473ffffffffffffffffffffffffffffffffffffffff168160010160006101000a81548173ffffffffffffffffffffffffffffffffffffffff021916908373ffffffffffffffffffffffffffffffffffffffff160217905550905050808061109a9061315d565b915050610fa7565b5060038054806110b5576110b46131a5565b5b6001900381819060005260206000209060020201600080820160006110da9190612260565b6001820160006101000a81549073ffffffffffffffffffffffffffffffffffffffff0219169055505090557f5da16760c47dfc8f409d56cee39ce32b6160e9fff69b2d3db037a65f1950e56583836040516111369291906131d4565b60405180910390a1505050565b61114b611d4c565b600015156111797f2d2faaed8c23be685754c2c857d2b54442ae50d4706ce4165904c05bfc05c45f8361160b565b1515146111bb576040517f08c379a00000000000000000000000000000000000000000000000000000000081526004016111b29061326f565b60405180910390fd5b600060016002805490506111cf9190612a60565b90506111fb7f2d2faaed8c23be685754c2c857d2b54442ae50d4706ce4165904c05bfc05c45f83611dca565b600260405180604001604052808581526020018473ffffffffffffffffffffffffffffffffffffffff16815250908060018154018082558091505060019003906000526020600020906002020160009091909190915060008201518160000190816112669190612c40565b5060208201518160010160006101000a81548173ffffffffffffffffffffffffffffffffffffffff021916908373ffffffffffffffffffffffffffffffffffffffff16021790555050507f1ffb3782cdf2a7d6fd77186e8df9db6ead85edf6d662e7e8087b9a921c577eb08184846040516112e393929190612d21565b60405180910390a1505050565b6112f8611d4c565b6113026000611ec1565b565b7f2d2faaed8c23be685754c2c857d2b54442ae50d4706ce4165904c05bfc05c45f81565b611330611d4c565b600060018361133f9190612853565b905061136b7f2d2faaed8c23be685754c2c857d2b54442ae50d4706ce4165904c05bfc05c45f8361160b565b6113aa576040517f08c379a00000000000000000000000000000000000000000000000000000000081526004016113a190613301565b60405180910390fd5b60028054905081106113f1576040517f08c379a00000000000000000000000000000000000000000000000000000000081526004016113e89061303f565b60405180910390fd5b61141b7f2d2faaed8c23be685754c2c857d2b54442ae50d4706ce4165904c05bfc05c45f83611de0565b60008190505b60016002805490506114339190612853565b81101561151c5760026001826114499190612a60565b8154811061145a57611459612887565b5b90600052602060002090600202016002828154811061147c5761147b612887565b5b90600052602060002090600202016000820181600001908161149e9190613075565b506001820160009054906101000a900473ffffffffffffffffffffffffffffffffffffffff168160010160006101000a81548173ffffffffffffffffffffffffffffffffffffffff021916908373ffffffffffffffffffffffffffffffffffffffff16021790555090505080806115149061315d565b915050611421565b50600280548061152f5761152e6131a5565b5b6001900381819060005260206000209060020201600080820160006115549190612260565b6001820160006101000a81549073ffffffffffffffffffffffffffffffffffffffff0219169055505090557f5da16760c47dfc8f409d56cee39ce32b6160e9fff69b2d3db037a65f1950e56583836040516115b09291906131d4565b60405180910390a1505050565b7f6eb0f432f614d330b668871c917335ed8bc1db90f99ded207afdf87a5a8262c881565b6000600160009054906101000a900473ffffffffffffffffffffffffffffffffffffffff16905090565b600080600084815260200190815260200160002060000160008373ffffffffffffffffffffffffffffffffffffffff1673ffffffffffffffffffffffffffffffffffffffff16815260200190815260200160002060009054906101000a900460ff16905092915050565b6000801b81565b6060600060018361168d9190612853565b9050600381815481106116a3576116a2612887565b5b906000526020600020906002020160000180546116bf906128e5565b80601f01602080910402602001604051908101604052809291908181526020018280546116eb906128e5565b80156117385780601f1061170d57610100808354040283529160200191611738565b820191906000526020600020905b81548152906001019060200180831161171b57829003601f168201915b5050505050915050919050565b6000806117727f46927742d6cecfa1439757eb57666e5ea64271ce5c8d25cfa395d2d445eec9e28461160b565b905080915050919050565b6003818154811061178d57600080fd5b90600052602060002090600202016000915090508060000180546117b0906128e5565b80601f01602080910402602001604051908101604052809291908181526020018280546117dc906128e5565b80156118295780601f106117fe57610100808354040283529160200191611829565b820191906000526020600020905b81548152906001019060200180831161180c57829003601f168201915b5050505050908060010160009054906101000a900473ffffffffffffffffffffffffffffffffffffffff16905082565b6000806118867f2d2faaed8c23be685754c2c857d2b54442ae50d4706ce4165904c05bfc05c45f8461160b565b905080915050919050565b61189a82610707565b6118a381611c58565b6118ad8383611de0565b505050565b7f46927742d6cecfa1439757eb57666e5ea64271ce5c8d25cfa395d2d445eec9e281565b6118de611d4c565b600073ffffffffffffffffffffffffffffffffffffffff168173ffffffffffffffffffffffffffffffffffffffff160361194d576040517f08c379a000000000000000000000000000000000000000000000000000000000815260040161194490613393565b60405180910390fd5b61195681611ec1565b50565b611961611d4c565b60006001836119709190612853565b905061199c7f46927742d6cecfa1439757eb57666e5ea64271ce5c8d25cfa395d2d445eec9e28361160b565b6119db576040517f08c379a00000000000000000000000000000000000000000000000000000000081526004016119d290613425565b60405180910390fd5b6004805490508110611a22576040517f08c379a0000000000000000000000000000000000000000000000000000000008152600401611a199061303f565b60405180910390fd5b611a4c7f46927742d6cecfa1439757eb57666e5ea64271ce5c8d25cfa395d2d445eec9e283611de0565b60008190505b6001600480549050611a649190612853565b811015611b4d576004600182611a7a9190612a60565b81548110611a8b57611a8a612887565b5b906000526020600020906002020160048281548110611aad57611aac612887565b5b906000526020600020906002020160008201816000019081611acf9190613075565b506001820160009054906101000a900473ffffffffffffffffffffffffffffffffffffffff168160010160006101000a81548173ffffffffffffffffffffffffffffffffffffffff021916908373ffffffffffffffffffffffffffffffffffffffff1602179055509050508080611b459061315d565b915050611a52565b506004805480611b6057611b5f6131a5565b5b600190038181906000526020600020906002020160008082016000611b859190612260565b6001820160006101000a81549073ffffffffffffffffffffffffffffffffffffffff0219169055505090557f971605244bfb206be14896e60636184f44d9c423429268b3bae70894e26ab4e38383604051611be19291906131d4565b60405180910390a1505050565b60007f01ffc9a7000000000000000000000000000000000000000000000000000000007bffffffffffffffffffffffffffffffffffffffffffffffffffffffff1916827bffffffffffffffffffffffffffffffffffffffffffffffffffffffff1916149050919050565b611c6981611c64611dd8565b611f87565b50565b611c76828261160b565b611d4857600160008084815260200190815260200160002060000160008373ffffffffffffffffffffffffffffffffffffffff1673ffffffffffffffffffffffffffffffffffffffff16815260200190815260200160002060006101000a81548160ff021916908315150217905550611ced611dd8565b73ffffffffffffffffffffffffffffffffffffffff168173ffffffffffffffffffffffffffffffffffffffff16837f2f8788117e7eff1d82e926ec794901d17c78024a50270940304540a733656f0d60405160405180910390a45b5050565b611d54611dd8565b73ffffffffffffffffffffffffffffffffffffffff16611d726115e1565b73ffffffffffffffffffffffffffffffffffffffff1614611dc8576040517f08c379a0000000000000000000000000000000000000000000000000000000008152600401611dbf90613491565b60405180910390fd5b565b611dd48282611c6c565b5050565b600033905090565b611dea828261160b565b15611ebd57600080600084815260200190815260200160002060000160008373ffffffffffffffffffffffffffffffffffffffff1673ffffffffffffffffffffffffffffffffffffffff16815260200190815260200160002060006101000a81548160ff021916908315150217905550611e62611dd8565b73ffffffffffffffffffffffffffffffffffffffff168173ffffffffffffffffffffffffffffffffffffffff16837ff6391f5c32d9c69d2a47ea670b442974b53935d1edc7fd64eb21e047a839171b60405160405180910390a45b5050565b6000600160009054906101000a900473ffffffffffffffffffffffffffffffffffffffff16905081600160006101000a81548173ffffffffffffffffffffffffffffffffffffffff021916908373ffffffffffffffffffffffffffffffffffffffff1602179055508173ffffffffffffffffffffffffffffffffffffffff168173ffffffffffffffffffffffffffffffffffffffff167f8be0079c531659141344cd1fd0a4f28419497f9722a3daafe3b4186f6b6457e060405160405180910390a35050565b611f91828261160b565b61202057611fb68173ffffffffffffffffffffffffffffffffffffffff166014612024565b611fc48360001c6020612024565b604051602001611fd5929190613585565b6040516020818303038152906040526040517f08c379a0000000000000000000000000000000000000000000000000000000008152600401612017919061247f565b60405180910390fd5b5050565b60606000600283600261203791906135bf565b6120419190612a60565b67ffffffffffffffff81111561205a57612059612615565b5b6040519080825280601f01601f19166020018201604052801561208c5781602001600182028036833780820191505090505b5090507f3000000000000000000000000000000000000000000000000000000000000000816000815181106120c4576120c3612887565b5b60200101907effffffffffffffffffffffffffffffffffffffffffffffffffffffffffffff1916908160001a9053507f78000000000000000000000000000000000000000000000000000000000000008160018151811061212857612127612887565b5b60200101907effffffffffffffffffffffffffffffffffffffffffffffffffffffffffffff1916908160001a9053506000600184600261216891906135bf565b6121729190612a60565b90505b6001811115612212577f3031323334353637383961626364656600000000000000000000000000000000600f8616601081106121b4576121b3612887565b5b1a60f81b8282815181106121cb576121ca612887565b5b60200101907effffffffffffffffffffffffffffffffffffffffffffffffffffffffffffff1916908160001a905350600485901c94508061220b90613601565b9050612175565b5060008414612256576040517f08c379a000000000000000000000000000000000000000000000000000000000815260040161224d90613676565b60405180910390fd5b8091505092915050565b50805461226c906128e5565b6000825580601f1061227e575061229d565b601f01602090049060005260206000209081019061229c91906122a0565b5b50565b5b808211156122b95760008160009055506001016122a1565b5090565b6000604051905090565b600080fd5b600080fd5b60007fffffffff0000000000000000000000000000000000000000000000000000000082169050919050565b612306816122d1565b811461231157600080fd5b50565b600081359050612323816122fd565b92915050565b60006020828403121561233f5761233e6122c7565b5b600061234d84828501612314565b91505092915050565b60008115159050919050565b61236b81612356565b82525050565b60006020820190506123866000830184612362565b92915050565b6000819050919050565b61239f8161238c565b81146123aa57600080fd5b50565b6000813590506123bc81612396565b92915050565b6000602082840312156123d8576123d76122c7565b5b60006123e6848285016123ad565b91505092915050565b600081519050919050565b600082825260208201905092915050565b60005b8381101561242957808201518184015260208101905061240e565b60008484015250505050565b6000601f19601f8301169050919050565b6000612451826123ef565b61245b81856123fa565b935061246b81856020860161240b565b61247481612435565b840191505092915050565b600060208201905081810360008301526124998184612446565b905092915050565b6000819050919050565b6124b4816124a1565b81146124bf57600080fd5b50565b6000813590506124d1816124ab565b92915050565b6000602082840312156124ed576124ec6122c7565b5b60006124fb848285016124c2565b91505092915050565b61250d816124a1565b82525050565b60006020820190506125286000830184612504565b92915050565b600073ffffffffffffffffffffffffffffffffffffffff82169050919050565b60006125598261252e565b9050919050565b6125698161254e565b82525050565b600060408201905081810360008301526125898185612446565b90506125986020830184612560565b9392505050565b6125a88161254e565b81146125b357600080fd5b50565b6000813590506125c58161259f565b92915050565b600080604083850312156125e2576125e16122c7565b5b60006125f0858286016124c2565b9250506020612601858286016125b6565b9150509250929050565b600080fd5b600080fd5b7f4e487b7100000000000000000000000000000000000000000000000000000000600052604160045260246000fd5b61264d82612435565b810181811067ffffffffffffffff8211171561266c5761266b612615565b5b80604052505050565b600061267f6122bd565b905061268b8282612644565b919050565b600067ffffffffffffffff8211156126ab576126aa612615565b5b6126b482612435565b9050602081019050919050565b82818337600083830152505050565b60006126e36126de84612690565b612675565b9050828152602081018484840111156126ff576126fe612610565b5b61270a8482856126c1565b509392505050565b600082601f8301126127275761272661260b565b5b81356127378482602086016126d0565b91505092915050565b60008060408385031215612757576127566122c7565b5b600083013567ffffffffffffffff811115612775576127746122cc565b5b61278185828601612712565b9250506020612792858286016125b6565b9150509250929050565b6000602082840312156127b2576127b16122c7565b5b60006127c0848285016125b6565b91505092915050565b600080604083850312156127e0576127df6122c7565b5b60006127ee858286016123ad565b92505060206127ff858286016125b6565b9150509250929050565b600060208201905061281e6000830184612560565b92915050565b7f4e487b7100000000000000000000000000000000000000000000000000000000600052601160045260246000fd5b600061285e8261238c565b91506128698361238c565b925082820390508181111561288157612880612824565b5b92915050565b7f4e487b7100000000000000000000000000000000000000000000000000000000600052603260045260246000fd5b7f4e487b7100000000000000000000000000000000000000000000000000000000600052602260045260246000fd5b600060028204905060018216806128fd57607f821691505b6020821081036129105761290f6128b6565b5b50919050565b7f4552524f523a204163636f756e7420697320616c72656164792061205375707060008201527f6c69657221000000000000000000000000000000000000000000000000000000602082015250565b60006129726025836123fa565b915061297d82612916565b604082019050919050565b600060208201905081810360008301526129a181612965565b9050919050565b7f4552524f523a20546865204163636f756e742070726f7669646564206973206160008201527f20426f617264204d656d6265722e20426f617264204d656d626572732063616e60208201527f6e6f74206265636f6d6520537570706c69657273210000000000000000000000604082015250565b6000612a2a6055836123fa565b9150612a35826129a8565b606082019050919050565b60006020820190508181036000830152612a5981612a1d565b9050919050565b6000612a6b8261238c565b9150612a768361238c565b9250828201905080821115612a8e57612a8d612824565b5b92915050565b60008190508160005260206000209050919050565b60006020601f8301049050919050565b600082821b905092915050565b600060088302612af67fffffffffffffffffffffffffffffffffffffffffffffffffffffffffffffffff82612ab9565b612b008683612ab9565b95508019841693508086168417925050509392505050565b6000819050919050565b6000612b3d612b38612b338461238c565b612b18565b61238c565b9050919050565b6000819050919050565b612b5783612b22565b612b6b612b6382612b44565b848454612ac6565b825550505050565b600090565b612b80612b73565b612b8b818484612b4e565b505050565b5b81811015612baf57612ba4600082612b78565b600181019050612b91565b5050565b601f821115612bf457612bc581612a94565b612bce84612aa9565b81016020851015612bdd578190505b612bf1612be985612aa9565b830182612b90565b50505b505050565b600082821c905092915050565b6000612c1760001984600802612bf9565b1980831691505092915050565b6000612c308383612c06565b9150826002028217905092915050565b612c49826123ef565b67ffffffffffffffff811115612c6257612c61612615565b5b612c6c82546128e5565b612c77828285612bb3565b600060209050601f831160018114612caa5760008415612c98578287015190505b612ca28582612c24565b865550612d0a565b601f198416612cb886612a94565b60005b82811015612ce057848901518255600182019150602085019450602081019050612cbb565b86831015612cfd5784890151612cf9601f891682612c06565b8355505b6001600288020188555050505b505050505050565b612d1b8161238c565b82525050565b6000606082019050612d366000830186612d12565b8181036020830152612d488185612446565b9050612d576040830184612560565b949350505050565b7f4552524f523a204163636f756e7420697320616c726561647920612053656e6960008201527f6f7220537570706c696572210000000000000000000000000000000000000000602082015250565b6000612dbb602c836123fa565b9150612dc682612d5f565b604082019050919050565b60006020820190508181036000830152612dea81612dae565b9050919050565b7f4552524f523a204163636f756e742070726f7669646564206973206e6f74206160008201527f20537570706c6965722120546f206f627461696e20612053656e696f7220526f60208201527f6c6520746865206d656d626572206e6565647320746f2062652061207265676960408201527f746572656420537570706c6965722e0000000000000000000000000000000000606082015250565b6000612e99606f836123fa565b9150612ea482612df1565b608082019050919050565b60006020820190508181036000830152612ec881612e8c565b9050919050565b7f416363657373436f6e74726f6c3a2063616e206f6e6c792072656e6f756e636560008201527f20726f6c657320666f722073656c660000000000000000000000000000000000602082015250565b6000612f2b602f836123fa565b9150612f3682612ecf565b604082019050919050565b60006020820190508181036000830152612f5a81612f1e565b9050919050565b7f4552524f523a204163636f756e742070726f7669646564206973206e6f74206160008201527f20537570706c6965722100000000000000000000000000000000000000000000602082015250565b6000612fbd602a836123fa565b9150612fc882612f61565b604082019050919050565b60006020820190508181036000830152612fec81612fb0565b9050919050565b7f4552524f523a20496e646578206f7574206f6620626f756e6421000000000000600082015250565b6000613029601a836123fa565b915061303482612ff3565b602082019050919050565b600060208201905081810360008301526130588161301c565b9050919050565b60008154905061306e816128e5565b9050919050565b81810361308357505061315b565b61308c8261305f565b67ffffffffffffffff8111156130a5576130a4612615565b5b6130af82546128e5565b6130ba828285612bb3565b6000601f8311600181146130e957600084156130d7578287015490505b6130e18582612c24565b865550613154565b601f1984166130f787612a94565b965061310286612a94565b60005b8281101561312a57848901548255600182019150600185019450602081019050613105565b868310156131475784890154613143601f891682612c06565b8355505b6001600288020188555050505b5050505050505b565b60006131688261238c565b91507fffffffffffffffffffffffffffffffffffffffffffffffffffffffffffffffff820361319a57613199612824565b5b600182019050919050565b7f4e487b7100000000000000000000000000000000000000000000000000000000600052603160045260246000fd5b60006040820190506131e96000830185612d12565b6131f66020830184612560565b9392505050565b7f4552524f523a204163636f756e7420697320616c7265616479206120426f617260008201527f64204d656d626572210000000000000000000000000000000000000000000000602082015250565b60006132596029836123fa565b9150613264826131fd565b604082019050919050565b600060208201905081810360008301526132888161324c565b9050919050565b7f4552524f523a204163636f756e742070726f7669646564206973206e6f74206160008201527f20426f617264204d656d62657221000000000000000000000000000000000000602082015250565b60006132eb602e836123fa565b91506132f68261328f565b604082019050919050565b6000602082019050818103600083015261331a816132de565b9050919050565b7f4f776e61626c653a206e6577206f776e657220697320746865207a65726f206160008201527f6464726573730000000000000000000000000000000000000000000000000000602082015250565b600061337d6026836123fa565b915061338882613321565b604082019050919050565b600060208201905081810360008301526133ac81613370565b9050919050565b7f4552524f523a204163636f756e742070726f7669646564206973206e6f74206160008201527f2053656e696f7220537570706c69657221000000000000000000000000000000602082015250565b600061340f6031836123fa565b915061341a826133b3565b604082019050919050565b6000602082019050818103600083015261343e81613402565b9050919050565b7f4f776e61626c653a2063616c6c6572206973206e6f7420746865206f776e6572600082015250565b600061347b6020836123fa565b915061348682613445565b602082019050919050565b600060208201905081810360008301526134aa8161346e565b9050919050565b600081905092915050565b7f416363657373436f6e74726f6c3a206163636f756e7420000000000000000000600082015250565b60006134f26017836134b1565b91506134fd826134bc565b601782019050919050565b6000613513826123ef565b61351d81856134b1565b935061352d81856020860161240b565b80840191505092915050565b7f206973206d697373696e6720726f6c6520000000000000000000000000000000600082015250565b600061356f6011836134b1565b915061357a82613539565b601182019050919050565b6000613590826134e5565b915061359c8285613508565b91506135a782613562565b91506135b38284613508565b91508190509392505050565b60006135ca8261238c565b91506135d58361238c565b92508282026135e38161238c565b915082820484148315176135fa576135f9612824565b5b5092915050565b600061360c8261238c565b91506000820361361f5761361e612824565b5b600182039050919050565b7f537472696e67733a20686578206c656e67746820696e73756666696369656e74600082015250565b60006136606020836123fa565b915061366b8261362a565b602082019050919050565b6000602082019050818103600083015261368f81613653565b905091905056fea2646970667358221220c536397d1d1862c3cd34e6042c164ff88eac6deabf11ba6b8f2482375dc5efd364736f6c63430008110033",
  "linkReferences": {},
  "deployedLinkReferences": {}
}