{
  "_format": "hh-sol-artifact-1",
  "contractName": "AdministrativeAccessControl",
  "sourceName": "contracts/board_administration/AdministrativeAccessControl.sol",
  "abi": [
    {
      "inputs": [
        {
          "internalType": "string[]",
          "name": "_initialBoardMembersNames",
          "type": "string[]"
        },
        {
          "internalType": "address[]",
          "name": "_initialBoardMembers",
          "type": "address[]"
        }
      ],
      "stateMutability": "nonpayable",
      "type": "constructor"
    },
    {
      "anonymous": false,
      "inputs": [
        {
          "indexed": false,
          "internalType": "uint256",
          "name": "boardMemberId",
          "type": "uint256"
        },
        {
          "indexed": false,
          "internalType": "string",
          "name": "name",
          "type": "string"
        },
        {
          "indexed": false,
          "internalType": "address",
          "name": "boardMemberAddress",
          "type": "address"
        }
      ],
      "name": "NewBoardMember",
      "type": "event"
    },
    {
      "anonymous": false,
      "inputs": [
        {
          "indexed": false,
          "internalType": "uint256",
          "name": "supplierId",
          "type": "uint256"
        },
        {
          "indexed": false,
          "internalType": "string",
          "name": "name",
          "type": "string"
        },
        {
          "indexed": false,
          "internalType": "address",
          "name": "supplierAddress",
          "type": "address"
        }
      ],
      "name": "NewSupplier",
      "type": "event"
    },
    {
      "anonymous": false,
      "inputs": [
        {
          "indexed": true,
          "internalType": "address",
          "name": "previousOwner",
          "type": "address"
        },
        {
          "indexed": true,
          "internalType": "address",
          "name": "newOwner",
          "type": "address"
        }
      ],
      "name": "OwnershipTransferred",
      "type": "event"
    },
    {
      "anonymous": false,
      "inputs": [
        {
          "indexed": false,
          "internalType": "uint256",
          "name": "boardMemberId",
          "type": "uint256"
        },
        {
          "indexed": false,
          "internalType": "address",
          "name": "boardMemberAddress",
          "type": "address"
        }
      ],
      "name": "RevokedBoardMember",
      "type": "event"
    },
    {
      "anonymous": false,
      "inputs": [
        {
          "indexed": false,
          "internalType": "uint256",
          "name": "supplierId",
          "type": "uint256"
        },
        {
          "indexed": false,
          "internalType": "address",
          "name": "supplierAddress",
          "type": "address"
        }
      ],
      "name": "RevokedSupplier",
      "type": "event"
    },
    {
      "anonymous": false,
      "inputs": [
        {
          "indexed": true,
          "internalType": "bytes32",
          "name": "role",
          "type": "bytes32"
        },
        {
          "indexed": true,
          "internalType": "bytes32",
          "name": "previousAdminRole",
          "type": "bytes32"
        },
        {
          "indexed": true,
          "internalType": "bytes32",
          "name": "newAdminRole",
          "type": "bytes32"
        }
      ],
      "name": "RoleAdminChanged",
      "type": "event"
    },
    {
      "anonymous": false,
      "inputs": [
        {
          "indexed": true,
          "internalType": "bytes32",
          "name": "role",
          "type": "bytes32"
        },
        {
          "indexed": true,
          "internalType": "address",
          "name": "account",
          "type": "address"
        },
        {
          "indexed": true,
          "internalType": "address",
          "name": "sender",
          "type": "address"
        }
      ],
      "name": "RoleGranted",
      "type": "event"
    },
    {
      "anonymous": false,
      "inputs": [
        {
          "indexed": true,
          "internalType": "bytes32",
          "name": "role",
          "type": "bytes32"
        },
        {
          "indexed": true,
          "internalType": "address",
          "name": "account",
          "type": "address"
        },
        {
          "indexed": true,
          "internalType": "address",
          "name": "sender",
          "type": "address"
        }
      ],
      "name": "RoleRevoked",
      "type": "event"
    },
    {
      "inputs": [],
      "name": "BOARD_MEMBER",
      "outputs": [
        {
          "internalType": "bytes32",
          "name": "",
          "type": "bytes32"
        }
      ],
      "stateMutability": "view",
      "type": "function"
    },
    {
      "inputs": [],
      "name": "DEFAULT_ADMIN_ROLE",
      "outputs": [
        {
          "internalType": "bytes32",
          "name": "",
          "type": "bytes32"
        }
      ],
      "stateMutability": "view",
      "type": "function"
    },
    {
      "inputs": [],
      "name": "SUPPLIER_MEMBER",
      "outputs": [
        {
          "internalType": "bytes32",
          "name": "",
          "type": "bytes32"
        }
      ],
      "stateMutability": "view",
      "type": "function"
    },
    {
      "inputs": [
        {
          "internalType": "string",
          "name": "_name",
          "type": "string"
        },
        {
          "internalType": "address",
          "name": "_boardMemberAddress",
          "type": "address"
        }
      ],
      "name": "_newBoardMember",
      "outputs": [],
      "stateMutability": "nonpayable",
      "type": "function"
    },
    {
      "inputs": [
        {
          "internalType": "string",
          "name": "_name",
          "type": "string"
        },
        {
          "internalType": "address",
          "name": "_supplierAddress",
          "type": "address"
        }
      ],
      "name": "_newSupplier",
      "outputs": [],
      "stateMutability": "nonpayable",
      "type": "function"
    },
    {
      "inputs": [
        {
          "internalType": "uint256",
          "name": "_id",
          "type": "uint256"
        },
        {
          "internalType": "address",
          "name": "_boardMemberAddress",
          "type": "address"
        }
      ],
      "name": "_revokeBoardMember",
      "outputs": [],
      "stateMutability": "nonpayable",
      "type": "function"
    },
    {
      "inputs": [
        {
          "internalType": "uint256",
          "name": "_id",
          "type": "uint256"
        },
        {
          "internalType": "address",
          "name": "_supplierAddress",
          "type": "address"
        }
      ],
      "name": "_revokeSupplier",
      "outputs": [],
      "stateMutability": "nonpayable",
      "type": "function"
    },
    {
      "inputs": [
        {
          "internalType": "uint256",
          "name": "",
          "type": "uint256"
        }
      ],
      "name": "boardMembers",
      "outputs": [
        {
          "internalType": "string",
          "name": "name",
          "type": "string"
        },
        {
          "internalType": "address",
          "name": "boardMemberAddress",
          "type": "address"
        }
      ],
      "stateMutability": "view",
      "type": "function"
    },
    {
      "inputs": [
        {
          "internalType": "bytes32",
          "name": "role",
          "type": "bytes32"
        }
      ],
      "name": "getRoleAdmin",
      "outputs": [
        {
          "internalType": "bytes32",
          "name": "",
          "type": "bytes32"
        }
      ],
      "stateMutability": "view",
      "type": "function"
    },
    {
      "inputs": [
        {
          "internalType": "bytes32",
          "name": "role",
          "type": "bytes32"
        },
        {
          "internalType": "address",
          "name": "account",
          "type": "address"
        }
      ],
      "name": "grantRole",
      "outputs": [],
      "stateMutability": "nonpayable",
      "type": "function"
    },
    {
      "inputs": [
        {
          "internalType": "bytes32",
          "name": "role",
          "type": "bytes32"
        },
        {
          "internalType": "address",
          "name": "account",
          "type": "address"
        }
      ],
      "name": "hasRole",
      "outputs": [
        {
          "internalType": "bool",
          "name": "",
          "type": "bool"
        }
      ],
      "stateMutability": "view",
      "type": "function"
    },
    {
      "inputs": [],
      "name": "owner",
      "outputs": [
        {
          "internalType": "address",
          "name": "",
          "type": "address"
        }
      ],
      "stateMutability": "view",
      "type": "function"
    },
    {
      "inputs": [],
      "name": "renounceOwnership",
      "outputs": [],
      "stateMutability": "nonpayable",
      "type": "function"
    },
    {
      "inputs": [
        {
          "internalType": "bytes32",
          "name": "role",
          "type": "bytes32"
        },
        {
          "internalType": "address",
          "name": "account",
          "type": "address"
        }
      ],
      "name": "renounceRole",
      "outputs": [],
      "stateMutability": "nonpayable",
      "type": "function"
    },
    {
      "inputs": [
        {
          "internalType": "uint256",
          "name": "_id",
          "type": "uint256"
        }
      ],
      "name": "retrieveBoardMember",
      "outputs": [
        {
          "internalType": "string",
          "name": "",
          "type": "string"
        }
      ],
      "stateMutability": "view",
      "type": "function"
    },
    {
      "inputs": [
        {
          "internalType": "uint256",
          "name": "_id",
          "type": "uint256"
        }
      ],
      "name": "retrieveSupplier",
      "outputs": [
        {
          "internalType": "string",
          "name": "",
          "type": "string"
        }
      ],
      "stateMutability": "view",
      "type": "function"
    },
    {
      "inputs": [
        {
          "internalType": "bytes32",
          "name": "role",
          "type": "bytes32"
        },
        {
          "internalType": "address",
          "name": "account",
          "type": "address"
        }
      ],
      "name": "revokeRole",
      "outputs": [],
      "stateMutability": "nonpayable",
      "type": "function"
    },
    {
      "inputs": [
        {
          "internalType": "uint256",
          "name": "",
          "type": "uint256"
        }
      ],
      "name": "suppliers",
      "outputs": [
        {
          "internalType": "string",
          "name": "name",
          "type": "string"
        },
        {
          "internalType": "address",
          "name": "supplierAddress",
          "type": "address"
        }
      ],
      "stateMutability": "view",
      "type": "function"
    },
    {
      "inputs": [
        {
          "internalType": "bytes4",
          "name": "interfaceId",
          "type": "bytes4"
        }
      ],
      "name": "supportsInterface",
      "outputs": [
        {
          "internalType": "bool",
          "name": "",
          "type": "bool"
        }
      ],
      "stateMutability": "view",
      "type": "function"
    },
    {
      "inputs": [
        {
          "internalType": "address",
          "name": "newOwner",
          "type": "address"
        }
      ],
      "name": "transferOwnership",
      "outputs": [],
      "stateMutability": "nonpayable",
      "type": "function"
    },
    {
      "inputs": [
        {
          "internalType": "address",
          "name": "_boardMemberAddress",
          "type": "address"
        }
      ],
      "name": "verifyBoardMember",
      "outputs": [
        {
          "internalType": "bool",
          "name": "",
          "type": "bool"
        }
      ],
      "stateMutability": "view",
      "type": "function"
    },
    {
      "inputs": [
        {
          "internalType": "address",
          "name": "_supplierAddress",
          "type": "address"
        }
      ],
      "name": "verifySupplier",
      "outputs": [
        {
          "internalType": "bool",
          "name": "",
          "type": "bool"
        }
      ],
      "stateMutability": "view",
      "type": "function"
    }
  ],
  "bytecode": "0x60806040523480156200001157600080fd5b50604051620038fb380380620038fb8339818101604052810190620000379190620007cc565b620000576200004b620001c360201b60201c565b620001cb60201b60201c565b60005b8151811015620001ba57620000b37f2d2faaed8c23be685754c2c857d2b54442ae50d4706ce4165904c05bfc05c45f8383815181106200009f576200009e62000851565b5b60200260200101516200029160201b60201c565b60026040518060400160405280858481518110620000d657620000d562000851565b5b60200260200101518152602001848481518110620000f957620000f862000851565b5b602002602001015173ffffffffffffffffffffffffffffffffffffffff16815250908060018154018082558091505060019003906000526020600020906002020160009091909190915060008201518160000190816200015a919062000acb565b5060208201518160010160006101000a81548173ffffffffffffffffffffffffffffffffffffffff021916908373ffffffffffffffffffffffffffffffffffffffff16021790555050508080620001b19062000be1565b9150506200005a565b50505062000c2e565b600033905090565b6000600160009054906101000a900473ffffffffffffffffffffffffffffffffffffffff16905081600160006101000a81548173ffffffffffffffffffffffffffffffffffffffff021916908373ffffffffffffffffffffffffffffffffffffffff1602179055508173ffffffffffffffffffffffffffffffffffffffff168173ffffffffffffffffffffffffffffffffffffffff167f8be0079c531659141344cd1fd0a4f28419497f9722a3daafe3b4186f6b6457e060405160405180910390a35050565b620002a38282620002a760201b60201c565b5050565b620002b982826200039860201b60201c565b6200039457600160008084815260200190815260200160002060000160008373ffffffffffffffffffffffffffffffffffffffff1673ffffffffffffffffffffffffffffffffffffffff16815260200190815260200160002060006101000a81548160ff02191690831515021790555062000339620001c360201b60201c565b73ffffffffffffffffffffffffffffffffffffffff168173ffffffffffffffffffffffffffffffffffffffff16837f2f8788117e7eff1d82e926ec794901d17c78024a50270940304540a733656f0d60405160405180910390a45b5050565b600080600084815260200190815260200160002060000160008373ffffffffffffffffffffffffffffffffffffffff1673ffffffffffffffffffffffffffffffffffffffff16815260200190815260200160002060009054906101000a900460ff16905092915050565b6000604051905090565b600080fd5b600080fd5b600080fd5b6000601f19601f8301169050919050565b7f4e487b7100000000000000000000000000000000000000000000000000000000600052604160045260246000fd5b62000466826200041b565b810181811067ffffffffffffffff821117156200048857620004876200042c565b5b80604052505050565b60006200049d62000402565b9050620004ab82826200045b565b919050565b600067ffffffffffffffff821115620004ce57620004cd6200042c565b5b602082029050602081019050919050565b600080fd5b600080fd5b600067ffffffffffffffff8211156200050757620005066200042c565b5b62000512826200041b565b9050602081019050919050565b60005b838110156200053f57808201518184015260208101905062000522565b60008484015250505050565b6000620005626200055c84620004e9565b62000491565b905082815260208101848484011115620005815762000580620004e4565b5b6200058e8482856200051f565b509392505050565b600082601f830112620005ae57620005ad62000416565b5b8151620005c08482602086016200054b565b91505092915050565b6000620005e0620005da84620004b0565b62000491565b90508083825260208201905060208402830185811115620006065762000605620004df565b5b835b818110156200065457805167ffffffffffffffff8111156200062f576200062e62000416565b5b8086016200063e898262000596565b8552602085019450505060208101905062000608565b5050509392505050565b600082601f83011262000676576200067562000416565b5b815162000688848260208601620005c9565b91505092915050565b600067ffffffffffffffff821115620006af57620006ae6200042c565b5b602082029050602081019050919050565b600073ffffffffffffffffffffffffffffffffffffffff82169050919050565b6000620006ed82620006c0565b9050919050565b620006ff81620006e0565b81146200070b57600080fd5b50565b6000815190506200071f81620006f4565b92915050565b60006200073c620007368462000691565b62000491565b90508083825260208201905060208402830185811115620007625762000761620004df565b5b835b818110156200078f57806200077a88826200070e565b84526020840193505060208101905062000764565b5050509392505050565b600082601f830112620007b157620007b062000416565b5b8151620007c384826020860162000725565b91505092915050565b60008060408385031215620007e657620007e56200040c565b5b600083015167ffffffffffffffff81111562000807576200080662000411565b5b62000815858286016200065e565b925050602083015167ffffffffffffffff81111562000839576200083862000411565b5b620008478582860162000799565b9150509250929050565b7f4e487b7100000000000000000000000000000000000000000000000000000000600052603260045260246000fd5b600081519050919050565b7f4e487b7100000000000000000000000000000000000000000000000000000000600052602260045260246000fd5b60006002820490506001821680620008d357607f821691505b602082108103620008e957620008e86200088b565b5b50919050565b60008190508160005260206000209050919050565b60006020601f8301049050919050565b600082821b905092915050565b600060088302620009537fffffffffffffffffffffffffffffffffffffffffffffffffffffffffffffffff8262000914565b6200095f868362000914565b95508019841693508086168417925050509392505050565b6000819050919050565b6000819050919050565b6000620009ac620009a6620009a08462000977565b62000981565b62000977565b9050919050565b6000819050919050565b620009c8836200098b565b620009e0620009d782620009b3565b84845462000921565b825550505050565b600090565b620009f7620009e8565b62000a04818484620009bd565b505050565b5b8181101562000a2c5762000a20600082620009ed565b60018101905062000a0a565b5050565b601f82111562000a7b5762000a4581620008ef565b62000a508462000904565b8101602085101562000a60578190505b62000a7862000a6f8562000904565b83018262000a09565b50505b505050565b600082821c905092915050565b600062000aa06000198460080262000a80565b1980831691505092915050565b600062000abb838362000a8d565b9150826002028217905092915050565b62000ad68262000880565b67ffffffffffffffff81111562000af25762000af16200042c565b5b62000afe8254620008ba565b62000b0b82828562000a30565b600060209050601f83116001811462000b43576000841562000b2e578287015190505b62000b3a858262000aad565b86555062000baa565b601f19841662000b5386620008ef565b60005b8281101562000b7d5784890151825560018201915060208501945060208101905062000b56565b8683101562000b9d578489015162000b99601f89168262000a8d565b8355505b6001600288020188555050505b505050505050565b7f4e487b7100000000000000000000000000000000000000000000000000000000600052601160045260246000fd5b600062000bee8262000977565b91507fffffffffffffffffffffffffffffffffffffffffffffffffffffffffffffffff820362000c235762000c2262000bb2565b5b600182019050919050565b612cbd8062000c3e6000396000f3fe608060405234801561001057600080fd5b50600436106101425760003560e01c806389e93c25116100b8578063a217fddf1161007c578063a217fddf14610374578063ada3320514610392578063cea23121146103c2578063d0d00627146103f3578063d547741f14610423578063f2fde38b1461043f57610142565b806389e93c25146102ce5780638b8863b8146102ec5780638ce691f3146103085780638da5cb5b1461032657806391d148541461034457610142565b8063311a19d41161010a578063311a19d41461022457806336568abe146102405780634959e0871461025c5780635132caf81461028c578063536f279a146102a8578063715018a6146102c457610142565b806301ffc9a7146101475780631752f30e14610177578063248a9ca3146101a75780632a892ea9146101d75780632f2ff15d14610208575b600080fd5b610161600480360381019061015c9190611b1c565b61045b565b60405161016e9190611b64565b60405180910390f35b610191600480360381019061018c9190611bb5565b6104d5565b60405161019e9190611c72565b60405180910390f35b6101c160048036038101906101bc9190611cca565b61059e565b6040516101ce9190611d06565b60405180910390f35b6101f160048036038101906101ec9190611bb5565b6105bd565b6040516101ff929190611d62565b60405180910390f35b610222600480360381019061021d9190611dbe565b610699565b005b61023e60048036038101906102399190611f33565b6106ba565b005b61025a60048036038101906102559190611dbe565b6108d7565b005b61027660048036038101906102719190611f8f565b61095a565b6040516102839190611b64565b60405180910390f35b6102a660048036038101906102a19190611fbc565b610992565b005b6102c260048036038101906102bd9190611f33565b610c27565b005b6102cc610dd4565b005b6102d6610de8565b6040516102e39190611d06565b60405180910390f35b61030660048036038101906103019190611fbc565b610e0c565b005b6103106110a1565b60405161031d9190611d06565b60405180910390f35b61032e6110c5565b60405161033b9190611ffc565b60405180910390f35b61035e60048036038101906103599190611dbe565b6110ef565b60405161036b9190611b64565b60405180910390f35b61037c611159565b6040516103899190611d06565b60405180910390f35b6103ac60048036038101906103a79190611bb5565b611160565b6040516103b99190611c72565b60405180910390f35b6103dc60048036038101906103d79190611bb5565b611229565b6040516103ea929190611d62565b60405180910390f35b61040d60048036038101906104089190611f8f565b611305565b60405161041a9190611b64565b60405180910390f35b61043d60048036038101906104389190611dbe565b61133d565b005b61045960048036038101906104549190611f8f565b61135e565b005b60007f7965db0b000000000000000000000000000000000000000000000000000000007bffffffffffffffffffffffffffffffffffffffffffffffffffffffff1916827bffffffffffffffffffffffffffffffffffffffffffffffffffffffff191614806104ce57506104cd826113e1565b5b9050919050565b606060006001836104e69190612046565b9050600281815481106104fc576104fb61207a565b5b90600052602060002090600202016000018054610518906120d8565b80601f0160208091040260200160405190810160405280929190818152602001828054610544906120d8565b80156105915780601f1061056657610100808354040283529160200191610591565b820191906000526020600020905b81548152906001019060200180831161057457829003601f168201915b5050505050915050919050565b6000806000838152602001908152602001600020600101549050919050565b600281815481106105cd57600080fd5b90600052602060002090600202016000915090508060000180546105f0906120d8565b80601f016020809104026020016040519081016040528092919081815260200182805461061c906120d8565b80156106695780601f1061063e57610100808354040283529160200191610669565b820191906000526020600020905b81548152906001019060200180831161064c57829003601f168201915b5050505050908060010160009054906101000a900473ffffffffffffffffffffffffffffffffffffffff16905082565b6106a28261059e565b6106ab8161144b565b6106b5838361145f565b505050565b6106c261153f565b600015156106f07f6eb0f432f614d330b668871c917335ed8bc1db90f99ded207afdf87a5a8262c8836110ef565b151514610732576040517f08c379a00000000000000000000000000000000000000000000000000000000081526004016107299061217b565b60405180910390fd5b600015156107607f2d2faaed8c23be685754c2c857d2b54442ae50d4706ce4165904c05bfc05c45f836110ef565b1515146107a2576040517f08c379a000000000000000000000000000000000000000000000000000000000815260040161079990612233565b60405180910390fd5b600060016003805490506107b69190612253565b90506107e27f6eb0f432f614d330b668871c917335ed8bc1db90f99ded207afdf87a5a8262c8836115bd565b600360405180604001604052808581526020018473ffffffffffffffffffffffffffffffffffffffff168152509080600181540180825580915050600190039060005260206000209060020201600090919091909150600082015181600001908161084d9190612433565b5060208201518160010160006101000a81548173ffffffffffffffffffffffffffffffffffffffff021916908373ffffffffffffffffffffffffffffffffffffffff16021790555050507ff14afadda05168e56172a2a5225c4f3d8945f91cd31b48cb267c87315c06e50c8184846040516108ca93929190612514565b60405180910390a1505050565b6108df6115cb565b73ffffffffffffffffffffffffffffffffffffffff168173ffffffffffffffffffffffffffffffffffffffff161461094c576040517f08c379a0000000000000000000000000000000000000000000000000000000008152600401610943906125c4565b60405180910390fd5b61095682826115d3565b5050565b6000806109877f6eb0f432f614d330b668871c917335ed8bc1db90f99ded207afdf87a5a8262c8846110ef565b905080915050919050565b61099a61153f565b60006001836109a99190612046565b90506109d57f6eb0f432f614d330b668871c917335ed8bc1db90f99ded207afdf87a5a8262c8836110ef565b610a14576040517f08c379a0000000000000000000000000000000000000000000000000000000008152600401610a0b90612656565b60405180910390fd5b6003805490508110610a5b576040517f08c379a0000000000000000000000000000000000000000000000000000000008152600401610a52906126c2565b60405180910390fd5b610a857f6eb0f432f614d330b668871c917335ed8bc1db90f99ded207afdf87a5a8262c8836115d3565b60008190505b6001600380549050610a9d9190612046565b811015610b86576003600182610ab39190612253565b81548110610ac457610ac361207a565b5b906000526020600020906002020160038281548110610ae657610ae561207a565b5b906000526020600020906002020160008201816000019081610b0891906126f8565b506001820160009054906101000a900473ffffffffffffffffffffffffffffffffffffffff168160010160006101000a81548173ffffffffffffffffffffffffffffffffffffffff021916908373ffffffffffffffffffffffffffffffffffffffff1602179055509050508080610b7e906127e0565b915050610a8b565b506003805480610b9957610b98612828565b5b600190038181906000526020600020906002020160008082016000610bbe9190611a53565b6001820160006101000a81549073ffffffffffffffffffffffffffffffffffffffff0219169055505090557f5da16760c47dfc8f409d56cee39ce32b6160e9fff69b2d3db037a65f1950e5658383604051610c1a929190612857565b60405180910390a1505050565b610c2f61153f565b60001515610c5d7f2d2faaed8c23be685754c2c857d2b54442ae50d4706ce4165904c05bfc05c45f836110ef565b151514610c9f576040517f08c379a0000000000000000000000000000000000000000000000000000000008152600401610c96906128f2565b60405180910390fd5b60006001600280549050610cb39190612253565b9050610cdf7f2d2faaed8c23be685754c2c857d2b54442ae50d4706ce4165904c05bfc05c45f836115bd565b600260405180604001604052808581526020018473ffffffffffffffffffffffffffffffffffffffff1681525090806001815401808255809150506001900390600052602060002090600202016000909190919091506000820151816000019081610d4a9190612433565b5060208201518160010160006101000a81548173ffffffffffffffffffffffffffffffffffffffff021916908373ffffffffffffffffffffffffffffffffffffffff16021790555050507f1ffb3782cdf2a7d6fd77186e8df9db6ead85edf6d662e7e8087b9a921c577eb0818484604051610dc793929190612514565b60405180910390a1505050565b610ddc61153f565b610de660006116b4565b565b7f2d2faaed8c23be685754c2c857d2b54442ae50d4706ce4165904c05bfc05c45f81565b610e1461153f565b6000600183610e239190612046565b9050610e4f7f2d2faaed8c23be685754c2c857d2b54442ae50d4706ce4165904c05bfc05c45f836110ef565b610e8e576040517f08c379a0000000000000000000000000000000000000000000000000000000008152600401610e8590612984565b60405180910390fd5b6002805490508110610ed5576040517f08c379a0000000000000000000000000000000000000000000000000000000008152600401610ecc906126c2565b60405180910390fd5b610eff7f2d2faaed8c23be685754c2c857d2b54442ae50d4706ce4165904c05bfc05c45f836115d3565b60008190505b6001600280549050610f179190612046565b811015611000576002600182610f2d9190612253565b81548110610f3e57610f3d61207a565b5b906000526020600020906002020160028281548110610f6057610f5f61207a565b5b906000526020600020906002020160008201816000019081610f8291906126f8565b506001820160009054906101000a900473ffffffffffffffffffffffffffffffffffffffff168160010160006101000a81548173ffffffffffffffffffffffffffffffffffffffff021916908373ffffffffffffffffffffffffffffffffffffffff1602179055509050508080610ff8906127e0565b915050610f05565b50600280548061101357611012612828565b5b6001900381819060005260206000209060020201600080820160006110389190611a53565b6001820160006101000a81549073ffffffffffffffffffffffffffffffffffffffff0219169055505090557f5da16760c47dfc8f409d56cee39ce32b6160e9fff69b2d3db037a65f1950e5658383604051611094929190612857565b60405180910390a1505050565b7f6eb0f432f614d330b668871c917335ed8bc1db90f99ded207afdf87a5a8262c881565b6000600160009054906101000a900473ffffffffffffffffffffffffffffffffffffffff16905090565b600080600084815260200190815260200160002060000160008373ffffffffffffffffffffffffffffffffffffffff1673ffffffffffffffffffffffffffffffffffffffff16815260200190815260200160002060009054906101000a900460ff16905092915050565b6000801b81565b606060006001836111719190612046565b9050600381815481106111875761118661207a565b5b906000526020600020906002020160000180546111a3906120d8565b80601f01602080910402602001604051908101604052809291908181526020018280546111cf906120d8565b801561121c5780601f106111f15761010080835404028352916020019161121c565b820191906000526020600020905b8154815290600101906020018083116111ff57829003601f168201915b5050505050915050919050565b6003818154811061123957600080fd5b906000526020600020906002020160009150905080600001805461125c906120d8565b80601f0160208091040260200160405190810160405280929190818152602001828054611288906120d8565b80156112d55780601f106112aa576101008083540402835291602001916112d5565b820191906000526020600020905b8154815290600101906020018083116112b857829003601f168201915b5050505050908060010160009054906101000a900473ffffffffffffffffffffffffffffffffffffffff16905082565b6000806113327f2d2faaed8c23be685754c2c857d2b54442ae50d4706ce4165904c05bfc05c45f846110ef565b905080915050919050565b6113468261059e565b61134f8161144b565b61135983836115d3565b505050565b61136661153f565b600073ffffffffffffffffffffffffffffffffffffffff168173ffffffffffffffffffffffffffffffffffffffff16036113d5576040517f08c379a00000000000000000000000000000000000000000000000000000000081526004016113cc90612a16565b60405180910390fd5b6113de816116b4565b50565b60007f01ffc9a7000000000000000000000000000000000000000000000000000000007bffffffffffffffffffffffffffffffffffffffffffffffffffffffff1916827bffffffffffffffffffffffffffffffffffffffffffffffffffffffff1916149050919050565b61145c816114576115cb565b61177a565b50565b61146982826110ef565b61153b57600160008084815260200190815260200160002060000160008373ffffffffffffffffffffffffffffffffffffffff1673ffffffffffffffffffffffffffffffffffffffff16815260200190815260200160002060006101000a81548160ff0219169083151502179055506114e06115cb565b73ffffffffffffffffffffffffffffffffffffffff168173ffffffffffffffffffffffffffffffffffffffff16837f2f8788117e7eff1d82e926ec794901d17c78024a50270940304540a733656f0d60405160405180910390a45b5050565b6115476115cb565b73ffffffffffffffffffffffffffffffffffffffff166115656110c5565b73ffffffffffffffffffffffffffffffffffffffff16146115bb576040517f08c379a00000000000000000000000000000000000000000000000000000000081526004016115b290612a82565b60405180910390fd5b565b6115c7828261145f565b5050565b600033905090565b6115dd82826110ef565b156116b057600080600084815260200190815260200160002060000160008373ffffffffffffffffffffffffffffffffffffffff1673ffffffffffffffffffffffffffffffffffffffff16815260200190815260200160002060006101000a81548160ff0219169083151502179055506116556115cb565b73ffffffffffffffffffffffffffffffffffffffff168173ffffffffffffffffffffffffffffffffffffffff16837ff6391f5c32d9c69d2a47ea670b442974b53935d1edc7fd64eb21e047a839171b60405160405180910390a45b5050565b6000600160009054906101000a900473ffffffffffffffffffffffffffffffffffffffff16905081600160006101000a81548173ffffffffffffffffffffffffffffffffffffffff021916908373ffffffffffffffffffffffffffffffffffffffff1602179055508173ffffffffffffffffffffffffffffffffffffffff168173ffffffffffffffffffffffffffffffffffffffff167f8be0079c531659141344cd1fd0a4f28419497f9722a3daafe3b4186f6b6457e060405160405180910390a35050565b61178482826110ef565b611813576117a98173ffffffffffffffffffffffffffffffffffffffff166014611817565b6117b78360001c6020611817565b6040516020016117c8929190612b76565b6040516020818303038152906040526040517f08c379a000000000000000000000000000000000000000000000000000000000815260040161180a9190611c72565b60405180910390fd5b5050565b60606000600283600261182a9190612bb0565b6118349190612253565b67ffffffffffffffff81111561184d5761184c611e08565b5b6040519080825280601f01601f19166020018201604052801561187f5781602001600182028036833780820191505090505b5090507f3000000000000000000000000000000000000000000000000000000000000000816000815181106118b7576118b661207a565b5b60200101907effffffffffffffffffffffffffffffffffffffffffffffffffffffffffffff1916908160001a9053507f78000000000000000000000000000000000000000000000000000000000000008160018151811061191b5761191a61207a565b5b60200101907effffffffffffffffffffffffffffffffffffffffffffffffffffffffffffff1916908160001a9053506000600184600261195b9190612bb0565b6119659190612253565b90505b6001811115611a05577f3031323334353637383961626364656600000000000000000000000000000000600f8616601081106119a7576119a661207a565b5b1a60f81b8282815181106119be576119bd61207a565b5b60200101907effffffffffffffffffffffffffffffffffffffffffffffffffffffffffffff1916908160001a905350600485901c9450806119fe90612bf2565b9050611968565b5060008414611a49576040517f08c379a0000000000000000000000000000000000000000000000000000000008152600401611a4090612c67565b60405180910390fd5b8091505092915050565b508054611a5f906120d8565b6000825580601f10611a715750611a90565b601f016020900490600052602060002090810190611a8f9190611a93565b5b50565b5b80821115611aac576000816000905550600101611a94565b5090565b6000604051905090565b600080fd5b600080fd5b60007fffffffff0000000000000000000000000000000000000000000000000000000082169050919050565b611af981611ac4565b8114611b0457600080fd5b50565b600081359050611b1681611af0565b92915050565b600060208284031215611b3257611b31611aba565b5b6000611b4084828501611b07565b91505092915050565b60008115159050919050565b611b5e81611b49565b82525050565b6000602082019050611b796000830184611b55565b92915050565b6000819050919050565b611b9281611b7f565b8114611b9d57600080fd5b50565b600081359050611baf81611b89565b92915050565b600060208284031215611bcb57611bca611aba565b5b6000611bd984828501611ba0565b91505092915050565b600081519050919050565b600082825260208201905092915050565b60005b83811015611c1c578082015181840152602081019050611c01565b60008484015250505050565b6000601f19601f8301169050919050565b6000611c4482611be2565b611c4e8185611bed565b9350611c5e818560208601611bfe565b611c6781611c28565b840191505092915050565b60006020820190508181036000830152611c8c8184611c39565b905092915050565b6000819050919050565b611ca781611c94565b8114611cb257600080fd5b50565b600081359050611cc481611c9e565b92915050565b600060208284031215611ce057611cdf611aba565b5b6000611cee84828501611cb5565b91505092915050565b611d0081611c94565b82525050565b6000602082019050611d1b6000830184611cf7565b92915050565b600073ffffffffffffffffffffffffffffffffffffffff82169050919050565b6000611d4c82611d21565b9050919050565b611d5c81611d41565b82525050565b60006040820190508181036000830152611d7c8185611c39565b9050611d8b6020830184611d53565b9392505050565b611d9b81611d41565b8114611da657600080fd5b50565b600081359050611db881611d92565b92915050565b60008060408385031215611dd557611dd4611aba565b5b6000611de385828601611cb5565b9250506020611df485828601611da9565b9150509250929050565b600080fd5b600080fd5b7f4e487b7100000000000000000000000000000000000000000000000000000000600052604160045260246000fd5b611e4082611c28565b810181811067ffffffffffffffff82111715611e5f57611e5e611e08565b5b80604052505050565b6000611e72611ab0565b9050611e7e8282611e37565b919050565b600067ffffffffffffffff821115611e9e57611e9d611e08565b5b611ea782611c28565b9050602081019050919050565b82818337600083830152505050565b6000611ed6611ed184611e83565b611e68565b905082815260208101848484011115611ef257611ef1611e03565b5b611efd848285611eb4565b509392505050565b600082601f830112611f1a57611f19611dfe565b5b8135611f2a848260208601611ec3565b91505092915050565b60008060408385031215611f4a57611f49611aba565b5b600083013567ffffffffffffffff811115611f6857611f67611abf565b5b611f7485828601611f05565b9250506020611f8585828601611da9565b9150509250929050565b600060208284031215611fa557611fa4611aba565b5b6000611fb384828501611da9565b91505092915050565b60008060408385031215611fd357611fd2611aba565b5b6000611fe185828601611ba0565b9250506020611ff285828601611da9565b9150509250929050565b60006020820190506120116000830184611d53565b92915050565b7f4e487b7100000000000000000000000000000000000000000000000000000000600052601160045260246000fd5b600061205182611b7f565b915061205c83611b7f565b925082820390508181111561207457612073612017565b5b92915050565b7f4e487b7100000000000000000000000000000000000000000000000000000000600052603260045260246000fd5b7f4e487b7100000000000000000000000000000000000000000000000000000000600052602260045260246000fd5b600060028204905060018216806120f057607f821691505b602082108103612103576121026120a9565b5b50919050565b7f4552524f523a204163636f756e7420697320616c72656164792061205375707060008201527f6c69657221000000000000000000000000000000000000000000000000000000602082015250565b6000612165602583611bed565b915061217082612109565b604082019050919050565b6000602082019050818103600083015261219481612158565b9050919050565b7f4552524f523a20546865204163636f756e742070726f7669646564206973206160008201527f20426f617264204d656d6265722e20426f617264204d656d626572732063616e60208201527f6e6f74206265636f6d6520537570706c69657273210000000000000000000000604082015250565b600061221d605583611bed565b91506122288261219b565b606082019050919050565b6000602082019050818103600083015261224c81612210565b9050919050565b600061225e82611b7f565b915061226983611b7f565b925082820190508082111561228157612280612017565b5b92915050565b60008190508160005260206000209050919050565b60006020601f8301049050919050565b600082821b905092915050565b6000600883026122e97fffffffffffffffffffffffffffffffffffffffffffffffffffffffffffffffff826122ac565b6122f386836122ac565b95508019841693508086168417925050509392505050565b6000819050919050565b600061233061232b61232684611b7f565b61230b565b611b7f565b9050919050565b6000819050919050565b61234a83612315565b61235e61235682612337565b8484546122b9565b825550505050565b600090565b612373612366565b61237e818484612341565b505050565b5b818110156123a25761239760008261236b565b600181019050612384565b5050565b601f8211156123e7576123b881612287565b6123c18461229c565b810160208510156123d0578190505b6123e46123dc8561229c565b830182612383565b50505b505050565b600082821c905092915050565b600061240a600019846008026123ec565b1980831691505092915050565b600061242383836123f9565b9150826002028217905092915050565b61243c82611be2565b67ffffffffffffffff81111561245557612454611e08565b5b61245f82546120d8565b61246a8282856123a6565b600060209050601f83116001811461249d576000841561248b578287015190505b6124958582612417565b8655506124fd565b601f1984166124ab86612287565b60005b828110156124d3578489015182556001820191506020850194506020810190506124ae565b868310156124f057848901516124ec601f8916826123f9565b8355505b6001600288020188555050505b505050505050565b61250e81611b7f565b82525050565b60006060820190506125296000830186612505565b818103602083015261253b8185611c39565b905061254a6040830184611d53565b949350505050565b7f416363657373436f6e74726f6c3a2063616e206f6e6c792072656e6f756e636560008201527f20726f6c657320666f722073656c660000000000000000000000000000000000602082015250565b60006125ae602f83611bed565b91506125b982612552565b604082019050919050565b600060208201905081810360008301526125dd816125a1565b9050919050565b7f4552524f523a204163636f756e742070726f7669646564206973206e6f74206160008201527f20537570706c6965722100000000000000000000000000000000000000000000602082015250565b6000612640602a83611bed565b915061264b826125e4565b604082019050919050565b6000602082019050818103600083015261266f81612633565b9050919050565b7f4552524f523a20496e646578206f7574206f6620626f756e6421000000000000600082015250565b60006126ac601a83611bed565b91506126b782612676565b602082019050919050565b600060208201905081810360008301526126db8161269f565b9050919050565b6000815490506126f1816120d8565b9050919050565b8181036127065750506127de565b61270f826126e2565b67ffffffffffffffff81111561272857612727611e08565b5b61273282546120d8565b61273d8282856123a6565b6000601f83116001811461276c576000841561275a578287015490505b6127648582612417565b8655506127d7565b601f19841661277a87612287565b965061278586612287565b60005b828110156127ad57848901548255600182019150600185019450602081019050612788565b868310156127ca57848901546127c6601f8916826123f9565b8355505b6001600288020188555050505b5050505050505b565b60006127eb82611b7f565b91507fffffffffffffffffffffffffffffffffffffffffffffffffffffffffffffffff820361281d5761281c612017565b5b600182019050919050565b7f4e487b7100000000000000000000000000000000000000000000000000000000600052603160045260246000fd5b600060408201905061286c6000830185612505565b6128796020830184611d53565b9392505050565b7f4552524f523a204163636f756e7420697320616c7265616479206120426f617260008201527f64204d656d626572210000000000000000000000000000000000000000000000602082015250565b60006128dc602983611bed565b91506128e782612880565b604082019050919050565b6000602082019050818103600083015261290b816128cf565b9050919050565b7f4552524f523a204163636f756e742070726f7669646564206973206e6f74206160008201527f20426f617264204d656d62657221000000000000000000000000000000000000602082015250565b600061296e602e83611bed565b915061297982612912565b604082019050919050565b6000602082019050818103600083015261299d81612961565b9050919050565b7f4f776e61626c653a206e6577206f776e657220697320746865207a65726f206160008201527f6464726573730000000000000000000000000000000000000000000000000000602082015250565b6000612a00602683611bed565b9150612a0b826129a4565b604082019050919050565b60006020820190508181036000830152612a2f816129f3565b9050919050565b7f4f776e61626c653a2063616c6c6572206973206e6f7420746865206f776e6572600082015250565b6000612a6c602083611bed565b9150612a7782612a36565b602082019050919050565b60006020820190508181036000830152612a9b81612a5f565b9050919050565b600081905092915050565b7f416363657373436f6e74726f6c3a206163636f756e7420000000000000000000600082015250565b6000612ae3601783612aa2565b9150612aee82612aad565b601782019050919050565b6000612b0482611be2565b612b0e8185612aa2565b9350612b1e818560208601611bfe565b80840191505092915050565b7f206973206d697373696e6720726f6c6520000000000000000000000000000000600082015250565b6000612b60601183612aa2565b9150612b6b82612b2a565b601182019050919050565b6000612b8182612ad6565b9150612b8d8285612af9565b9150612b9882612b53565b9150612ba48284612af9565b91508190509392505050565b6000612bbb82611b7f565b9150612bc683611b7f565b9250828202612bd481611b7f565b91508282048414831517612beb57612bea612017565b5b5092915050565b6000612bfd82611b7f565b915060008203612c1057612c0f612017565b5b600182039050919050565b7f537472696e67733a20686578206c656e67746820696e73756666696369656e74600082015250565b6000612c51602083611bed565b9150612c5c82612c1b565b602082019050919050565b60006020820190508181036000830152612c8081612c44565b905091905056fea2646970667358221220ae729feb56ab19c25026fd6f500ccaae422ff9be498f276084472da1ddbd4f5064736f6c63430008110033",
  "linkReferences": {},
  "deployedLinkReferences": {}
}