{
  "_format": "hh-sol-artifact-1",
  "contractName": "SupplierProcess",
  "sourceName": "contracts/SupplierProcess.sol",
  "abi": [
    {
      "anonymous": false,
      "inputs": [
        {
          "indexed": false,
          "internalType": "uint256",
          "name": "seniorSupplierId",
          "type": "uint256"
        },
        {
          "indexed": false,
          "internalType": "string",
          "name": "name",
          "type": "string"
        },
        {
          "indexed": false,
          "internalType": "address",
          "name": "seniorSupplierAddress",
          "type": "address"
        }
      ],
      "name": "NewSeniorSupplier",
      "type": "event"
    },
    {
      "anonymous": false,
      "inputs": [
        {
          "indexed": false,
          "internalType": "string",
          "name": "name",
          "type": "string"
        },
        {
          "indexed": false,
          "internalType": "address",
          "name": "serviceSupplierAddress",
          "type": "address"
        },
        {
          "indexed": false,
          "internalType": "uint256",
          "name": "reputation",
          "type": "uint256"
        }
      ],
      "name": "NewServiceSupplier",
      "type": "event"
    },
    {
      "anonymous": false,
      "inputs": [
        {
          "indexed": true,
          "internalType": "address",
          "name": "previousOwner",
          "type": "address"
        },
        {
          "indexed": true,
          "internalType": "address",
          "name": "newOwner",
          "type": "address"
        }
      ],
      "name": "OwnershipTransferred",
      "type": "event"
    },
    {
      "anonymous": false,
      "inputs": [
        {
          "indexed": false,
          "internalType": "uint256",
          "name": "seniorSupplierId",
          "type": "uint256"
        },
        {
          "indexed": false,
          "internalType": "address",
          "name": "seniorSupplierAddress",
          "type": "address"
        }
      ],
      "name": "RevokedSeniorSupplier",
      "type": "event"
    },
    {
      "anonymous": false,
      "inputs": [
        {
          "indexed": true,
          "internalType": "bytes32",
          "name": "role",
          "type": "bytes32"
        },
        {
          "indexed": true,
          "internalType": "bytes32",
          "name": "previousAdminRole",
          "type": "bytes32"
        },
        {
          "indexed": true,
          "internalType": "bytes32",
          "name": "newAdminRole",
          "type": "bytes32"
        }
      ],
      "name": "RoleAdminChanged",
      "type": "event"
    },
    {
      "anonymous": false,
      "inputs": [
        {
          "indexed": true,
          "internalType": "bytes32",
          "name": "role",
          "type": "bytes32"
        },
        {
          "indexed": true,
          "internalType": "address",
          "name": "account",
          "type": "address"
        },
        {
          "indexed": true,
          "internalType": "address",
          "name": "sender",
          "type": "address"
        }
      ],
      "name": "RoleGranted",
      "type": "event"
    },
    {
      "anonymous": false,
      "inputs": [
        {
          "indexed": true,
          "internalType": "bytes32",
          "name": "role",
          "type": "bytes32"
        },
        {
          "indexed": true,
          "internalType": "address",
          "name": "account",
          "type": "address"
        },
        {
          "indexed": true,
          "internalType": "address",
          "name": "sender",
          "type": "address"
        }
      ],
      "name": "RoleRevoked",
      "type": "event"
    },
    {
      "inputs": [],
      "name": "DEFAULT_ADMIN_ROLE",
      "outputs": [
        {
          "internalType": "bytes32",
          "name": "",
          "type": "bytes32"
        }
      ],
      "stateMutability": "view",
      "type": "function"
    },
    {
      "inputs": [],
      "name": "SENIOR_SUPPLIER_MEMBER",
      "outputs": [
        {
          "internalType": "bytes32",
          "name": "",
          "type": "bytes32"
        }
      ],
      "stateMutability": "view",
      "type": "function"
    },
    {
      "inputs": [],
      "name": "SUPPLIER_MEMBER",
      "outputs": [
        {
          "internalType": "bytes32",
          "name": "",
          "type": "bytes32"
        }
      ],
      "stateMutability": "view",
      "type": "function"
    },
    {
      "inputs": [
        {
          "internalType": "string",
          "name": "_name",
          "type": "string"
        },
        {
          "internalType": "address",
          "name": "_serviceSupplierAddress",
          "type": "address"
        }
      ],
      "name": "_newServiceSupplier",
      "outputs": [],
      "stateMutability": "nonpayable",
      "type": "function"
    },
    {
      "inputs": [
        {
          "internalType": "uint256",
          "name": "_id",
          "type": "uint256"
        },
        {
          "internalType": "address",
          "name": "_seniorSupplierAddress",
          "type": "address"
        }
      ],
      "name": "_revokeSeniorSupplier",
      "outputs": [],
      "stateMutability": "nonpayable",
      "type": "function"
    },
    {
      "inputs": [
        {
          "internalType": "bytes32",
          "name": "role",
          "type": "bytes32"
        }
      ],
      "name": "getRoleAdmin",
      "outputs": [
        {
          "internalType": "bytes32",
          "name": "",
          "type": "bytes32"
        }
      ],
      "stateMutability": "view",
      "type": "function"
    },
    {
      "inputs": [
        {
          "internalType": "bytes32",
          "name": "role",
          "type": "bytes32"
        },
        {
          "internalType": "address",
          "name": "account",
          "type": "address"
        }
      ],
      "name": "grantRole",
      "outputs": [],
      "stateMutability": "nonpayable",
      "type": "function"
    },
    {
      "inputs": [
        {
          "internalType": "bytes32",
          "name": "role",
          "type": "bytes32"
        },
        {
          "internalType": "address",
          "name": "account",
          "type": "address"
        }
      ],
      "name": "hasRole",
      "outputs": [
        {
          "internalType": "bool",
          "name": "",
          "type": "bool"
        }
      ],
      "stateMutability": "view",
      "type": "function"
    },
    {
      "inputs": [],
      "name": "owner",
      "outputs": [
        {
          "internalType": "address",
          "name": "",
          "type": "address"
        }
      ],
      "stateMutability": "view",
      "type": "function"
    },
    {
      "inputs": [],
      "name": "renounceOwnership",
      "outputs": [],
      "stateMutability": "nonpayable",
      "type": "function"
    },
    {
      "inputs": [
        {
          "internalType": "bytes32",
          "name": "role",
          "type": "bytes32"
        },
        {
          "internalType": "address",
          "name": "account",
          "type": "address"
        }
      ],
      "name": "renounceRole",
      "outputs": [],
      "stateMutability": "nonpayable",
      "type": "function"
    },
    {
      "inputs": [
        {
          "internalType": "uint256",
          "name": "id",
          "type": "uint256"
        }
      ],
      "name": "retrieveSeniorSupplier",
      "outputs": [
        {
          "internalType": "string",
          "name": "",
          "type": "string"
        }
      ],
      "stateMutability": "view",
      "type": "function"
    },
    {
      "inputs": [],
      "name": "retrieveSuppliers",
      "outputs": [
        {
          "components": [
            {
              "internalType": "string",
              "name": "name",
              "type": "string"
            },
            {
              "internalType": "address",
              "name": "serviceSupplierAddress",
              "type": "address"
            },
            {
              "internalType": "uint256",
              "name": "reputation",
              "type": "uint256"
            }
          ],
          "internalType": "struct SupplierProcess.Service_Supplier[]",
          "name": "",
          "type": "tuple[]"
        }
      ],
      "stateMutability": "view",
      "type": "function"
    },
    {
      "inputs": [
        {
          "internalType": "bytes32",
          "name": "role",
          "type": "bytes32"
        },
        {
          "internalType": "address",
          "name": "account",
          "type": "address"
        }
      ],
      "name": "revokeRole",
      "outputs": [],
      "stateMutability": "nonpayable",
      "type": "function"
    },
    {
      "inputs": [
        {
          "internalType": "uint256",
          "name": "",
          "type": "uint256"
        }
      ],
      "name": "seniorSuppliers",
      "outputs": [
        {
          "internalType": "string",
          "name": "name",
          "type": "string"
        },
        {
          "internalType": "address",
          "name": "seniorSupplierAddress",
          "type": "address"
        }
      ],
      "stateMutability": "view",
      "type": "function"
    },
    {
      "inputs": [
        {
          "internalType": "uint256",
          "name": "",
          "type": "uint256"
        }
      ],
      "name": "serviceSuppliers",
      "outputs": [
        {
          "internalType": "string",
          "name": "name",
          "type": "string"
        },
        {
          "internalType": "address",
          "name": "serviceSupplierAddress",
          "type": "address"
        },
        {
          "internalType": "uint256",
          "name": "reputation",
          "type": "uint256"
        }
      ],
      "stateMutability": "view",
      "type": "function"
    },
    {
      "inputs": [
        {
          "internalType": "bytes4",
          "name": "interfaceId",
          "type": "bytes4"
        }
      ],
      "name": "supportsInterface",
      "outputs": [
        {
          "internalType": "bool",
          "name": "",
          "type": "bool"
        }
      ],
      "stateMutability": "view",
      "type": "function"
    },
    {
      "inputs": [
        {
          "internalType": "address",
          "name": "newOwner",
          "type": "address"
        }
      ],
      "name": "transferOwnership",
      "outputs": [],
      "stateMutability": "nonpayable",
      "type": "function"
    },
    {
      "inputs": [
        {
          "internalType": "address",
          "name": "senior_supplier_address",
          "type": "address"
        }
      ],
      "name": "verifySeniorSupplier",
      "outputs": [
        {
          "internalType": "bool",
          "name": "",
          "type": "bool"
        }
      ],
      "stateMutability": "view",
      "type": "function"
    }
  ],
  "bytecode": "0x60806040523480156200001157600080fd5b5062000032620000266200003860201b60201c565b6200004060201b60201c565b62000106565b600033905090565b6000600160009054906101000a900473ffffffffffffffffffffffffffffffffffffffff16905081600160006101000a81548173ffffffffffffffffffffffffffffffffffffffff021916908373ffffffffffffffffffffffffffffffffffffffff1602179055508173ffffffffffffffffffffffffffffffffffffffff168173ffffffffffffffffffffffffffffffffffffffff167f8be0079c531659141344cd1fd0a4f28419497f9722a3daafe3b4186f6b6457e060405160405180910390a35050565b612b5880620001166000396000f3fe608060405234801561001057600080fd5b50600436106101215760003560e01c80637b4c23a8116100ad578063b1b0c05311610071578063b1b0c0531461031f578063d547741f1461034f578063dadfa4771461036b578063f2fde38b14610389578063f334283e146103a557610121565b80637b4c23a8146102795780638ce691f3146102955780638da5cb5b146102b357806391d14854146102d1578063a217fddf1461030157610121565b80633338e327116100f45780633338e327146101d457806336568abe14610204578063454f8273146102205780634b0d50b01461023e578063715018a61461026f57610121565b806301ffc9a714610126578063110342cc14610156578063248a9ca3146101885780632f2ff15d146101b8575b600080fd5b610140600480360381019061013b919061188f565b6103c1565b60405161014d91906118d7565b60405180910390f35b610170600480360381019061016b9190611928565b61043b565b60405161017f93929190611a35565b60405180910390f35b6101a2600480360381019061019d9190611aa9565b61051d565b6040516101af9190611ae5565b60405180910390f35b6101d260048036038101906101cd9190611b2c565b61053c565b005b6101ee60048036038101906101e99190611928565b61055d565b6040516101fb9190611b6c565b60405180910390f35b61021e60048036038101906102199190611b2c565b610626565b005b6102286106a9565b6040516102359190611d08565b60405180910390f35b61025860048036038101906102539190611928565b6107fa565b604051610266929190611d2a565b60405180910390f35b6102776108d6565b005b610293600480360381019061028e9190611e8f565b6108ea565b005b61029d610d00565b6040516102aa9190611ae5565b60405180910390f35b6102bb610d24565b6040516102c89190611eeb565b60405180910390f35b6102eb60048036038101906102e69190611b2c565b610d4e565b6040516102f891906118d7565b60405180910390f35b610309610db8565b6040516103169190611ae5565b60405180910390f35b61033960048036038101906103349190611f06565b610dbf565b60405161034691906118d7565b60405180910390f35b61036960048036038101906103649190611b2c565b610df7565b005b610373610e18565b6040516103809190611ae5565b60405180910390f35b6103a3600480360381019061039e9190611f06565b610e3c565b005b6103bf60048036038101906103ba9190611f33565b610ebf565b005b60007f7965db0b000000000000000000000000000000000000000000000000000000007bffffffffffffffffffffffffffffffffffffffffffffffffffffffff1916827bffffffffffffffffffffffffffffffffffffffffffffffffffffffff19161480610434575061043382611154565b5b9050919050565b6002818154811061044b57600080fd5b906000526020600020906003020160009150905080600001805461046e90611fa2565b80601f016020809104026020016040519081016040528092919081815260200182805461049a90611fa2565b80156104e75780601f106104bc576101008083540402835291602001916104e7565b820191906000526020600020905b8154815290600101906020018083116104ca57829003601f168201915b5050505050908060010160009054906101000a900473ffffffffffffffffffffffffffffffffffffffff16908060020154905083565b6000806000838152602001908152602001600020600101549050919050565b6105458261051d565b61054e816111be565b61055883836111d2565b505050565b6060600060018361056e9190612002565b90506003818154811061058457610583612036565b5b906000526020600020906002020160000180546105a090611fa2565b80601f01602080910402602001604051908101604052809291908181526020018280546105cc90611fa2565b80156106195780601f106105ee57610100808354040283529160200191610619565b820191906000526020600020905b8154815290600101906020018083116105fc57829003601f168201915b5050505050915050919050565b61062e6112b2565b73ffffffffffffffffffffffffffffffffffffffff168173ffffffffffffffffffffffffffffffffffffffff161461069b576040517f08c379a0000000000000000000000000000000000000000000000000000000008152600401610692906120d7565b60405180910390fd5b6106a582826112ba565b5050565b60606002805480602002602001604051908101604052809291908181526020016000905b828210156107f1578382906000526020600020906003020160405180606001604052908160008201805461070090611fa2565b80601f016020809104026020016040519081016040528092919081815260200182805461072c90611fa2565b80156107795780601f1061074e57610100808354040283529160200191610779565b820191906000526020600020905b81548152906001019060200180831161075c57829003601f168201915b505050505081526020016001820160009054906101000a900473ffffffffffffffffffffffffffffffffffffffff1673ffffffffffffffffffffffffffffffffffffffff1673ffffffffffffffffffffffffffffffffffffffff168152602001600282015481525050815260200190600101906106cd565b50505050905090565b6003818154811061080a57600080fd5b906000526020600020906002020160009150905080600001805461082d90611fa2565b80601f016020809104026020016040519081016040528092919081815260200182805461085990611fa2565b80156108a65780601f1061087b576101008083540402835291602001916108a6565b820191906000526020600020905b81548152906001019060200180831161088957829003601f168201915b5050505050908060010160009054906101000a900473ffffffffffffffffffffffffffffffffffffffff16905082565b6108de61139b565b6108e86000611419565b565b6108f261139b565b6000805b600280549050811015610beb576002818154811061091757610916612036565b5b9060005260206000209060030201600001604051602001610938919061219a565b604051602081830303815290604052805190602001208460405160200161095f91906121e2565b6040516020818303038152906040528051906020012003610bd8576001915060036002828154811061099457610993612036565b5b9060005260206000209060030201600201541015610a08576001600282815481106109c2576109c1612036565b5b9060005260206000209060030201600201546109de91906121f9565b600282815481106109f2576109f1612036565b5b9060005260206000209060030201600201819055505b600360028281548110610a1e57610a1d612036565b5b90600052602060002090600302016002015403610bd75760001515610a637f46927742d6cecfa1439757eb57666e5ea64271ce5c8d25cfa395d2d445eec9e285610d4e565b151514610aa5576040517f08c379a0000000000000000000000000000000000000000000000000000000008152600401610a9c9061229f565b60405180910390fd5b60006001600380549050610ab991906121f9565b9050610ae57f46927742d6cecfa1439757eb57666e5ea64271ce5c8d25cfa395d2d445eec9e2856114df565b600360405180604001604052808781526020018673ffffffffffffffffffffffffffffffffffffffff1681525090806001815401808255809150506001900390600052602060002090600202016000909190919091506000820151816000019081610b509190612456565b5060208201518160010160006101000a81548173ffffffffffffffffffffffffffffffffffffffff021916908373ffffffffffffffffffffffffffffffffffffffff16021790555050507f847ce7171076210ed3ef4cdc00c78a495857da31ba53b157f9abd297a722926e818686604051610bcd93929190612528565b60405180910390a1505b5b8080610be390612566565b9150506108f6565b506000151581151503610cfb57600260405180606001604052808581526020018473ffffffffffffffffffffffffffffffffffffffff168152602001600181525090806001815401808255809150506001900390600052602060002090600302016000909190919091506000820151816000019081610c6a9190612456565b5060208201518160010160006101000a81548173ffffffffffffffffffffffffffffffffffffffff021916908373ffffffffffffffffffffffffffffffffffffffff1602179055506040820151816002015550507f3123ef99054af86b58de458f04a9d9e84df250d2b92d06a002a2fa20089e173a83836001604051610cf2939291906125e9565b60405180910390a15b505050565b7f6eb0f432f614d330b668871c917335ed8bc1db90f99ded207afdf87a5a8262c881565b6000600160009054906101000a900473ffffffffffffffffffffffffffffffffffffffff16905090565b600080600084815260200190815260200160002060000160008373ffffffffffffffffffffffffffffffffffffffff1673ffffffffffffffffffffffffffffffffffffffff16815260200190815260200160002060009054906101000a900460ff16905092915050565b6000801b81565b600080610dec7f46927742d6cecfa1439757eb57666e5ea64271ce5c8d25cfa395d2d445eec9e284610d4e565b905080915050919050565b610e008261051d565b610e09816111be565b610e1383836112ba565b505050565b7f46927742d6cecfa1439757eb57666e5ea64271ce5c8d25cfa395d2d445eec9e281565b610e4461139b565b600073ffffffffffffffffffffffffffffffffffffffff168173ffffffffffffffffffffffffffffffffffffffff1603610eb3576040517f08c379a0000000000000000000000000000000000000000000000000000000008152600401610eaa90612699565b60405180910390fd5b610ebc81611419565b50565b610ec761139b565b6000600183610ed69190612002565b9050610f027f46927742d6cecfa1439757eb57666e5ea64271ce5c8d25cfa395d2d445eec9e283610d4e565b610f41576040517f08c379a0000000000000000000000000000000000000000000000000000000008152600401610f389061272b565b60405180910390fd5b6003805490508110610f88576040517f08c379a0000000000000000000000000000000000000000000000000000000008152600401610f7f90612797565b60405180910390fd5b610fb27f46927742d6cecfa1439757eb57666e5ea64271ce5c8d25cfa395d2d445eec9e2836112ba565b60008190505b6001600380549050610fca9190612002565b8110156110b3576003600182610fe091906121f9565b81548110610ff157610ff0612036565b5b90600052602060002090600202016003828154811061101357611012612036565b5b90600052602060002090600202016000820181600001908161103591906127cd565b506001820160009054906101000a900473ffffffffffffffffffffffffffffffffffffffff168160010160006101000a81548173ffffffffffffffffffffffffffffffffffffffff021916908373ffffffffffffffffffffffffffffffffffffffff16021790555090505080806110ab90612566565b915050610fb8565b5060038054806110c6576110c56128b5565b5b6001900381819060005260206000209060020201600080820160006110eb91906117c6565b6001820160006101000a81549073ffffffffffffffffffffffffffffffffffffffff0219169055505090557f971605244bfb206be14896e60636184f44d9c423429268b3bae70894e26ab4e383836040516111479291906128e4565b60405180910390a1505050565b60007f01ffc9a7000000000000000000000000000000000000000000000000000000007bffffffffffffffffffffffffffffffffffffffffffffffffffffffff1916827bffffffffffffffffffffffffffffffffffffffffffffffffffffffff1916149050919050565b6111cf816111ca6112b2565b6114ed565b50565b6111dc8282610d4e565b6112ae57600160008084815260200190815260200160002060000160008373ffffffffffffffffffffffffffffffffffffffff1673ffffffffffffffffffffffffffffffffffffffff16815260200190815260200160002060006101000a81548160ff0219169083151502179055506112536112b2565b73ffffffffffffffffffffffffffffffffffffffff168173ffffffffffffffffffffffffffffffffffffffff16837f2f8788117e7eff1d82e926ec794901d17c78024a50270940304540a733656f0d60405160405180910390a45b5050565b600033905090565b6112c48282610d4e565b1561139757600080600084815260200190815260200160002060000160008373ffffffffffffffffffffffffffffffffffffffff1673ffffffffffffffffffffffffffffffffffffffff16815260200190815260200160002060006101000a81548160ff02191690831515021790555061133c6112b2565b73ffffffffffffffffffffffffffffffffffffffff168173ffffffffffffffffffffffffffffffffffffffff16837ff6391f5c32d9c69d2a47ea670b442974b53935d1edc7fd64eb21e047a839171b60405160405180910390a45b5050565b6113a36112b2565b73ffffffffffffffffffffffffffffffffffffffff166113c1610d24565b73ffffffffffffffffffffffffffffffffffffffff1614611417576040517f08c379a000000000000000000000000000000000000000000000000000000000815260040161140e90612959565b60405180910390fd5b565b6000600160009054906101000a900473ffffffffffffffffffffffffffffffffffffffff16905081600160006101000a81548173ffffffffffffffffffffffffffffffffffffffff021916908373ffffffffffffffffffffffffffffffffffffffff1602179055508173ffffffffffffffffffffffffffffffffffffffff168173ffffffffffffffffffffffffffffffffffffffff167f8be0079c531659141344cd1fd0a4f28419497f9722a3daafe3b4186f6b6457e060405160405180910390a35050565b6114e982826111d2565b5050565b6114f78282610d4e565b6115865761151c8173ffffffffffffffffffffffffffffffffffffffff16601461158a565b61152a8360001c602061158a565b60405160200161153b929190612a11565b6040516020818303038152906040526040517f08c379a000000000000000000000000000000000000000000000000000000000815260040161157d9190611b6c565b60405180910390fd5b5050565b60606000600283600261159d9190612a4b565b6115a791906121f9565b67ffffffffffffffff8111156115c0576115bf611d64565b5b6040519080825280601f01601f1916602001820160405280156115f25781602001600182028036833780820191505090505b5090507f30000000000000000000000000000000000000000000000000000000000000008160008151811061162a57611629612036565b5b60200101907effffffffffffffffffffffffffffffffffffffffffffffffffffffffffffff1916908160001a9053507f78000000000000000000000000000000000000000000000000000000000000008160018151811061168e5761168d612036565b5b60200101907effffffffffffffffffffffffffffffffffffffffffffffffffffffffffffff1916908160001a905350600060018460026116ce9190612a4b565b6116d891906121f9565b90505b6001811115611778577f3031323334353637383961626364656600000000000000000000000000000000600f86166010811061171a57611719612036565b5b1a60f81b82828151811061173157611730612036565b5b60200101907effffffffffffffffffffffffffffffffffffffffffffffffffffffffffffff1916908160001a905350600485901c94508061177190612a8d565b90506116db565b50600084146117bc576040517f08c379a00000000000000000000000000000000000000000000000000000000081526004016117b390612b02565b60405180910390fd5b8091505092915050565b5080546117d290611fa2565b6000825580601f106117e45750611803565b601f0160209004906000526020600020908101906118029190611806565b5b50565b5b8082111561181f576000816000905550600101611807565b5090565b6000604051905090565b600080fd5b600080fd5b60007fffffffff0000000000000000000000000000000000000000000000000000000082169050919050565b61186c81611837565b811461187757600080fd5b50565b60008135905061188981611863565b92915050565b6000602082840312156118a5576118a461182d565b5b60006118b38482850161187a565b91505092915050565b60008115159050919050565b6118d1816118bc565b82525050565b60006020820190506118ec60008301846118c8565b92915050565b6000819050919050565b611905816118f2565b811461191057600080fd5b50565b600081359050611922816118fc565b92915050565b60006020828403121561193e5761193d61182d565b5b600061194c84828501611913565b91505092915050565b600081519050919050565b600082825260208201905092915050565b60005b8381101561198f578082015181840152602081019050611974565b60008484015250505050565b6000601f19601f8301169050919050565b60006119b782611955565b6119c18185611960565b93506119d1818560208601611971565b6119da8161199b565b840191505092915050565b600073ffffffffffffffffffffffffffffffffffffffff82169050919050565b6000611a10826119e5565b9050919050565b611a2081611a05565b82525050565b611a2f816118f2565b82525050565b60006060820190508181036000830152611a4f81866119ac565b9050611a5e6020830185611a17565b611a6b6040830184611a26565b949350505050565b6000819050919050565b611a8681611a73565b8114611a9157600080fd5b50565b600081359050611aa381611a7d565b92915050565b600060208284031215611abf57611abe61182d565b5b6000611acd84828501611a94565b91505092915050565b611adf81611a73565b82525050565b6000602082019050611afa6000830184611ad6565b92915050565b611b0981611a05565b8114611b1457600080fd5b50565b600081359050611b2681611b00565b92915050565b60008060408385031215611b4357611b4261182d565b5b6000611b5185828601611a94565b9250506020611b6285828601611b17565b9150509250929050565b60006020820190508181036000830152611b8681846119ac565b905092915050565b600081519050919050565b600082825260208201905092915050565b6000819050602082019050919050565b600082825260208201905092915050565b6000611bd682611955565b611be08185611bba565b9350611bf0818560208601611971565b611bf98161199b565b840191505092915050565b611c0d81611a05565b82525050565b611c1c816118f2565b82525050565b60006060830160008301518482036000860152611c3f8282611bcb565b9150506020830151611c546020860182611c04565b506040830151611c676040860182611c13565b508091505092915050565b6000611c7e8383611c22565b905092915050565b6000602082019050919050565b6000611c9e82611b8e565b611ca88185611b99565b935083602082028501611cba85611baa565b8060005b85811015611cf65784840389528151611cd78582611c72565b9450611ce283611c86565b925060208a01995050600181019050611cbe565b50829750879550505050505092915050565b60006020820190508181036000830152611d228184611c93565b905092915050565b60006040820190508181036000830152611d4481856119ac565b9050611d536020830184611a17565b9392505050565b600080fd5b600080fd5b7f4e487b7100000000000000000000000000000000000000000000000000000000600052604160045260246000fd5b611d9c8261199b565b810181811067ffffffffffffffff82111715611dbb57611dba611d64565b5b80604052505050565b6000611dce611823565b9050611dda8282611d93565b919050565b600067ffffffffffffffff821115611dfa57611df9611d64565b5b611e038261199b565b9050602081019050919050565b82818337600083830152505050565b6000611e32611e2d84611ddf565b611dc4565b905082815260208101848484011115611e4e57611e4d611d5f565b5b611e59848285611e10565b509392505050565b600082601f830112611e7657611e75611d5a565b5b8135611e86848260208601611e1f565b91505092915050565b60008060408385031215611ea657611ea561182d565b5b600083013567ffffffffffffffff811115611ec457611ec3611832565b5b611ed085828601611e61565b9250506020611ee185828601611b17565b9150509250929050565b6000602082019050611f006000830184611a17565b92915050565b600060208284031215611f1c57611f1b61182d565b5b6000611f2a84828501611b17565b91505092915050565b60008060408385031215611f4a57611f4961182d565b5b6000611f5885828601611913565b9250506020611f6985828601611b17565b9150509250929050565b7f4e487b7100000000000000000000000000000000000000000000000000000000600052602260045260246000fd5b60006002820490506001821680611fba57607f821691505b602082108103611fcd57611fcc611f73565b5b50919050565b7f4e487b7100000000000000000000000000000000000000000000000000000000600052601160045260246000fd5b600061200d826118f2565b9150612018836118f2565b92508282039050818111156120305761202f611fd3565b5b92915050565b7f4e487b7100000000000000000000000000000000000000000000000000000000600052603260045260246000fd5b7f416363657373436f6e74726f6c3a2063616e206f6e6c792072656e6f756e636560008201527f20726f6c657320666f722073656c660000000000000000000000000000000000602082015250565b60006120c1602f83611960565b91506120cc82612065565b604082019050919050565b600060208201905081810360008301526120f0816120b4565b9050919050565b600081905092915050565b60008190508160005260206000209050919050565b6000815461212481611fa2565b61212e81866120f7565b94506001821660008114612149576001811461215e57612191565b60ff1983168652811515820286019350612191565b61216785612102565b60005b838110156121895781548189015260018201915060208101905061216a565b838801955050505b50505092915050565b60006121a68284612117565b915081905092915050565b60006121bc82611955565b6121c681856120f7565b93506121d6818560208601611971565b80840191505092915050565b60006121ee82846121b1565b915081905092915050565b6000612204826118f2565b915061220f836118f2565b925082820190508082111561222757612226611fd3565b5b92915050565b7f4552524f523a204163636f756e7420697320616c726561647920612053656e6960008201527f6f7220537570706c696572210000000000000000000000000000000000000000602082015250565b6000612289602c83611960565b91506122948261222d565b604082019050919050565b600060208201905081810360008301526122b88161227c565b9050919050565b60006020601f8301049050919050565b600082821b905092915050565b60006008830261230c7fffffffffffffffffffffffffffffffffffffffffffffffffffffffffffffffff826122cf565b61231686836122cf565b95508019841693508086168417925050509392505050565b6000819050919050565b600061235361234e612349846118f2565b61232e565b6118f2565b9050919050565b6000819050919050565b61236d83612338565b6123816123798261235a565b8484546122dc565b825550505050565b600090565b612396612389565b6123a1818484612364565b505050565b5b818110156123c5576123ba60008261238e565b6001810190506123a7565b5050565b601f82111561240a576123db81612102565b6123e4846122bf565b810160208510156123f3578190505b6124076123ff856122bf565b8301826123a6565b50505b505050565b600082821c905092915050565b600061242d6000198460080261240f565b1980831691505092915050565b6000612446838361241c565b9150826002028217905092915050565b61245f82611955565b67ffffffffffffffff81111561247857612477611d64565b5b6124828254611fa2565b61248d8282856123c9565b600060209050601f8311600181146124c057600084156124ae578287015190505b6124b8858261243a565b865550612520565b601f1984166124ce86612102565b60005b828110156124f6578489015182556001820191506020850194506020810190506124d1565b86831015612513578489015161250f601f89168261241c565b8355505b6001600288020188555050505b505050505050565b600060608201905061253d6000830186611a26565b818103602083015261254f81856119ac565b905061255e6040830184611a17565b949350505050565b6000612571826118f2565b91507fffffffffffffffffffffffffffffffffffffffffffffffffffffffffffffffff82036125a3576125a2611fd3565b5b600182019050919050565b6000819050919050565b60006125d36125ce6125c9846125ae565b61232e565b6118f2565b9050919050565b6125e3816125b8565b82525050565b6000606082019050818103600083015261260381866119ac565b90506126126020830185611a17565b61261f60408301846125da565b949350505050565b7f4f776e61626c653a206e6577206f776e657220697320746865207a65726f206160008201527f6464726573730000000000000000000000000000000000000000000000000000602082015250565b6000612683602683611960565b915061268e82612627565b604082019050919050565b600060208201905081810360008301526126b281612676565b9050919050565b7f4552524f523a204163636f756e742070726f7669646564206973206e6f74206160008201527f2053656e696f7220537570706c69657221000000000000000000000000000000602082015250565b6000612715603183611960565b9150612720826126b9565b604082019050919050565b6000602082019050818103600083015261274481612708565b9050919050565b7f4552524f523a20496e646578206f7574206f6620626f756e6421000000000000600082015250565b6000612781601a83611960565b915061278c8261274b565b602082019050919050565b600060208201905081810360008301526127b081612774565b9050919050565b6000815490506127c681611fa2565b9050919050565b8181036127db5750506128b3565b6127e4826127b7565b67ffffffffffffffff8111156127fd576127fc611d64565b5b6128078254611fa2565b6128128282856123c9565b6000601f831160018114612841576000841561282f578287015490505b612839858261243a565b8655506128ac565b601f19841661284f87612102565b965061285a86612102565b60005b828110156128825784890154825560018201915060018501945060208101905061285d565b8683101561289f578489015461289b601f89168261241c565b8355505b6001600288020188555050505b5050505050505b565b7f4e487b7100000000000000000000000000000000000000000000000000000000600052603160045260246000fd5b60006040820190506128f96000830185611a26565b6129066020830184611a17565b9392505050565b7f4f776e61626c653a2063616c6c6572206973206e6f7420746865206f776e6572600082015250565b6000612943602083611960565b915061294e8261290d565b602082019050919050565b6000602082019050818103600083015261297281612936565b9050919050565b7f416363657373436f6e74726f6c3a206163636f756e7420000000000000000000600082015250565b60006129af6017836120f7565b91506129ba82612979565b601782019050919050565b7f206973206d697373696e6720726f6c6520000000000000000000000000000000600082015250565b60006129fb6011836120f7565b9150612a06826129c5565b601182019050919050565b6000612a1c826129a2565b9150612a2882856121b1565b9150612a33826129ee565b9150612a3f82846121b1565b91508190509392505050565b6000612a56826118f2565b9150612a61836118f2565b9250828202612a6f816118f2565b91508282048414831517612a8657612a85611fd3565b5b5092915050565b6000612a98826118f2565b915060008203612aab57612aaa611fd3565b5b600182039050919050565b7f537472696e67733a20686578206c656e67746820696e73756666696369656e74600082015250565b6000612aec602083611960565b9150612af782612ab6565b602082019050919050565b60006020820190508181036000830152612b1b81612adf565b905091905056fea264697066735822122040a7e1c3328f984973d5017091ed453c2e081f35849f30dcf7c749c318a7e89864736f6c63430008110033",
  "linkReferences": {},
  "deployedLinkReferences": {}
}