{
  "_format": "hh-sol-artifact-1",
  "contractName": "SupplierProcess",
  "sourceName": "contracts/SupplierProcess.sol",
  "abi": [
    {
      "anonymous": false,
      "inputs": [
        {
          "indexed": false,
          "internalType": "string",
          "name": "name",
          "type": "string"
        },
        {
          "indexed": false,
          "internalType": "address",
          "name": "serviceSupplierAddress",
          "type": "address"
        },
        {
          "indexed": false,
          "internalType": "uint256",
          "name": "reputation",
          "type": "uint256"
        }
      ],
      "name": "NewServiceSupplier",
      "type": "event"
    },
    {
      "anonymous": false,
      "inputs": [
        {
          "indexed": true,
          "internalType": "address",
          "name": "previousOwner",
          "type": "address"
        },
        {
          "indexed": true,
          "internalType": "address",
          "name": "newOwner",
          "type": "address"
        }
      ],
      "name": "OwnershipTransferred",
      "type": "event"
    },
    {
      "inputs": [
        {
          "internalType": "string",
          "name": "_name",
          "type": "string"
        },
        {
          "internalType": "address",
          "name": "serviceSupplierAddress",
          "type": "address"
        }
      ],
      "name": "newServiceSupplier",
      "outputs": [],
      "stateMutability": "nonpayable",
      "type": "function"
    },
    {
      "inputs": [],
      "name": "owner",
      "outputs": [
        {
          "internalType": "address",
          "name": "",
          "type": "address"
        }
      ],
      "stateMutability": "view",
      "type": "function"
    },
    {
      "inputs": [],
      "name": "renounceOwnership",
      "outputs": [],
      "stateMutability": "nonpayable",
      "type": "function"
    },
    {
      "inputs": [],
      "name": "retrieveSuppliers",
      "outputs": [
        {
          "components": [
            {
              "internalType": "string",
              "name": "name",
              "type": "string"
            },
            {
              "internalType": "address",
              "name": "serviceSupplierAddress",
              "type": "address"
            },
            {
              "internalType": "uint256",
              "name": "reputation",
              "type": "uint256"
            }
          ],
          "internalType": "struct SupplierProcess.Service_Supplier[]",
          "name": "",
          "type": "tuple[]"
        }
      ],
      "stateMutability": "view",
      "type": "function"
    },
    {
      "inputs": [
        {
          "internalType": "uint256",
          "name": "",
          "type": "uint256"
        }
      ],
      "name": "serviceSuppliers",
      "outputs": [
        {
          "internalType": "string",
          "name": "name",
          "type": "string"
        },
        {
          "internalType": "address",
          "name": "serviceSupplierAddress",
          "type": "address"
        },
        {
          "internalType": "uint256",
          "name": "reputation",
          "type": "uint256"
        }
      ],
      "stateMutability": "view",
      "type": "function"
    },
    {
      "inputs": [
        {
          "internalType": "address",
          "name": "newOwner",
          "type": "address"
        }
      ],
      "name": "transferOwnership",
      "outputs": [],
      "stateMutability": "nonpayable",
      "type": "function"
    }
  ],
  "bytecode": "0x608060405273dc64a140aa3e981100a9beca4e685f962f0cf6c9600260006101000a81548173ffffffffffffffffffffffffffffffffffffffff021916908373ffffffffffffffffffffffffffffffffffffffff160217905550600260009054906101000a900473ffffffffffffffffffffffffffffffffffffffff16600360006101000a81548173ffffffffffffffffffffffffffffffffffffffff021916908373ffffffffffffffffffffffffffffffffffffffff1602179055503480156100c857600080fd5b506100e56100da6100ea60201b60201c565b6100f260201b60201c565b6101b6565b600033905090565b60008060009054906101000a900473ffffffffffffffffffffffffffffffffffffffff169050816000806101000a81548173ffffffffffffffffffffffffffffffffffffffff021916908373ffffffffffffffffffffffffffffffffffffffff1602179055508173ffffffffffffffffffffffffffffffffffffffff168173ffffffffffffffffffffffffffffffffffffffff167f8be0079c531659141344cd1fd0a4f28419497f9722a3daafe3b4186f6b6457e060405160405180910390a35050565b61140f806101c56000396000f3fe608060405234801561001057600080fd5b50600436106100625760003560e01c8063110342cc14610067578063454f827314610099578063715018a6146100b75780638da5cb5b146100c1578063f2fde38b146100df578063f5418062146100fb575b600080fd5b610081600480360381019061007c91906108a1565b610117565b604051610090939291906109ae565b60405180910390f35b6100a16101f9565b6040516100ae9190610b66565b60405180910390f35b6100bf61034a565b005b6100c961035e565b6040516100d69190610b88565b60405180910390f35b6100f960048036038101906100f49190610bcf565b610387565b005b61011560048036038101906101109190610d31565b61040a565b005b6001818154811061012757600080fd5b906000526020600020906003020160009150905080600001805461014a90610dbc565b80601f016020809104026020016040519081016040528092919081815260200182805461017690610dbc565b80156101c35780601f10610198576101008083540402835291602001916101c3565b820191906000526020600020905b8154815290600101906020018083116101a657829003601f168201915b5050505050908060010160009054906101000a900473ffffffffffffffffffffffffffffffffffffffff16908060020154905083565b60606001805480602002602001604051908101604052809291908181526020016000905b82821015610341578382906000526020600020906003020160405180606001604052908160008201805461025090610dbc565b80601f016020809104026020016040519081016040528092919081815260200182805461027c90610dbc565b80156102c95780601f1061029e576101008083540402835291602001916102c9565b820191906000526020600020905b8154815290600101906020018083116102ac57829003601f168201915b505050505081526020016001820160009054906101000a900473ffffffffffffffffffffffffffffffffffffffff1673ffffffffffffffffffffffffffffffffffffffff1673ffffffffffffffffffffffffffffffffffffffff1681526020016002820154815250508152602001906001019061021d565b50505050905090565b61035261070d565b61035c600061078b565b565b60008060009054906101000a900473ffffffffffffffffffffffffffffffffffffffff16905090565b61038f61070d565b600073ffffffffffffffffffffffffffffffffffffffff168173ffffffffffffffffffffffffffffffffffffffff16036103fe576040517f08c379a00000000000000000000000000000000000000000000000000000000081526004016103f590610e5f565b60405180910390fd5b6104078161078b565b50565b61041261070d565b6000805b6001805490508110156105f8576001818154811061043757610436610e7f565b5b90600052602060002090600302016000016040516020016104589190610f51565b604051602081830303815290604052805190602001208460405160200161047f9190610f99565b60405160208183030381529060405280519060200120036105e557600191506003600182815481106104b4576104b3610e7f565b5b90600052602060002090600302016002015410156105275760018082815481106104e1576104e0610e7f565b5b9060005260206000209060030201600201546104fd9190610fdf565b6001828154811061051157610510610e7f565b5b9060005260206000209060030201600201819055505b60036001828154811061053d5761053c610e7f565b5b906000526020600020906003020160020154036105e457600360009054906101000a900473ffffffffffffffffffffffffffffffffffffffff1673ffffffffffffffffffffffffffffffffffffffff1663318948a985856040518363ffffffff1660e01b81526004016105b1929190611013565b600060405180830381600087803b1580156105cb57600080fd5b505af11580156105df573d6000803e3d6000fd5b505050505b5b80806105f090611043565b915050610416565b50600015158115150361070857600160405180606001604052808581526020018473ffffffffffffffffffffffffffffffffffffffff1681526020016002815250908060018154018082558091505060019003906000526020600020906003020160009091909190915060008201518160000190816106779190611222565b5060208201518160010160006101000a81548173ffffffffffffffffffffffffffffffffffffffff021916908373ffffffffffffffffffffffffffffffffffffffff1602179055506040820151816002015550507f3123ef99054af86b58de458f04a9d9e84df250d2b92d06a002a2fa20089e173a838360026040516106ff9392919061132f565b60405180910390a15b505050565b61071561084f565b73ffffffffffffffffffffffffffffffffffffffff1661073361035e565b73ffffffffffffffffffffffffffffffffffffffff1614610789576040517f08c379a0000000000000000000000000000000000000000000000000000000008152600401610780906113b9565b60405180910390fd5b565b60008060009054906101000a900473ffffffffffffffffffffffffffffffffffffffff169050816000806101000a81548173ffffffffffffffffffffffffffffffffffffffff021916908373ffffffffffffffffffffffffffffffffffffffff1602179055508173ffffffffffffffffffffffffffffffffffffffff168173ffffffffffffffffffffffffffffffffffffffff167f8be0079c531659141344cd1fd0a4f28419497f9722a3daafe3b4186f6b6457e060405160405180910390a35050565b600033905090565b6000604051905090565b600080fd5b600080fd5b6000819050919050565b61087e8161086b565b811461088957600080fd5b50565b60008135905061089b81610875565b92915050565b6000602082840312156108b7576108b6610861565b5b60006108c58482850161088c565b91505092915050565b600081519050919050565b600082825260208201905092915050565b60005b838110156109085780820151818401526020810190506108ed565b60008484015250505050565b6000601f19601f8301169050919050565b6000610930826108ce565b61093a81856108d9565b935061094a8185602086016108ea565b61095381610914565b840191505092915050565b600073ffffffffffffffffffffffffffffffffffffffff82169050919050565b60006109898261095e565b9050919050565b6109998161097e565b82525050565b6109a88161086b565b82525050565b600060608201905081810360008301526109c88186610925565b90506109d76020830185610990565b6109e4604083018461099f565b949350505050565b600081519050919050565b600082825260208201905092915050565b6000819050602082019050919050565b600082825260208201905092915050565b6000610a34826108ce565b610a3e8185610a18565b9350610a4e8185602086016108ea565b610a5781610914565b840191505092915050565b610a6b8161097e565b82525050565b610a7a8161086b565b82525050565b60006060830160008301518482036000860152610a9d8282610a29565b9150506020830151610ab26020860182610a62565b506040830151610ac56040860182610a71565b508091505092915050565b6000610adc8383610a80565b905092915050565b6000602082019050919050565b6000610afc826109ec565b610b0681856109f7565b935083602082028501610b1885610a08565b8060005b85811015610b545784840389528151610b358582610ad0565b9450610b4083610ae4565b925060208a01995050600181019050610b1c565b50829750879550505050505092915050565b60006020820190508181036000830152610b808184610af1565b905092915050565b6000602082019050610b9d6000830184610990565b92915050565b610bac8161097e565b8114610bb757600080fd5b50565b600081359050610bc981610ba3565b92915050565b600060208284031215610be557610be4610861565b5b6000610bf384828501610bba565b91505092915050565b600080fd5b600080fd5b7f4e487b7100000000000000000000000000000000000000000000000000000000600052604160045260246000fd5b610c3e82610914565b810181811067ffffffffffffffff82111715610c5d57610c5c610c06565b5b80604052505050565b6000610c70610857565b9050610c7c8282610c35565b919050565b600067ffffffffffffffff821115610c9c57610c9b610c06565b5b610ca582610914565b9050602081019050919050565b82818337600083830152505050565b6000610cd4610ccf84610c81565b610c66565b905082815260208101848484011115610cf057610cef610c01565b5b610cfb848285610cb2565b509392505050565b600082601f830112610d1857610d17610bfc565b5b8135610d28848260208601610cc1565b91505092915050565b60008060408385031215610d4857610d47610861565b5b600083013567ffffffffffffffff811115610d6657610d65610866565b5b610d7285828601610d03565b9250506020610d8385828601610bba565b9150509250929050565b7f4e487b7100000000000000000000000000000000000000000000000000000000600052602260045260246000fd5b60006002820490506001821680610dd457607f821691505b602082108103610de757610de6610d8d565b5b50919050565b7f4f776e61626c653a206e6577206f776e657220697320746865207a65726f206160008201527f6464726573730000000000000000000000000000000000000000000000000000602082015250565b6000610e496026836108d9565b9150610e5482610ded565b604082019050919050565b60006020820190508181036000830152610e7881610e3c565b9050919050565b7f4e487b7100000000000000000000000000000000000000000000000000000000600052603260045260246000fd5b600081905092915050565b60008190508160005260206000209050919050565b60008154610edb81610dbc565b610ee58186610eae565b94506001821660008114610f005760018114610f1557610f48565b60ff1983168652811515820286019350610f48565b610f1e85610eb9565b60005b83811015610f4057815481890152600182019150602081019050610f21565b838801955050505b50505092915050565b6000610f5d8284610ece565b915081905092915050565b6000610f73826108ce565b610f7d8185610eae565b9350610f8d8185602086016108ea565b80840191505092915050565b6000610fa58284610f68565b915081905092915050565b7f4e487b7100000000000000000000000000000000000000000000000000000000600052601160045260246000fd5b6000610fea8261086b565b9150610ff58361086b565b925082820190508082111561100d5761100c610fb0565b5b92915050565b6000604082019050818103600083015261102d8185610925565b905061103c6020830184610990565b9392505050565b600061104e8261086b565b91507fffffffffffffffffffffffffffffffffffffffffffffffffffffffffffffffff82036110805761107f610fb0565b5b600182019050919050565b60006020601f8301049050919050565b600082821b905092915050565b6000600883026110d87fffffffffffffffffffffffffffffffffffffffffffffffffffffffffffffffff8261109b565b6110e2868361109b565b95508019841693508086168417925050509392505050565b6000819050919050565b600061111f61111a6111158461086b565b6110fa565b61086b565b9050919050565b6000819050919050565b61113983611104565b61114d61114582611126565b8484546110a8565b825550505050565b600090565b611162611155565b61116d818484611130565b505050565b5b818110156111915761118660008261115a565b600181019050611173565b5050565b601f8211156111d6576111a781610eb9565b6111b08461108b565b810160208510156111bf578190505b6111d36111cb8561108b565b830182611172565b50505b505050565b600082821c905092915050565b60006111f9600019846008026111db565b1980831691505092915050565b600061121283836111e8565b9150826002028217905092915050565b61122b826108ce565b67ffffffffffffffff81111561124457611243610c06565b5b61124e8254610dbc565b611259828285611195565b600060209050601f83116001811461128c576000841561127a578287015190505b6112848582611206565b8655506112ec565b601f19841661129a86610eb9565b60005b828110156112c25784890151825560018201915060208501945060208101905061129d565b868310156112df57848901516112db601f8916826111e8565b8355505b6001600288020188555050505b505050505050565b6000819050919050565b600061131961131461130f846112f4565b6110fa565b61086b565b9050919050565b611329816112fe565b82525050565b600060608201905081810360008301526113498186610925565b90506113586020830185610990565b6113656040830184611320565b949350505050565b7f4f776e61626c653a2063616c6c6572206973206e6f7420746865206f776e6572600082015250565b60006113a36020836108d9565b91506113ae8261136d565b602082019050919050565b600060208201905081810360008301526113d281611396565b905091905056fea26469706673582212202d18e6e67f5ff0222e60a7c249739d479354ce36be816a4bedb05a0e603ff2dd64736f6c63430008110033",
  "linkReferences": {},
  "deployedLinkReferences": {}
}