{
  "_format": "hh-sol-artifact-1",
  "contractName": "SupplierProcess",
  "sourceName": "contracts/SupplierProcess.sol",
  "abi": [
    {
      "anonymous": false,
      "inputs": [
        {
          "indexed": false,
          "internalType": "uint256",
          "name": "seniorSupplierId",
          "type": "uint256"
        },
        {
          "indexed": false,
          "internalType": "string",
          "name": "name",
          "type": "string"
        },
        {
          "indexed": false,
          "internalType": "address",
          "name": "seniorSupplierAddress",
          "type": "address"
        }
      ],
      "name": "NewSeniorSupplier",
      "type": "event"
    },
    {
      "anonymous": false,
      "inputs": [
        {
          "indexed": false,
          "internalType": "string",
          "name": "name",
          "type": "string"
        },
        {
          "indexed": false,
          "internalType": "address",
          "name": "serviceSupplierAddress",
          "type": "address"
        },
        {
          "indexed": false,
          "internalType": "uint256",
          "name": "reputation",
          "type": "uint256"
        }
      ],
      "name": "NewServiceSupplier",
      "type": "event"
    },
    {
      "anonymous": false,
      "inputs": [
        {
          "indexed": true,
          "internalType": "address",
          "name": "previousOwner",
          "type": "address"
        },
        {
          "indexed": true,
          "internalType": "address",
          "name": "newOwner",
          "type": "address"
        }
      ],
      "name": "OwnershipTransferred",
      "type": "event"
    },
    {
      "anonymous": false,
      "inputs": [
        {
          "indexed": false,
          "internalType": "uint256",
          "name": "seniorSupplierId",
          "type": "uint256"
        },
        {
          "indexed": false,
          "internalType": "address",
          "name": "seniorSupplierAddress",
          "type": "address"
        }
      ],
      "name": "RevokedSeniorSupplier",
      "type": "event"
    },
    {
      "anonymous": false,
      "inputs": [
        {
          "indexed": true,
          "internalType": "bytes32",
          "name": "role",
          "type": "bytes32"
        },
        {
          "indexed": true,
          "internalType": "bytes32",
          "name": "previousAdminRole",
          "type": "bytes32"
        },
        {
          "indexed": true,
          "internalType": "bytes32",
          "name": "newAdminRole",
          "type": "bytes32"
        }
      ],
      "name": "RoleAdminChanged",
      "type": "event"
    },
    {
      "anonymous": false,
      "inputs": [
        {
          "indexed": true,
          "internalType": "bytes32",
          "name": "role",
          "type": "bytes32"
        },
        {
          "indexed": true,
          "internalType": "address",
          "name": "account",
          "type": "address"
        },
        {
          "indexed": true,
          "internalType": "address",
          "name": "sender",
          "type": "address"
        }
      ],
      "name": "RoleGranted",
      "type": "event"
    },
    {
      "anonymous": false,
      "inputs": [
        {
          "indexed": true,
          "internalType": "bytes32",
          "name": "role",
          "type": "bytes32"
        },
        {
          "indexed": true,
          "internalType": "address",
          "name": "account",
          "type": "address"
        },
        {
          "indexed": true,
          "internalType": "address",
          "name": "sender",
          "type": "address"
        }
      ],
      "name": "RoleRevoked",
      "type": "event"
    },
    {
      "inputs": [],
      "name": "DEFAULT_ADMIN_ROLE",
      "outputs": [
        {
          "internalType": "bytes32",
          "name": "",
          "type": "bytes32"
        }
      ],
      "stateMutability": "view",
      "type": "function"
    },
    {
      "inputs": [],
      "name": "SENIOR_SUPPLIER_MEMBER",
      "outputs": [
        {
          "internalType": "bytes32",
          "name": "",
          "type": "bytes32"
        }
      ],
      "stateMutability": "view",
      "type": "function"
    },
    {
      "inputs": [],
      "name": "SUPPLIER_MEMBER",
      "outputs": [
        {
          "internalType": "bytes32",
          "name": "",
          "type": "bytes32"
        }
      ],
      "stateMutability": "view",
      "type": "function"
    },
    {
      "inputs": [
        {
          "internalType": "string",
          "name": "_name",
          "type": "string"
        },
        {
          "internalType": "address",
          "name": "_serviceSupplierAddress",
          "type": "address"
        }
      ],
      "name": "_newServiceSupplier",
      "outputs": [],
      "stateMutability": "nonpayable",
      "type": "function"
    },
    {
      "inputs": [
        {
          "internalType": "uint256",
          "name": "_id",
          "type": "uint256"
        },
        {
          "internalType": "address",
          "name": "_seniorSupplierAddress",
          "type": "address"
        }
      ],
      "name": "_revokeSeniorSupplier",
      "outputs": [],
      "stateMutability": "nonpayable",
      "type": "function"
    },
    {
      "inputs": [
        {
          "internalType": "bytes32",
          "name": "role",
          "type": "bytes32"
        }
      ],
      "name": "getRoleAdmin",
      "outputs": [
        {
          "internalType": "bytes32",
          "name": "",
          "type": "bytes32"
        }
      ],
      "stateMutability": "view",
      "type": "function"
    },
    {
      "inputs": [
        {
          "internalType": "bytes32",
          "name": "role",
          "type": "bytes32"
        },
        {
          "internalType": "address",
          "name": "account",
          "type": "address"
        }
      ],
      "name": "grantRole",
      "outputs": [],
      "stateMutability": "nonpayable",
      "type": "function"
    },
    {
      "inputs": [
        {
          "internalType": "bytes32",
          "name": "role",
          "type": "bytes32"
        },
        {
          "internalType": "address",
          "name": "account",
          "type": "address"
        }
      ],
      "name": "hasRole",
      "outputs": [
        {
          "internalType": "bool",
          "name": "",
          "type": "bool"
        }
      ],
      "stateMutability": "view",
      "type": "function"
    },
    {
      "inputs": [],
      "name": "owner",
      "outputs": [
        {
          "internalType": "address",
          "name": "",
          "type": "address"
        }
      ],
      "stateMutability": "view",
      "type": "function"
    },
    {
      "inputs": [],
      "name": "renounceOwnership",
      "outputs": [],
      "stateMutability": "nonpayable",
      "type": "function"
    },
    {
      "inputs": [
        {
          "internalType": "bytes32",
          "name": "role",
          "type": "bytes32"
        },
        {
          "internalType": "address",
          "name": "account",
          "type": "address"
        }
      ],
      "name": "renounceRole",
      "outputs": [],
      "stateMutability": "nonpayable",
      "type": "function"
    },
    {
      "inputs": [
        {
          "internalType": "uint256",
          "name": "id",
          "type": "uint256"
        }
      ],
      "name": "retrieveSeniorSupplier",
      "outputs": [
        {
          "internalType": "string",
          "name": "",
          "type": "string"
        }
      ],
      "stateMutability": "view",
      "type": "function"
    },
    {
      "inputs": [],
      "name": "retrieveSuppliers",
      "outputs": [
        {
          "components": [
            {
              "internalType": "string",
              "name": "name",
              "type": "string"
            },
            {
              "internalType": "address",
              "name": "serviceSupplierAddress",
              "type": "address"
            },
            {
              "internalType": "uint256",
              "name": "reputation",
              "type": "uint256"
            }
          ],
          "internalType": "struct SupplierProcess.Service_Supplier[]",
          "name": "",
          "type": "tuple[]"
        }
      ],
      "stateMutability": "view",
      "type": "function"
    },
    {
      "inputs": [
        {
          "internalType": "bytes32",
          "name": "role",
          "type": "bytes32"
        },
        {
          "internalType": "address",
          "name": "account",
          "type": "address"
        }
      ],
      "name": "revokeRole",
      "outputs": [],
      "stateMutability": "nonpayable",
      "type": "function"
    },
    {
      "inputs": [
        {
          "internalType": "uint256",
          "name": "",
          "type": "uint256"
        }
      ],
      "name": "seniorSuppliers",
      "outputs": [
        {
          "internalType": "string",
          "name": "name",
          "type": "string"
        },
        {
          "internalType": "address",
          "name": "seniorSupplierAddress",
          "type": "address"
        }
      ],
      "stateMutability": "view",
      "type": "function"
    },
    {
      "inputs": [
        {
          "internalType": "uint256",
          "name": "",
          "type": "uint256"
        }
      ],
      "name": "serviceSuppliers",
      "outputs": [
        {
          "internalType": "string",
          "name": "name",
          "type": "string"
        },
        {
          "internalType": "address",
          "name": "serviceSupplierAddress",
          "type": "address"
        },
        {
          "internalType": "uint256",
          "name": "reputation",
          "type": "uint256"
        }
      ],
      "stateMutability": "view",
      "type": "function"
    },
    {
      "inputs": [
        {
          "internalType": "bytes4",
          "name": "interfaceId",
          "type": "bytes4"
        }
      ],
      "name": "supportsInterface",
      "outputs": [
        {
          "internalType": "bool",
          "name": "",
          "type": "bool"
        }
      ],
      "stateMutability": "view",
      "type": "function"
    },
    {
      "inputs": [
        {
          "internalType": "address",
          "name": "newOwner",
          "type": "address"
        }
      ],
      "name": "transferOwnership",
      "outputs": [],
      "stateMutability": "nonpayable",
      "type": "function"
    },
    {
      "inputs": [
        {
          "internalType": "address",
          "name": "senior_supplier_address",
          "type": "address"
        }
      ],
      "name": "verifySeniorSupplier",
      "outputs": [
        {
          "internalType": "bool",
          "name": "",
          "type": "bool"
        }
      ],
      "stateMutability": "view",
      "type": "function"
    }
  ],
  "bytecode": "0x608060405234801561001057600080fd5b5061001a3361001f565b610071565b600180546001600160a01b038381166001600160a01b0319831681179093556040519116919082907f8be0079c531659141344cd1fd0a4f28419497f9722a3daafe3b4186f6b6457e090600090a35050565b6118a8806100806000396000f3fe608060405234801561001057600080fd5b50600436106101215760003560e01c80637b4c23a8116100ad578063b1b0c05311610071578063b1b0c05314610297578063d547741f146102aa578063dadfa477146102bd578063f2fde38b146102d2578063f334283e146102e557600080fd5b80637b4c23a8146102275780638ce691f31461023a5780638da5cb5b1461026157806391d148541461027c578063a217fddf1461028f57600080fd5b80633338e327116100f45780633338e327146101b657806336568abe146101d6578063454f8273146101e95780634b0d50b0146101fe578063715018a61461021f57600080fd5b806301ffc9a714610126578063110342cc1461014e578063248a9ca3146101705780632f2ff15d146101a1575b600080fd5b610139610134366004611331565b6102f8565b60405190151581526020015b60405180910390f35b61016161015c36600461135b565b61032f565b604051610145939291906113d0565b61019361017e36600461135b565b60009081526020819052604090206001015490565b604051908152602001610145565b6101b46101af36600461141a565b6103fb565b005b6101c96101c436600461135b565b610425565b6040516101459190611446565b6101b46101e436600461141a565b6104eb565b6101f161056e565b6040516101459190611459565b61021161020c36600461135b565b610682565b6040516101459291906114e3565b6101b4610747565b6101b4610235366004611523565b61075b565b6101937f6eb0f432f614d330b668871c917335ed8bc1db90f99ded207afdf87a5a8262c881565b6001546040516001600160a01b039091168152602001610145565b61013961028a36600461141a565b610b18565b610193600081565b6101396102a53660046115dc565b610b41565b6101b46102b836600461141a565b610b63565b61019360008051602061185383398151915281565b6101b46102e03660046115dc565b610b88565b6101b46102f336600461141a565b610c01565b60006001600160e01b03198216637965db0b60e01b148061032957506301ffc9a760e01b6001600160e01b03198316145b92915050565b6002818154811061033f57600080fd5b9060005260206000209060030201600091509050806000018054610362906115f7565b80601f016020809104026020016040519081016040528092919081815260200182805461038e906115f7565b80156103db5780601f106103b0576101008083540402835291602001916103db565b820191906000526020600020905b8154815290600101906020018083116103be57829003601f168201915b50505050600183015460029093015491926001600160a01b031691905083565b60008281526020819052604090206001015461041681610e3e565b6104208383610e48565b505050565b60606000610434600184611648565b9050600381815481106104495761044961165f565b90600052602060002090600202016000018054610465906115f7565b80601f0160208091040260200160405190810160405280929190818152602001828054610491906115f7565b80156104de5780601f106104b3576101008083540402835291602001916104de565b820191906000526020600020905b8154815290600101906020018083116104c157829003601f168201915b5050505050915050919050565b6001600160a01b03811633146105605760405162461bcd60e51b815260206004820152602f60248201527f416363657373436f6e74726f6c3a2063616e206f6e6c792072656e6f756e636560448201526e103937b632b9903337b91039b2b63360891b60648201526084015b60405180910390fd5b61056a8282610ecc565b5050565b60606002805480602002602001604051908101604052809291908181526020016000905b8282101561067957838290600052602060002090600302016040518060600160405290816000820180546105c5906115f7565b80601f01602080910402602001604051908101604052809291908181526020018280546105f1906115f7565b801561063e5780601f106106135761010080835404028352916020019161063e565b820191906000526020600020905b81548152906001019060200180831161062157829003601f168201915b50505091835250506001828101546001600160a01b031660208084019190915260029093015460409092019190915291835292019101610592565b50505050905090565b6003818154811061069257600080fd5b90600052602060002090600202016000915090508060000180546106b5906115f7565b80601f01602080910402602001604051908101604052809291908181526020018280546106e1906115f7565b801561072e5780601f106107035761010080835404028352916020019161072e565b820191906000526020600020905b81548152906001019060200180831161071157829003601f168201915b505050600190930154919250506001600160a01b031682565b61074f610f31565b6107596000610f8b565b565b610763610f31565b6000805b600254811015610a2a57600281815481106107845761078461165f565b90600052602060002090600302016000016040516020016107a59190611675565b60405160208183030381529060405280519060200120846040516020016107cc9190611711565b604051602081830303815290604052805190602001201415610a1857600191506003600282815481106108015761080161165f565b9060005260206000209060030201600201541015610873576002818154811061082c5761082c61165f565b906000526020600020906003020160020154600161084a919061172d565b6002828154811061085d5761085d61165f565b9060005260206000209060030201600201819055505b600281815481106108865761088661165f565b90600052602060002090600302016002015460031415610a18576108b860008051602061185383398151915284610b18565b1561091a5760405162461bcd60e51b815260206004820152602c60248201527f4552524f523a204163636f756e7420697320616c726561647920612053656e6960448201526b6f7220537570706c6965722160a01b6064820152608401610557565b60035460009061092b90600161172d565b905061094560008051602061185383398151915285610fdd565b604080518082019091528581526001600160a01b038516602080830191909152600380546001810182556000919091528251805160029092027fc2575a0e9e593c00f959f8c92f12db2869c3395a3b0502d05e2516446f71f85b01926109b0928492909101906111e7565b5060209190910151600190910180546001600160a01b0319166001600160a01b039092169190911790556040517f847ce7171076210ed3ef4cdc00c78a495857da31ba53b157f9abd297a722926e90610a0e90839088908890611745565b60405180910390a1505b80610a2281611776565b915050610767565b508061042057604080516060810182528481526001600160a01b03841660208083019190915260019282018390526002805493840181556000528151805192936003027f405787fa12a823e0f2b7631cc41b3ba8828b3321ca811111fa75cd3aa3bb5ace0192610a9d92849201906111e7565b5060208201518160010160006101000a8154816001600160a01b0302191690836001600160a01b031602179055506040820151816002015550507f3123ef99054af86b58de458f04a9d9e84df250d2b92d06a002a2fa20089e173a83836001604051610b0b939291906113d0565b60405180910390a1505050565b6000918252602082815260408084206001600160a01b0393909316845291905290205460ff1690565b600080610b5c60008051602061185383398151915284610b18565b9392505050565b600082815260208190526040902060010154610b7e81610e3e565b6104208383610ecc565b610b90610f31565b6001600160a01b038116610bf55760405162461bcd60e51b815260206004820152602660248201527f4f776e61626c653a206e6577206f776e657220697320746865207a65726f206160448201526564647265737360d01b6064820152608401610557565b610bfe81610f8b565b50565b610c09610f31565b6000610c16600184611648565b9050610c3060008051602061185383398151915283610b18565b610c965760405162461bcd60e51b815260206004820152603160248201527f4552524f523a204163636f756e742070726f7669646564206973206e6f7420616044820152702053656e696f7220537570706c6965722160781b6064820152608401610557565b6003548110610ce75760405162461bcd60e51b815260206004820152601a60248201527f4552524f523a20496e646578206f7574206f6620626f756e64210000000000006044820152606401610557565b610cff60008051602061185383398151915283610ecc565b805b600354610d1090600190611648565b811015610dba576003610d2482600161172d565b81548110610d3457610d3461165f565b906000526020600020906002020160038281548110610d5557610d5561165f565b90600052602060002090600202016000820181600001908054610d77906115f7565b610d8292919061126b565b50600191820154910180546001600160a01b0319166001600160a01b0390921691909117905580610db281611776565b915050610d01565b506003805480610dcc57610dcc611791565b60008281526020812060001990920191600283020190610dec82826112e6565b5060010180546001600160a01b03191690559055604080518481526001600160a01b03841660208201527f971605244bfb206be14896e60636184f44d9c423429268b3bae70894e26ab4e39101610b0b565b610bfe8133610fe7565b610e528282610b18565b61056a576000828152602081815260408083206001600160a01b03851684529091529020805460ff19166001179055610e883390565b6001600160a01b0316816001600160a01b0316837f2f8788117e7eff1d82e926ec794901d17c78024a50270940304540a733656f0d60405160405180910390a45050565b610ed68282610b18565b1561056a576000828152602081815260408083206001600160a01b0385168085529252808320805460ff1916905551339285917ff6391f5c32d9c69d2a47ea670b442974b53935d1edc7fd64eb21e047a839171b9190a45050565b6001546001600160a01b031633146107595760405162461bcd60e51b815260206004820181905260248201527f4f776e61626c653a2063616c6c6572206973206e6f7420746865206f776e65726044820152606401610557565b600180546001600160a01b038381166001600160a01b0319831681179093556040519116919082907f8be0079c531659141344cd1fd0a4f28419497f9722a3daafe3b4186f6b6457e090600090a35050565b61056a8282610e48565b610ff18282610b18565b61056a57611009816001600160a01b0316601461104b565b61101483602061104b565b6040516020016110259291906117a7565b60408051601f198184030181529082905262461bcd60e51b825261055791600401611446565b6060600061105a83600261181c565b61106590600261172d565b67ffffffffffffffff81111561107d5761107d61150d565b6040519080825280601f01601f1916602001820160405280156110a7576020820181803683370190505b509050600360fc1b816000815181106110c2576110c261165f565b60200101906001600160f81b031916908160001a905350600f60fb1b816001815181106110f1576110f161165f565b60200101906001600160f81b031916908160001a905350600061111584600261181c565b61112090600161172d565b90505b6001811115611198576f181899199a1a9b1b9c1cb0b131b232b360811b85600f16601081106111545761115461165f565b1a60f81b82828151811061116a5761116a61165f565b60200101906001600160f81b031916908160001a90535060049490941c936111918161183b565b9050611123565b508315610b5c5760405162461bcd60e51b815260206004820181905260248201527f537472696e67733a20686578206c656e67746820696e73756666696369656e746044820152606401610557565b8280546111f3906115f7565b90600052602060002090601f016020900481019282611215576000855561125b565b82601f1061122e57805160ff191683800117855561125b565b8280016001018555821561125b579182015b8281111561125b578251825591602001919060010190611240565b5061126792915061131c565b5090565b828054611277906115f7565b90600052602060002090601f016020900481019282611299576000855561125b565b82601f106112aa578054855561125b565b8280016001018555821561125b57600052602060002091601f016020900482015b8281111561125b5782548255916001019190600101906112cb565b5080546112f2906115f7565b6000825580601f10611302575050565b601f016020900490600052602060002090810190610bfe91905b5b80821115611267576000815560010161131d565b60006020828403121561134357600080fd5b81356001600160e01b031981168114610b5c57600080fd5b60006020828403121561136d57600080fd5b5035919050565b60005b8381101561138f578181015183820152602001611377565b8381111561139e576000848401525b50505050565b600081518084526113bc816020860160208601611374565b601f01601f19169290920160200192915050565b6060815260006113e360608301866113a4565b6001600160a01b039490941660208301525060400152919050565b80356001600160a01b038116811461141557600080fd5b919050565b6000806040838503121561142d57600080fd5b8235915061143d602084016113fe565b90509250929050565b602081526000610b5c60208301846113a4565b60006020808301818452808551808352604092508286019150828160051b87010184880160005b838110156114d557603f198984030185528151606081518186526114a6828701826113a4565b838b01516001600160a01b0316878c015292890151958901959095525094870194925090860190600101611480565b509098975050505050505050565b6040815260006114f660408301856113a4565b905060018060a01b03831660208301529392505050565b634e487b7160e01b600052604160045260246000fd5b6000806040838503121561153657600080fd5b823567ffffffffffffffff8082111561154e57600080fd5b818501915085601f83011261156257600080fd5b8135818111156115745761157461150d565b604051601f8201601f19908116603f0116810190838211818310171561159c5761159c61150d565b816040528281528860208487010111156115b557600080fd5b82602086016020830137600060208483010152809650505050505061143d602084016113fe565b6000602082840312156115ee57600080fd5b610b5c826113fe565b600181811c9082168061160b57607f821691505b6020821081141561162c57634e487b7160e01b600052602260045260246000fd5b50919050565b634e487b7160e01b600052601160045260246000fd5b60008282101561165a5761165a611632565b500390565b634e487b7160e01b600052603260045260246000fd5b600080835481600182811c91508083168061169157607f831692505b60208084108214156116b157634e487b7160e01b86526022600452602486fd5b8180156116c557600181146116d657611703565b60ff19861689528489019650611703565b60008a81526020902060005b868110156116fb5781548b8201529085019083016116e2565b505084890196505b509498975050505050505050565b60008251611723818460208701611374565b9190910192915050565b6000821982111561174057611740611632565b500190565b83815260606020820152600061175e60608301856113a4565b905060018060a01b0383166040830152949350505050565b600060001982141561178a5761178a611632565b5060010190565b634e487b7160e01b600052603160045260246000fd5b7f416363657373436f6e74726f6c3a206163636f756e74200000000000000000008152600083516117df816017850160208801611374565b7001034b99036b4b9b9b4b733903937b6329607d1b6017918401918201528351611810816028840160208801611374565b01602801949350505050565b600081600019048311821515161561183657611836611632565b500290565b60008161184a5761184a611632565b50600019019056fe46927742d6cecfa1439757eb57666e5ea64271ce5c8d25cfa395d2d445eec9e2a26469706673582212201ae2b9df003e1e2912cb6d4c2248dc27aee299da3cd58ab091df09e6ccdd901064736f6c63430008090033",
  "linkReferences": {},
  "deployedLinkReferences": {}
}