{
  "_format": "hh-sol-artifact-1",
  "contractName": "GovernanceProtocol",
  "sourceName": "contracts/governance/GovernanceProtocol.sol",
  "abi": [
    {
      "inputs": [
        {
          "internalType": "contract IVotes",
          "name": "_token",
          "type": "address"
        },
        {
          "internalType": "contract TimelockController",
          "name": "_timelock",
          "type": "address"
        },
        {
          "internalType": "uint256",
          "name": "_quorumPercentage",
          "type": "uint256"
        },
        {
          "internalType": "uint256",
          "name": "_votingPeriod",
          "type": "uint256"
        },
        {
          "internalType": "uint256",
          "name": "_votingDelay",
          "type": "uint256"
        }
      ],
      "stateMutability": "nonpayable",
      "type": "constructor"
    },
    {
      "inputs": [],
      "name": "Empty",
      "type": "error"
    },
    {
      "anonymous": false,
      "inputs": [
        {
          "indexed": false,
          "internalType": "uint256",
          "name": "proposalId",
          "type": "uint256"
        }
      ],
      "name": "ProposalCanceled",
      "type": "event"
    },
    {
      "anonymous": false,
      "inputs": [
        {
          "indexed": false,
          "internalType": "uint256",
          "name": "proposalId",
          "type": "uint256"
        },
        {
          "indexed": false,
          "internalType": "address",
          "name": "proposer",
          "type": "address"
        },
        {
          "indexed": false,
          "internalType": "address[]",
          "name": "targets",
          "type": "address[]"
        },
        {
          "indexed": false,
          "internalType": "uint256[]",
          "name": "values",
          "type": "uint256[]"
        },
        {
          "indexed": false,
          "internalType": "string[]",
          "name": "signatures",
          "type": "string[]"
        },
        {
          "indexed": false,
          "internalType": "bytes[]",
          "name": "calldatas",
          "type": "bytes[]"
        },
        {
          "indexed": false,
          "internalType": "uint256",
          "name": "startBlock",
          "type": "uint256"
        },
        {
          "indexed": false,
          "internalType": "uint256",
          "name": "endBlock",
          "type": "uint256"
        },
        {
          "indexed": false,
          "internalType": "string",
          "name": "description",
          "type": "string"
        }
      ],
      "name": "ProposalCreated",
      "type": "event"
    },
    {
      "anonymous": false,
      "inputs": [
        {
          "indexed": false,
          "internalType": "uint256",
          "name": "proposalId",
          "type": "uint256"
        }
      ],
      "name": "ProposalExecuted",
      "type": "event"
    },
    {
      "anonymous": false,
      "inputs": [
        {
          "indexed": false,
          "internalType": "uint256",
          "name": "proposalId",
          "type": "uint256"
        },
        {
          "indexed": false,
          "internalType": "uint256",
          "name": "eta",
          "type": "uint256"
        }
      ],
      "name": "ProposalQueued",
      "type": "event"
    },
    {
      "anonymous": false,
      "inputs": [
        {
          "indexed": false,
          "internalType": "uint256",
          "name": "oldProposalThreshold",
          "type": "uint256"
        },
        {
          "indexed": false,
          "internalType": "uint256",
          "name": "newProposalThreshold",
          "type": "uint256"
        }
      ],
      "name": "ProposalThresholdSet",
      "type": "event"
    },
    {
      "anonymous": false,
      "inputs": [
        {
          "indexed": false,
          "internalType": "uint256",
          "name": "oldQuorumNumerator",
          "type": "uint256"
        },
        {
          "indexed": false,
          "internalType": "uint256",
          "name": "newQuorumNumerator",
          "type": "uint256"
        }
      ],
      "name": "QuorumNumeratorUpdated",
      "type": "event"
    },
    {
      "anonymous": false,
      "inputs": [
        {
          "indexed": true,
          "internalType": "bytes32",
          "name": "role",
          "type": "bytes32"
        },
        {
          "indexed": true,
          "internalType": "bytes32",
          "name": "previousAdminRole",
          "type": "bytes32"
        },
        {
          "indexed": true,
          "internalType": "bytes32",
          "name": "newAdminRole",
          "type": "bytes32"
        }
      ],
      "name": "RoleAdminChanged",
      "type": "event"
    },
    {
      "anonymous": false,
      "inputs": [
        {
          "indexed": true,
          "internalType": "bytes32",
          "name": "role",
          "type": "bytes32"
        },
        {
          "indexed": true,
          "internalType": "address",
          "name": "account",
          "type": "address"
        },
        {
          "indexed": true,
          "internalType": "address",
          "name": "sender",
          "type": "address"
        }
      ],
      "name": "RoleGranted",
      "type": "event"
    },
    {
      "anonymous": false,
      "inputs": [
        {
          "indexed": true,
          "internalType": "bytes32",
          "name": "role",
          "type": "bytes32"
        },
        {
          "indexed": true,
          "internalType": "address",
          "name": "account",
          "type": "address"
        },
        {
          "indexed": true,
          "internalType": "address",
          "name": "sender",
          "type": "address"
        }
      ],
      "name": "RoleRevoked",
      "type": "event"
    },
    {
      "anonymous": false,
      "inputs": [
        {
          "indexed": false,
          "internalType": "address",
          "name": "oldTimelock",
          "type": "address"
        },
        {
          "indexed": false,
          "internalType": "address",
          "name": "newTimelock",
          "type": "address"
        }
      ],
      "name": "TimelockChange",
      "type": "event"
    },
    {
      "anonymous": false,
      "inputs": [
        {
          "indexed": true,
          "internalType": "address",
          "name": "voter",
          "type": "address"
        },
        {
          "indexed": false,
          "internalType": "uint256",
          "name": "proposalId",
          "type": "uint256"
        },
        {
          "indexed": false,
          "internalType": "uint8",
          "name": "support",
          "type": "uint8"
        },
        {
          "indexed": false,
          "internalType": "uint256",
          "name": "weight",
          "type": "uint256"
        },
        {
          "indexed": false,
          "internalType": "string",
          "name": "reason",
          "type": "string"
        }
      ],
      "name": "VoteCast",
      "type": "event"
    },
    {
      "anonymous": false,
      "inputs": [
        {
          "indexed": true,
          "internalType": "address",
          "name": "voter",
          "type": "address"
        },
        {
          "indexed": false,
          "internalType": "uint256",
          "name": "proposalId",
          "type": "uint256"
        },
        {
          "indexed": false,
          "internalType": "uint8",
          "name": "support",
          "type": "uint8"
        },
        {
          "indexed": false,
          "internalType": "uint256",
          "name": "weight",
          "type": "uint256"
        },
        {
          "indexed": false,
          "internalType": "string",
          "name": "reason",
          "type": "string"
        },
        {
          "indexed": false,
          "internalType": "bytes",
          "name": "params",
          "type": "bytes"
        }
      ],
      "name": "VoteCastWithParams",
      "type": "event"
    },
    {
      "anonymous": false,
      "inputs": [
        {
          "indexed": false,
          "internalType": "uint256",
          "name": "oldVotingDelay",
          "type": "uint256"
        },
        {
          "indexed": false,
          "internalType": "uint256",
          "name": "newVotingDelay",
          "type": "uint256"
        }
      ],
      "name": "VotingDelaySet",
      "type": "event"
    },
    {
      "anonymous": false,
      "inputs": [
        {
          "indexed": false,
          "internalType": "uint256",
          "name": "oldVotingPeriod",
          "type": "uint256"
        },
        {
          "indexed": false,
          "internalType": "uint256",
          "name": "newVotingPeriod",
          "type": "uint256"
        }
      ],
      "name": "VotingPeriodSet",
      "type": "event"
    },
    {
      "inputs": [
        {
          "internalType": "address[]",
          "name": "targets",
          "type": "address[]"
        },
        {
          "internalType": "uint256[]",
          "name": "values",
          "type": "uint256[]"
        },
        {
          "internalType": "bytes[]",
          "name": "calldatas",
          "type": "bytes[]"
        },
        {
          "internalType": "string",
          "name": "description",
          "type": "string"
        }
      ],
      "name": "AdministrativePropose",
      "outputs": [
        {
          "internalType": "uint256",
          "name": "",
          "type": "uint256"
        }
      ],
      "stateMutability": "nonpayable",
      "type": "function"
    },
    {
      "inputs": [],
      "name": "BALLOT_TYPEHASH",
      "outputs": [
        {
          "internalType": "bytes32",
          "name": "",
          "type": "bytes32"
        }
      ],
      "stateMutability": "view",
      "type": "function"
    },
    {
      "inputs": [],
      "name": "COUNTING_MODE",
      "outputs": [
        {
          "internalType": "string",
          "name": "",
          "type": "string"
        }
      ],
      "stateMutability": "pure",
      "type": "function"
    },
    {
      "inputs": [],
      "name": "DEFAULT_ADMIN_ROLE",
      "outputs": [
        {
          "internalType": "bytes32",
          "name": "",
          "type": "bytes32"
        }
      ],
      "stateMutability": "view",
      "type": "function"
    },
    {
      "inputs": [],
      "name": "EXTENDED_BALLOT_TYPEHASH",
      "outputs": [
        {
          "internalType": "bytes32",
          "name": "",
          "type": "bytes32"
        }
      ],
      "stateMutability": "view",
      "type": "function"
    },
    {
      "inputs": [
        {
          "internalType": "uint256",
          "name": "proposalId",
          "type": "uint256"
        },
        {
          "internalType": "uint8",
          "name": "support",
          "type": "uint8"
        },
        {
          "internalType": "string",
          "name": "reason",
          "type": "string"
        }
      ],
      "name": "castBoardVoteWithReason",
      "outputs": [
        {
          "internalType": "uint256",
          "name": "",
          "type": "uint256"
        }
      ],
      "stateMutability": "nonpayable",
      "type": "function"
    },
    {
      "inputs": [
        {
          "internalType": "uint256",
          "name": "proposalId",
          "type": "uint256"
        },
        {
          "internalType": "uint8",
          "name": "support",
          "type": "uint8"
        }
      ],
      "name": "castVote",
      "outputs": [
        {
          "internalType": "uint256",
          "name": "",
          "type": "uint256"
        }
      ],
      "stateMutability": "nonpayable",
      "type": "function"
    },
    {
      "inputs": [
        {
          "internalType": "uint256",
          "name": "proposalId",
          "type": "uint256"
        },
        {
          "internalType": "uint8",
          "name": "support",
          "type": "uint8"
        },
        {
          "internalType": "uint8",
          "name": "v",
          "type": "uint8"
        },
        {
          "internalType": "bytes32",
          "name": "r",
          "type": "bytes32"
        },
        {
          "internalType": "bytes32",
          "name": "s",
          "type": "bytes32"
        }
      ],
      "name": "castVoteBySig",
      "outputs": [
        {
          "internalType": "uint256",
          "name": "",
          "type": "uint256"
        }
      ],
      "stateMutability": "nonpayable",
      "type": "function"
    },
    {
      "inputs": [
        {
          "internalType": "uint256",
          "name": "proposalId",
          "type": "uint256"
        },
        {
          "internalType": "uint8",
          "name": "support",
          "type": "uint8"
        },
        {
          "internalType": "string",
          "name": "reason",
          "type": "string"
        }
      ],
      "name": "castVoteWithReason",
      "outputs": [
        {
          "internalType": "uint256",
          "name": "",
          "type": "uint256"
        }
      ],
      "stateMutability": "nonpayable",
      "type": "function"
    },
    {
      "inputs": [
        {
          "internalType": "uint256",
          "name": "proposalId",
          "type": "uint256"
        },
        {
          "internalType": "uint8",
          "name": "support",
          "type": "uint8"
        },
        {
          "internalType": "string",
          "name": "reason",
          "type": "string"
        },
        {
          "internalType": "bytes",
          "name": "params",
          "type": "bytes"
        }
      ],
      "name": "castVoteWithReasonAndParams",
      "outputs": [
        {
          "internalType": "uint256",
          "name": "",
          "type": "uint256"
        }
      ],
      "stateMutability": "nonpayable",
      "type": "function"
    },
    {
      "inputs": [
        {
          "internalType": "uint256",
          "name": "proposalId",
          "type": "uint256"
        },
        {
          "internalType": "uint8",
          "name": "support",
          "type": "uint8"
        },
        {
          "internalType": "string",
          "name": "reason",
          "type": "string"
        },
        {
          "internalType": "bytes",
          "name": "params",
          "type": "bytes"
        },
        {
          "internalType": "uint8",
          "name": "v",
          "type": "uint8"
        },
        {
          "internalType": "bytes32",
          "name": "r",
          "type": "bytes32"
        },
        {
          "internalType": "bytes32",
          "name": "s",
          "type": "bytes32"
        }
      ],
      "name": "castVoteWithReasonAndParamsBySig",
      "outputs": [
        {
          "internalType": "uint256",
          "name": "",
          "type": "uint256"
        }
      ],
      "stateMutability": "nonpayable",
      "type": "function"
    },
    {
      "inputs": [
        {
          "internalType": "address[]",
          "name": "targets",
          "type": "address[]"
        },
        {
          "internalType": "uint256[]",
          "name": "values",
          "type": "uint256[]"
        },
        {
          "internalType": "bytes[]",
          "name": "calldatas",
          "type": "bytes[]"
        },
        {
          "internalType": "bytes32",
          "name": "descriptionHash",
          "type": "bytes32"
        }
      ],
      "name": "execute",
      "outputs": [
        {
          "internalType": "uint256",
          "name": "",
          "type": "uint256"
        }
      ],
      "stateMutability": "payable",
      "type": "function"
    },
    {
      "inputs": [
        {
          "internalType": "bytes32",
          "name": "role",
          "type": "bytes32"
        }
      ],
      "name": "getRoleAdmin",
      "outputs": [
        {
          "internalType": "bytes32",
          "name": "",
          "type": "bytes32"
        }
      ],
      "stateMutability": "view",
      "type": "function"
    },
    {
      "inputs": [
        {
          "internalType": "address",
          "name": "account",
          "type": "address"
        },
        {
          "internalType": "uint256",
          "name": "blockNumber",
          "type": "uint256"
        }
      ],
      "name": "getVotes",
      "outputs": [
        {
          "internalType": "uint256",
          "name": "",
          "type": "uint256"
        }
      ],
      "stateMutability": "view",
      "type": "function"
    },
    {
      "inputs": [
        {
          "internalType": "address",
          "name": "account",
          "type": "address"
        },
        {
          "internalType": "uint256",
          "name": "blockNumber",
          "type": "uint256"
        },
        {
          "internalType": "bytes",
          "name": "params",
          "type": "bytes"
        }
      ],
      "name": "getVotesWithParams",
      "outputs": [
        {
          "internalType": "uint256",
          "name": "",
          "type": "uint256"
        }
      ],
      "stateMutability": "view",
      "type": "function"
    },
    {
      "inputs": [
        {
          "internalType": "bytes32",
          "name": "role",
          "type": "bytes32"
        },
        {
          "internalType": "address",
          "name": "account",
          "type": "address"
        }
      ],
      "name": "grantRole",
      "outputs": [],
      "stateMutability": "nonpayable",
      "type": "function"
    },
    {
      "inputs": [
        {
          "internalType": "bytes32",
          "name": "role",
          "type": "bytes32"
        },
        {
          "internalType": "address",
          "name": "account",
          "type": "address"
        }
      ],
      "name": "hasRole",
      "outputs": [
        {
          "internalType": "bool",
          "name": "",
          "type": "bool"
        }
      ],
      "stateMutability": "view",
      "type": "function"
    },
    {
      "inputs": [
        {
          "internalType": "uint256",
          "name": "proposalId",
          "type": "uint256"
        },
        {
          "internalType": "address",
          "name": "account",
          "type": "address"
        }
      ],
      "name": "hasVoted",
      "outputs": [
        {
          "internalType": "bool",
          "name": "",
          "type": "bool"
        }
      ],
      "stateMutability": "view",
      "type": "function"
    },
    {
      "inputs": [
        {
          "internalType": "address[]",
          "name": "targets",
          "type": "address[]"
        },
        {
          "internalType": "uint256[]",
          "name": "values",
          "type": "uint256[]"
        },
        {
          "internalType": "bytes[]",
          "name": "calldatas",
          "type": "bytes[]"
        },
        {
          "internalType": "bytes32",
          "name": "descriptionHash",
          "type": "bytes32"
        }
      ],
      "name": "hashProposal",
      "outputs": [
        {
          "internalType": "uint256",
          "name": "",
          "type": "uint256"
        }
      ],
      "stateMutability": "pure",
      "type": "function"
    },
    {
      "inputs": [],
      "name": "name",
      "outputs": [
        {
          "internalType": "string",
          "name": "",
          "type": "string"
        }
      ],
      "stateMutability": "view",
      "type": "function"
    },
    {
      "inputs": [
        {
          "internalType": "address",
          "name": "",
          "type": "address"
        },
        {
          "internalType": "address",
          "name": "",
          "type": "address"
        },
        {
          "internalType": "uint256[]",
          "name": "",
          "type": "uint256[]"
        },
        {
          "internalType": "uint256[]",
          "name": "",
          "type": "uint256[]"
        },
        {
          "internalType": "bytes",
          "name": "",
          "type": "bytes"
        }
      ],
      "name": "onERC1155BatchReceived",
      "outputs": [
        {
          "internalType": "bytes4",
          "name": "",
          "type": "bytes4"
        }
      ],
      "stateMutability": "nonpayable",
      "type": "function"
    },
    {
      "inputs": [
        {
          "internalType": "address",
          "name": "",
          "type": "address"
        },
        {
          "internalType": "address",
          "name": "",
          "type": "address"
        },
        {
          "internalType": "uint256",
          "name": "",
          "type": "uint256"
        },
        {
          "internalType": "uint256",
          "name": "",
          "type": "uint256"
        },
        {
          "internalType": "bytes",
          "name": "",
          "type": "bytes"
        }
      ],
      "name": "onERC1155Received",
      "outputs": [
        {
          "internalType": "bytes4",
          "name": "",
          "type": "bytes4"
        }
      ],
      "stateMutability": "nonpayable",
      "type": "function"
    },
    {
      "inputs": [
        {
          "internalType": "address",
          "name": "",
          "type": "address"
        },
        {
          "internalType": "address",
          "name": "",
          "type": "address"
        },
        {
          "internalType": "uint256",
          "name": "",
          "type": "uint256"
        },
        {
          "internalType": "bytes",
          "name": "",
          "type": "bytes"
        }
      ],
      "name": "onERC721Received",
      "outputs": [
        {
          "internalType": "bytes4",
          "name": "",
          "type": "bytes4"
        }
      ],
      "stateMutability": "nonpayable",
      "type": "function"
    },
    {
      "inputs": [
        {
          "internalType": "uint256",
          "name": "proposalId",
          "type": "uint256"
        }
      ],
      "name": "proposalDeadline",
      "outputs": [
        {
          "internalType": "uint256",
          "name": "",
          "type": "uint256"
        }
      ],
      "stateMutability": "view",
      "type": "function"
    },
    {
      "inputs": [
        {
          "internalType": "uint256",
          "name": "proposalId",
          "type": "uint256"
        }
      ],
      "name": "proposalEta",
      "outputs": [
        {
          "internalType": "uint256",
          "name": "",
          "type": "uint256"
        }
      ],
      "stateMutability": "view",
      "type": "function"
    },
    {
      "inputs": [
        {
          "internalType": "uint256",
          "name": "proposalId",
          "type": "uint256"
        }
      ],
      "name": "proposalSnapshot",
      "outputs": [
        {
          "internalType": "uint256",
          "name": "",
          "type": "uint256"
        }
      ],
      "stateMutability": "view",
      "type": "function"
    },
    {
      "inputs": [],
      "name": "proposalThreshold",
      "outputs": [
        {
          "internalType": "uint256",
          "name": "",
          "type": "uint256"
        }
      ],
      "stateMutability": "view",
      "type": "function"
    },
    {
      "inputs": [
        {
          "internalType": "uint256",
          "name": "proposalId",
          "type": "uint256"
        }
      ],
      "name": "proposalVotes",
      "outputs": [
        {
          "internalType": "uint256",
          "name": "againstVotes",
          "type": "uint256"
        },
        {
          "internalType": "uint256",
          "name": "forVotes",
          "type": "uint256"
        },
        {
          "internalType": "uint256",
          "name": "abstainVotes",
          "type": "uint256"
        }
      ],
      "stateMutability": "view",
      "type": "function"
    },
    {
      "inputs": [
        {
          "internalType": "address[]",
          "name": "targets",
          "type": "address[]"
        },
        {
          "internalType": "uint256[]",
          "name": "values",
          "type": "uint256[]"
        },
        {
          "internalType": "bytes[]",
          "name": "calldatas",
          "type": "bytes[]"
        },
        {
          "internalType": "string",
          "name": "description",
          "type": "string"
        }
      ],
      "name": "propose",
      "outputs": [
        {
          "internalType": "uint256",
          "name": "",
          "type": "uint256"
        }
      ],
      "stateMutability": "nonpayable",
      "type": "function"
    },
    {
      "inputs": [
        {
          "internalType": "address[]",
          "name": "targets",
          "type": "address[]"
        },
        {
          "internalType": "uint256[]",
          "name": "values",
          "type": "uint256[]"
        },
        {
          "internalType": "bytes[]",
          "name": "calldatas",
          "type": "bytes[]"
        },
        {
          "internalType": "bytes32",
          "name": "descriptionHash",
          "type": "bytes32"
        }
      ],
      "name": "queue",
      "outputs": [
        {
          "internalType": "uint256",
          "name": "",
          "type": "uint256"
        }
      ],
      "stateMutability": "nonpayable",
      "type": "function"
    },
    {
      "inputs": [
        {
          "internalType": "uint256",
          "name": "blockNumber",
          "type": "uint256"
        }
      ],
      "name": "quorum",
      "outputs": [
        {
          "internalType": "uint256",
          "name": "",
          "type": "uint256"
        }
      ],
      "stateMutability": "view",
      "type": "function"
    },
    {
      "inputs": [],
      "name": "quorumDenominator",
      "outputs": [
        {
          "internalType": "uint256",
          "name": "",
          "type": "uint256"
        }
      ],
      "stateMutability": "view",
      "type": "function"
    },
    {
      "inputs": [
        {
          "internalType": "uint256",
          "name": "blockNumber",
          "type": "uint256"
        }
      ],
      "name": "quorumNumerator",
      "outputs": [
        {
          "internalType": "uint256",
          "name": "",
          "type": "uint256"
        }
      ],
      "stateMutability": "view",
      "type": "function"
    },
    {
      "inputs": [],
      "name": "quorumNumerator",
      "outputs": [
        {
          "internalType": "uint256",
          "name": "",
          "type": "uint256"
        }
      ],
      "stateMutability": "view",
      "type": "function"
    },
    {
      "inputs": [
        {
          "internalType": "address",
          "name": "target",
          "type": "address"
        },
        {
          "internalType": "uint256",
          "name": "value",
          "type": "uint256"
        },
        {
          "internalType": "bytes",
          "name": "data",
          "type": "bytes"
        }
      ],
      "name": "relay",
      "outputs": [],
      "stateMutability": "nonpayable",
      "type": "function"
    },
    {
      "inputs": [
        {
          "internalType": "bytes32",
          "name": "role",
          "type": "bytes32"
        },
        {
          "internalType": "address",
          "name": "account",
          "type": "address"
        }
      ],
      "name": "renounceRole",
      "outputs": [],
      "stateMutability": "nonpayable",
      "type": "function"
    },
    {
      "inputs": [],
      "name": "retrieveProposalIndex",
      "outputs": [
        {
          "internalType": "uint256",
          "name": "",
          "type": "uint256"
        }
      ],
      "stateMutability": "view",
      "type": "function"
    },
    {
      "inputs": [
        {
          "internalType": "bytes32",
          "name": "role",
          "type": "bytes32"
        },
        {
          "internalType": "address",
          "name": "account",
          "type": "address"
        }
      ],
      "name": "revokeRole",
      "outputs": [],
      "stateMutability": "nonpayable",
      "type": "function"
    },
    {
      "inputs": [
        {
          "internalType": "address[]",
          "name": "targets",
          "type": "address[]"
        },
        {
          "internalType": "uint256[]",
          "name": "values",
          "type": "uint256[]"
        },
        {
          "internalType": "bytes[]",
          "name": "calldatas",
          "type": "bytes[]"
        },
        {
          "internalType": "string",
          "name": "description",
          "type": "string"
        }
      ],
      "name": "seniorSupplierPropose",
      "outputs": [
        {
          "internalType": "uint256",
          "name": "",
          "type": "uint256"
        }
      ],
      "stateMutability": "nonpayable",
      "type": "function"
    },
    {
      "inputs": [
        {
          "internalType": "uint256",
          "name": "newProposalThreshold",
          "type": "uint256"
        }
      ],
      "name": "setProposalThreshold",
      "outputs": [],
      "stateMutability": "nonpayable",
      "type": "function"
    },
    {
      "inputs": [
        {
          "internalType": "uint256",
          "name": "newVotingDelay",
          "type": "uint256"
        }
      ],
      "name": "setVotingDelay",
      "outputs": [],
      "stateMutability": "nonpayable",
      "type": "function"
    },
    {
      "inputs": [
        {
          "internalType": "uint256",
          "name": "newVotingPeriod",
          "type": "uint256"
        }
      ],
      "name": "setVotingPeriod",
      "outputs": [],
      "stateMutability": "nonpayable",
      "type": "function"
    },
    {
      "inputs": [
        {
          "internalType": "uint256",
          "name": "proposalId",
          "type": "uint256"
        }
      ],
      "name": "state",
      "outputs": [
        {
          "internalType": "enum IGovernor.ProposalState",
          "name": "",
          "type": "uint8"
        }
      ],
      "stateMutability": "view",
      "type": "function"
    },
    {
      "inputs": [
        {
          "internalType": "address[]",
          "name": "targets",
          "type": "address[]"
        },
        {
          "internalType": "uint256[]",
          "name": "values",
          "type": "uint256[]"
        },
        {
          "internalType": "bytes[]",
          "name": "calldatas",
          "type": "bytes[]"
        },
        {
          "internalType": "string",
          "name": "description",
          "type": "string"
        },
        {
          "internalType": "string",
          "name": "proposalValue",
          "type": "string"
        }
      ],
      "name": "supplierPropose",
      "outputs": [
        {
          "internalType": "uint256",
          "name": "",
          "type": "uint256"
        }
      ],
      "stateMutability": "nonpayable",
      "type": "function"
    },
    {
      "inputs": [
        {
          "internalType": "bytes4",
          "name": "interfaceId",
          "type": "bytes4"
        }
      ],
      "name": "supportsInterface",
      "outputs": [
        {
          "internalType": "bool",
          "name": "",
          "type": "bool"
        }
      ],
      "stateMutability": "view",
      "type": "function"
    },
    {
      "inputs": [],
      "name": "timelock",
      "outputs": [
        {
          "internalType": "address",
          "name": "",
          "type": "address"
        }
      ],
      "stateMutability": "view",
      "type": "function"
    },
    {
      "inputs": [],
      "name": "token",
      "outputs": [
        {
          "internalType": "contract IVotes",
          "name": "",
          "type": "address"
        }
      ],
      "stateMutability": "view",
      "type": "function"
    },
    {
      "inputs": [
        {
          "internalType": "uint256",
          "name": "newQuorumNumerator",
          "type": "uint256"
        }
      ],
      "name": "updateQuorumNumerator",
      "outputs": [],
      "stateMutability": "nonpayable",
      "type": "function"
    },
    {
      "inputs": [
        {
          "internalType": "contract TimelockController",
          "name": "newTimelock",
          "type": "address"
        }
      ],
      "name": "updateTimelock",
      "outputs": [],
      "stateMutability": "nonpayable",
      "type": "function"
    },
    {
      "inputs": [],
      "name": "version",
      "outputs": [
        {
          "internalType": "string",
          "name": "",
          "type": "string"
        }
      ],
      "stateMutability": "view",
      "type": "function"
    },
    {
      "inputs": [],
      "name": "votingDelay",
      "outputs": [
        {
          "internalType": "uint256",
          "name": "",
          "type": "uint256"
        }
      ],
      "stateMutability": "view",
      "type": "function"
    },
    {
      "inputs": [],
      "name": "votingPeriod",
      "outputs": [
        {
          "internalType": "uint256",
          "name": "",
          "type": "uint256"
        }
      ],
      "stateMutability": "view",
      "type": "function"
    },
    {
      "stateMutability": "payable",
      "type": "receive"
    }
  ],
  "bytecode": "0x610160604052600d80546001600160a01b031990811673dc64a140aa3e981100a9beca4e685f962f0cf6c9908117909255600e80548216909217909155600f80548216739fe46736679d2d9a65f0992f2272de9f3c7fa6e09081179091556010805483169091179055601180548216732279b7a0a67db372996a5fab50d91eaa73d2ebe6908117909155601280548316909117905560138054909116730165878a594ca255338adfa4d48449f69242eb8f1790556000601455348015620000c557600080fd5b506040516200554938038062005549833981016040819052620000e891620008c6565b838386838560006040518060400160405280601281526020017111dbdd995c9b985b98d9541c9bdd1bd8dbdb60721b815250806200012b6200022860201b60201c565b815160208084019190912082518383012060e08290526101008190524660a0818152604080517f8b73c3c69bb8fe3d512ecc4cf759cc79239f7b179b0ffacaa9a75d522b39400f81880181905281830187905260608201869052608082019490945230818401528151808203909301835260c00190528051940193909320919290916080523060c0526101205250508251620001d1925060019150602084019062000811565b50620001df90508362000243565b620001ea8262000284565b620001f5816200032b565b5050506001600160a01b03166101405262000210816200036c565b506200021c81620004e4565b50505050505062000997565b6040805180820190915260018152603160f81b602082015290565b60055460408051918252602082018390527fc565b045403dc03c2eea82b81a0465edad9e2e7fc4d97e11421c209da93d7a93910160405180910390a1600555565b60008111620002ea5760405162461bcd60e51b815260206004820152602760248201527f476f7665726e6f7253657474696e67733a20766f74696e6720706572696f6420604482015266746f6f206c6f7760c81b60648201526084015b60405180910390fd5b60065460408051918252602082018390527f7e3f7f0708a84de9203036abaa450dccc85ad5ff52f78c170f3edb55cf5e8828910160405180910390a1600655565b60075460408051918252602082018390527fccb45da8d5717e6c4544694297c4ba5cf151d455c9bb0ed4fc7a38411bc05461910160405180910390a1600755565b6064811115620003f15760405162461bcd60e51b815260206004820152604360248201527f476f7665726e6f72566f74657351756f72756d4672616374696f6e3a2071756f60448201527f72756d4e756d657261746f72206f7665722071756f72756d44656e6f6d696e616064820152623a37b960e91b608482015260a401620002e1565b6000620003fd6200054d565b905080158015906200040f5750600a54155b156200048a57600a6000016040518060400160405280600063ffffffff16815260200162000448846200057c60201b620020ed1760201c565b6001600160e01b0390811690915282546001810184556000938452602093849020835194909301519091166401000000000263ffffffff909316929092179101555b620004a582600a620005eb60201b6200215a1790919060201c565b505060408051828152602081018490527f0553476bf02ef2726e8ce5ced78d63e26e602e4a2257b1f559418e24b4633997910160405180910390a15050565b600b54604080516001600160a01b03928316815291831660208301527f08f74ea46ef7894f65eabfb5e6e695de773a000b47c529ab559178069b226401910160405180910390a1600b80546001600160a01b0319166001600160a01b0392909216919091179055565b600a5460009015620005755762000570600a6200074760201b620022851760201c565b905090565b5060095490565b60006001600160e01b03821115620005e75760405162461bcd60e51b815260206004820152602760248201527f53616665436173743a2076616c756520646f65736e27742066697420696e20326044820152663234206269747360c81b6064820152608401620002e1565b5090565b8154600090819081620005fe8662000747565b905060008211801562000642575043866200061b6001856200091e565b815481106200062e576200062e62000944565b60009182526020909120015463ffffffff16145b15620006b6576200065e856200057c60201b620020ed1760201c565b866200066c6001856200091e565b815481106200067f576200067f62000944565b9060005260206000200160000160046101000a8154816001600160e01b0302191690836001600160e01b031602179055506200073e565b856000016040518060400160405280620006db43620007aa60201b620022e11760201c565b63ffffffff168152602001620006fc886200057c60201b620020ed1760201c565b6001600160e01b0390811690915282546001810184556000938452602093849020835194909301519091166401000000000263ffffffff909316929092179101555b95939450505050565b80546000908015620007975782620007616001836200091e565b8154811062000774576200077462000944565b60009182526020909120015464010000000090046001600160e01b03166200079a565b60005b6001600160e01b03169392505050565b600063ffffffff821115620005e75760405162461bcd60e51b815260206004820152602660248201527f53616665436173743a2076616c756520646f65736e27742066697420696e203360448201526532206269747360d01b6064820152608401620002e1565b8280546200081f906200095a565b90600052602060002090601f0160209004810192826200084357600085556200088e565b82601f106200085e57805160ff19168380011785556200088e565b828001600101855582156200088e579182015b828111156200088e57825182559160200191906001019062000871565b50620005e79291505b80821115620005e7576000815560010162000897565b6001600160a01b0381168114620008c357600080fd5b50565b600080600080600060a08688031215620008df57600080fd5b8551620008ec81620008ad565b6020870151909550620008ff81620008ad565b6040870151606088015160809098015196999198509695945092505050565b6000828210156200093f57634e487b7160e01b600052601160045260246000fd5b500390565b634e487b7160e01b600052603260045260246000fd5b600181811c908216806200096f57607f821691505b602082108114156200099157634e487b7160e01b600052602260045260246000fd5b50919050565b60805160a05160c05160e051610100516101205161014051614b4962000a0060003960008181610a8901528181612c540152612e6401526000612fdf0152600061302e0152600061300901526000612f6201526000612f8c01526000612fb60152614b496000f3fe6080604052600436106103035760003560e01c80637d5e81e211610190578063c28bc2fa116100dc578063deaaa7cc11610095578063ece40cc11161006f578063ece40cc114610a0b578063f23a6e6114610a2b578063f8ce560a14610a57578063fc0c546a14610a7757600080fd5b8063deaaa7cc14610997578063ea0217cf146109cb578063eb9019d4146109eb57600080fd5b8063c28bc2fa1461089f578063c59057e4146108bf578063c9e8d8d7146108df578063d33219b4146108ff578063d547741f14610931578063dd4e2ba51461095157600080fd5b8063a7713a7011610149578063ac70cda611610123578063ac70cda614610829578063b58131b01461083e578063bc197c8114610853578063c01f9e371461087f57600080fd5b8063a7713a70146107d4578063a890c910146107e9578063ab58fb8e1461080957600080fd5b80637d5e81e21461072b5780638121322c1461074b57806391d148541461076b57806397c3d3341461078b5780639a802a6d1461079f578063a217fddf146107bf57600080fd5b806336568abe1161024f578063544ffc9c116102085780635f398a14116101e25780635f398a14146106ab57806360c4247f146106cb57806370b0f660146106eb5780637b3c71d31461070b57600080fd5b8063544ffc9c1461060c57806354fd4d5014610661578063567813881461068b57600080fd5b806336568abe146105205780633932abb1146105405780633bccf4fd146105555780633e4f49e61461057557806343859632146105a25780634cf7b5b1146105ec57600080fd5b8063160cbed7116102bc5780632656227d116102965780632656227d146104995780632d63f693146104ac5780632f2ff15d146104cc5780632fe3e261146104ec57600080fd5b8063160cbed7146104295780631b94d98714610449578063248a9ca31461046957600080fd5b806301ffc9a71461032b57806302a251a314610360578063034201811461038357806306f3f9e6146103a357806306fdde03146103c3578063150b7a02146103e557600080fd5b366103265730610311610aab565b6001600160a01b03161461032457600080fd5b005b600080fd5b34801561033757600080fd5b5061034b610346366004613a45565b610ac4565b60405190151581526020015b60405180910390f35b34801561036c57600080fd5b50610375610ad5565b604051908152602001610357565b34801561038f57600080fd5b5061037561039e366004613b89565b610ae0565b3480156103af57600080fd5b506103246103be366004613c2f565b610bd8565b3480156103cf57600080fd5b506103d8610c70565b6040516103579190613ca4565b3480156103f157600080fd5b50610410610400366004613ccc565b630a85bd0160e11b949350505050565b6040516001600160e01b03199091168152602001610357565b34801561043557600080fd5b50610375610444366004613ea3565b610d02565b34801561045557600080fd5b50610375610464366004613f32565b610f20565b34801561047557600080fd5b50610375610484366004613c2f565b60009081526020819052604090206001015490565b6103756104a7366004613ea3565b6111dd565b3480156104b857600080fd5b506103756104c7366004613c2f565b6112cf565b3480156104d857600080fd5b506103246104e7366004614003565b611306565b3480156104f857600080fd5b506103757fb3b3f3b703cd84ce352197dcff232b1b5d3cfb2025ce47cf04742d0651f1af8881565b34801561052c57600080fd5b5061032461053b366004614003565b611330565b34801561054c57600080fd5b506103756113ae565b34801561056157600080fd5b50610375610570366004614033565b6113b9565b34801561058157600080fd5b50610595610590366004613c2f565b61142f565b6040516103579190614097565b3480156105ae57600080fd5b5061034b6105bd366004614003565b60008281526008602090815260408083206001600160a01b038516845260030190915290205460ff1692915050565b3480156105f857600080fd5b506103756106073660046140bf565b61143a565b34801561061857600080fd5b50610646610627366004613c2f565b6000908152600860205260409020805460018201546002909201549092565b60408051938452602084019290925290820152606001610357565b34801561066d57600080fd5b506040805180820190915260018152603160f81b60208201526103d8565b34801561069757600080fd5b506103756106a636600461415f565b6115c2565b3480156106b757600080fd5b506103756106c636600461418b565b6115eb565b3480156106d757600080fd5b506103756106e6366004613c2f565b611635565b3480156106f757600080fd5b50610324610706366004613c2f565b6116cb565b34801561071757600080fd5b506103756107263660046141f4565b611757565b34801561073757600080fd5b506103756107463660046140bf565b61179f565b34801561075757600080fd5b506103756107663660046141f4565b611a62565b34801561077757600080fd5b5061034b610786366004614003565b611b45565b34801561079757600080fd5b506064610375565b3480156107ab57600080fd5b506103756107ba36600461424d565b611b6e565b3480156107cb57600080fd5b50610375600081565b3480156107e057600080fd5b50610375611b85565b3480156107f557600080fd5b506103246108043660046142a5565b611ba1565b34801561081557600080fd5b50610375610824366004613c2f565b611c2d565b34801561083557600080fd5b50610375611cd6565b34801561084a57600080fd5b50610375611ce7565b34801561085f57600080fd5b5061041061086e3660046142c2565b63bc197c8160e01b95945050505050565b34801561088b57600080fd5b5061037561089a366004613c2f565b611cf2565b3480156108ab57600080fd5b506103246108ba36600461433f565b611d21565b3480156108cb57600080fd5b506103756108da366004613ea3565b611ded565b3480156108eb57600080fd5b506103756108fa3660046140bf565b611e27565b34801561090b57600080fd5b50600b546001600160a01b03165b6040516001600160a01b039091168152602001610357565b34801561093d57600080fd5b5061032461094c366004614003565b611f84565b34801561095d57600080fd5b506040805180820190915260208082527f737570706f72743d627261766f2671756f72756d3d666f722c6162737461696e908201526103d8565b3480156109a357600080fd5b506103757f150214d74d59b7d1e90c73fc22ef3d991dd0a76b046543d4d80ab92d2a50328f81565b3480156109d757600080fd5b506103246109e6366004613c2f565b611fa9565b3480156109f757600080fd5b50610375610a06366004614382565b612035565b348015610a1757600080fd5b50610324610a26366004613c2f565b612056565b348015610a3757600080fd5b50610410610a463660046143ae565b63f23a6e6160e01b95945050505050565b348015610a6357600080fd5b50610375610a72366004613c2f565b6120e2565b348015610a8357600080fd5b506109197f000000000000000000000000000000000000000000000000000000000000000081565b6000610abf600b546001600160a01b031690565b905090565b6000610acf82612346565b92915050565b6000610abf60065490565b600080610b84610b7c7fb3b3f3b703cd84ce352197dcff232b1b5d3cfb2025ce47cf04742d0651f1af888c8c8c8c604051610b1c929190614416565b60405180910390208b80519060200120604051602001610b61959493929190948552602085019390935260ff9190911660408401526060830152608082015260a00190565b6040516020818303038152906040528051906020012061236b565b8686866123b9565b9050610bca8a828b8b8b8080601f0160208091040260200160405190810160405280939291908181526020018383808284376000920191909152508d92506123d7915050565b9a9950505050505050505050565b610be0610aab565b6001600160a01b0316336001600160a01b031614610c195760405162461bcd60e51b8152600401610c1090614426565b60405180910390fd5b30610c22610aab565b6001600160a01b031614610c645760008036604051610c42929190614416565b604051809103902090505b80610c586003612538565b14610c6257610c4d565b505b610c6d816125b7565b50565b606060018054610c7f9061445d565b80601f0160208091040260200160405190810160405280929190818152602001828054610cab9061445d565b8015610cf85780601f10610ccd57610100808354040283529160200191610cf8565b820191906000526020600020905b815481529060010190602001808311610cdb57829003601f168201915b5050505050905090565b600080610d1186868686611ded565b90506004610d1e8261142f565b6007811115610d2f57610d2f614081565b14610d4c5760405162461bcd60e51b8152600401610c1090614498565b600b546040805163793d064960e11b815290516000926001600160a01b03169163f27a0c92916004808301926020929190829003018186803b158015610d9157600080fd5b505afa158015610da5573d6000803e3d6000fd5b505050506040513d601f19601f82011682018060405250810190610dc991906144d9565b600b5460405163b1c5f42760e01b81529192506001600160a01b03169063b1c5f42790610e03908a908a908a906000908b906004016145bb565b60206040518083038186803b158015610e1b57600080fd5b505afa158015610e2f573d6000803e3d6000fd5b505050506040513d601f19601f82011682018060405250810190610e5391906144d9565b6000838152600c602052604080822092909255600b5491516308f2a0bb60e41b81526001600160a01b0390921691638f2a0bb091610e9e918b918b918b91908b908990600401614609565b600060405180830381600087803b158015610eb857600080fd5b505af1158015610ecc573d6000803e3d6000fd5b505050507f9a2e42fd6722813d69113e7d0079d3d940171428df7373df9c7f7617cfda2892828242610efe9190614677565b6040805192835260208301919091520160405180910390a15095945050505050565b600080600e60009054906101000a90046001600160a01b03166001600160a01b0316632e64cec16040518163ffffffff1660e01b815260040160006040518083038186803b158015610f7157600080fd5b505afa158015610f85573d6000803e3d6000fd5b505050506040513d6000823e601f3d908101601f19168201604052610fad919081019061468f565b90506000805b88518110156110105760115489516001600160a01b03909116908a9083908110610fdf57610fdf6146fc565b60200260200101516001600160a01b031614610ffe5760019150611010565b8061100881614712565b915050610fb3565b50801561102f5760405162461bcd60e51b8152600401610c109061472d565b601054604051634959e08760e01b81523360048201526001600160a01b0390911690634959e0879060240160206040518083038186803b15801561107257600080fd5b505afa158015611086573d6000803e3d6000fd5b505050506040513d601f19601f820116820180604052508101906110aa919061477c565b15156001146110fb5760405162461bcd60e51b815260206004820181905260248201527f4552524f523a2043616c6c6572206973206e6f74206120537570706c696572216044820152606401610c10565b8360405160200161110c919061479e565b6040516020818303038152906040528051906020012082604051602001611133919061479e565b60405160208183030381529060405280519060200120146111b05760405162461bcd60e51b815260206004820152603160248201527f4552524f523a2054686520436f6e746573742076616c75652072657175657374604482015270656420776173206e6f7420666f756e642160781b6064820152608401610c10565b601480549060006111c083614712565b91905055506111d18888888861179f565b98975050505050505050565b6000806111ec86868686611ded565b905060006111f98261142f565b9050600481600781111561120f5761120f614081565b148061122c5750600581600781111561122a5761122a614081565b145b6112485760405162461bcd60e51b8152600401610c1090614498565b60008281526002602081905260409182902001805460ff19166001179055517f712ae1383f79ac853f8d882153778e0260ef8f03b504e2866e0593e04d2b291f906112969084815260200190565b60405180910390a16112ab8288888888612704565b6112b882888888886127a6565b6112c582888888886127b3565b5095945050505050565b60008181526002602090815260408083208151928301909152546001600160401b0316908190525b6001600160401b031692915050565b600082815260208190526040902060010154611321816127ec565b61132b83836127f6565b505050565b6001600160a01b03811633146113a05760405162461bcd60e51b815260206004820152602f60248201527f416363657373436f6e74726f6c3a2063616e206f6e6c792072656e6f756e636560448201526e103937b632b9903337b91039b2b63360891b6064820152608401610c10565b6113aa828261287a565b5050565b6000610abf60055490565b604080517f150214d74d59b7d1e90c73fc22ef3d991dd0a76b046543d4d80ab92d2a50328f602082015290810186905260ff85166060820152600090819061140790610b7c90608001610b61565b9050611424878288604051806020016040528060008152506128df565b979650505050505050565b6000610acf8261290b565b600080805b86518110156114dc57600d5487516001600160a01b039091169088908390811061146b5761146b6146fc565b60200260200101516001600160a01b0316141580156114bc5750600f5487516001600160a01b03909116908890839081106114a8576114a86146fc565b60200260200101516001600160a01b031614155b156114ca57600191506114dc565b806114d481614712565b91505061143f565b5080156114fb5760405162461bcd60e51b8152600401610c109061472d565b60105460405163d0d0062760e01b81523360048201526001600160a01b039091169063d0d006279060240160206040518083038186803b15801561153e57600080fd5b505afa158015611552573d6000803e3d6000fd5b505050506040513d601f19601f82011682018060405250810190611576919061477c565b15156001146115975760405162461bcd60e51b8152600401610c10906147ba565b601480549060006115a783614712565b91905055506115b88686868661179f565b9695505050505050565b6000803390506115e3848285604051806020016040528060008152506128df565b949350505050565b60008033905061142487828888888080601f0160208091040260200160405190810160405280939291908181526020018383808284376000920191909152508a92506123d7915050565b600a546000908061164a575050600954919050565b6000600a6116596001846147fe565b81548110611669576116696146fc565b60009182526020918290206040805180820190915291015463ffffffff81168083526401000000009091046001600160e01b031692820192909252915084106116c057602001516001600160e01b03169392505050565b6115e3600a85612a73565b6116d3610aab565b6001600160a01b0316336001600160a01b0316146117035760405162461bcd60e51b8152600401610c1090614426565b3061170c610aab565b6001600160a01b03161461174e576000803660405161172c929190614416565b604051809103902090505b806117426003612538565b1461174c57611737565b505b610c6d81612b82565b6000803390506115b886828787878080601f0160208091040260200160405190810160405280939291908181526020018383808284376000920191909152506128df92505050565b60006117a9611ce7565b6117b833610a066001436147fe565b10156118205760405162461bcd60e51b815260206004820152603160248201527f476f7665726e6f723a2070726f706f73657220766f7465732062656c6f7720706044820152701c9bdc1bdcd85b081d1a1c995cda1bdb19607a1b6064820152608401610c10565b60006118358686868680519060200120611ded565b905084518651146118585760405162461bcd60e51b8152600401610c1090614815565b83518651146118795760405162461bcd60e51b8152600401610c1090614815565b60008651116118ca5760405162461bcd60e51b815260206004820152601860248201527f476f7665726e6f723a20656d7074792070726f706f73616c00000000000000006044820152606401610c10565b600081815260026020908152604091829020825191820190925281546001600160401b0316908190521561194a5760405162461bcd60e51b815260206004820152602160248201527f476f7665726e6f723a2070726f706f73616c20616c72656164792065786973746044820152607360f81b6064820152608401610c10565b600061195c6119576113ae565b612bc3565b61196543612bc3565b61196f9190614856565b9050600061197e611957610ad5565b6119889083614856565b835467ffffffffffffffff19166001600160401b038416178455905060018301805467ffffffffffffffff19166001600160401b0383161790557f7d84a6263ae0d98d3329bd7b46bb4e8d6f98cd35a7adb45c274c8b7fd5ebd5e084338b8b8d516001600160401b03811115611a0057611a00613ac6565b604051908082528060200260200182016040528015611a3357816020015b6060815260200190600190039081611a1e5790505b508c88888e604051611a4d99989796959493929190614881565b60405180910390a15091979650505050505050565b6000803360105460405163d0d0062760e01b81523360048201529192506001600160a01b03169063d0d006279060240160206040518083038186803b158015611aaa57600080fd5b505afa158015611abe573d6000803e3d6000fd5b505050506040513d601f19601f82011682018060405250810190611ae2919061477c565b1515600114611b035760405162461bcd60e51b8152600401610c10906147ba565b6115b886828787878080601f0160208091040260200160405190810160405280939291908181526020018383808284376000920191909152506128df92505050565b6000918252602082815260408084206001600160a01b0393909316845291905290205460ff1690565b6000611b7b848484612c2b565b90505b9392505050565b600a5460009015611b9a57610abf600a612285565b5060095490565b611ba9610aab565b6001600160a01b0316336001600160a01b031614611bd95760405162461bcd60e51b8152600401610c1090614426565b30611be2610aab565b6001600160a01b031614611c245760008036604051611c02929190614416565b604051809103902090505b80611c186003612538565b14611c2257611c0d565b505b610c6d81612cd0565b600b546000828152600c602052604080822054905163d45c443560e01b81526004810191909152909182916001600160a01b039091169063d45c44359060240160206040518083038186803b158015611c8557600080fd5b505afa158015611c99573d6000803e3d6000fd5b505050506040513d601f19601f82011682018060405250810190611cbd91906144d9565b905080600114611ccd5780611b7e565b60009392505050565b60006001601454610abf91906147fe565b6000610abf60075490565b60008181526002602090815260408083208151928301909152600101546001600160401b0316908190526112f7565b611d29610aab565b6001600160a01b0316336001600160a01b031614611d595760405162461bcd60e51b8152600401610c1090614426565b30611d62610aab565b6001600160a01b031614611da45760008036604051611d82929190614416565b604051809103902090505b80611d986003612538565b14611da257611d8d565b505b611de68483838080601f016020809104026020016040519081016040528093929190818152602001838380828437600092019190915250889250612d39915050565b5050505050565b600084848484604051602001611e069493929190614970565b60408051601f19818403018152919052805160209091012095945050505050565b600080805b8651811015611e895760135487516001600160a01b0390911690889083908110611e5857611e586146fc565b60200260200101516001600160a01b031614611e775760019150611e89565b80611e8181614712565b915050611e2c565b508015611ea85760405162461bcd60e51b8152600401610c109061472d565b60125460405163b1b0c05360e01b81523360048201526001600160a01b039091169063b1b0c0539060240160206040518083038186803b158015611eeb57600080fd5b505afa158015611eff573d6000803e3d6000fd5b505050506040513d601f19601f82011682018060405250810190611f23919061477c565b15156001146115975760405162461bcd60e51b815260206004820152602760248201527f4552524f523a2043616c6c6572206973206e6f7420612053656e696f7220537560448201526670706c6965722160c81b6064820152608401610c10565b600082815260208190526040902060010154611f9f816127ec565b61132b838361287a565b611fb1610aab565b6001600160a01b0316336001600160a01b031614611fe15760405162461bcd60e51b8152600401610c1090614426565b30611fea610aab565b6001600160a01b03161461202c576000803660405161200a929190614416565b604051809103902090505b806120206003612538565b1461202a57612015565b505b610c6d81612d5f565b6000611b7e838361205160408051602081019091526000815290565b612c2b565b61205e610aab565b6001600160a01b0316336001600160a01b03161461208e5760405162461bcd60e51b8152600401610c1090614426565b30612097610aab565b6001600160a01b0316146120d957600080366040516120b7929190614416565b604051809103902090505b806120cd6003612538565b146120d7576120c2565b505b610c6d81612e00565b6000610acf82612e41565b60006001600160e01b038211156121565760405162461bcd60e51b815260206004820152602760248201527f53616665436173743a2076616c756520646f65736e27742066697420696e20326044820152663234206269747360c81b6064820152608401610c10565b5090565b815460009081908161216b86612285565b90506000821180156121a9575043866121856001856147fe565b81548110612195576121956146fc565b60009182526020909120015463ffffffff16145b15612209576121b7856120ed565b866121c36001856147fe565b815481106121d3576121d36146fc565b9060005260206000200160000160046101000a8154816001600160e01b0302191690836001600160e01b03160217905550612277565b856000016040518060400160405280612221436122e1565b63ffffffff168152602001612235886120ed565b6001600160e01b0390811690915282546001810184556000938452602093849020835194909301519091166401000000000263ffffffff909316929092179101555b9250839150505b9250929050565b805460009080156122ce578261229c6001836147fe565b815481106122ac576122ac6146fc565b60009182526020909120015464010000000090046001600160e01b03166122d1565b60005b6001600160e01b03169392505050565b600063ffffffff8211156121565760405162461bcd60e51b815260206004820152602660248201527f53616665436173743a2076616c756520646f65736e27742066697420696e203360448201526532206269747360d01b6064820152608401610c10565b60006001600160e01b03198216636e665ced60e01b1480610acf5750610acf82612efa565b6000610acf612378612f55565b8360405161190160f01b6020820152602281018390526042810182905260009060620160405160208183030381529060405280519060200120905092915050565b60008060006123ca8787878761307c565b915091506112c581613169565b600085815260026020526040812060016123f08861142f565b600781111561240157612401614081565b1461245a5760405162461bcd60e51b815260206004820152602360248201527f476f7665726e6f723a20766f7465206e6f742063757272656e746c792061637460448201526269766560e81b6064820152608401610c10565b604080516020810190915281546001600160401b03169081905260009061248390889086612c2b565b90506124928888888488613324565b83516124e457866001600160a01b03167fb8e138887d0aa13bab447e82de9d5c1777041ecd21ca36ba824ff1e6c07ddda4898884896040516124d794939291906149bb565b60405180910390a2611424565b866001600160a01b03167fe2babfbac5889a709b63bb7f598b324e08bc5a4fb9ec647fb3cbc9ec07eb871289888489896040516125259594939291906149e3565b60405180910390a2979650505050505050565b60006125538254600f81810b600160801b909204900b131590565b1561257157604051631ed9509560e11b815260040160405180910390fd5b508054600f0b6000818152600180840160205260408220805492905583546fffffffffffffffffffffffffffffffff191692016001600160801b03169190911790915590565b606481111561263a5760405162461bcd60e51b815260206004820152604360248201527f476f7665726e6f72566f74657351756f72756d4672616374696f6e3a2071756f60448201527f72756d4e756d657261746f72206f7665722071756f72756d44656e6f6d696e616064820152623a37b960e91b608482015260a401610c10565b6000612644611b85565b905080158015906126555750600a54155b156126ba576040805180820190915260008152600a9060208101612678846120ed565b6001600160e01b0390811690915282546001810184556000938452602093849020835194909301519091166401000000000263ffffffff909316929092179101555b6126c5600a8361215a565b505060408051828152602081018490527f0553476bf02ef2726e8ce5ced78d63e26e602e4a2257b1f559418e24b4633997910160405180910390a15050565b3061270d610aab565b6001600160a01b031614611de65760005b845181101561279e57306001600160a01b0316858281518110612743576127436146fc565b60200260200101516001600160a01b0316141561278e5761278e83828151811061276f5761276f6146fc565b60200260200101518051906020012060036134a390919063ffffffff16565b61279781614712565b905061271e565b505050505050565b611de685858585856134df565b306127bc610aab565b6001600160a01b031614611de657600354600f81810b600160801b909204900b1315611de6576000600355611de6565b610c6d8133613553565b6128008282611b45565b6113aa576000828152602081815260408083206001600160a01b03851684529091529020805460ff191660011790556128363390565b6001600160a01b0316816001600160a01b0316837f2f8788117e7eff1d82e926ec794901d17c78024a50270940304540a733656f0d60405160405180910390a45050565b6128848282611b45565b156113aa576000828152602081815260408083206001600160a01b0385168085529252808320805460ff1916905551339285917ff6391f5c32d9c69d2a47ea670b442974b53935d1edc7fd64eb21e047a839171b9190a45050565b6000612902858585856128fd60408051602081019091526000815290565b6123d7565b95945050505050565b600080612917836135b7565b9050600481600781111561292d5761292d614081565b146129385792915050565b6000838152600c602052604090205480612953575092915050565b600b54604051632ab0f52960e01b8152600481018390526001600160a01b0390911690632ab0f5299060240160206040518083038186803b15801561299757600080fd5b505afa1580156129ab573d6000803e3d6000fd5b505050506040513d601f19601f820116820180604052508101906129cf919061477c565b156129de575060079392505050565b600b54604051632c258a9f60e11b8152600481018390526001600160a01b039091169063584b153e9060240160206040518083038186803b158015612a2257600080fd5b505afa158015612a36573d6000803e3d6000fd5b505050506040513d601f19601f82011682018060405250810190612a5a919061477c565b15612a69575060059392505050565b5060029392505050565b6000438210612ac45760405162461bcd60e51b815260206004820181905260248201527f436865636b706f696e74733a20626c6f636b206e6f7420796574206d696e65646044820152606401610c10565b825460005b81811015612b29576000612add82846136c4565b905084866000018281548110612af557612af56146fc565b60009182526020909120015463ffffffff161115612b1557809250612b23565b612b20816001614677565b91505b50612ac9565b8115612b6d5784612b3b6001846147fe565b81548110612b4b57612b4b6146fc565b60009182526020909120015464010000000090046001600160e01b0316612b70565b60005b6001600160e01b031695945050505050565b60055460408051918252602082018390527fc565b045403dc03c2eea82b81a0465edad9e2e7fc4d97e11421c209da93d7a93910160405180910390a1600555565b60006001600160401b038211156121565760405162461bcd60e51b815260206004820152602660248201527f53616665436173743a2076616c756520646f65736e27742066697420696e203660448201526534206269747360d01b6064820152608401610c10565b604051630748d63560e31b81526001600160a01b038481166004830152602482018490526000917f000000000000000000000000000000000000000000000000000000000000000090911690633a46b1a89060440160206040518083038186803b158015612c9857600080fd5b505afa158015612cac573d6000803e3d6000fd5b505050506040513d601f19601f82011682018060405250810190611b7b91906144d9565b600b54604080516001600160a01b03928316815291831660208301527f08f74ea46ef7894f65eabfb5e6e695de773a000b47c529ab559178069b226401910160405180910390a1600b80546001600160a01b0319166001600160a01b0392909216919091179055565b6060611b7b848484604051806060016040528060298152602001614aeb602991396136df565b60008111612dbf5760405162461bcd60e51b815260206004820152602760248201527f476f7665726e6f7253657474696e67733a20766f74696e6720706572696f6420604482015266746f6f206c6f7760c81b6064820152608401610c10565b60065460408051918252602082018390527f7e3f7f0708a84de9203036abaa450dccc85ad5ff52f78c170f3edb55cf5e8828910160405180910390a1600655565b60075460408051918252602082018390527fccb45da8d5717e6c4544694297c4ba5cf151d455c9bb0ed4fc7a38411bc05461910160405180910390a1600755565b60006064612e4e83611635565b604051632394e7a360e21b8152600481018590527f00000000000000000000000000000000000000000000000000000000000000006001600160a01b031690638e539e8c9060240160206040518083038186803b158015612eae57600080fd5b505afa158015612ec2573d6000803e3d6000fd5b505050506040513d601f19601f82011682018060405250810190612ee691906144d9565b612ef09190614a1d565b610acf9190614a3c565b60006001600160e01b0319821663bf26d89760e01b1480612f2b57506001600160e01b031982166379dd796f60e01b145b80612f4657506001600160e01b03198216630271189760e51b145b80610acf5750610acf82613805565b6000306001600160a01b037f000000000000000000000000000000000000000000000000000000000000000016148015612fae57507f000000000000000000000000000000000000000000000000000000000000000046145b15612fd857507f000000000000000000000000000000000000000000000000000000000000000090565b50604080517f00000000000000000000000000000000000000000000000000000000000000006020808301919091527f0000000000000000000000000000000000000000000000000000000000000000828401527f000000000000000000000000000000000000000000000000000000000000000060608301524660808301523060a0808401919091528351808403909101815260c0909201909252805191012090565b6000807f7fffffffffffffffffffffffffffffff5d576e7357a4501ddfe92f46681b20a08311156130b35750600090506003613160565b8460ff16601b141580156130cb57508460ff16601c14155b156130dc5750600090506004613160565b6040805160008082526020820180845289905260ff881692820192909252606081018690526080810185905260019060a0016020604051602081039080840390855afa158015613130573d6000803e3d6000fd5b5050604051601f1901519150506001600160a01b03811661315957600060019250925050613160565b9150600090505b94509492505050565b600081600481111561317d5761317d614081565b14156131865750565b600181600481111561319a5761319a614081565b14156131e85760405162461bcd60e51b815260206004820152601860248201527f45434453413a20696e76616c6964207369676e617475726500000000000000006044820152606401610c10565b60028160048111156131fc576131fc614081565b141561324a5760405162461bcd60e51b815260206004820152601f60248201527f45434453413a20696e76616c6964207369676e6174757265206c656e677468006044820152606401610c10565b600381600481111561325e5761325e614081565b14156132b75760405162461bcd60e51b815260206004820152602260248201527f45434453413a20696e76616c6964207369676e6174757265202773272076616c604482015261756560f01b6064820152608401610c10565b60048160048111156132cb576132cb614081565b1415610c6d5760405162461bcd60e51b815260206004820152602260248201527f45434453413a20696e76616c6964207369676e6174757265202776272076616c604482015261756560f01b6064820152608401610c10565b60008581526008602090815260408083206001600160a01b0388168452600381019092529091205460ff16156133ac5760405162461bcd60e51b815260206004820152602760248201527f476f7665726e6f72566f74696e6753696d706c653a20766f746520616c726561604482015266191e4818d85cdd60ca1b6064820152608401610c10565b6001600160a01b03851660009081526003820160205260408120805460ff1916600117905560ff168460ff1614156133fd57828160000160008282546133f29190614677565b9091555061279e9050565b60ff84166001141561341d57828160010160008282546133f29190614677565b60ff84166002141561343d57828160020160008282546133f29190614677565b60405162461bcd60e51b815260206004820152603560248201527f476f7665726e6f72566f74696e6753696d706c653a20696e76616c69642076616044820152746c756520666f7220656e756d20566f74655479706560581b6064820152608401610c10565b8154600160801b90819004600f0b6000818152600180860160205260409091209390935583546001600160801b03908116939091011602179055565b600b5460405163e38335e560e01b81526001600160a01b039091169063e38335e590349061351a9088908890889060009089906004016145bb565b6000604051808303818588803b15801561353357600080fd5b505af1158015613547573d6000803e3d6000fd5b50505050505050505050565b61355d8282611b45565b6113aa57613575816001600160a01b0316601461383a565b61358083602061383a565b604051602001613591929190614a5e565b60408051601f198184030181529082905262461bcd60e51b8252610c1091600401613ca4565b600081815260026020819052604082209081015460ff16156135dc5750600792915050565b6002810154610100900460ff16156135f75750600292915050565b6000613602846112cf565b9050806136515760405162461bcd60e51b815260206004820152601d60248201527f476f7665726e6f723a20756e6b6e6f776e2070726f706f73616c2069640000006044820152606401610c10565b438110613662575060009392505050565b600061366d85611cf2565b905043811061368157506001949350505050565b61368a856139d5565b80156136a9575060008581526008602052604090208054600190910154115b156136b957506004949350505050565b506003949350505050565b60006136d36002848418614a3c565b611b7e90848416614677565b6060824710156137405760405162461bcd60e51b815260206004820152602660248201527f416464726573733a20696e73756666696369656e742062616c616e636520666f6044820152651c8818d85b1b60d21b6064820152608401610c10565b6001600160a01b0385163b6137975760405162461bcd60e51b815260206004820152601d60248201527f416464726573733a2063616c6c20746f206e6f6e2d636f6e74726163740000006044820152606401610c10565b600080866001600160a01b031685876040516137b3919061479e565b60006040518083038185875af1925050503d80600081146137f0576040519150601f19603f3d011682016040523d82523d6000602084013e6137f5565b606091505b5091509150611424828286613a0c565b60006001600160e01b03198216637965db0b60e01b1480610acf57506301ffc9a760e01b6001600160e01b0319831614610acf565b60606000613849836002614a1d565b613854906002614677565b6001600160401b0381111561386b5761386b613ac6565b6040519080825280601f01601f191660200182016040528015613895576020820181803683370190505b509050600360fc1b816000815181106138b0576138b06146fc565b60200101906001600160f81b031916908160001a905350600f60fb1b816001815181106138df576138df6146fc565b60200101906001600160f81b031916908160001a9053506000613903846002614a1d565b61390e906001614677565b90505b6001811115613986576f181899199a1a9b1b9c1cb0b131b232b360811b85600f1660108110613942576139426146fc565b1a60f81b828281518110613958576139586146fc565b60200101906001600160f81b031916908160001a90535060049490941c9361397f81614ad3565b9050613911565b508315611b7e5760405162461bcd60e51b815260206004820181905260248201527f537472696e67733a20686578206c656e67746820696e73756666696369656e746044820152606401610c10565b6000818152600860205260408120600281015460018201546139f79190614677565b613a03610a72856112cf565b11159392505050565b60608315613a1b575081611b7e565b825115613a2b5782518084602001fd5b8160405162461bcd60e51b8152600401610c109190613ca4565b600060208284031215613a5757600080fd5b81356001600160e01b031981168114611b7e57600080fd5b803560ff81168114613a8057600080fd5b919050565b60008083601f840112613a9757600080fd5b5081356001600160401b03811115613aae57600080fd5b60208301915083602082850101111561227e57600080fd5b634e487b7160e01b600052604160045260246000fd5b604051601f8201601f191681016001600160401b0381118282101715613b0457613b04613ac6565b604052919050565b60006001600160401b03821115613b2557613b25613ac6565b50601f01601f191660200190565b600082601f830112613b4457600080fd5b8135613b57613b5282613b0c565b613adc565b818152846020838601011115613b6c57600080fd5b816020850160208301376000918101602001919091529392505050565b60008060008060008060008060e0898b031215613ba557600080fd5b88359750613bb560208a01613a6f565b965060408901356001600160401b0380821115613bd157600080fd5b613bdd8c838d01613a85565b909850965060608b0135915080821115613bf657600080fd5b50613c038b828c01613b33565b945050613c1260808a01613a6f565b925060a0890135915060c089013590509295985092959890939650565b600060208284031215613c4157600080fd5b5035919050565b60005b83811015613c63578181015183820152602001613c4b565b83811115613c72576000848401525b50505050565b60008151808452613c90816020860160208601613c48565b601f01601f19169290920160200192915050565b602081526000611b7e6020830184613c78565b6001600160a01b0381168114610c6d57600080fd5b60008060008060808587031215613ce257600080fd5b8435613ced81613cb7565b93506020850135613cfd81613cb7565b92506040850135915060608501356001600160401b03811115613d1f57600080fd5b613d2b87828801613b33565b91505092959194509250565b60006001600160401b03821115613d5057613d50613ac6565b5060051b60200190565b600082601f830112613d6b57600080fd5b81356020613d7b613b5283613d37565b82815260059290921b84018101918181019086841115613d9a57600080fd5b8286015b84811015613dbe578035613db181613cb7565b8352918301918301613d9e565b509695505050505050565b600082601f830112613dda57600080fd5b81356020613dea613b5283613d37565b82815260059290921b84018101918181019086841115613e0957600080fd5b8286015b84811015613dbe5780358352918301918301613e0d565b600082601f830112613e3557600080fd5b81356020613e45613b5283613d37565b82815260059290921b84018101918181019086841115613e6457600080fd5b8286015b84811015613dbe5780356001600160401b03811115613e875760008081fd5b613e958986838b0101613b33565b845250918301918301613e68565b60008060008060808587031215613eb957600080fd5b84356001600160401b0380821115613ed057600080fd5b613edc88838901613d5a565b95506020870135915080821115613ef257600080fd5b613efe88838901613dc9565b94506040870135915080821115613f1457600080fd5b50613f2187828801613e24565b949793965093946060013593505050565b600080600080600060a08688031215613f4a57600080fd5b85356001600160401b0380821115613f6157600080fd5b613f6d89838a01613d5a565b96506020880135915080821115613f8357600080fd5b613f8f89838a01613dc9565b95506040880135915080821115613fa557600080fd5b613fb189838a01613e24565b94506060880135915080821115613fc757600080fd5b613fd389838a01613b33565b93506080880135915080821115613fe957600080fd5b50613ff688828901613b33565b9150509295509295909350565b6000806040838503121561401657600080fd5b82359150602083013561402881613cb7565b809150509250929050565b600080600080600060a0868803121561404b57600080fd5b8535945061405b60208701613a6f565b935061406960408701613a6f565b94979396509394606081013594506080013592915050565b634e487b7160e01b600052602160045260246000fd5b60208101600883106140b957634e487b7160e01b600052602160045260246000fd5b91905290565b600080600080608085870312156140d557600080fd5b84356001600160401b03808211156140ec57600080fd5b6140f888838901613d5a565b9550602087013591508082111561410e57600080fd5b61411a88838901613dc9565b9450604087013591508082111561413057600080fd5b61413c88838901613e24565b9350606087013591508082111561415257600080fd5b50613d2b87828801613b33565b6000806040838503121561417257600080fd5b8235915061418260208401613a6f565b90509250929050565b6000806000806000608086880312156141a357600080fd5b853594506141b360208701613a6f565b935060408601356001600160401b03808211156141cf57600080fd5b6141db89838a01613a85565b90955093506060880135915080821115613fe957600080fd5b6000806000806060858703121561420a57600080fd5b8435935061421a60208601613a6f565b925060408501356001600160401b0381111561423557600080fd5b61424187828801613a85565b95989497509550505050565b60008060006060848603121561426257600080fd5b833561426d81613cb7565b92506020840135915060408401356001600160401b0381111561428f57600080fd5b61429b86828701613b33565b9150509250925092565b6000602082840312156142b757600080fd5b8135611b7e81613cb7565b600080600080600060a086880312156142da57600080fd5b85356142e581613cb7565b945060208601356142f581613cb7565b935060408601356001600160401b038082111561431157600080fd5b61431d89838a01613dc9565b9450606088013591508082111561433357600080fd5b613fd389838a01613dc9565b6000806000806060858703121561435557600080fd5b843561436081613cb7565b93506020850135925060408501356001600160401b0381111561423557600080fd5b6000806040838503121561439557600080fd5b82356143a081613cb7565b946020939093013593505050565b600080600080600060a086880312156143c657600080fd5b85356143d181613cb7565b945060208601356143e181613cb7565b9350604086013592506060860135915060808601356001600160401b0381111561440a57600080fd5b613ff688828901613b33565b8183823760009101908152919050565b60208082526018908201527f476f7665726e6f723a206f6e6c79476f7665726e616e63650000000000000000604082015260600190565b600181811c9082168061447157607f821691505b6020821081141561449257634e487b7160e01b600052602260045260246000fd5b50919050565b60208082526021908201527f476f7665726e6f723a2070726f706f73616c206e6f74207375636365737366756040820152601b60fa1b606082015260800190565b6000602082840312156144eb57600080fd5b5051919050565b600081518084526020808501945080840160005b8381101561452b5781516001600160a01b031687529582019590820190600101614506565b509495945050505050565b600081518084526020808501945080840160005b8381101561452b5781518752958201959082019060010161454a565b600081518084526020808501808196508360051b8101915082860160005b858110156145ae57828403895261459c848351613c78565b98850198935090840190600101614584565b5091979650505050505050565b60a0815260006145ce60a08301886144f2565b82810360208401526145e08188614536565b905082810360408401526145f48187614566565b60608401959095525050608001529392505050565b60c08152600061461c60c08301896144f2565b828103602084015261462e8189614536565b905082810360408401526146428188614566565b60608401969096525050608081019290925260a0909101529392505050565b634e487b7160e01b600052601160045260246000fd5b6000821982111561468a5761468a614661565b500190565b6000602082840312156146a157600080fd5b81516001600160401b038111156146b757600080fd5b8201601f810184136146c857600080fd5b80516146d6613b5282613b0c565b8181528560208385010111156146eb57600080fd5b612902826020830160208601613c48565b634e487b7160e01b600052603260045260246000fd5b600060001982141561472657614726614661565b5060010190565b6020808252602f908201527f4552524f523a204d656d62657220747269656420746f2063616c6c20616e207560408201526e1b9d985b1a59081c1c9bdc1bdcd85b608a1b606082015260800190565b60006020828403121561478e57600080fd5b81518015158114611b7e57600080fd5b600082516147b0818460208701613c48565b9190910192915050565b60208082526024908201527f4552524f523a2043616c6c6572206973206e6f74206120426f617264204d656d6040820152636265722160e01b606082015260800190565b60008282101561481057614810614661565b500390565b60208082526021908201527f476f7665726e6f723a20696e76616c69642070726f706f73616c206c656e67746040820152600d60fb1b606082015260800190565b60006001600160401b0380831681851680830382111561487857614878614661565b01949350505050565b60006101208b8352602060018060a01b038c16818501528160408501526148aa8285018c6144f2565b915083820360608501526148be828b614536565b915083820360808501528189518084528284019150828160051b850101838c0160005b8381101561490f57601f198784030185526148fd838351613c78565b948601949250908501906001016148e1565b505086810360a0880152614923818c614566565b94505050505061493e60c08401876001600160401b03169052565b6001600160401b03851660e08401528281036101008401526149608185613c78565b9c9b505050505050505050505050565b60808152600061498360808301876144f2565b82810360208401526149958187614536565b905082810360408401526149a98186614566565b91505082606083015295945050505050565b84815260ff841660208201528260408201526080606082015260006115b86080830184613c78565b85815260ff8516602082015283604082015260a060608201526000614a0b60a0830185613c78565b82810360808401526111d18185613c78565b6000816000190483118215151615614a3757614a37614661565b500290565b600082614a5957634e487b7160e01b600052601260045260246000fd5b500490565b7f416363657373436f6e74726f6c3a206163636f756e7420000000000000000000815260008351614a96816017850160208801613c48565b7001034b99036b4b9b9b4b733903937b6329607d1b6017918401918201528351614ac7816028840160208801613c48565b01602801949350505050565b600081614ae257614ae2614661565b50600019019056fe416464726573733a206c6f772d6c6576656c2063616c6c20776974682076616c7565206661696c6564a264697066735822122079e9729f783fd666a52fad9eee669a865c63dfd9fc7f244f11ce011f34bf05d564736f6c63430008090033",
  "linkReferences": {},
  "deployedLinkReferences": {}
}