{
  "_format": "hh-sol-artifact-1",
  "contractName": "GovernanceProtocol",
  "sourceName": "contracts/governance/GovernanceProtocol.sol",
  "abi": [
    {
      "inputs": [
        {
          "internalType": "contract IVotes",
          "name": "_token",
          "type": "address"
        },
        {
          "internalType": "contract TimelockController",
          "name": "_timelock",
          "type": "address"
        },
        {
          "internalType": "uint256",
          "name": "_quorumPercentage",
          "type": "uint256"
        },
        {
          "internalType": "uint256",
          "name": "_votingPeriod",
          "type": "uint256"
        },
        {
          "internalType": "uint256",
          "name": "_votingDelay",
          "type": "uint256"
        }
      ],
      "stateMutability": "nonpayable",
      "type": "constructor"
    },
    {
      "inputs": [],
      "name": "Empty",
      "type": "error"
    },
    {
      "anonymous": false,
      "inputs": [
        {
          "indexed": false,
          "internalType": "uint256",
          "name": "proposalId",
          "type": "uint256"
        }
      ],
      "name": "ProposalCanceled",
      "type": "event"
    },
    {
      "anonymous": false,
      "inputs": [
        {
          "indexed": false,
          "internalType": "uint256",
          "name": "proposalId",
          "type": "uint256"
        },
        {
          "indexed": false,
          "internalType": "address",
          "name": "proposer",
          "type": "address"
        },
        {
          "indexed": false,
          "internalType": "address[]",
          "name": "targets",
          "type": "address[]"
        },
        {
          "indexed": false,
          "internalType": "uint256[]",
          "name": "values",
          "type": "uint256[]"
        },
        {
          "indexed": false,
          "internalType": "string[]",
          "name": "signatures",
          "type": "string[]"
        },
        {
          "indexed": false,
          "internalType": "bytes[]",
          "name": "calldatas",
          "type": "bytes[]"
        },
        {
          "indexed": false,
          "internalType": "uint256",
          "name": "startBlock",
          "type": "uint256"
        },
        {
          "indexed": false,
          "internalType": "uint256",
          "name": "endBlock",
          "type": "uint256"
        },
        {
          "indexed": false,
          "internalType": "string",
          "name": "description",
          "type": "string"
        }
      ],
      "name": "ProposalCreated",
      "type": "event"
    },
    {
      "anonymous": false,
      "inputs": [
        {
          "indexed": false,
          "internalType": "uint256",
          "name": "proposalId",
          "type": "uint256"
        }
      ],
      "name": "ProposalExecuted",
      "type": "event"
    },
    {
      "anonymous": false,
      "inputs": [
        {
          "indexed": false,
          "internalType": "uint256",
          "name": "proposalId",
          "type": "uint256"
        },
        {
          "indexed": false,
          "internalType": "uint256",
          "name": "eta",
          "type": "uint256"
        }
      ],
      "name": "ProposalQueued",
      "type": "event"
    },
    {
      "anonymous": false,
      "inputs": [
        {
          "indexed": false,
          "internalType": "uint256",
          "name": "oldProposalThreshold",
          "type": "uint256"
        },
        {
          "indexed": false,
          "internalType": "uint256",
          "name": "newProposalThreshold",
          "type": "uint256"
        }
      ],
      "name": "ProposalThresholdSet",
      "type": "event"
    },
    {
      "anonymous": false,
      "inputs": [
        {
          "indexed": false,
          "internalType": "uint256",
          "name": "oldQuorumNumerator",
          "type": "uint256"
        },
        {
          "indexed": false,
          "internalType": "uint256",
          "name": "newQuorumNumerator",
          "type": "uint256"
        }
      ],
      "name": "QuorumNumeratorUpdated",
      "type": "event"
    },
    {
      "anonymous": false,
      "inputs": [
        {
          "indexed": true,
          "internalType": "bytes32",
          "name": "role",
          "type": "bytes32"
        },
        {
          "indexed": true,
          "internalType": "bytes32",
          "name": "previousAdminRole",
          "type": "bytes32"
        },
        {
          "indexed": true,
          "internalType": "bytes32",
          "name": "newAdminRole",
          "type": "bytes32"
        }
      ],
      "name": "RoleAdminChanged",
      "type": "event"
    },
    {
      "anonymous": false,
      "inputs": [
        {
          "indexed": true,
          "internalType": "bytes32",
          "name": "role",
          "type": "bytes32"
        },
        {
          "indexed": true,
          "internalType": "address",
          "name": "account",
          "type": "address"
        },
        {
          "indexed": true,
          "internalType": "address",
          "name": "sender",
          "type": "address"
        }
      ],
      "name": "RoleGranted",
      "type": "event"
    },
    {
      "anonymous": false,
      "inputs": [
        {
          "indexed": true,
          "internalType": "bytes32",
          "name": "role",
          "type": "bytes32"
        },
        {
          "indexed": true,
          "internalType": "address",
          "name": "account",
          "type": "address"
        },
        {
          "indexed": true,
          "internalType": "address",
          "name": "sender",
          "type": "address"
        }
      ],
      "name": "RoleRevoked",
      "type": "event"
    },
    {
      "anonymous": false,
      "inputs": [
        {
          "indexed": false,
          "internalType": "address",
          "name": "oldTimelock",
          "type": "address"
        },
        {
          "indexed": false,
          "internalType": "address",
          "name": "newTimelock",
          "type": "address"
        }
      ],
      "name": "TimelockChange",
      "type": "event"
    },
    {
      "anonymous": false,
      "inputs": [
        {
          "indexed": true,
          "internalType": "address",
          "name": "voter",
          "type": "address"
        },
        {
          "indexed": false,
          "internalType": "uint256",
          "name": "proposalId",
          "type": "uint256"
        },
        {
          "indexed": false,
          "internalType": "uint8",
          "name": "support",
          "type": "uint8"
        },
        {
          "indexed": false,
          "internalType": "uint256",
          "name": "weight",
          "type": "uint256"
        },
        {
          "indexed": false,
          "internalType": "string",
          "name": "reason",
          "type": "string"
        }
      ],
      "name": "VoteCast",
      "type": "event"
    },
    {
      "anonymous": false,
      "inputs": [
        {
          "indexed": true,
          "internalType": "address",
          "name": "voter",
          "type": "address"
        },
        {
          "indexed": false,
          "internalType": "uint256",
          "name": "proposalId",
          "type": "uint256"
        },
        {
          "indexed": false,
          "internalType": "uint8",
          "name": "support",
          "type": "uint8"
        },
        {
          "indexed": false,
          "internalType": "uint256",
          "name": "weight",
          "type": "uint256"
        },
        {
          "indexed": false,
          "internalType": "string",
          "name": "reason",
          "type": "string"
        },
        {
          "indexed": false,
          "internalType": "bytes",
          "name": "params",
          "type": "bytes"
        }
      ],
      "name": "VoteCastWithParams",
      "type": "event"
    },
    {
      "anonymous": false,
      "inputs": [
        {
          "indexed": false,
          "internalType": "uint256",
          "name": "oldVotingDelay",
          "type": "uint256"
        },
        {
          "indexed": false,
          "internalType": "uint256",
          "name": "newVotingDelay",
          "type": "uint256"
        }
      ],
      "name": "VotingDelaySet",
      "type": "event"
    },
    {
      "anonymous": false,
      "inputs": [
        {
          "indexed": false,
          "internalType": "uint256",
          "name": "oldVotingPeriod",
          "type": "uint256"
        },
        {
          "indexed": false,
          "internalType": "uint256",
          "name": "newVotingPeriod",
          "type": "uint256"
        }
      ],
      "name": "VotingPeriodSet",
      "type": "event"
    },
    {
      "inputs": [
        {
          "internalType": "address[]",
          "name": "targets",
          "type": "address[]"
        },
        {
          "internalType": "uint256[]",
          "name": "values",
          "type": "uint256[]"
        },
        {
          "internalType": "bytes[]",
          "name": "calldatas",
          "type": "bytes[]"
        },
        {
          "internalType": "string",
          "name": "description",
          "type": "string"
        }
      ],
      "name": "AdministrativePropose",
      "outputs": [
        {
          "internalType": "uint256",
          "name": "",
          "type": "uint256"
        }
      ],
      "stateMutability": "nonpayable",
      "type": "function"
    },
    {
      "inputs": [],
      "name": "BALLOT_TYPEHASH",
      "outputs": [
        {
          "internalType": "bytes32",
          "name": "",
          "type": "bytes32"
        }
      ],
      "stateMutability": "view",
      "type": "function"
    },
    {
      "inputs": [],
      "name": "COUNTING_MODE",
      "outputs": [
        {
          "internalType": "string",
          "name": "",
          "type": "string"
        }
      ],
      "stateMutability": "pure",
      "type": "function"
    },
    {
      "inputs": [],
      "name": "DEFAULT_ADMIN_ROLE",
      "outputs": [
        {
          "internalType": "bytes32",
          "name": "",
          "type": "bytes32"
        }
      ],
      "stateMutability": "view",
      "type": "function"
    },
    {
      "inputs": [],
      "name": "EXTENDED_BALLOT_TYPEHASH",
      "outputs": [
        {
          "internalType": "bytes32",
          "name": "",
          "type": "bytes32"
        }
      ],
      "stateMutability": "view",
      "type": "function"
    },
    {
      "inputs": [
        {
          "internalType": "uint256",
          "name": "proposalId",
          "type": "uint256"
        },
        {
          "internalType": "uint8",
          "name": "support",
          "type": "uint8"
        },
        {
          "internalType": "string",
          "name": "reason",
          "type": "string"
        }
      ],
      "name": "castBoardVoteWithReason",
      "outputs": [
        {
          "internalType": "uint256",
          "name": "",
          "type": "uint256"
        }
      ],
      "stateMutability": "nonpayable",
      "type": "function"
    },
    {
      "inputs": [
        {
          "internalType": "uint256",
          "name": "proposalId",
          "type": "uint256"
        },
        {
          "internalType": "uint8",
          "name": "support",
          "type": "uint8"
        }
      ],
      "name": "castVote",
      "outputs": [
        {
          "internalType": "uint256",
          "name": "",
          "type": "uint256"
        }
      ],
      "stateMutability": "nonpayable",
      "type": "function"
    },
    {
      "inputs": [
        {
          "internalType": "uint256",
          "name": "proposalId",
          "type": "uint256"
        },
        {
          "internalType": "uint8",
          "name": "support",
          "type": "uint8"
        },
        {
          "internalType": "uint8",
          "name": "v",
          "type": "uint8"
        },
        {
          "internalType": "bytes32",
          "name": "r",
          "type": "bytes32"
        },
        {
          "internalType": "bytes32",
          "name": "s",
          "type": "bytes32"
        }
      ],
      "name": "castVoteBySig",
      "outputs": [
        {
          "internalType": "uint256",
          "name": "",
          "type": "uint256"
        }
      ],
      "stateMutability": "nonpayable",
      "type": "function"
    },
    {
      "inputs": [
        {
          "internalType": "uint256",
          "name": "proposalId",
          "type": "uint256"
        },
        {
          "internalType": "uint8",
          "name": "support",
          "type": "uint8"
        },
        {
          "internalType": "string",
          "name": "reason",
          "type": "string"
        }
      ],
      "name": "castVoteWithReason",
      "outputs": [
        {
          "internalType": "uint256",
          "name": "",
          "type": "uint256"
        }
      ],
      "stateMutability": "nonpayable",
      "type": "function"
    },
    {
      "inputs": [
        {
          "internalType": "uint256",
          "name": "proposalId",
          "type": "uint256"
        },
        {
          "internalType": "uint8",
          "name": "support",
          "type": "uint8"
        },
        {
          "internalType": "string",
          "name": "reason",
          "type": "string"
        },
        {
          "internalType": "bytes",
          "name": "params",
          "type": "bytes"
        }
      ],
      "name": "castVoteWithReasonAndParams",
      "outputs": [
        {
          "internalType": "uint256",
          "name": "",
          "type": "uint256"
        }
      ],
      "stateMutability": "nonpayable",
      "type": "function"
    },
    {
      "inputs": [
        {
          "internalType": "uint256",
          "name": "proposalId",
          "type": "uint256"
        },
        {
          "internalType": "uint8",
          "name": "support",
          "type": "uint8"
        },
        {
          "internalType": "string",
          "name": "reason",
          "type": "string"
        },
        {
          "internalType": "bytes",
          "name": "params",
          "type": "bytes"
        },
        {
          "internalType": "uint8",
          "name": "v",
          "type": "uint8"
        },
        {
          "internalType": "bytes32",
          "name": "r",
          "type": "bytes32"
        },
        {
          "internalType": "bytes32",
          "name": "s",
          "type": "bytes32"
        }
      ],
      "name": "castVoteWithReasonAndParamsBySig",
      "outputs": [
        {
          "internalType": "uint256",
          "name": "",
          "type": "uint256"
        }
      ],
      "stateMutability": "nonpayable",
      "type": "function"
    },
    {
      "inputs": [
        {
          "internalType": "address[]",
          "name": "targets",
          "type": "address[]"
        },
        {
          "internalType": "uint256[]",
          "name": "values",
          "type": "uint256[]"
        },
        {
          "internalType": "bytes[]",
          "name": "calldatas",
          "type": "bytes[]"
        },
        {
          "internalType": "bytes32",
          "name": "descriptionHash",
          "type": "bytes32"
        }
      ],
      "name": "execute",
      "outputs": [
        {
          "internalType": "uint256",
          "name": "",
          "type": "uint256"
        }
      ],
      "stateMutability": "payable",
      "type": "function"
    },
    {
      "inputs": [
        {
          "internalType": "bytes32",
          "name": "role",
          "type": "bytes32"
        }
      ],
      "name": "getRoleAdmin",
      "outputs": [
        {
          "internalType": "bytes32",
          "name": "",
          "type": "bytes32"
        }
      ],
      "stateMutability": "view",
      "type": "function"
    },
    {
      "inputs": [
        {
          "internalType": "address",
          "name": "account",
          "type": "address"
        },
        {
          "internalType": "uint256",
          "name": "blockNumber",
          "type": "uint256"
        }
      ],
      "name": "getVotes",
      "outputs": [
        {
          "internalType": "uint256",
          "name": "",
          "type": "uint256"
        }
      ],
      "stateMutability": "view",
      "type": "function"
    },
    {
      "inputs": [
        {
          "internalType": "address",
          "name": "account",
          "type": "address"
        },
        {
          "internalType": "uint256",
          "name": "blockNumber",
          "type": "uint256"
        },
        {
          "internalType": "bytes",
          "name": "params",
          "type": "bytes"
        }
      ],
      "name": "getVotesWithParams",
      "outputs": [
        {
          "internalType": "uint256",
          "name": "",
          "type": "uint256"
        }
      ],
      "stateMutability": "view",
      "type": "function"
    },
    {
      "inputs": [
        {
          "internalType": "bytes32",
          "name": "role",
          "type": "bytes32"
        },
        {
          "internalType": "address",
          "name": "account",
          "type": "address"
        }
      ],
      "name": "grantRole",
      "outputs": [],
      "stateMutability": "nonpayable",
      "type": "function"
    },
    {
      "inputs": [
        {
          "internalType": "bytes32",
          "name": "role",
          "type": "bytes32"
        },
        {
          "internalType": "address",
          "name": "account",
          "type": "address"
        }
      ],
      "name": "hasRole",
      "outputs": [
        {
          "internalType": "bool",
          "name": "",
          "type": "bool"
        }
      ],
      "stateMutability": "view",
      "type": "function"
    },
    {
      "inputs": [
        {
          "internalType": "uint256",
          "name": "proposalId",
          "type": "uint256"
        },
        {
          "internalType": "address",
          "name": "account",
          "type": "address"
        }
      ],
      "name": "hasVoted",
      "outputs": [
        {
          "internalType": "bool",
          "name": "",
          "type": "bool"
        }
      ],
      "stateMutability": "view",
      "type": "function"
    },
    {
      "inputs": [
        {
          "internalType": "address[]",
          "name": "targets",
          "type": "address[]"
        },
        {
          "internalType": "uint256[]",
          "name": "values",
          "type": "uint256[]"
        },
        {
          "internalType": "bytes[]",
          "name": "calldatas",
          "type": "bytes[]"
        },
        {
          "internalType": "bytes32",
          "name": "descriptionHash",
          "type": "bytes32"
        }
      ],
      "name": "hashProposal",
      "outputs": [
        {
          "internalType": "uint256",
          "name": "",
          "type": "uint256"
        }
      ],
      "stateMutability": "pure",
      "type": "function"
    },
    {
      "inputs": [],
      "name": "name",
      "outputs": [
        {
          "internalType": "string",
          "name": "",
          "type": "string"
        }
      ],
      "stateMutability": "view",
      "type": "function"
    },
    {
      "inputs": [
        {
          "internalType": "address",
          "name": "",
          "type": "address"
        },
        {
          "internalType": "address",
          "name": "",
          "type": "address"
        },
        {
          "internalType": "uint256[]",
          "name": "",
          "type": "uint256[]"
        },
        {
          "internalType": "uint256[]",
          "name": "",
          "type": "uint256[]"
        },
        {
          "internalType": "bytes",
          "name": "",
          "type": "bytes"
        }
      ],
      "name": "onERC1155BatchReceived",
      "outputs": [
        {
          "internalType": "bytes4",
          "name": "",
          "type": "bytes4"
        }
      ],
      "stateMutability": "nonpayable",
      "type": "function"
    },
    {
      "inputs": [
        {
          "internalType": "address",
          "name": "",
          "type": "address"
        },
        {
          "internalType": "address",
          "name": "",
          "type": "address"
        },
        {
          "internalType": "uint256",
          "name": "",
          "type": "uint256"
        },
        {
          "internalType": "uint256",
          "name": "",
          "type": "uint256"
        },
        {
          "internalType": "bytes",
          "name": "",
          "type": "bytes"
        }
      ],
      "name": "onERC1155Received",
      "outputs": [
        {
          "internalType": "bytes4",
          "name": "",
          "type": "bytes4"
        }
      ],
      "stateMutability": "nonpayable",
      "type": "function"
    },
    {
      "inputs": [
        {
          "internalType": "address",
          "name": "",
          "type": "address"
        },
        {
          "internalType": "address",
          "name": "",
          "type": "address"
        },
        {
          "internalType": "uint256",
          "name": "",
          "type": "uint256"
        },
        {
          "internalType": "bytes",
          "name": "",
          "type": "bytes"
        }
      ],
      "name": "onERC721Received",
      "outputs": [
        {
          "internalType": "bytes4",
          "name": "",
          "type": "bytes4"
        }
      ],
      "stateMutability": "nonpayable",
      "type": "function"
    },
    {
      "inputs": [
        {
          "internalType": "uint256",
          "name": "proposalId",
          "type": "uint256"
        }
      ],
      "name": "proposalDeadline",
      "outputs": [
        {
          "internalType": "uint256",
          "name": "",
          "type": "uint256"
        }
      ],
      "stateMutability": "view",
      "type": "function"
    },
    {
      "inputs": [
        {
          "internalType": "uint256",
          "name": "proposalId",
          "type": "uint256"
        }
      ],
      "name": "proposalEta",
      "outputs": [
        {
          "internalType": "uint256",
          "name": "",
          "type": "uint256"
        }
      ],
      "stateMutability": "view",
      "type": "function"
    },
    {
      "inputs": [
        {
          "internalType": "uint256",
          "name": "proposalId",
          "type": "uint256"
        }
      ],
      "name": "proposalSnapshot",
      "outputs": [
        {
          "internalType": "uint256",
          "name": "",
          "type": "uint256"
        }
      ],
      "stateMutability": "view",
      "type": "function"
    },
    {
      "inputs": [],
      "name": "proposalThreshold",
      "outputs": [
        {
          "internalType": "uint256",
          "name": "",
          "type": "uint256"
        }
      ],
      "stateMutability": "view",
      "type": "function"
    },
    {
      "inputs": [
        {
          "internalType": "uint256",
          "name": "proposalId",
          "type": "uint256"
        }
      ],
      "name": "proposalVotes",
      "outputs": [
        {
          "internalType": "uint256",
          "name": "againstVotes",
          "type": "uint256"
        },
        {
          "internalType": "uint256",
          "name": "forVotes",
          "type": "uint256"
        },
        {
          "internalType": "uint256",
          "name": "abstainVotes",
          "type": "uint256"
        }
      ],
      "stateMutability": "view",
      "type": "function"
    },
    {
      "inputs": [
        {
          "internalType": "address[]",
          "name": "targets",
          "type": "address[]"
        },
        {
          "internalType": "uint256[]",
          "name": "values",
          "type": "uint256[]"
        },
        {
          "internalType": "bytes[]",
          "name": "calldatas",
          "type": "bytes[]"
        },
        {
          "internalType": "string",
          "name": "description",
          "type": "string"
        }
      ],
      "name": "propose",
      "outputs": [
        {
          "internalType": "uint256",
          "name": "",
          "type": "uint256"
        }
      ],
      "stateMutability": "nonpayable",
      "type": "function"
    },
    {
      "inputs": [
        {
          "internalType": "address[]",
          "name": "targets",
          "type": "address[]"
        },
        {
          "internalType": "uint256[]",
          "name": "values",
          "type": "uint256[]"
        },
        {
          "internalType": "bytes[]",
          "name": "calldatas",
          "type": "bytes[]"
        },
        {
          "internalType": "bytes32",
          "name": "descriptionHash",
          "type": "bytes32"
        }
      ],
      "name": "queue",
      "outputs": [
        {
          "internalType": "uint256",
          "name": "",
          "type": "uint256"
        }
      ],
      "stateMutability": "nonpayable",
      "type": "function"
    },
    {
      "inputs": [
        {
          "internalType": "uint256",
          "name": "blockNumber",
          "type": "uint256"
        }
      ],
      "name": "quorum",
      "outputs": [
        {
          "internalType": "uint256",
          "name": "",
          "type": "uint256"
        }
      ],
      "stateMutability": "view",
      "type": "function"
    },
    {
      "inputs": [],
      "name": "quorumDenominator",
      "outputs": [
        {
          "internalType": "uint256",
          "name": "",
          "type": "uint256"
        }
      ],
      "stateMutability": "view",
      "type": "function"
    },
    {
      "inputs": [
        {
          "internalType": "uint256",
          "name": "blockNumber",
          "type": "uint256"
        }
      ],
      "name": "quorumNumerator",
      "outputs": [
        {
          "internalType": "uint256",
          "name": "",
          "type": "uint256"
        }
      ],
      "stateMutability": "view",
      "type": "function"
    },
    {
      "inputs": [],
      "name": "quorumNumerator",
      "outputs": [
        {
          "internalType": "uint256",
          "name": "",
          "type": "uint256"
        }
      ],
      "stateMutability": "view",
      "type": "function"
    },
    {
      "inputs": [
        {
          "internalType": "address",
          "name": "target",
          "type": "address"
        },
        {
          "internalType": "uint256",
          "name": "value",
          "type": "uint256"
        },
        {
          "internalType": "bytes",
          "name": "data",
          "type": "bytes"
        }
      ],
      "name": "relay",
      "outputs": [],
      "stateMutability": "nonpayable",
      "type": "function"
    },
    {
      "inputs": [
        {
          "internalType": "bytes32",
          "name": "role",
          "type": "bytes32"
        },
        {
          "internalType": "address",
          "name": "account",
          "type": "address"
        }
      ],
      "name": "renounceRole",
      "outputs": [],
      "stateMutability": "nonpayable",
      "type": "function"
    },
    {
      "inputs": [],
      "name": "retrieveProposalIndex",
      "outputs": [
        {
          "internalType": "uint256",
          "name": "",
          "type": "uint256"
        }
      ],
      "stateMutability": "view",
      "type": "function"
    },
    {
      "inputs": [
        {
          "internalType": "bytes32",
          "name": "role",
          "type": "bytes32"
        },
        {
          "internalType": "address",
          "name": "account",
          "type": "address"
        }
      ],
      "name": "revokeRole",
      "outputs": [],
      "stateMutability": "nonpayable",
      "type": "function"
    },
    {
      "inputs": [
        {
          "internalType": "address[]",
          "name": "targets",
          "type": "address[]"
        },
        {
          "internalType": "uint256[]",
          "name": "values",
          "type": "uint256[]"
        },
        {
          "internalType": "bytes[]",
          "name": "calldatas",
          "type": "bytes[]"
        },
        {
          "internalType": "string",
          "name": "description",
          "type": "string"
        }
      ],
      "name": "seniorSupplierPropose",
      "outputs": [
        {
          "internalType": "uint256",
          "name": "",
          "type": "uint256"
        }
      ],
      "stateMutability": "nonpayable",
      "type": "function"
    },
    {
      "inputs": [
        {
          "internalType": "uint256",
          "name": "newProposalThreshold",
          "type": "uint256"
        }
      ],
      "name": "setProposalThreshold",
      "outputs": [],
      "stateMutability": "nonpayable",
      "type": "function"
    },
    {
      "inputs": [
        {
          "internalType": "uint256",
          "name": "newVotingDelay",
          "type": "uint256"
        }
      ],
      "name": "setVotingDelay",
      "outputs": [],
      "stateMutability": "nonpayable",
      "type": "function"
    },
    {
      "inputs": [
        {
          "internalType": "uint256",
          "name": "newVotingPeriod",
          "type": "uint256"
        }
      ],
      "name": "setVotingPeriod",
      "outputs": [],
      "stateMutability": "nonpayable",
      "type": "function"
    },
    {
      "inputs": [
        {
          "internalType": "uint256",
          "name": "proposalId",
          "type": "uint256"
        }
      ],
      "name": "state",
      "outputs": [
        {
          "internalType": "enum IGovernor.ProposalState",
          "name": "",
          "type": "uint8"
        }
      ],
      "stateMutability": "view",
      "type": "function"
    },
    {
      "inputs": [
        {
          "internalType": "address[]",
          "name": "targets",
          "type": "address[]"
        },
        {
          "internalType": "uint256[]",
          "name": "values",
          "type": "uint256[]"
        },
        {
          "internalType": "bytes[]",
          "name": "calldatas",
          "type": "bytes[]"
        },
        {
          "internalType": "string",
          "name": "description",
          "type": "string"
        },
        {
          "internalType": "string",
          "name": "proposalValue",
          "type": "string"
        }
      ],
      "name": "supplierPropose",
      "outputs": [
        {
          "internalType": "uint256",
          "name": "",
          "type": "uint256"
        }
      ],
      "stateMutability": "nonpayable",
      "type": "function"
    },
    {
      "inputs": [
        {
          "internalType": "bytes4",
          "name": "interfaceId",
          "type": "bytes4"
        }
      ],
      "name": "supportsInterface",
      "outputs": [
        {
          "internalType": "bool",
          "name": "",
          "type": "bool"
        }
      ],
      "stateMutability": "view",
      "type": "function"
    },
    {
      "inputs": [],
      "name": "timelock",
      "outputs": [
        {
          "internalType": "address",
          "name": "",
          "type": "address"
        }
      ],
      "stateMutability": "view",
      "type": "function"
    },
    {
      "inputs": [],
      "name": "token",
      "outputs": [
        {
          "internalType": "contract IVotes",
          "name": "",
          "type": "address"
        }
      ],
      "stateMutability": "view",
      "type": "function"
    },
    {
      "inputs": [
        {
          "internalType": "uint256",
          "name": "newQuorumNumerator",
          "type": "uint256"
        }
      ],
      "name": "updateQuorumNumerator",
      "outputs": [],
      "stateMutability": "nonpayable",
      "type": "function"
    },
    {
      "inputs": [
        {
          "internalType": "contract TimelockController",
          "name": "newTimelock",
          "type": "address"
        }
      ],
      "name": "updateTimelock",
      "outputs": [],
      "stateMutability": "nonpayable",
      "type": "function"
    },
    {
      "inputs": [],
      "name": "version",
      "outputs": [
        {
          "internalType": "string",
          "name": "",
          "type": "string"
        }
      ],
      "stateMutability": "view",
      "type": "function"
    },
    {
      "inputs": [],
      "name": "votingDelay",
      "outputs": [
        {
          "internalType": "uint256",
          "name": "",
          "type": "uint256"
        }
      ],
      "stateMutability": "view",
      "type": "function"
    },
    {
      "inputs": [],
      "name": "votingPeriod",
      "outputs": [
        {
          "internalType": "uint256",
          "name": "",
          "type": "uint256"
        }
      ],
      "stateMutability": "view",
      "type": "function"
    },
    {
      "stateMutability": "payable",
      "type": "receive"
    }
  ],
  "bytecode": "0x610160604052600d80546001600160a01b031990811673d6eaff3ac29b8453797e537a083772fd621f37ff908117909255600e80548216909217909155600f80548216737f324b1bd2879cb1ba33956abaed0470cc35b8dd90811790915560108054831690911790556011805482167303df5ffad4ddd41c0fb0177642583c6262e567f417905560128054821673c60494dd21b34eea5a6d1a7b331373f2d156acfa908117909155601380549092161790556000601455348015620000c357600080fd5b506040516200558338038062005583833981016040819052620000e691620008c4565b838386838560006040518060400160405280601281526020017111dbdd995c9b985b98d9541c9bdd1bd8dbdb60721b81525080620001296200022660201b60201c565b815160208084019190912082518383012060e08290526101008190524660a0818152604080517f8b73c3c69bb8fe3d512ecc4cf759cc79239f7b179b0ffacaa9a75d522b39400f81880181905281830187905260608201869052608082019490945230818401528151808203909301835260c00190528051940193909320919290916080523060c0526101205250508251620001cf92506001915060208401906200080f565b50620001dd90508362000241565b620001e88262000282565b620001f38162000329565b5050506001600160a01b0316610140526200020e816200036a565b506200021a81620004e2565b50505050505062000995565b6040805180820190915260018152603160f81b602082015290565b60055460408051918252602082018390527fc565b045403dc03c2eea82b81a0465edad9e2e7fc4d97e11421c209da93d7a93910160405180910390a1600555565b60008111620002e85760405162461bcd60e51b815260206004820152602760248201527f476f7665726e6f7253657474696e67733a20766f74696e6720706572696f6420604482015266746f6f206c6f7760c81b60648201526084015b60405180910390fd5b60065460408051918252602082018390527f7e3f7f0708a84de9203036abaa450dccc85ad5ff52f78c170f3edb55cf5e8828910160405180910390a1600655565b60075460408051918252602082018390527fccb45da8d5717e6c4544694297c4ba5cf151d455c9bb0ed4fc7a38411bc05461910160405180910390a1600755565b6064811115620003ef5760405162461bcd60e51b815260206004820152604360248201527f476f7665726e6f72566f74657351756f72756d4672616374696f6e3a2071756f60448201527f72756d4e756d657261746f72206f7665722071756f72756d44656e6f6d696e616064820152623a37b960e91b608482015260a401620002df565b6000620003fb6200054b565b905080158015906200040d5750600a54155b156200048857600a6000016040518060400160405280600063ffffffff16815260200162000446846200057a60201b620021321760201c565b6001600160e01b0390811690915282546001810184556000938452602093849020835194909301519091166401000000000263ffffffff909316929092179101555b620004a382600a620005e960201b6200219f1790919060201c565b505060408051828152602081018490527f0553476bf02ef2726e8ce5ced78d63e26e602e4a2257b1f559418e24b4633997910160405180910390a15050565b600b54604080516001600160a01b03928316815291831660208301527f08f74ea46ef7894f65eabfb5e6e695de773a000b47c529ab559178069b226401910160405180910390a1600b80546001600160a01b0319166001600160a01b0392909216919091179055565b600a546000901562000573576200056e600a6200074560201b620022ca1760201c565b905090565b5060095490565b60006001600160e01b03821115620005e55760405162461bcd60e51b815260206004820152602760248201527f53616665436173743a2076616c756520646f65736e27742066697420696e20326044820152663234206269747360c81b6064820152608401620002df565b5090565b8154600090819081620005fc8662000745565b90506000821180156200064057504386620006196001856200091c565b815481106200062c576200062c62000942565b60009182526020909120015463ffffffff16145b15620006b4576200065c856200057a60201b620021321760201c565b866200066a6001856200091c565b815481106200067d576200067d62000942565b9060005260206000200160000160046101000a8154816001600160e01b0302191690836001600160e01b031602179055506200073c565b856000016040518060400160405280620006d943620007a860201b620023261760201c565b63ffffffff168152602001620006fa886200057a60201b620021321760201c565b6001600160e01b0390811690915282546001810184556000938452602093849020835194909301519091166401000000000263ffffffff909316929092179101555b95939450505050565b805460009080156200079557826200075f6001836200091c565b8154811062000772576200077262000942565b60009182526020909120015464010000000090046001600160e01b031662000798565b60005b6001600160e01b03169392505050565b600063ffffffff821115620005e55760405162461bcd60e51b815260206004820152602660248201527f53616665436173743a2076616c756520646f65736e27742066697420696e203360448201526532206269747360d01b6064820152608401620002df565b8280546200081d9062000958565b90600052602060002090601f0160209004810192826200084157600085556200088c565b82601f106200085c57805160ff19168380011785556200088c565b828001600101855582156200088c579182015b828111156200088c5782518255916020019190600101906200086f565b50620005e59291505b80821115620005e5576000815560010162000895565b6001600160a01b0381168114620008c157600080fd5b50565b600080600080600060a08688031215620008dd57600080fd5b8551620008ea81620008ab565b6020870151909550620008fd81620008ab565b6040870151606088015160809098015196999198509695945092505050565b6000828210156200093d57634e487b7160e01b600052601160045260246000fd5b500390565b634e487b7160e01b600052603260045260246000fd5b600181811c908216806200096d57607f821691505b602082108114156200098f57634e487b7160e01b600052602260045260246000fd5b50919050565b60805160a05160c05160e051610100516101205161014051614b85620009fe60003960008181610a8901528181612c900152612ea00152600061301b0152600061306a0152600061304501526000612f9e01526000612fc801526000612ff20152614b856000f3fe6080604052600436106103035760003560e01c80637d5e81e211610190578063c28bc2fa116100dc578063deaaa7cc11610095578063ece40cc11161006f578063ece40cc114610a0b578063f23a6e6114610a2b578063f8ce560a14610a57578063fc0c546a14610a7757600080fd5b8063deaaa7cc14610997578063ea0217cf146109cb578063eb9019d4146109eb57600080fd5b8063c28bc2fa1461089f578063c59057e4146108bf578063c9e8d8d7146108df578063d33219b4146108ff578063d547741f14610931578063dd4e2ba51461095157600080fd5b8063a7713a7011610149578063ac70cda611610123578063ac70cda614610829578063b58131b01461083e578063bc197c8114610853578063c01f9e371461087f57600080fd5b8063a7713a70146107d4578063a890c910146107e9578063ab58fb8e1461080957600080fd5b80637d5e81e21461072b5780638121322c1461074b57806391d148541461076b57806397c3d3341461078b5780639a802a6d1461079f578063a217fddf146107bf57600080fd5b806336568abe1161024f578063544ffc9c116102085780635f398a14116101e25780635f398a14146106ab57806360c4247f146106cb57806370b0f660146106eb5780637b3c71d31461070b57600080fd5b8063544ffc9c1461060c57806354fd4d5014610661578063567813881461068b57600080fd5b806336568abe146105205780633932abb1146105405780633bccf4fd146105555780633e4f49e61461057557806343859632146105a25780634cf7b5b1146105ec57600080fd5b8063160cbed7116102bc5780632656227d116102965780632656227d146104995780632d63f693146104ac5780632f2ff15d146104cc5780632fe3e261146104ec57600080fd5b8063160cbed7146104295780631b94d98714610449578063248a9ca31461046957600080fd5b806301ffc9a71461032b57806302a251a314610360578063034201811461038357806306f3f9e6146103a357806306fdde03146103c3578063150b7a02146103e557600080fd5b366103265730610311610aab565b6001600160a01b03161461032457600080fd5b005b600080fd5b34801561033757600080fd5b5061034b610346366004613a81565b610ac4565b60405190151581526020015b60405180910390f35b34801561036c57600080fd5b50610375610ad5565b604051908152602001610357565b34801561038f57600080fd5b5061037561039e366004613bc5565b610ae0565b3480156103af57600080fd5b506103246103be366004613c6b565b610bd8565b3480156103cf57600080fd5b506103d8610c70565b6040516103579190613ce0565b3480156103f157600080fd5b50610410610400366004613d08565b630a85bd0160e11b949350505050565b6040516001600160e01b03199091168152602001610357565b34801561043557600080fd5b50610375610444366004613edf565b610d02565b34801561045557600080fd5b50610375610464366004613f6e565b610f20565b34801561047557600080fd5b50610375610484366004613c6b565b60009081526020819052604090206001015490565b6103756104a7366004613edf565b6111dd565b3480156104b857600080fd5b506103756104c7366004613c6b565b6112cf565b3480156104d857600080fd5b506103246104e736600461403f565b611306565b3480156104f857600080fd5b506103757fb3b3f3b703cd84ce352197dcff232b1b5d3cfb2025ce47cf04742d0651f1af8881565b34801561052c57600080fd5b5061032461053b36600461403f565b611330565b34801561054c57600080fd5b506103756113ae565b34801561056157600080fd5b5061037561057036600461406f565b6113b9565b34801561058157600080fd5b50610595610590366004613c6b565b61142f565b60405161035791906140d3565b3480156105ae57600080fd5b5061034b6105bd36600461403f565b60008281526008602090815260408083206001600160a01b038516845260030190915290205460ff1692915050565b3480156105f857600080fd5b506103756106073660046140fb565b61143a565b34801561061857600080fd5b50610646610627366004613c6b565b6000908152600860205260409020805460018201546002909201549092565b60408051938452602084019290925290820152606001610357565b34801561066d57600080fd5b506040805180820190915260018152603160f81b60208201526103d8565b34801561069757600080fd5b506103756106a636600461419b565b6115c2565b3480156106b757600080fd5b506103756106c63660046141c7565b6115eb565b3480156106d757600080fd5b506103756106e6366004613c6b565b611635565b3480156106f757600080fd5b50610324610706366004613c6b565b6116cb565b34801561071757600080fd5b50610375610726366004614230565b611757565b34801561073757600080fd5b506103756107463660046140fb565b61179f565b34801561075757600080fd5b50610375610766366004614230565b611a62565b34801561077757600080fd5b5061034b61078636600461403f565b611b4a565b34801561079757600080fd5b506064610375565b3480156107ab57600080fd5b506103756107ba366004614289565b611b73565b3480156107cb57600080fd5b50610375600081565b3480156107e057600080fd5b50610375611b8a565b3480156107f557600080fd5b506103246108043660046142e1565b611ba6565b34801561081557600080fd5b50610375610824366004613c6b565b611c32565b34801561083557600080fd5b50610375611cdb565b34801561084a57600080fd5b50610375611cec565b34801561085f57600080fd5b5061041061086e3660046142fe565b63bc197c8160e01b95945050505050565b34801561088b57600080fd5b5061037561089a366004613c6b565b611cf7565b3480156108ab57600080fd5b506103246108ba36600461437b565b611d26565b3480156108cb57600080fd5b506103756108da366004613edf565b611df2565b3480156108eb57600080fd5b506103756108fa3660046140fb565b611e2c565b34801561090b57600080fd5b50600b546001600160a01b03165b6040516001600160a01b039091168152602001610357565b34801561093d57600080fd5b5061032461094c36600461403f565b611fc9565b34801561095d57600080fd5b506040805180820190915260208082527f737570706f72743d627261766f2671756f72756d3d666f722c6162737461696e908201526103d8565b3480156109a357600080fd5b506103757f150214d74d59b7d1e90c73fc22ef3d991dd0a76b046543d4d80ab92d2a50328f81565b3480156109d757600080fd5b506103246109e6366004613c6b565b611fee565b3480156109f757600080fd5b50610375610a063660046143be565b61207a565b348015610a1757600080fd5b50610324610a26366004613c6b565b61209b565b348015610a3757600080fd5b50610410610a463660046143ea565b63f23a6e6160e01b95945050505050565b348015610a6357600080fd5b50610375610a72366004613c6b565b612127565b348015610a8357600080fd5b506109197f000000000000000000000000000000000000000000000000000000000000000081565b6000610abf600b546001600160a01b031690565b905090565b6000610acf8261238b565b92915050565b6000610abf60065490565b600080610b84610b7c7fb3b3f3b703cd84ce352197dcff232b1b5d3cfb2025ce47cf04742d0651f1af888c8c8c8c604051610b1c929190614452565b60405180910390208b80519060200120604051602001610b61959493929190948552602085019390935260ff9190911660408401526060830152608082015260a00190565b604051602081830303815290604052805190602001206123b0565b8686866123fe565b9050610bca8a828b8b8b8080601f0160208091040260200160405190810160405280939291908181526020018383808284376000920191909152508d925061241c915050565b9a9950505050505050505050565b610be0610aab565b6001600160a01b0316336001600160a01b031614610c195760405162461bcd60e51b8152600401610c1090614462565b60405180910390fd5b30610c22610aab565b6001600160a01b031614610c645760008036604051610c42929190614452565b604051809103902090505b80610c58600361257d565b14610c6257610c4d565b505b610c6d816125fc565b50565b606060018054610c7f90614499565b80601f0160208091040260200160405190810160405280929190818152602001828054610cab90614499565b8015610cf85780601f10610ccd57610100808354040283529160200191610cf8565b820191906000526020600020905b815481529060010190602001808311610cdb57829003601f168201915b5050505050905090565b600080610d1186868686611df2565b90506004610d1e8261142f565b6007811115610d2f57610d2f6140bd565b14610d4c5760405162461bcd60e51b8152600401610c10906144d4565b600b546040805163793d064960e11b815290516000926001600160a01b03169163f27a0c92916004808301926020929190829003018186803b158015610d9157600080fd5b505afa158015610da5573d6000803e3d6000fd5b505050506040513d601f19601f82011682018060405250810190610dc99190614515565b600b5460405163b1c5f42760e01b81529192506001600160a01b03169063b1c5f42790610e03908a908a908a906000908b906004016145f7565b60206040518083038186803b158015610e1b57600080fd5b505afa158015610e2f573d6000803e3d6000fd5b505050506040513d601f19601f82011682018060405250810190610e539190614515565b6000838152600c602052604080822092909255600b5491516308f2a0bb60e41b81526001600160a01b0390921691638f2a0bb091610e9e918b918b918b91908b908990600401614645565b600060405180830381600087803b158015610eb857600080fd5b505af1158015610ecc573d6000803e3d6000fd5b505050507f9a2e42fd6722813d69113e7d0079d3d940171428df7373df9c7f7617cfda2892828242610efe91906146b3565b6040805192835260208301919091520160405180910390a15095945050505050565b600080601060009054906101000a90046001600160a01b03166001600160a01b0316632e64cec16040518163ffffffff1660e01b815260040160006040518083038186803b158015610f7157600080fd5b505afa158015610f85573d6000803e3d6000fd5b505050506040513d6000823e601f3d908101601f19168201604052610fad91908101906146cb565b90506000805b88518110156110105760125489516001600160a01b03909116908a9083908110610fdf57610fdf614738565b60200260200101516001600160a01b031614610ffe5760019150611010565b806110088161474e565b915050610fb3565b50801561102f5760405162461bcd60e51b8152600401610c1090614769565b600e54604051634959e08760e01b81523360048201526001600160a01b0390911690634959e0879060240160206040518083038186803b15801561107257600080fd5b505afa158015611086573d6000803e3d6000fd5b505050506040513d601f19601f820116820180604052508101906110aa91906147b8565b15156001146110fb5760405162461bcd60e51b815260206004820181905260248201527f4552524f523a2043616c6c6572206973206e6f74206120537570706c696572216044820152606401610c10565b8360405160200161110c91906147da565b604051602081830303815290604052805190602001208260405160200161113391906147da565b60405160208183030381529060405280519060200120146111b05760405162461bcd60e51b815260206004820152603160248201527f4552524f523a2054686520436f6e746573742076616c75652072657175657374604482015270656420776173206e6f7420666f756e642160781b6064820152608401610c10565b601480549060006111c08361474e565b91905055506111d18888888861179f565b98975050505050505050565b6000806111ec86868686611df2565b905060006111f98261142f565b9050600481600781111561120f5761120f6140bd565b148061122c5750600581600781111561122a5761122a6140bd565b145b6112485760405162461bcd60e51b8152600401610c10906144d4565b60008281526002602081905260409182902001805460ff19166001179055517f712ae1383f79ac853f8d882153778e0260ef8f03b504e2866e0593e04d2b291f906112969084815260200190565b60405180910390a16112ab8288888888612749565b6112b882888888886127eb565b6112c582888888886127f8565b5095945050505050565b60008181526002602090815260408083208151928301909152546001600160401b0316908190525b6001600160401b031692915050565b60008281526020819052604090206001015461132181612831565b61132b838361283b565b505050565b6001600160a01b03811633146113a05760405162461bcd60e51b815260206004820152602f60248201527f416363657373436f6e74726f6c3a2063616e206f6e6c792072656e6f756e636560448201526e103937b632b9903337b91039b2b63360891b6064820152608401610c10565b6113aa82826128bf565b5050565b6000610abf60055490565b604080517f150214d74d59b7d1e90c73fc22ef3d991dd0a76b046543d4d80ab92d2a50328f602082015290810186905260ff85166060820152600090819061140790610b7c90608001610b61565b905061142487828860405180602001604052806000815250612924565b979650505050505050565b6000610acf82612947565b600080805b86518110156114dc57600f5487516001600160a01b039091169088908390811061146b5761146b614738565b60200260200101516001600160a01b0316141580156114bc5750600d5487516001600160a01b03909116908890839081106114a8576114a8614738565b60200260200101516001600160a01b031614155b156114ca57600191506114dc565b806114d48161474e565b91505061143f565b5080156114fb5760405162461bcd60e51b8152600401610c1090614769565b600e5460405163d0d0062760e01b81523360048201526001600160a01b039091169063d0d006279060240160206040518083038186803b15801561153e57600080fd5b505afa158015611552573d6000803e3d6000fd5b505050506040513d601f19601f8201168201806040525081019061157691906147b8565b15156001146115975760405162461bcd60e51b8152600401610c10906147f6565b601480549060006115a78361474e565b91905055506115b88686868661179f565b9695505050505050565b6000803390506115e384828560405180602001604052806000815250612924565b949350505050565b60008033905061142487828888888080601f0160208091040260200160405190810160405280939291908181526020018383808284376000920191909152508a925061241c915050565b600a546000908061164a575050600954919050565b6000600a61165960018461483a565b8154811061166957611669614738565b60009182526020918290206040805180820190915291015463ffffffff81168083526401000000009091046001600160e01b031692820192909252915084106116c057602001516001600160e01b03169392505050565b6115e3600a85612aaf565b6116d3610aab565b6001600160a01b0316336001600160a01b0316146117035760405162461bcd60e51b8152600401610c1090614462565b3061170c610aab565b6001600160a01b03161461174e576000803660405161172c929190614452565b604051809103902090505b80611742600361257d565b1461174c57611737565b505b610c6d81612bbe565b6000803390506115b886828787878080601f01602080910402602001604051908101604052809392919081815260200183838082843760009201919091525061292492505050565b60006117a9611cec565b6117b833610a0660014361483a565b10156118205760405162461bcd60e51b815260206004820152603160248201527f476f7665726e6f723a2070726f706f73657220766f7465732062656c6f7720706044820152701c9bdc1bdcd85b081d1a1c995cda1bdb19607a1b6064820152608401610c10565b60006118358686868680519060200120611df2565b905084518651146118585760405162461bcd60e51b8152600401610c1090614851565b83518651146118795760405162461bcd60e51b8152600401610c1090614851565b60008651116118ca5760405162461bcd60e51b815260206004820152601860248201527f476f7665726e6f723a20656d7074792070726f706f73616c00000000000000006044820152606401610c10565b600081815260026020908152604091829020825191820190925281546001600160401b0316908190521561194a5760405162461bcd60e51b815260206004820152602160248201527f476f7665726e6f723a2070726f706f73616c20616c72656164792065786973746044820152607360f81b6064820152608401610c10565b600061195c6119576113ae565b612bff565b61196543612bff565b61196f9190614892565b9050600061197e611957610ad5565b6119889083614892565b835467ffffffffffffffff19166001600160401b038416178455905060018301805467ffffffffffffffff19166001600160401b0383161790557f7d84a6263ae0d98d3329bd7b46bb4e8d6f98cd35a7adb45c274c8b7fd5ebd5e084338b8b8d516001600160401b03811115611a0057611a00613b02565b604051908082528060200260200182016040528015611a3357816020015b6060815260200190600190039081611a1e5790505b508c88888e604051611a4d999897969594939291906148bd565b60405180910390a15091979650505050505050565b600e5460405163d0d0062760e01b81523360048201526000916001600160a01b03169063d0d006279060240160206040518083038186803b158015611aa657600080fd5b505afa158015611aba573d6000803e3d6000fd5b505050506040513d601f19601f82011682018060405250810190611ade91906147b8565b1515600114611aff5760405162461bcd60e51b8152600401610c10906147f6565b611b4185338686868080601f01602080910402602001604051908101604052809392919081815260200183838082843760009201919091525061292492505050565b95945050505050565b6000918252602082815260408084206001600160a01b0393909316845291905290205460ff1690565b6000611b80848484612c67565b90505b9392505050565b600a5460009015611b9f57610abf600a6122ca565b5060095490565b611bae610aab565b6001600160a01b0316336001600160a01b031614611bde5760405162461bcd60e51b8152600401610c1090614462565b30611be7610aab565b6001600160a01b031614611c295760008036604051611c07929190614452565b604051809103902090505b80611c1d600361257d565b14611c2757611c12565b505b610c6d81612d0c565b600b546000828152600c602052604080822054905163d45c443560e01b81526004810191909152909182916001600160a01b039091169063d45c44359060240160206040518083038186803b158015611c8a57600080fd5b505afa158015611c9e573d6000803e3d6000fd5b505050506040513d601f19601f82011682018060405250810190611cc29190614515565b905080600114611cd25780611b83565b60009392505050565b60006001601454610abf919061483a565b6000610abf60075490565b60008181526002602090815260408083208151928301909152600101546001600160401b0316908190526112f7565b611d2e610aab565b6001600160a01b0316336001600160a01b031614611d5e5760405162461bcd60e51b8152600401610c1090614462565b30611d67610aab565b6001600160a01b031614611da95760008036604051611d87929190614452565b604051809103902090505b80611d9d600361257d565b14611da757611d92565b505b611deb8483838080601f016020809104026020016040519081016040528093929190818152602001838380828437600092019190915250889250612d75915050565b5050505050565b600084848484604051602001611e0b94939291906149ac565b60408051601f19818403018152919052805160209091012095945050505050565b600080805b8651811015611ece5760115487516001600160a01b0390911690889083908110611e5d57611e5d614738565b60200260200101516001600160a01b031614158015611eae575060125487516001600160a01b0390911690889083908110611e9a57611e9a614738565b60200260200101516001600160a01b031614155b15611ebc5760019150611ece565b80611ec68161474e565b915050611e31565b508015611eed5760405162461bcd60e51b8152600401610c1090614769565b60135460405163b1b0c05360e01b81523360048201526001600160a01b039091169063b1b0c0539060240160206040518083038186803b158015611f3057600080fd5b505afa158015611f44573d6000803e3d6000fd5b505050506040513d601f19601f82011682018060405250810190611f6891906147b8565b15156001146115975760405162461bcd60e51b815260206004820152602760248201527f4552524f523a2043616c6c6572206973206e6f7420612053656e696f7220537560448201526670706c6965722160c81b6064820152608401610c10565b600082815260208190526040902060010154611fe481612831565b61132b83836128bf565b611ff6610aab565b6001600160a01b0316336001600160a01b0316146120265760405162461bcd60e51b8152600401610c1090614462565b3061202f610aab565b6001600160a01b031614612071576000803660405161204f929190614452565b604051809103902090505b80612065600361257d565b1461206f5761205a565b505b610c6d81612d9b565b6000611b83838361209660408051602081019091526000815290565b612c67565b6120a3610aab565b6001600160a01b0316336001600160a01b0316146120d35760405162461bcd60e51b8152600401610c1090614462565b306120dc610aab565b6001600160a01b03161461211e57600080366040516120fc929190614452565b604051809103902090505b80612112600361257d565b1461211c57612107565b505b610c6d81612e3c565b6000610acf82612e7d565b60006001600160e01b0382111561219b5760405162461bcd60e51b815260206004820152602760248201527f53616665436173743a2076616c756520646f65736e27742066697420696e20326044820152663234206269747360c81b6064820152608401610c10565b5090565b81546000908190816121b0866122ca565b90506000821180156121ee575043866121ca60018561483a565b815481106121da576121da614738565b60009182526020909120015463ffffffff16145b1561224e576121fc85612132565b8661220860018561483a565b8154811061221857612218614738565b9060005260206000200160000160046101000a8154816001600160e01b0302191690836001600160e01b031602179055506122bc565b85600001604051806040016040528061226643612326565b63ffffffff16815260200161227a88612132565b6001600160e01b0390811690915282546001810184556000938452602093849020835194909301519091166401000000000263ffffffff909316929092179101555b9250839150505b9250929050565b8054600090801561231357826122e160018361483a565b815481106122f1576122f1614738565b60009182526020909120015464010000000090046001600160e01b0316612316565b60005b6001600160e01b03169392505050565b600063ffffffff82111561219b5760405162461bcd60e51b815260206004820152602660248201527f53616665436173743a2076616c756520646f65736e27742066697420696e203360448201526532206269747360d01b6064820152608401610c10565b60006001600160e01b03198216636e665ced60e01b1480610acf5750610acf82612f36565b6000610acf6123bd612f91565b8360405161190160f01b6020820152602281018390526042810182905260009060620160405160208183030381529060405280519060200120905092915050565b600080600061240f878787876130b8565b915091506112c5816131a5565b600085815260026020526040812060016124358861142f565b6007811115612446576124466140bd565b1461249f5760405162461bcd60e51b815260206004820152602360248201527f476f7665726e6f723a20766f7465206e6f742063757272656e746c792061637460448201526269766560e81b6064820152608401610c10565b604080516020810190915281546001600160401b0316908190526000906124c890889086612c67565b90506124d78888888488613360565b835161252957866001600160a01b03167fb8e138887d0aa13bab447e82de9d5c1777041ecd21ca36ba824ff1e6c07ddda48988848960405161251c94939291906149f7565b60405180910390a2611424565b866001600160a01b03167fe2babfbac5889a709b63bb7f598b324e08bc5a4fb9ec647fb3cbc9ec07eb8712898884898960405161256a959493929190614a1f565b60405180910390a2979650505050505050565b60006125988254600f81810b600160801b909204900b131590565b156125b657604051631ed9509560e11b815260040160405180910390fd5b508054600f0b6000818152600180840160205260408220805492905583546fffffffffffffffffffffffffffffffff191692016001600160801b03169190911790915590565b606481111561267f5760405162461bcd60e51b815260206004820152604360248201527f476f7665726e6f72566f74657351756f72756d4672616374696f6e3a2071756f60448201527f72756d4e756d657261746f72206f7665722071756f72756d44656e6f6d696e616064820152623a37b960e91b608482015260a401610c10565b6000612689611b8a565b9050801580159061269a5750600a54155b156126ff576040805180820190915260008152600a90602081016126bd84612132565b6001600160e01b0390811690915282546001810184556000938452602093849020835194909301519091166401000000000263ffffffff909316929092179101555b61270a600a8361219f565b505060408051828152602081018490527f0553476bf02ef2726e8ce5ced78d63e26e602e4a2257b1f559418e24b4633997910160405180910390a15050565b30612752610aab565b6001600160a01b031614611deb5760005b84518110156127e357306001600160a01b031685828151811061278857612788614738565b60200260200101516001600160a01b031614156127d3576127d38382815181106127b4576127b4614738565b60200260200101518051906020012060036134df90919063ffffffff16565b6127dc8161474e565b9050612763565b505050505050565b611deb858585858561351b565b30612801610aab565b6001600160a01b031614611deb57600354600f81810b600160801b909204900b1315611deb576000600355611deb565b610c6d813361358f565b6128458282611b4a565b6113aa576000828152602081815260408083206001600160a01b03851684529091529020805460ff1916600117905561287b3390565b6001600160a01b0316816001600160a01b0316837f2f8788117e7eff1d82e926ec794901d17c78024a50270940304540a733656f0d60405160405180910390a45050565b6128c98282611b4a565b156113aa576000828152602081815260408083206001600160a01b0385168085529252808320805460ff1916905551339285917ff6391f5c32d9c69d2a47ea670b442974b53935d1edc7fd64eb21e047a839171b9190a45050565b6000611b418585858561294260408051602081019091526000815290565b61241c565b600080612953836135f3565b90506004816007811115612969576129696140bd565b146129745792915050565b6000838152600c60205260409020548061298f575092915050565b600b54604051632ab0f52960e01b8152600481018390526001600160a01b0390911690632ab0f5299060240160206040518083038186803b1580156129d357600080fd5b505afa1580156129e7573d6000803e3d6000fd5b505050506040513d601f19601f82011682018060405250810190612a0b91906147b8565b15612a1a575060079392505050565b600b54604051632c258a9f60e11b8152600481018390526001600160a01b039091169063584b153e9060240160206040518083038186803b158015612a5e57600080fd5b505afa158015612a72573d6000803e3d6000fd5b505050506040513d601f19601f82011682018060405250810190612a9691906147b8565b15612aa5575060059392505050565b5060029392505050565b6000438210612b005760405162461bcd60e51b815260206004820181905260248201527f436865636b706f696e74733a20626c6f636b206e6f7420796574206d696e65646044820152606401610c10565b825460005b81811015612b65576000612b198284613700565b905084866000018281548110612b3157612b31614738565b60009182526020909120015463ffffffff161115612b5157809250612b5f565b612b5c8160016146b3565b91505b50612b05565b8115612ba95784612b7760018461483a565b81548110612b8757612b87614738565b60009182526020909120015464010000000090046001600160e01b0316612bac565b60005b6001600160e01b031695945050505050565b60055460408051918252602082018390527fc565b045403dc03c2eea82b81a0465edad9e2e7fc4d97e11421c209da93d7a93910160405180910390a1600555565b60006001600160401b0382111561219b5760405162461bcd60e51b815260206004820152602660248201527f53616665436173743a2076616c756520646f65736e27742066697420696e203660448201526534206269747360d01b6064820152608401610c10565b604051630748d63560e31b81526001600160a01b038481166004830152602482018490526000917f000000000000000000000000000000000000000000000000000000000000000090911690633a46b1a89060440160206040518083038186803b158015612cd457600080fd5b505afa158015612ce8573d6000803e3d6000fd5b505050506040513d601f19601f82011682018060405250810190611b809190614515565b600b54604080516001600160a01b03928316815291831660208301527f08f74ea46ef7894f65eabfb5e6e695de773a000b47c529ab559178069b226401910160405180910390a1600b80546001600160a01b0319166001600160a01b0392909216919091179055565b6060611b80848484604051806060016040528060298152602001614b276029913961371b565b60008111612dfb5760405162461bcd60e51b815260206004820152602760248201527f476f7665726e6f7253657474696e67733a20766f74696e6720706572696f6420604482015266746f6f206c6f7760c81b6064820152608401610c10565b60065460408051918252602082018390527f7e3f7f0708a84de9203036abaa450dccc85ad5ff52f78c170f3edb55cf5e8828910160405180910390a1600655565b60075460408051918252602082018390527fccb45da8d5717e6c4544694297c4ba5cf151d455c9bb0ed4fc7a38411bc05461910160405180910390a1600755565b60006064612e8a83611635565b604051632394e7a360e21b8152600481018590527f00000000000000000000000000000000000000000000000000000000000000006001600160a01b031690638e539e8c9060240160206040518083038186803b158015612eea57600080fd5b505afa158015612efe573d6000803e3d6000fd5b505050506040513d601f19601f82011682018060405250810190612f229190614515565b612f2c9190614a59565b610acf9190614a78565b60006001600160e01b0319821663bf26d89760e01b1480612f6757506001600160e01b031982166379dd796f60e01b145b80612f8257506001600160e01b03198216630271189760e51b145b80610acf5750610acf82613841565b6000306001600160a01b037f000000000000000000000000000000000000000000000000000000000000000016148015612fea57507f000000000000000000000000000000000000000000000000000000000000000046145b1561301457507f000000000000000000000000000000000000000000000000000000000000000090565b50604080517f00000000000000000000000000000000000000000000000000000000000000006020808301919091527f0000000000000000000000000000000000000000000000000000000000000000828401527f000000000000000000000000000000000000000000000000000000000000000060608301524660808301523060a0808401919091528351808403909101815260c0909201909252805191012090565b6000807f7fffffffffffffffffffffffffffffff5d576e7357a4501ddfe92f46681b20a08311156130ef575060009050600361319c565b8460ff16601b1415801561310757508460ff16601c14155b15613118575060009050600461319c565b6040805160008082526020820180845289905260ff881692820192909252606081018690526080810185905260019060a0016020604051602081039080840390855afa15801561316c573d6000803e3d6000fd5b5050604051601f1901519150506001600160a01b0381166131955760006001925092505061319c565b9150600090505b94509492505050565b60008160048111156131b9576131b96140bd565b14156131c25750565b60018160048111156131d6576131d66140bd565b14156132245760405162461bcd60e51b815260206004820152601860248201527f45434453413a20696e76616c6964207369676e617475726500000000000000006044820152606401610c10565b6002816004811115613238576132386140bd565b14156132865760405162461bcd60e51b815260206004820152601f60248201527f45434453413a20696e76616c6964207369676e6174757265206c656e677468006044820152606401610c10565b600381600481111561329a5761329a6140bd565b14156132f35760405162461bcd60e51b815260206004820152602260248201527f45434453413a20696e76616c6964207369676e6174757265202773272076616c604482015261756560f01b6064820152608401610c10565b6004816004811115613307576133076140bd565b1415610c6d5760405162461bcd60e51b815260206004820152602260248201527f45434453413a20696e76616c6964207369676e6174757265202776272076616c604482015261756560f01b6064820152608401610c10565b60008581526008602090815260408083206001600160a01b0388168452600381019092529091205460ff16156133e85760405162461bcd60e51b815260206004820152602760248201527f476f7665726e6f72566f74696e6753696d706c653a20766f746520616c726561604482015266191e4818d85cdd60ca1b6064820152608401610c10565b6001600160a01b03851660009081526003820160205260408120805460ff1916600117905560ff168460ff161415613439578281600001600082825461342e91906146b3565b909155506127e39050565b60ff841660011415613459578281600101600082825461342e91906146b3565b60ff841660021415613479578281600201600082825461342e91906146b3565b60405162461bcd60e51b815260206004820152603560248201527f476f7665726e6f72566f74696e6753696d706c653a20696e76616c69642076616044820152746c756520666f7220656e756d20566f74655479706560581b6064820152608401610c10565b8154600160801b90819004600f0b6000818152600180860160205260409091209390935583546001600160801b03908116939091011602179055565b600b5460405163e38335e560e01b81526001600160a01b039091169063e38335e59034906135569088908890889060009089906004016145f7565b6000604051808303818588803b15801561356f57600080fd5b505af1158015613583573d6000803e3d6000fd5b50505050505050505050565b6135998282611b4a565b6113aa576135b1816001600160a01b03166014613876565b6135bc836020613876565b6040516020016135cd929190614a9a565b60408051601f198184030181529082905262461bcd60e51b8252610c1091600401613ce0565b600081815260026020819052604082209081015460ff16156136185750600792915050565b6002810154610100900460ff16156136335750600292915050565b600061363e846112cf565b90508061368d5760405162461bcd60e51b815260206004820152601d60248201527f476f7665726e6f723a20756e6b6e6f776e2070726f706f73616c2069640000006044820152606401610c10565b43811061369e575060009392505050565b60006136a985611cf7565b90504381106136bd57506001949350505050565b6136c685613a11565b80156136e5575060008581526008602052604090208054600190910154115b156136f557506004949350505050565b506003949350505050565b600061370f6002848418614a78565b611b83908484166146b3565b60608247101561377c5760405162461bcd60e51b815260206004820152602660248201527f416464726573733a20696e73756666696369656e742062616c616e636520666f6044820152651c8818d85b1b60d21b6064820152608401610c10565b6001600160a01b0385163b6137d35760405162461bcd60e51b815260206004820152601d60248201527f416464726573733a2063616c6c20746f206e6f6e2d636f6e74726163740000006044820152606401610c10565b600080866001600160a01b031685876040516137ef91906147da565b60006040518083038185875af1925050503d806000811461382c576040519150601f19603f3d011682016040523d82523d6000602084013e613831565b606091505b5091509150611424828286613a48565b60006001600160e01b03198216637965db0b60e01b1480610acf57506301ffc9a760e01b6001600160e01b0319831614610acf565b60606000613885836002614a59565b6138909060026146b3565b6001600160401b038111156138a7576138a7613b02565b6040519080825280601f01601f1916602001820160405280156138d1576020820181803683370190505b509050600360fc1b816000815181106138ec576138ec614738565b60200101906001600160f81b031916908160001a905350600f60fb1b8160018151811061391b5761391b614738565b60200101906001600160f81b031916908160001a905350600061393f846002614a59565b61394a9060016146b3565b90505b60018111156139c2576f181899199a1a9b1b9c1cb0b131b232b360811b85600f166010811061397e5761397e614738565b1a60f81b82828151811061399457613994614738565b60200101906001600160f81b031916908160001a90535060049490941c936139bb81614b0f565b905061394d565b508315611b835760405162461bcd60e51b815260206004820181905260248201527f537472696e67733a20686578206c656e67746820696e73756666696369656e746044820152606401610c10565b600081815260086020526040812060028101546001820154613a3391906146b3565b613a3f610a72856112cf565b11159392505050565b60608315613a57575081611b83565b825115613a675782518084602001fd5b8160405162461bcd60e51b8152600401610c109190613ce0565b600060208284031215613a9357600080fd5b81356001600160e01b031981168114611b8357600080fd5b803560ff81168114613abc57600080fd5b919050565b60008083601f840112613ad357600080fd5b5081356001600160401b03811115613aea57600080fd5b6020830191508360208285010111156122c357600080fd5b634e487b7160e01b600052604160045260246000fd5b604051601f8201601f191681016001600160401b0381118282101715613b4057613b40613b02565b604052919050565b60006001600160401b03821115613b6157613b61613b02565b50601f01601f191660200190565b600082601f830112613b8057600080fd5b8135613b93613b8e82613b48565b613b18565b818152846020838601011115613ba857600080fd5b816020850160208301376000918101602001919091529392505050565b60008060008060008060008060e0898b031215613be157600080fd5b88359750613bf160208a01613aab565b965060408901356001600160401b0380821115613c0d57600080fd5b613c198c838d01613ac1565b909850965060608b0135915080821115613c3257600080fd5b50613c3f8b828c01613b6f565b945050613c4e60808a01613aab565b925060a0890135915060c089013590509295985092959890939650565b600060208284031215613c7d57600080fd5b5035919050565b60005b83811015613c9f578181015183820152602001613c87565b83811115613cae576000848401525b50505050565b60008151808452613ccc816020860160208601613c84565b601f01601f19169290920160200192915050565b602081526000611b836020830184613cb4565b6001600160a01b0381168114610c6d57600080fd5b60008060008060808587031215613d1e57600080fd5b8435613d2981613cf3565b93506020850135613d3981613cf3565b92506040850135915060608501356001600160401b03811115613d5b57600080fd5b613d6787828801613b6f565b91505092959194509250565b60006001600160401b03821115613d8c57613d8c613b02565b5060051b60200190565b600082601f830112613da757600080fd5b81356020613db7613b8e83613d73565b82815260059290921b84018101918181019086841115613dd657600080fd5b8286015b84811015613dfa578035613ded81613cf3565b8352918301918301613dda565b509695505050505050565b600082601f830112613e1657600080fd5b81356020613e26613b8e83613d73565b82815260059290921b84018101918181019086841115613e4557600080fd5b8286015b84811015613dfa5780358352918301918301613e49565b600082601f830112613e7157600080fd5b81356020613e81613b8e83613d73565b82815260059290921b84018101918181019086841115613ea057600080fd5b8286015b84811015613dfa5780356001600160401b03811115613ec35760008081fd5b613ed18986838b0101613b6f565b845250918301918301613ea4565b60008060008060808587031215613ef557600080fd5b84356001600160401b0380821115613f0c57600080fd5b613f1888838901613d96565b95506020870135915080821115613f2e57600080fd5b613f3a88838901613e05565b94506040870135915080821115613f5057600080fd5b50613f5d87828801613e60565b949793965093946060013593505050565b600080600080600060a08688031215613f8657600080fd5b85356001600160401b0380821115613f9d57600080fd5b613fa989838a01613d96565b96506020880135915080821115613fbf57600080fd5b613fcb89838a01613e05565b95506040880135915080821115613fe157600080fd5b613fed89838a01613e60565b9450606088013591508082111561400357600080fd5b61400f89838a01613b6f565b9350608088013591508082111561402557600080fd5b5061403288828901613b6f565b9150509295509295909350565b6000806040838503121561405257600080fd5b82359150602083013561406481613cf3565b809150509250929050565b600080600080600060a0868803121561408757600080fd5b8535945061409760208701613aab565b93506140a560408701613aab565b94979396509394606081013594506080013592915050565b634e487b7160e01b600052602160045260246000fd5b60208101600883106140f557634e487b7160e01b600052602160045260246000fd5b91905290565b6000806000806080858703121561411157600080fd5b84356001600160401b038082111561412857600080fd5b61413488838901613d96565b9550602087013591508082111561414a57600080fd5b61415688838901613e05565b9450604087013591508082111561416c57600080fd5b61417888838901613e60565b9350606087013591508082111561418e57600080fd5b50613d6787828801613b6f565b600080604083850312156141ae57600080fd5b823591506141be60208401613aab565b90509250929050565b6000806000806000608086880312156141df57600080fd5b853594506141ef60208701613aab565b935060408601356001600160401b038082111561420b57600080fd5b61421789838a01613ac1565b9095509350606088013591508082111561402557600080fd5b6000806000806060858703121561424657600080fd5b8435935061425660208601613aab565b925060408501356001600160401b0381111561427157600080fd5b61427d87828801613ac1565b95989497509550505050565b60008060006060848603121561429e57600080fd5b83356142a981613cf3565b92506020840135915060408401356001600160401b038111156142cb57600080fd5b6142d786828701613b6f565b9150509250925092565b6000602082840312156142f357600080fd5b8135611b8381613cf3565b600080600080600060a0868803121561431657600080fd5b853561432181613cf3565b9450602086013561433181613cf3565b935060408601356001600160401b038082111561434d57600080fd5b61435989838a01613e05565b9450606088013591508082111561436f57600080fd5b61400f89838a01613e05565b6000806000806060858703121561439157600080fd5b843561439c81613cf3565b93506020850135925060408501356001600160401b0381111561427157600080fd5b600080604083850312156143d157600080fd5b82356143dc81613cf3565b946020939093013593505050565b600080600080600060a0868803121561440257600080fd5b853561440d81613cf3565b9450602086013561441d81613cf3565b9350604086013592506060860135915060808601356001600160401b0381111561444657600080fd5b61403288828901613b6f565b8183823760009101908152919050565b60208082526018908201527f476f7665726e6f723a206f6e6c79476f7665726e616e63650000000000000000604082015260600190565b600181811c908216806144ad57607f821691505b602082108114156144ce57634e487b7160e01b600052602260045260246000fd5b50919050565b60208082526021908201527f476f7665726e6f723a2070726f706f73616c206e6f74207375636365737366756040820152601b60fa1b606082015260800190565b60006020828403121561452757600080fd5b5051919050565b600081518084526020808501945080840160005b838110156145675781516001600160a01b031687529582019590820190600101614542565b509495945050505050565b600081518084526020808501945080840160005b8381101561456757815187529582019590820190600101614586565b600081518084526020808501808196508360051b8101915082860160005b858110156145ea5782840389526145d8848351613cb4565b988501989350908401906001016145c0565b5091979650505050505050565b60a08152600061460a60a083018861452e565b828103602084015261461c8188614572565b9050828103604084015261463081876145a2565b60608401959095525050608001529392505050565b60c08152600061465860c083018961452e565b828103602084015261466a8189614572565b9050828103604084015261467e81886145a2565b60608401969096525050608081019290925260a0909101529392505050565b634e487b7160e01b600052601160045260246000fd5b600082198211156146c6576146c661469d565b500190565b6000602082840312156146dd57600080fd5b81516001600160401b038111156146f357600080fd5b8201601f8101841361470457600080fd5b8051614712613b8e82613b48565b81815285602083850101111561472757600080fd5b611b41826020830160208601613c84565b634e487b7160e01b600052603260045260246000fd5b60006000198214156147625761476261469d565b5060010190565b6020808252602f908201527f4552524f523a204d656d62657220747269656420746f2063616c6c20616e207560408201526e1b9d985b1a59081c1c9bdc1bdcd85b608a1b606082015260800190565b6000602082840312156147ca57600080fd5b81518015158114611b8357600080fd5b600082516147ec818460208701613c84565b9190910192915050565b60208082526024908201527f4552524f523a2043616c6c6572206973206e6f74206120426f617264204d656d6040820152636265722160e01b606082015260800190565b60008282101561484c5761484c61469d565b500390565b60208082526021908201527f476f7665726e6f723a20696e76616c69642070726f706f73616c206c656e67746040820152600d60fb1b606082015260800190565b60006001600160401b038083168185168083038211156148b4576148b461469d565b01949350505050565b60006101208b8352602060018060a01b038c16818501528160408501526148e68285018c61452e565b915083820360608501526148fa828b614572565b915083820360808501528189518084528284019150828160051b850101838c0160005b8381101561494b57601f19878403018552614939838351613cb4565b9486019492509085019060010161491d565b505086810360a088015261495f818c6145a2565b94505050505061497a60c08401876001600160401b03169052565b6001600160401b03851660e084015282810361010084015261499c8185613cb4565b9c9b505050505050505050505050565b6080815260006149bf608083018761452e565b82810360208401526149d18187614572565b905082810360408401526149e581866145a2565b91505082606083015295945050505050565b84815260ff841660208201528260408201526080606082015260006115b86080830184613cb4565b85815260ff8516602082015283604082015260a060608201526000614a4760a0830185613cb4565b82810360808401526111d18185613cb4565b6000816000190483118215151615614a7357614a7361469d565b500290565b600082614a9557634e487b7160e01b600052601260045260246000fd5b500490565b7f416363657373436f6e74726f6c3a206163636f756e7420000000000000000000815260008351614ad2816017850160208801613c84565b7001034b99036b4b9b9b4b733903937b6329607d1b6017918401918201528351614b03816028840160208801613c84565b01602801949350505050565b600081614b1e57614b1e61469d565b50600019019056fe416464726573733a206c6f772d6c6576656c2063616c6c20776974682076616c7565206661696c6564a264697066735822122027f930f5b744a2f49fb2ecf2ad46964e3d8046eed1109286901eabd84c9ef51564736f6c63430008090033",
  "linkReferences": {},
  "deployedLinkReferences": {}
}