{
  "_format": "hh-sol-artifact-1",
  "contractName": "SeniorSupplierProcess",
  "sourceName": "contracts/SeniorSupplierProcess.sol",
  "abi": [
    {
      "anonymous": false,
      "inputs": [
        {
          "indexed": false,
          "internalType": "string",
          "name": "newFeedback",
          "type": "string"
        }
      ],
      "name": "NewFeedback",
      "type": "event"
    },
    {
      "anonymous": false,
      "inputs": [
        {
          "indexed": true,
          "internalType": "address",
          "name": "previousOwner",
          "type": "address"
        },
        {
          "indexed": true,
          "internalType": "address",
          "name": "newOwner",
          "type": "address"
        }
      ],
      "name": "OwnershipTransferred",
      "type": "event"
    },
    {
      "inputs": [
        {
          "internalType": "string",
          "name": "_newFeedback",
          "type": "string"
        }
      ],
      "name": "newFeedback",
      "outputs": [],
      "stateMutability": "nonpayable",
      "type": "function"
    },
    {
      "inputs": [],
      "name": "owner",
      "outputs": [
        {
          "internalType": "address",
          "name": "",
          "type": "address"
        }
      ],
      "stateMutability": "view",
      "type": "function"
    },
    {
      "inputs": [],
      "name": "renounceOwnership",
      "outputs": [],
      "stateMutability": "nonpayable",
      "type": "function"
    },
    {
      "inputs": [],
      "name": "retrieve",
      "outputs": [
        {
          "internalType": "string",
          "name": "",
          "type": "string"
        }
      ],
      "stateMutability": "view",
      "type": "function"
    },
    {
      "inputs": [
        {
          "internalType": "address",
          "name": "newOwner",
          "type": "address"
        }
      ],
      "name": "transferOwnership",
      "outputs": [],
      "stateMutability": "nonpayable",
      "type": "function"
    }
  ],
  "bytecode": "0x608060405234801561001057600080fd5b5061002d61002261003260201b60201c565b61003a60201b60201c565b6100fe565b600033905090565b60008060009054906101000a900473ffffffffffffffffffffffffffffffffffffffff169050816000806101000a81548173ffffffffffffffffffffffffffffffffffffffff021916908373ffffffffffffffffffffffffffffffffffffffff1602179055508173ffffffffffffffffffffffffffffffffffffffff168173ffffffffffffffffffffffffffffffffffffffff167f8be0079c531659141344cd1fd0a4f28419497f9722a3daafe3b4186f6b6457e060405160405180910390a35050565b610add8061010d6000396000f3fe608060405234801561001057600080fd5b50600436106100575760003560e01c80632e64cec11461005c578063715018a61461007a5780638da5cb5b14610084578063ddb2354e146100a2578063f2fde38b146100be575b600080fd5b6100646100da565b6040516100719190610458565b60405180910390f35b61008261016c565b005b61008c610180565b60405161009991906104bb565b60405180910390f35b6100bc60048036038101906100b7919061061f565b6101a9565b005b6100d860048036038101906100d39190610694565b6101fb565b005b6060600180546100e9906106f0565b80601f0160208091040260200160405190810160405280929190818152602001828054610115906106f0565b80156101625780601f1061013757610100808354040283529160200191610162565b820191906000526020600020905b81548152906001019060200180831161014557829003601f168201915b5050505050905090565b61017461027e565b61017e60006102fc565b565b60008060009054906101000a900473ffffffffffffffffffffffffffffffffffffffff16905090565b6101b161027e565b80600190816101c091906108d7565b507fd936384985fbeb5485277e7930761ee4a85ee145bd3f905ca7c36f6021af5c7f816040516101f09190610458565b60405180910390a150565b61020361027e565b600073ffffffffffffffffffffffffffffffffffffffff168173ffffffffffffffffffffffffffffffffffffffff1603610272576040517f08c379a000000000000000000000000000000000000000000000000000000000815260040161026990610a1b565b60405180910390fd5b61027b816102fc565b50565b6102866103c0565b73ffffffffffffffffffffffffffffffffffffffff166102a4610180565b73ffffffffffffffffffffffffffffffffffffffff16146102fa576040517f08c379a00000000000000000000000000000000000000000000000000000000081526004016102f190610a87565b60405180910390fd5b565b60008060009054906101000a900473ffffffffffffffffffffffffffffffffffffffff169050816000806101000a81548173ffffffffffffffffffffffffffffffffffffffff021916908373ffffffffffffffffffffffffffffffffffffffff1602179055508173ffffffffffffffffffffffffffffffffffffffff168173ffffffffffffffffffffffffffffffffffffffff167f8be0079c531659141344cd1fd0a4f28419497f9722a3daafe3b4186f6b6457e060405160405180910390a35050565b600033905090565b600081519050919050565b600082825260208201905092915050565b60005b838110156104025780820151818401526020810190506103e7565b60008484015250505050565b6000601f19601f8301169050919050565b600061042a826103c8565b61043481856103d3565b93506104448185602086016103e4565b61044d8161040e565b840191505092915050565b60006020820190508181036000830152610472818461041f565b905092915050565b600073ffffffffffffffffffffffffffffffffffffffff82169050919050565b60006104a58261047a565b9050919050565b6104b58161049a565b82525050565b60006020820190506104d060008301846104ac565b92915050565b6000604051905090565b600080fd5b600080fd5b600080fd5b600080fd5b7f4e487b7100000000000000000000000000000000000000000000000000000000600052604160045260246000fd5b61052c8261040e565b810181811067ffffffffffffffff8211171561054b5761054a6104f4565b5b80604052505050565b600061055e6104d6565b905061056a8282610523565b919050565b600067ffffffffffffffff82111561058a576105896104f4565b5b6105938261040e565b9050602081019050919050565b82818337600083830152505050565b60006105c26105bd8461056f565b610554565b9050828152602081018484840111156105de576105dd6104ef565b5b6105e98482856105a0565b509392505050565b600082601f830112610606576106056104ea565b5b81356106168482602086016105af565b91505092915050565b600060208284031215610635576106346104e0565b5b600082013567ffffffffffffffff811115610653576106526104e5565b5b61065f848285016105f1565b91505092915050565b6106718161049a565b811461067c57600080fd5b50565b60008135905061068e81610668565b92915050565b6000602082840312156106aa576106a96104e0565b5b60006106b88482850161067f565b91505092915050565b7f4e487b7100000000000000000000000000000000000000000000000000000000600052602260045260246000fd5b6000600282049050600182168061070857607f821691505b60208210810361071b5761071a6106c1565b5b50919050565b60008190508160005260206000209050919050565b60006020601f8301049050919050565b600082821b905092915050565b6000600883026107837fffffffffffffffffffffffffffffffffffffffffffffffffffffffffffffffff82610746565b61078d8683610746565b95508019841693508086168417925050509392505050565b6000819050919050565b6000819050919050565b60006107d46107cf6107ca846107a5565b6107af565b6107a5565b9050919050565b6000819050919050565b6107ee836107b9565b6108026107fa826107db565b848454610753565b825550505050565b600090565b61081761080a565b6108228184846107e5565b505050565b5b818110156108465761083b60008261080f565b600181019050610828565b5050565b601f82111561088b5761085c81610721565b61086584610736565b81016020851015610874578190505b61088861088085610736565b830182610827565b50505b505050565b600082821c905092915050565b60006108ae60001984600802610890565b1980831691505092915050565b60006108c7838361089d565b9150826002028217905092915050565b6108e0826103c8565b67ffffffffffffffff8111156108f9576108f86104f4565b5b61090382546106f0565b61090e82828561084a565b600060209050601f831160018114610941576000841561092f578287015190505b61093985826108bb565b8655506109a1565b601f19841661094f86610721565b60005b8281101561097757848901518255600182019150602085019450602081019050610952565b868310156109945784890151610990601f89168261089d565b8355505b6001600288020188555050505b505050505050565b7f4f776e61626c653a206e6577206f776e657220697320746865207a65726f206160008201527f6464726573730000000000000000000000000000000000000000000000000000602082015250565b6000610a056026836103d3565b9150610a10826109a9565b604082019050919050565b60006020820190508181036000830152610a34816109f8565b9050919050565b7f4f776e61626c653a2063616c6c6572206973206e6f7420746865206f776e6572600082015250565b6000610a716020836103d3565b9150610a7c82610a3b565b602082019050919050565b60006020820190508181036000830152610aa081610a64565b905091905056fea26469706673582212206665b7a96a5c48d665fed1a426949233dde6cc6f0f8aaab754fa649c54731a9864736f6c63430008110033",
  "linkReferences": {},
  "deployedLinkReferences": {}
}