{
  "_format": "hh-sol-artifact-1",
  "contractName": "SeniorSupplierProcess",
  "sourceName": "contracts/SeniorSupplierProcess.sol",
  "abi": [
    {
      "anonymous": false,
      "inputs": [
        {
          "indexed": false,
          "internalType": "string",
          "name": "newFeedback",
          "type": "string"
        }
      ],
      "name": "NewFeedback",
      "type": "event"
    },
    {
      "anonymous": false,
      "inputs": [
        {
          "indexed": true,
          "internalType": "address",
          "name": "previousOwner",
          "type": "address"
        },
        {
          "indexed": true,
          "internalType": "address",
          "name": "newOwner",
          "type": "address"
        }
      ],
      "name": "OwnershipTransferred",
      "type": "event"
    },
    {
      "inputs": [
        {
          "internalType": "string",
          "name": "_newFeedback",
          "type": "string"
        }
      ],
      "name": "newFeedback",
      "outputs": [],
      "stateMutability": "nonpayable",
      "type": "function"
    },
    {
      "inputs": [],
      "name": "owner",
      "outputs": [
        {
          "internalType": "address",
          "name": "",
          "type": "address"
        }
      ],
      "stateMutability": "view",
      "type": "function"
    },
    {
      "inputs": [],
      "name": "renounceOwnership",
      "outputs": [],
      "stateMutability": "nonpayable",
      "type": "function"
    },
    {
      "inputs": [],
      "name": "retrieve",
      "outputs": [
        {
          "internalType": "string",
          "name": "",
          "type": "string"
        }
      ],
      "stateMutability": "view",
      "type": "function"
    },
    {
      "inputs": [
        {
          "internalType": "address",
          "name": "newOwner",
          "type": "address"
        }
      ],
      "name": "transferOwnership",
      "outputs": [],
      "stateMutability": "nonpayable",
      "type": "function"
    }
  ],
  "bytecode": "0x608060405234801561001057600080fd5b5061001a3361001f565b61006f565b600080546001600160a01b038381166001600160a01b0319831681178455604051919092169283917f8be0079c531659141344cd1fd0a4f28419497f9722a3daafe3b4186f6b6457e09190a35050565b61053f8061007e6000396000f3fe608060405234801561001057600080fd5b50600436106100575760003560e01c80632e64cec11461005c578063715018a61461007a5780638da5cb5b14610084578063ddb2354e1461009f578063f2fde38b146100b2575b600080fd5b6100646100c5565b6040516100719190610382565b60405180910390f35b610082610157565b005b6000546040516001600160a01b039091168152602001610071565b6100826100ad3660046103ed565b61016b565b6100826100c036600461049e565b6101c1565b6060600180546100d4906104ce565b80601f0160208091040260200160405190810160405280929190818152602001828054610100906104ce565b801561014d5780601f106101225761010080835404028352916020019161014d565b820191906000526020600020905b81548152906001019060200180831161013057829003601f168201915b5050505050905090565b61015f61023f565b6101696000610299565b565b61017361023f565b80516101869060019060208401906102e9565b507fd936384985fbeb5485277e7930761ee4a85ee145bd3f905ca7c36f6021af5c7f816040516101b69190610382565b60405180910390a150565b6101c961023f565b6001600160a01b0381166102335760405162461bcd60e51b815260206004820152602660248201527f4f776e61626c653a206e6577206f776e657220697320746865207a65726f206160448201526564647265737360d01b60648201526084015b60405180910390fd5b61023c81610299565b50565b6000546001600160a01b031633146101695760405162461bcd60e51b815260206004820181905260248201527f4f776e61626c653a2063616c6c6572206973206e6f7420746865206f776e6572604482015260640161022a565b600080546001600160a01b038381166001600160a01b0319831681178455604051919092169283917f8be0079c531659141344cd1fd0a4f28419497f9722a3daafe3b4186f6b6457e09190a35050565b8280546102f5906104ce565b90600052602060002090601f016020900481019282610317576000855561035d565b82601f1061033057805160ff191683800117855561035d565b8280016001018555821561035d579182015b8281111561035d578251825591602001919060010190610342565b5061036992915061036d565b5090565b5b80821115610369576000815560010161036e565b600060208083528351808285015260005b818110156103af57858101830151858201604001528201610393565b818111156103c1576000604083870101525b50601f01601f1916929092016040019392505050565b634e487b7160e01b600052604160045260246000fd5b6000602082840312156103ff57600080fd5b813567ffffffffffffffff8082111561041757600080fd5b818401915084601f83011261042b57600080fd5b81358181111561043d5761043d6103d7565b604051601f8201601f19908116603f01168101908382118183101715610465576104656103d7565b8160405282815287602084870101111561047e57600080fd5b826020860160208301376000928101602001929092525095945050505050565b6000602082840312156104b057600080fd5b81356001600160a01b03811681146104c757600080fd5b9392505050565b600181811c908216806104e257607f821691505b6020821081141561050357634e487b7160e01b600052602260045260246000fd5b5091905056fea2646970667358221220f59f8f7169029e1c178f15c4e68b7f09d97474d54f78a58a690f4b718c0364fa64736f6c63430008090033",
  "linkReferences": {},
  "deployedLinkReferences": {}
}